:100000002C030020713B00003D3700003D3700000D
:1000100000000000000000000000000000000000E0
:100020000000000000000000000000006737000032
:100030000000000000000000673700001B370000D0
:1000400089370000AD370000D1370000F5370000D8
:1000500019380000000000003F3800005F38000041
:1000600081380000A5380000C9380000ED380000D4
:10007000113900003339000053390000773900008E
:1000800097390000B9390000DD390000033A00005B
:10009000253A0000493A00006D3A0000913A00000C
:1000A000B53A0000D93A000000000000000000004E
:1000B0000000000000000000000000000000000040
:1000C000E8000000FFFF1E2D2D2D204D6563726995
:1000D00073702D5374656C6C6172697320436F7219
:1000E00065202D2D2D00C046000100004200043285
:1000F000647570003868043F3E60043F38607047A4
:10010000140100006200053264726F70043740CF42
:100110007047C046340100004400053273776170B7
:1001200007CF043F3860043F3E60043F3A600E0052
:100130007047C04648010000620004326E697000DA
:1001400007CF043F38607047640100004400053267
:100150006F766572B868043F3E60043F3860FE68A1
:100160007047C04688010000440005327475636B17
:1001700007CF043F3860043F3E60043F3A60043FCD
:100180003960043F38607047AC010000460004321B
:10019000726F74003868B9683A69B86039613A605A
:1001A00079687E60FE68F9607047C046D001000043
:1001B000460005322D726F743868B9683A69386143
:1001C0003960BA60F968FE607E6879607047C04641
:1001D000E4010000200003323E7201CF01B440B4BC
:1001E00040CF7047FC01000020000332723E043F04
:1001F0003E6040BC01BC043F386070471402000000
:10020000200003327240043F3E60019E043F3E6086
:10021000009E704728020000200006327264726F50
:10022000700002B07047C046400200004200036404
:10023000322F3868F107761040080843386070475D
:100240005402000062000364322A386800187641C4
:1002500038607047700200004200046473687200E6
:100260003868F10776084008084338607047C04690
:10027000880200006200046473686C00386800182B
:10028000764138607047C0469C020000420004641A
:1002900061627300002E16D47047C046B802000099
:1002A0004300083F646E656761746500300040CFAD
:1002B000002808D47047C046D802000042000764F6
:1002C0006E656761746538680021C043F64301308C
:1002D0004E4138607047C046F0020000640002647E
:1002E0002D0007CF121AB1410E00043F3A6070474B
:1002F00008030000640002642B0007CF12184E416F
:10030000043F3A607047C0461C030000610003735D
:100310003E64043F3E60F6177047C0464803000045
:10032000420003756D2A3868030073433B60010C7B
:10033000320C0B005343B6B280B24E4350433618D2
:10034000360CF6187047C046780300004200026D74
:100350002A003868C11705D040423860F01704D031
:100360007642E0E7F017DED0764200B5FFF7DBFF1C
:10037000FFF7A9FF00BDC046B803000044000375A5
:10038000642A07CF564341437618010C130C594396
:100390007618010C80B292B251434343504300227D
:1003A000C91852411204B6180A04090C80184E41AB
:1003B000043F38607047C0464C0400004400047598
:1003C000646D2A0010B50024043F3E607E68043F3F
:1003D0003E603E69FFF7A7FF310040CF300040CFBD
:1003E000043F3E603E68043F3E60FE6803B4FFF792
:1003F0009AFF03BC330040CF320040CF043F3E6041
:100400003E68043F3E603E690FB4FFF78CFF0FBCAF
:100410009219634140CF89196241634140CF043F43
:100420003E607E68043F3E60FE680FB4FFF77BFFCE
:100430000FBC9219634140CF89196241634140CF9B
:100440001E003A607960B86010BDC04670040000BC
:100450004300022A2F0000B540B440CFFFF779FFD8
:10046000043F3E6040BC00F065F8043700BDC04664
:10047000940400004300052A2F6D6F6400B540B45A
:1004800040CFFFF766FF043F3E6040BC00F052F8EB
:1004900000BDC046B8040000430003752A2F00B514
:1004A00040B440CFFFF73FFF043F3E6040BC00F048
:1004B0001CF8043700BDC046DC040000430006758C
:1004C0002A2F6D6F640000B540B440CFFFF72BFFBB
:1004D000043F3E6040BC00F008F800BD2805000065
:1004E000430006756D2F6D6F640010B4786839682D
:1004F0000022002420236400001849415241964202
:1005000001D8921B0134013BF5D120236400491826
:100510005241964201D8921B0134013BF6D1043777
:100520003A60260010BC70479C0500004300056D32
:100530002F6D6F6400B5F01718D0764200F024FAE2
:10054000F0170DD0FFF7BFFE00F011FAFFF7CDFF57
:1005500039683E600E46764239683E600E4600BD00
:1005600000F005FAFFF7C1FF764200BD00F00CFA7B
:10057000F0170ED0FFF7A7FE00F0F9F9FFF7B5FF6F
:10058000764239683E600E46764239683E600E46D5
:1005900000BD00F0ECF9FFF7A8FF00BDF805000072
:1005A00044000675642F6D6F640030B43C68B86811
:1005B00079680022002520236D000018494152412E
:1005C000944201D8121B0135013BF5D120B400251E
:1005D00020206D00491852415B419E4204D894424C
:1005E00002D8121BB34101350138F2D13D60BA6027
:1005F0007B6040BC30BC704770060000440005645E
:100600002F6D6F6400B5F01719D0FFF75CFEFFF790
:1006100087FDF0170CD0FFF756FEFFF781FDFFF7BF
:10062000C4FFFFF77DFDFFF74EFEFFF779FD00BD2C
:10063000FFF776FDFFF7B9FFFFF745FE00BDFFF7B7
:100640006FFDF0170ED0FFF73EFEFFF769FDFFF7D5
:10065000ACFFFFF738FEFFF763FDFFF734FEFFF74F
:100660005FFD00BDFFF75CFDFFF79FFF00BDC046CB
:1006700088060000440002642F0000B5FFF7C2FFA7
:10068000FFF75EFD00BDC046200700004400026683
:100690002A0000B5F0170DD0FFF715FEFFF740FD5B
:1006A000F0170DD0FFF70FFEFFF78CFE40CF01CF04
:1006B000386000BDFFF734FDF017F5D0FFF703FEFB
:1006C000FFF780FE40CF01CF3860FFF7FCFD00BD93
:1006D00030B43C68B9687A680023002520206D009A
:1006E000491852415B419E4204D8944202D8121BE1
:1006F000B34101350138F2D1290020206D00921854
:100700005B419E4204D8944202D8121BB34101358A
:100710000138F3D13D60BA607B600E0030BC704799
:100720006C070000440002662F0000B5F0170ED0E1
:10073000FFF7C9FDFFF7F4FCF0170ED0FFF7C3FD7C
:10074000FFF7EEFCFFF7C4FFFFF7FAFC00BDFFF771
:10075000E7FCF017F4D0FFF7B6FDFFF7E1FCFFF779
:10076000B7FFFFF7B0FDFFF7EBFC00BD800700000F
:1007700020000232210006CF3160726040CF704706
:1007800094070000200002324000043F7068386087
:1007900036687047B407000044000364753C07CF17
:1007A0008E4204D801D1904201D80026704700261D
:1007B000F6437047D407000044000364753E07CF3A
:1007C000B14204D801D1824201D8002670470026E8
:1007D000F6437047F4070000440002643C0007CF72
:1007E0008E4204DC01D1904201DC002670470026D5
:1007F000F643704714080000440002643E0007CF2F
:10080000B14204DC01D1824201DC0026704700269F
:10081000F64370472408000062000364303C04374C
:10082000F61770474008000042000364303D01CFD6
:10083000002801D000267047013EB6417047C046EF
:100840005C080000440003643C3E07CF904201D1A5
:10085000761A01D00026F6437047C046780800009B
:10086000440002643D0007CF904201D0002670474B
:10087000761A013EB64170478C08000020000373D1
:100880007040043F3E603E007047C0469C08000038
:10089000200003737021370040CF7047B00800007C
:1008A000200003727040043F3E606E467047C046B1
:1008B000C0080000200003727021B54640CF704789
:1008C000DC0800000000056465707468F549C91B08
:1008D0008908043F3E600E007047C046EC080000E7
:1008E000610003647570043F3E607047FC080000BF
:1008F00061000464726F700040CF704714090000FB
:100900006100043F64757000002E01D0043F3E601A
:100910007047C046280900006200047377617000C8
:1009200039683E600E007047380900006200036EAF
:10093000697004377047C0464C0900006200046FBC
:1009400076657200043F3E607E687047640900006F
:100950006200047475636B0001CF083F7E603860ED
:100960007047C0467C090000630003726F7403CFB8
:10097000083F78603E600E007047C0469409000052
:100980006300042D726F740003CF083F7E603960EE
:1009900006007047A80900002000047069636B001E
:1009A000B0003E587047C046B80900002000023E23
:1009B000720040B440CF7047CC09000020000272A2
:1009C0003E00043F3E6040BC7047C046E009000066
:1009D000200002724000043F3E60009E7047C04607
:1009E000F00900002000057264726F7001B070475A
:1009F000080A00006000047472756500043F3E60E0
:100A00000026F6437047C0461C0A000060000566D9
:100A1000616C7365043F3E6000267047300A000039
:100A20006A0003616E6401CF064070470640C0460D
:100A3000440A00006A000362696301CFB043060004
:100A400070478643580A00006A00026F720001CFA7
:100A5000064370470643C0466C0A00006A000378EC
:100A60006F7201CF464070474640C0467C0A000086
:100A70006100036E6F74F6437047C0469C0A000025
:100A8000410003636C7A300006D00026400002D09B
:100A900001D20136FAE7704720267047AC0A000001
:100AA00061000373687276087047C046BC0A000094
:100AB00061000373686C76007047C046CC0A000082
:100AC000610003726F720120C6417047E00A0000A6
:100AD000610003726F6C0020B61946417047C04632
:100AE000FC0A00006C00067273686966740001CF2E
:100AF000F0400600704736080026C046180B00007C
:100B00006C00076172736869667401CF304106003A
:100B100070473610F617C046340B00006C00066CA8
:100B200073686966740001CFB040060070473600F4
:100B30000026C046440B0000610002303D00013E2B
:100B4000B6417047580B0000610003303C3E013E47
:100B5000B641F6437047C046680B000061000230A2
:100B60003C00F6177047C046840B00004200023E6E
:100B70003D0001CFB04201DA002670470026F6435F
:100B80007047C046A00B00004200023C3D0001CF70
:100B9000B04201DD002670470026F6437047C0468C
:100BA000B80B00004200013C01CFB04202DA00263F
:100BB000F643704700267047D00B00004200013E0C
:100BC00001CFB04202DD0026F64370470026704791
:100BD000E40B0000620003753E3D01CF861BB64169
:100BE000F6437047F80B0000620003753C3D01CFEF
:100BF000361AB641F64370470C0C000062000275CD
:100C00003C0001CF861BB6417047C046200C000057
:100C1000620002753E0001CF361AB6417047C046E9
:100C2000380C00006B00023C3E0001CF361A01D0A8
:100C30000026F6437047C0464C0C00006B00013D97
:100C400001CF361A013EB6417047C046600C000025
:100C50006200036D696E01CFB04200DA0600704792
:100C6000740C00006200036D617801CFB04200DBBC
:100C7000060070478C0C0000620004756D617800FE
:100C800001CFB04200D306007047C046A80C000058
:100C9000620004756D696E0001CFB04200D8060095
:100CA000704700002C020020E80C00000000046DDA
:100CB0006F76650007B5310040CF320040CF002984
:100CC0000FD0B2420DD006D3013E013A705C5054B1
:100CD0000139FBD105E0307810700136013201395D
:100CE000F9D140CF07BDC0460C0D000000000466DE
:100CF000696C6C00300040CF310040CF002902D039
:100D000001397054FCD140CF7047C046180D000027
:100D10002000014036687047300D00006D00012151
:100D200003CF30600E007047066070470160704767
:100D3000580D00006D00022B210003CF32681218FD
:100D400032600E00704702689219026070470268B4
:100D5000521802607047C046680D0000200002680B
:100D6000400036887047C046840D00006D00026860
:100D7000210003CF30800E0070470680704701804D
:100D80007047C046AC0D00006D0003682B2103CFF7
:100D90003288121832800E00704702889219028041
:100DA00070470288521802807047C046BC0D000090
:100DB00020000263400036787047C046D80D00001E
:100DC0006D000263210003CF30700E007047067083
:100DD000704701707047C046000E00006D0003634D
:100DE0002B2103CF3278121832700E007047027830
:100DF0009219027070470278521802707047C0460C
:100E0000280E00006D0004626973210003CF326870
:100E1000024332600E00704702683243026070473E
:100E200002680A4302607047500E00006D000462C1
:100E30006963210003CF3268824332600E0070473D
:100E40000268B2430260704702688A4302607047DA
:100E5000780E00006D0004786F72210003CF3268B5
:100E6000424032600E007047026872400260704774
:100E700002684A4002607047940E0000200004623D
:100E80006974400001CF3668064001D00026F64361
:100E90007047C046BC0E00006D0005686269732192
:100EA00003CF3288024332800E00704702883243FB
:100EB0000280704702880A4302807047E40E0000F7
:100EC0006D0005686269632103CF328882433280F6
:100ED0000E0070470288B2430280704702888A433E
:100EE000028070470C0F00006D000568786F72215A
:100EF00003CF3288424032800E0070470288724031
:100F00000280704702884A4002807047280F000024
:100F1000200005686269744001CF3688064001D020
:100F20000026F6437047C046500F00006D00056371
:100F30006269732103CF3278024332700E0070472A
:100F4000027832430270704702780A430270704799
:100F5000780F00006D0005636269632103CF32786A
:100F6000824332700E0070470278B24302707047BD
:100F700002788A4302707047A00F00006D0005637D
:100F8000786F722103CF3278424032700E00704782
:100F9000027872400270704702784A4002707047CF
:100FA000BC0F0000200005636269744001CF3678F1
:100FB000064001D00026F6437047C046CC0F000023
:100FC00061000563656C6C2B04367047DC0F000014
:100FD00061000563656C6C73B600704778100000A3
:100FE00000000768666C61736821300040CF3100F3
:100FF00040CF574B984224D3564B984221D2564B60
:10100000194099421CD001220240002A19D10288BD
:101010009A4216D1514A012313600223034004D09F
:10102000584003880904194301E04D4B19430160FE
:101030004C4A136801201840FBD0484A0023136033
:10104000704700F06DFC2A57726F6E672061646410
:1010500072657373206F72206461746120666F72B1
:101060002077726974696E6720666C6173682021ED
:101070000A0002F0C9FAC046B810000000000E666F
:101080006C617368706167656572617365000FB547
:10109000300040CF2E4B98420CD3304A02231360CD
:1010A000314A10602F4A136801201840FBD02B4AA8
:1010B000002313600FBDC0463411000000000A6514
:1010C00072617365666C61736800214872B621496C
:1010D000214A038893421CD0043F3E600600043F2F
:1010E0003E6000F01DFC10457261736520626C6FFC
:1010F000636B20617420200000F08AFC00F010FC7B
:101100000C2066726F6D20466C6173680A00FFF7F1
:10111000BEFF02308842DCD100F002FC1246696E4C
:1011200069736865642E20526573657420210A0016
:1011300002F020FD6C11000000000E657261736505
:10114000666C61736866726F6D00300040CFBDE7FA
:101150000040000000000400FFFF000004E5014023
:101160000000FFFF00E4014008E50140801100009D
:101170006900012B01CF3618704736180036C0467B
:10118000941100006900012D01CF861B7047361AAB
:10119000003EC046A4110000610002312D00013E56
:1011A0007047C046B4110000610002312B000136C7
:1011B0007047C046C4110000610002322D00023E9B
:1011C0007047C046D4110000610002322B00023685
:1011D0007047C046E81100006100066E65676174E3
:1011E000650076427047C046FC1100006100036153
:1011F0006273002E00D576427047C046441200004C
:10120000420005752F6D6F64310040CF002903D176
:10121000043F3E6000267047012200238E4206D91B
:10122000003104D45200490001D48E42FAD88E42D3
:1012300001D3761A134349085208F8D1043F3E609F
:101240001E007047B41200004200042F6D6F64004E
:1012500000B5300040CF002E1CDA764200280CDAB0
:101260004042043F3E600600FFF7CEFF300040CF13
:101270007642043F3E60060000BD043F3E6006002B
:10128000FFF7C2FF300040CF40427642043F3E604D
:10129000060000BD002807DA4042043F3E60060019
:1012A000FFF7B2FF764200BD043F3E600600FFF745
:1012B000ABFF00BDC81200004200036D6F6400B5B3
:1012C000FFF7C6FF40CF00BDDC1200004200012F37
:1012D00000B5FFF7BDFF043700BDC046EC120000AB
:1012E0006A00012A01CF464370474643FC120000C2
:1012F000610002322A0076007047C0460C130000DD
:10130000610002322F0076107047C04620130000A3
:101310006100046576656E00012030403618704724
:10132000381300008100046261736500043F3E6071
:10133000124E70470A0000005013000000000662C1
:10134000696E617279000D48022101607047C046E4
:1013500068130000000007646563696D616C0748ED
:101360000A2101607047C046441400000000036871
:10137000657802481021016070470000FC3F0020A2
:10138000A148A2490160A248A24901607047A24851
:101390000068A249084001281DD1A1480068A14960
:1013A000084018D1A0480068A049084013D1A048BF
:1013B00000689E49084000D1E2E79D4800689B49CB
:1013C0000840102800D1DBE7994800689749084099
:1013D000302800D1D4E7704700B5FFF7D8FF954813
:1013E000026803210A430260934900200860934980
:1013F0000120086090490B6801201840FBD09049FB
:101400009048086090490120086090490C200860CD
:101410008F49112008608F49102008608E498F483D
:1014200008608F49042008608E49012008608E49B9
:10143000012008608D49002008608D491420086053
:1014400000BDC04660140000810009686F6F6B2DFD
:10145000656D6974043F3E60864E704762150000FA
:101460007C140000810008686F6F6B2D6B6579003C
:10147000043F3E60804E70478E1500009C140000B3
:1014800081000A686F6F6B2D656D69743F00043FC2
:101490003E607A4E7047C0150000C046B814000088
:1014A000810009686F6F6B2D6B65793F043F3E606B
:1014B000734E7047EE150000D814000081000A68D2
:1014C0006F6F6B2D706175736500043F3E606D4EEC
:1014D0007047B6360000C046F014000000000465F6
:1014E0006D6974000FB5634800F02FF80FBDC0465A
:1014F000041500000000036B65790FB55E4800F02D
:1015000024F80FBD1C150000000005656D69743FCF
:1015100000B55A4800F019F800BDC0463415000067
:101520000000046B65793F0000B5554800F00DF8E8
:1015300000BDC04650150000000005706175736560
:1015400000B5504800F001F800BD00688746C0466D
:101550007C15000000000B73657269616C2D656D70
:10156000697400B500F02CF8002E40CFFAD0464A3E
:10157000002010603E4A167040CF00BDAC15000040
:1015800000000A73657269616C2D6B65790000B5A6
:1015900000F02DF8002E40CFFAD0344A0020106021
:1015A000043F3E60394A167800BDC046DC15000095
:1015B00000000C73657269616C2D656D69743F0084
:1015C00000B5FFF7BDFF043F3E6000262E4A1168BC
:1015D0000120014000D0F64300BDC0469016000037
:1015E00000000B73657269616C2D6B65793F00B506
:1015F000FFF7A6FF043F3E6000261C4A1168012049
:10160000014000D0F64300BD04050040DFFF07C0E5
:10161000186C004000800000E00F00F0FF000000A8
:10162000E40F00F00F000000EC0F00F0F0000000ED
:10163000E80F00F0240500400001004000000040D9
:101640000805005000000200440700504007005009
:101650000C250040142500402425004000E0D7015F
:1016600000250040082000400020004008210040E4
:101670001C250040F83F0020F43F0020F03F0020F0
:10168000EC3F0020E83F00201C21004018250040CE
:10169000B41600000000076365787065637400B5D8
:1016A000386801B40130386000F00BF801BC0670F6
:1016B00040CF00BD2817000000000661636365701D
:1016C000740000B502CF01390022FFF716FF300089
:1016D00040CF202819D2092816D00A281FD00D285B
:1016E0001DD00828F1D1002AEFD000F019F9030825
:1016F0002008002AE9D0885C013A80230340E4D026
:1017000040230340F5D0E0E72020B242DDD2043F81
:101710003E600600FFF7E6FE01328854D5E716006A
:1017200000F0A8F800BDC0463C170000400003745C
:101730006962043F3E602B4E7047C046541700005C
:101740008100033E696E043F3E60274E70470000F3
:101750000000C0467C17000082000E63757272653F
:101760006E742D736F7572636500043F3E601F4E8B
:1017700070470000000064000020C0469817000079
:10178000000009736574736F75726365174802CF43
:101790000660416040CF7047B81700000000067334
:1017A0006F7572636500043F3E60104E043F7068C1
:1017B000386036687047C046F017000000000571B9
:1017C000756572790FB5084800210160FFF7B1FF18
:1017D000043F3E60043F3E60C826FFF772FFFFF7FC
:1017E000D5FF0FBD64000020E43F0020DC3F002057
:1017F00040180000000007636F6D706172650FB5DF
:10180000310040CF01CF884202D040CF00260FBD2B
:1018100002CF002810D001380A5C335C412A02D381
:101820005B2A00D22032412B02D35B2B00D2203323
:101830009A42EED000260FBD0026F6430FBDC046EB
:101840005418000000000263720000B500F068F850
:10185000010A00BD68180000000002626C00043F2D
:101860003E6020267047C0467C18000000000573CB
:1018700070616365043F3E60202633E6A4180000D3
:101880000000067370616365730000B5002E06DD0D
:10189000043F3E602026FFF725FE013EF8D140CFF1
:1018A00000BDC046B41800005000065B636861725A
:1018B0005D0005E0CC180000000004636861720060
:1018C00000B501F047FB40CF367800BDDC180000C2
:1018D00050000128043F3E60292606E0F818000069
:1018E0005000015C043F3E60002600B501F03CFB67
:1018F000043740CF00BDC046401900001000022E42
:101900002200A14800B5043F3E60060000F0E2F965
:10191000043F3E60222601F027FB00F036FD00BDAB
:101920000AB4043F3E607646013E3378012101331C
:1019300019405B187146C9188E460ABC3CE0C04687
:10194000681900001000026322009048DAE7043FA3
:101950003E607646013E33780121013319405B1821
:101960007146C9188E467047941900001000027322
:1019700022008748C6E7043F3E607646043F3E604B
:10198000013E36780121731C19405B187146C91855
:101990008E467047AC190000000005636F756E74C9
:1019A0000136043F3E60013E36787047D41900008E
:1019B000000005637479706501B53078002807D0A0
:1019C0000136043F3E603678FFF78CFD0138F7D1D1
:1019D00040CF01BD041A0000000004747970650056
:1019E000310040CF300040CF00B5002908D00022A0
:1019F000043F3E60865CFFF775FD01329142F7D1EE
:101A000000BDC046401A00000000046865782E0042
:101A100007B5310040CF20200F220438043F3E603C
:101A20000E00C6401640092E01D9373600E0303688
:101A3000FFF758FD0028F0D1FFF71CFF07BDC04697
:101A4000501A0000000003682E731FB5514C0EE0C1
:101A5000601A0000000003752E731FB54E4C06E09F
:101A6000E01A00000000022E73001FB54B4C4C49D9
:101A7000C91B89084B4A106803B40A201060FFF79D
:101A80004FFF08537461636B3A205B00043F3E6074
:101A90000E0001F03DFCFFF743FF025D200003BC98
:101AA000404A106000290AD03F4A106806B4043F3B
:101AB0003E600600A04706BC043A0139F5D1FFF7A5
:101AC0002FFF0620544F533A2000043F3E6036005B
:101AD000A047FFF725FF04202A3E0A001FBDC0468D
:101AE000AC1B0000000005776F72647300B5FFF750
:101AF00017FF06776F7264730A0000F07EFEFFF72F
:101B00000FFF09416464726573733A20043F3E60BD
:101B1000FFF77EFFFFF704FF064C696E6B3A20006B
:101B2000043F3E603668FFF773FFFFF7F9FE074694
:101B30006C6167733A20043F3E60B688FFF768FF28
:101B4000FFF7EEFE06436F64653A2000B01D00F01B
:101B50008FFE043F3E600600FFF75AFFFFF7E0FEEE
:101B6000064E616D653A2000043F3E600636FFF781
:101B700023FFFFF7D5FE010A00F057FE300040CFEB
:101B8000BDD040CF00BD0000201900004E1900005C
:101B900076190000111A0000FF3200001133000016
:101BA0002C020020FC3F002028020020C81C00005E
:101BB00000001072656769737465726C6974657290
:101BC000616C2C003FB5350040CF2900C900294386
:101BD0002D029F480543FF2300223000D040984348
:101BE00001D00132F9E73000D04018402843043FCB
:101BF0003E60060000F091FB9648054318009040B7
:101C0000864310D000243000E040984301D00134D6
:101C1000F9E7101B043F3E600E008001064300F010
:101C20007CFB2200DFE7002A06D0043F3E600E0066
:101C30009201164300F071FB40CF3FBD1FB531004C
:101C400040CF854C0C43C9000C434901300040CFC4
:101C5000020EFF231A407E4B0B431343043F3E60AA
:101C60001E0000F05AFB043F3E60260000F055FBCA
:101C7000020CFF231A40794B0B431343043F3E6091
:101C80001E0000F04AFB043F3E60260000F045FBCA
:101C9000020AFF231A40714B0B431343043F3E607B
:101CA0001E0000F03AFB043F3E60260000F035FBCA
:101CB0000200FF231A40694B0B431343043F3E606D
:101CC0001E0000F02AFB1FBD381D00000000056348
:101CD000616C6C2C0FB5330000F06EFE300040CF0D
:101CE0001B1A043B5E49194000290ED05D4A9142FF
:101CF0000BD00136043F3E600026FFF763FF043F30
:101D00003E60594E00F009FB0FBD40CF5B085748BD
:101D1000574919400843DB0A56491940090408434A
:101D20009B0A0121194089060843043F3E600600D2
:101D300000F01BFB0FBDC0468C1D00000000086CAE
:101D400069746572616C2C0008B5043F3E604A4EB0
:101D500000F0E3FA043F3E60484E00F0DEFA484BE4
:101D60003000184098420BD1F643043F3E600626EF
:101D7000FFF728FF043F3E60424E00F0CEFA08BD58
:101D8000043F3E600626FFF71DFF08BDB41D00009E
:101D90000000066372656174650000B500F03FF8ED
:101DA0001D200002D3308047043F3E607646013E4E
:101DB00000BDC046101E0000200005646F65733E24
:101DC0001D200002D3308047043F3E607646013E2E
:101DD0007047043F3E607646013E00F0D4F82A4A40
:101DE0001368310040CF0220084000D10231023197
:101DF00011600136043F3E600026FFF71FFF043FDD
:101E00003E60194E00F089FA136000F004FA00BD3C
:101E1000901E00000000073C6275696C647300B599
:101E200000F07EFB00F0C8FD0220064040CF04D148
:101E3000043F3E60362600F070FA043F3E60134EC9
:101E400000F06BFA043F3E60102600F0D1FA00BDAE
:101E50000020000000100000000200000030000020
:101E60000100C0FF0000C0FF8047000000F800F044
:101E7000FF070000FF030000043F00003E60000079
:101E80000000FFFFF64300000000002000B5000046
:101E90009C1E00005000035B275D03E0B41E0000A1
:101EA0000000012700B501F055F800F020FD40CFFB
:101EB00000BDC046FC1E0000100008706F737470F7
:101EC0006F6E650000B501F045F800F010FD3000C0
:101ED00040CF102101400DD12021014005D0FFF756
:101EE00033FF043F3E60C04E04E0FFF72DFF043F88
:101EF0003E60BE4EFFF7EEFE00BDC046481F00002C
:101F0000000007696E6C696E652C00B5B849B94A66
:101F1000B94B3088884208D0904208D0984206D009
:101F2000043F3E60060000F0F8F90236F1E740CFCA
:101F300000BD0EB4AF4AB04B01880230914201D0CF
:101F40009942F9D10EBC70475C1F0000000004727A
:101F500065742C00043F3E60A64EDEE16C1F00005D
:101F60003000046578697400F4E7C046A41F0000DF
:101F70003000077265637572736500B500F003F891
:101F8000FFF7A8FE00BD0FB59C4800680630017839
:101F9000013101220A4089184018043F3E600600C2
:101FA0000FBDC046BC1F00008100057374617465DD
:101FB000043F3E60924E704700000000D01F0000BA
:101FC0000000015D8E480021C94301607047C04692
:101FD000E01F00001000015B89480021016070478C
:101FE000082000000000013A00B58648076000F0B4
:101FF00097FA043F3E607E4E00F08FF98048002142
:10200000C943016000BDC046502000003000013BC4
:1020100000B57C480168B9420ED0FFF781FC15205D
:10202000537461636B206E6F742062616C616E63C8
:1020300065642E0A01F0E8FA043F3E606D4E00F040
:102040006CF900F0E8F86E480021016000BDC04660
:1020500068200000000007657865637574653000CE
:1020600040CF01308746C04680200000100009693B
:102070006D6D656469617465043F3E601026F9E02A
:1020800098200000100006696E6C696E6500043FC0
:102090003E602026EEE0C046B420000010000B6336
:1020A0006F6D70696C656F6E6C79043F3E603026B1
:1020B000E0E0C046D020000010000A302D666F6CB2
:1020C0006461626C6500043F3E604026D2E0C04619
:1020D000EC20000010000A312D666F6C6461626CA8
:1020E0006500043F3E604126C4E0C0460821000070
:1020F00010000A322D666F6C6461626C6500043FEB
:102100003E604226B6E0C0462421000010000A339B
:102110002D666F6C6461626C6500043F3E6043260F
:10212000A8E0C0464021000010000A342D666F6C04
:102130006461626C6500043F3E6044269AE0C046DC
:102140005C21000010000A352D666F6C6461626CC2
:102150006500043F3E6045268CE0C04678210000C3
:1021600010000A362D666F6C6461626C6500043F76
:102170003E6046267EE0C0469421000010000A37EB
:102180002D666F6C6461626C6500043F3E6047269B
:1021900070E0C046C4210000000008636F6E7374D5
:1021A000616E740000B500F0BBF9FFF7CDFD043F90
:1021B0003E60114E00F0B1F8FFF785FF00F02BF8FC
:1021C00000BDC0460822000000000932636F6E7334
:1021D00074616E7400B500F0A3F939683E600E4674
:1021E000FFF7B2FDE1E700000A1F0000D41C000069
:1021F00000B5000000BD0000704700000400002092
:10220000D83F002010000020642200000000067368
:102210006D756467650000B523480168224A9142E4
:102220001AD202390A88214B9A4204D1043F3E60F7
:102230001F4E00F072F800F05EF81E480068043F80
:102240003E6006001C4909680431174A1368116092
:1022500000F063F8136000BD00F04DF8043F3E60ED
:10226000002608E0BC220000000008736574666C5C
:102270006167730000B50C4801680B4A914205D2B2
:102280000C4801683143016040CF00BD320040CFAF
:102290000948006804300188044B994201D11100BB
:1022A00000E01143018000BD00000020FFFF00009E
:1022B000000000001C00002004000020CC220000D0
:1022C000000005616C69676E15E0C046E8220000F9
:1022D000410007616C69676E656401203040361803
:1022E00002203040361870471023000000000761BC
:1022F0006C69676E342C00B57F480168022001408C
:1023000004D0043F3E60002600F007F800BDC04640
:1023100044230000000002682C000FB576480168D5
:10232000754A914205D2043F3E600E00FEF75DFE05
:1023300002E0320040CF0A80043F3E60022600F0F7
:1023400057F80FBD602300000000012C00B5043FCA
:102350003E60FFF7E2FF360CFFF7DFFF00BDC0462F
:102360007C2300000000033E3C2C00B5043F3E608F
:10237000360CFFF7D2FFFFF7D0FF00BDE4230000CB
:10238000000007737472696E672C07B5FF21314036
:1023900040CF300040CF002905D1043F3E600026E9
:1023A000FFF7BBFF07BD043F3E60067836020E43D1
:1023B000FFF7B3FF0130013902290AD3043F3E6021
:1023C0004678360202781643FFF7A7FF023002393B
:1023D000F2E7002900D107BD043F3E600678FFF711
:1023E0009CFF07BD40240000000005616C6C6F7409
:1023F00041480168404A91420FD2320040CF8918CB
:102400003E4A914219D3FFF78BFA0B466C61736811
:102410002066756C6C0A01F0F7F8320040CF89181D
:10242000374A1268914208D3FFF77AFA0952616D70
:102430002066756C6C0A01F0E7F801607047C046D1
:102440006824000000000D636F6D70696C65746F27
:1024500072616D3F043F3E600026274800682649B0
:10246000884248D3F64370478824000000000C637C
:102470006F6D70696C65746F72616D001E480068E5
:102480001D49884211D370471025000000000E63DB
:102490006F6D70696C65746F666C61736800164867
:1024A00000681549884200D27047164816490268EC
:1024B0000B680A6003601048144902680B680A60E0
:1024C00003600F480068834215D300B5FFF728FA70
:1024D00023205661726961626C657320636F6C6C56
:1024E00069646520776974682064696374696F6ED4
:1024F0006172790A00BD70470000002000000400EE
:1025000020000020040000201800002014000020FB
:10251000F4250000000008286372656174652900D5
:1025200000B500F017FD002E0ED1FFF7F9F91520C8
:10253000437265617465206E65656473206E616DBC
:102540006520210A01F060F83868043F3E60043FCE
:10255000386000F09DF940CF002E40CF11D0386890
:10256000043F3E60043F3860FFF7DAF909526564C2
:102570006566696E6520FFF733FAFFF7D1F9022E21
:102580000A00FFF7B8FE00F017FA8B4800688A4986
:1025900088421CD2894800210160043F3E60062623
:1025A000FFF726FFFEF7F0F9FFF7EFFE844801681A
:1025B0000A68844B9A4207D17F4A13681160043F2E
:1025C0003E60FFF7C3FE1360066040CF00BD7C484D
:1025D000043F3E600668FFF7B9FE043F3E607A4E56
:1025E000FFF79BFE7648310040CF0160FFF7CDFE3C
:1025F00000BDC0460C2600000000087661726961CB
:10260000626C6500043F3E60012613E02426000052
:10261000000009327661726961626C65043F3E6058
:10262000022607E0FC2600000000096E7661726950
:1026300061626C6500B5FFF773FF5F4801685E4A31
:10264000914233D20F200640B20060480168891AD7
:102650005F4A91420BD2FFF763F90F4E6F7420650A
:102660006E6F7567682052414D0A00F0CDFF016022
:10267000043F3E600E00FFF767FB043F3E60554E8F
:10268000FFF74BFE300040CF0200002805D00E605F
:102690000431FFF75BFE0138F9D1043F3E6080262C
:1026A0001643FFF7E7FDFFF7B6FD00BD00F084F924
:1026B0000220064040CF04D1043F3E603626FFF79B
:1026C0002CFE043F3E60444EFFF74FFE043F3E6049
:1026D000424EFFF74AFE043F3E603E4EFFF71DFEAE
:1026E000300040CF002803D0FFF730FE0138FBD187
:1026F000FFF7E9FCFFF78FFD00BDC046E4270000AF
:102700000000076275666665723A00B5FFF708FF5C
:102710000120304036180220304036182648016823
:10272000254A914226D229480168891B284A9142AC
:102730000BD2FFF7F5F80F4E6F7420656E6F75675B
:10274000682052414D0A00F05FFF0160043F3E6087
:102750000E00FFF7F9FA043F3E601E4EFFF7DDFD65
:10276000FFF7F4FD043F3E601D4EFFF783FDFFF7CA
:1027700052FD00BD00F020F90220064040CF04D1F8
:10278000043F3E603626FFF7C8FD043F3E60124E10
:10279000FFF7EBFD043F3E60104EFFF7E6FD043F00
:1027A0003E600C4EFFF7B9FDFFF722FEFFF78BFCF2
:1027B000FFF731FD00BD0000000000201C000020DC
:1027C00004000020FFFFFFFFFFFF000020000020AB
:1027D0002C030020704700003E60043F02367E4616
:1027E000400100001428000000000F646963746950
:1027F0006F6E617279737461727442480068414906
:10280000043F3E60884201D23F4E70473F4E3668DB
:102810007047C0465028000000000E646963746968
:102820006F6E6172796E6578740003B531683848EF
:10283000814207D08879FF2804D00E00043F3E6013
:10284000002603BD043F3E600026F64303BDC0469C
:102850008428000000000A736B6970737472696EDB
:1028600067003178013101220A40891876187047D3
:1028700006B40178013101220A408918401806BCCB
:102880007047C0461829000000000466696E6400A5
:102890003FB500220023350040CF340040CFFFF782
:1028A000ACFF1C48B188884217D0043F3E60063612
:1028B000FFF776F8043F3E602600043F3E602E009E
:1028C000FEF79DFF002E40CF07D0B01DFFF7D0FFD1
:1028D00002000B000B48824204D2FFF7A6FF300033
:1028E00040CFDED01600043F3E601E003FBD00B565
:1028F00031003868FFF7CCFF3A68002A01D100F0B8
:102900007BFD00BD00000020C0000000040000208E
:10291000FFFFFFFFFFFF00007429000000000663B7
:102920006A756D702C00320040CF310040CF8B1B98
:10293000043BA249194000290DD0A14881420AD088
:10294000FEF7EEFF0D4A756D7020746F6F206661A3
:10295000720A00F059FE5B10FF210B401343300058
:102960001E0000B5974A13681060FFF7D6FC13608D
:1029700000BDC046AC2900000000056A756D702CD2
:10298000310040CF300040CF0B1A043B8E49194034
:10299000002902D08D4A9142D2D15B108C4A13405B
:1029A0008C4A1343043F3E601E00DAE7C42900004E
:1029B0000000046865726500043F3E60814E366821
:1029C0007047C046B42A000000000D666C61736851
:1029D0007661722D68657265043F3E607E4E366892
:1029E000704700B5043F3E607C4EFFF796FC043F05
:1029F0003E607B4EFFF791FC00BDDDE700B500F0C7
:102A000037F839683E600E46043F3E60754EFFF76A
:102A10008AFF00BD00B500F02BF839683E600E4615
:102A2000043F3E60704EFFF77EFF00BD00B5FFF72C
:102A3000D8FF00F01DF839683E600E46043F3E6046
:102A40006A4EFFF770FF00BD00B500F011F839685D
:102A50003E600E46FFF794FF00BD00B5FFF7C1FFD3
:102A6000FFF7AAFF043F3E600226FFF7C1FC00BD4E
:102A700000B5FFF7A1FF043F3E600226FFF7B8FC58
:102A800000BD00B5FFF798FFFFF77AFF00BD00B566
:102A9000FFF792FF043F3E60544EFFF744FF00BD36
:102AA00000B5FFF789FF043F3E604E4EFFF73BFF46
:102AB00000BDC046F02A00003000047468656E0056
:102AC000052E01D140CFDCE7022E01D140CFDEE759
:102AD000FEF726FF17537472756374757265732061
:102AE000646F6E2774206D617463680A00F08CFD5A
:102AF0001C2B0000300004656C73650000B5022ECD
:102B0000E6D140CFFFF7B4FF39683E600E46FFF7CD
:102B1000BEFF043F3E60052600BDC046342B0000CA
:102B200030000269660000B5FFF797FF043F3E6082
:102B3000022600BD5C2B00003000067265706561E6
:102B40007400042EC4D140CF39683E600E4600B5F3
:102B5000FFF77AFFFFF79BFF00BDC046782B000010
:102B60003000057768696C65012EB1D140CF00B5A2
:102B7000FFF7D9FF023600BD8C2B00003000057531
:102B80006E74696C012EA3D140CF4FE7A02B0000DB
:102B9000300005616761696E012E99D140CF53E71E
:102BA000F02B0000300005626567696E00B5FFF725
:102BB00024FF043F3E60012600BD000001FFFFFF2F
:102BC00000FFFFFF0000002001F8FFFF00F8FFFFFB
:102BD000FF07000000E0000020000020002E0000A1
:102BE00040CF000000D1000000D7000000D000005E
:102BF000002C00002000016B043F3E60029E7047E5
:102C0000102C00002000016A043F3E60009E7047C7
:102C1000202C000020000169043F3E602600704720
:102C2000602C00003000056C6561766500B5674872
:102C300001683B00043F1A68043B1A600433043304
:102C40008B42F8D103B4FFF713FF03BC330040CF2E
:102C500004390B60016004390A6801320A6000BD62
:102C6000742C0000200006756E6C6F6F700030BC15
:102C70007047C046AC2C00003000052B6C6F6F70A5
:102C8000032E00D024E740CF00B5043F3E60504EF5
:102C9000FFF73BF9FFF7BEFE1AE08020000600199F
:102CA000A419401B801940CF7047C046F02C00008B
:102CB0003000046C6F6F7000032E00D008E740CF27
:102CC00000B5043F3E60434EFFF71FF9FFF796FE45
:102CD00000F01CF93D48310040CF0160043F3E60E8
:102CE0003D4EFFF712F900BD0134AC427047C046BB
:102CF000382D0000780002646F0000B5043F3E608C
:102D0000364EFFF702F931480168043F3E600E007D
:102D1000043F3E6000260760FFF76FFE043F3E6001
:102D2000032600BD00B500F02EF8ECE730B4340007
:102D300040CF350040CF7047EC2D00007800033FB6
:102D4000646F00B5043F3E60244EFFF7DEF8043F99
:102D50003E60234EFFF7E1FA1C480168043F3E60E5
:102D60000E00FFF785FE0136043F3E60012617483E
:102D70000760FFF742FE043F3E60032600BD00B53A
:102D800000F001F8E3E700B5043F3E60154EFFF7A1
:102D9000C4FA043F3E600426FEF714FF013B08D04E
:102DA000043F3E600526FEF70DFF013B00F005FCE9
:102DB00000BD043F3E603526FFF7AFFA043F3E609A
:102DC000094EFFF7AAFA00F0F8FB00BD0C00002046
:102DD0009A2C0000E82C00006E2C00002C2D000026
:102DE000AC42000030B4000040CF0000082E0000CC
:102DF0003000046361736500043F3E600026043FB9
:102E00003E6008267047C046202E00003000033F79
:102E10006F6648480AE0013EB64140CF7047C04661
:102E2000AC2E00007800026F66004348082E00D0E8
:102E30004EE640CF00B5043F3E600600FFF765F860
:102E4000FFF716FE39683E600E460136043F3E60CD
:102E50000926043F3E60394EFFF75FFA00BD00B51A
:102E6000300040CF013B01B400F0A7FB01BC082EAD
:102E700000D02DE640CF043F3E600600FF213140E8
:102E8000B14204D12E490E43FFF747FAD8E7043F79
:102E90003E600026FEF796FE043F3E60294EFFF797
:102EA0003CFACDE7300040CFB0427047E42E00003E
:102EB000300005656E646F66092E00D008E640CFCD
:102EC00000B540B440CFFFF7D3FD39683E600E46F1
:102ED000FFF7E6FD043F3E6040BC043F3E6008262D
:102EE00000BDC046482F0000300007656E64636176
:102EF0007365082E00D0EBE540CF00B5043F3E607F
:102F00000E4EFFF70AFA00F001F800BD00B53000E0
:102F100040CF00280DD003B401213140002903D057
:102F2000013EFFF7B4FD01E0FFF7ABFD03BC013844
:102F3000EFE700BD162E0000A42E000040CF0000D9
:102F4000002E0000B04200005C2F0000000005745D
:102F50006F6B656E043F3E60202605E0B82F0000D1
:102F6000000005706172736510B5FEF71CFC31003E
:102F700040CF300040CF0F4A12688418202E07D16E
:102F800091420FD0835CB34202D101328418F7E73B
:102F9000914207D0835C0132B342F9D18618361BC7
:102FA000013E01E08618361B043F3C600148026088
:102FB00010BD0000E43F0020F82F00000000056471
:102FC00069676974D44B1B68303E0BD30A2E0BD350
:102FD000073E0A2E06D3242E06D3203E0A2E01D306
:102FE000242E01D3002670479E42FBD2043F3E6050
:102FF0000026F6437047C046043100000000066E0C
:10300000756D626572003FB5310040CF701E0126BC
:10301000012204B4C04B1B680024002500293CD0C9
:103020000130013902782D2A04D101B00022D243A7
:1030300004B4F3E7232A01D10A23EFE7242A01D1BC
:103040001023EBE7252A01D10223E7E72E2A01D13D
:103050000226E3E72C2A36D0043F3E601600FFF735
:10306000B3FF002E40CF2BD0043F3E602600043F2C
:103070003E602E00043F3E601E00043F3E6000267E
:103080000FB4FDF77EF90FBC350040CF340040CFC0
:103090000022A419554140CFC0E704BC002A04D542
:1030A0000022E443ED430134554133002600012B57
:1030B00002D0043F3E602E00043F3E601E003FBD34
:1030C00001B000263FBD2500002402260029E4D0DF
:1030D000425C01392E2AF9D0043F3E601600FFF70A
:1030E00073FF002E40CFEBD0043F3C60043F3E60B6
:1030F0001E000FB4FDF7F9F90FBC340040CF40CFEC
:10310000E4E7C046283100000000062E64696769C4
:1031100074000A2E01D2303604E0242E01D2373654
:1031200000E023267047C0466031000000000468BC
:103130006F6C6400330040CF784801783F290DD28E
:10314000013101704018012907D00138027801309F
:103150000270013801390129F7D103707047C04668
:1031600080310000000005686F6C643C330040CF84
:103170006A4801783F2902D20131017043547047F7
:10318000983100000000047369676E00002E01D4BE
:1031900040CF70472D26CDE7AC3100000000022360
:1031A0003E005E480678013038607047C431000048
:1031B00000000366235310B5202400F008F8013CFA
:1031C000FBD110BDE831000000000266230000B50D
:1031D000043F3E60504E3668FDF7A5F8FFF799FFB3
:1031E000FFF7C4FF00BDC046043200000000022308
:1031F000530000B500F00AF8002EFBD13868002813
:10320000F8D100BD303200000000012300B5043FBA
:103210003E60414E3668043F3E600026FDF7C5F92A
:10322000FCF77EFF40CFFFF774FFFFF783FF00BD81
:10323000443200000000023C2300384800210170A5
:103240007047C04658320000000002662E00043F5E
:103250003E60202605E0C046A8320000000003665C
:103260002E6E00B510B4340040CFFDF775FBFDF7AE
:1032700011F8043F3E600026FFF7DFFFFFF7B9FFBC
:1032800040CF2C26FFF772FF002C03D0FFF79FFFE3
:10329000013CFBD110BC40CFFFF778FF043F3E60FC
:1032A000043F3E601EE0C046C032000000000375CF
:1032B000642E00B5FFF7C1FFFFF79BFF12E0C04689
:1032C000F4320000000002642E0000B5FDF744FB5C
:1032D000FCF7E0FFFFF7B1FFFFF78BFFFDF747FBC0
:1032E000FFF754FFFFF75DFFFEF77AFBFEF7C2FA28
:1032F00000BDC04608330000000002752E00043FE8
:103300003E600026D5E7C046203300000000012EB5
:10331000043F3E60F617D8E7FC3F00202400002061
:10332000683300000000086576616C7561746500A3
:1033300000B5FEF738FA01CF01B440B440CFC14820
:10334000016802B400210160FEF720FA00F014F8D1
:10335000BC4802BC0160043F3E6040BC01BC043F6D
:103360003860FEF713FA00BDE0350000000009697F
:103370006E7465727072657430B5B34887420BD94C
:10338000FEF7CEFA10537461636B20756E6465723C
:10339000666C6F770A0037E1AC4887420AD2FEF7C5
:1033A000BFFA0F537461636B206F766572666C6F42
:1033B000770A29E1A64C2568002D01D13D00256042
:1033C000FFF7C8FD002E02D1043740CF30BD38686A
:1033D000043F3E60043F3860FFF75AFA310040CFA7
:1033E000320040CF002A13D138683100FFF70BFEBE
:1033F000320040CF002AC0D1FEF7F6FAFEF790FA6D
:103400000C206E6F7420666F756E642E0A00FBE0F0
:10341000904B1B68002B1DD10025256030230B40ED
:10342000302B0ED1FEF7DCFAFEF77AFA1220697320
:1034300020636F6D70696C652D6F6E6C792E0A005C
:10344000E2E0043740CF043F3E601600FEF707FE7F
:10345000FFF793FF043740CF802008400ED1EB1BCD
:103460009B08402008400FD00820084002D0002BC5
:1034700000D01DE00F200840834205D3043F3E608A
:103480001600FEF7ECFD78E700F097F8043F3E6089
:10349000160010220A4002D0FEF7E1FD6DE720225F
:1034A0000A4002D0FEF731FD67E7FEF713FC64E740
:1034B000072001401000FEF73CFD012915D1012B2A
:1034C000DCD1FF213140B14204D140880643FEF7F0
:1034D00024FF52E7043F3E600026FEF773FB043FE3
:1034E0003E600688FEF719FF47E7022902D1012B4B
:1034F000C4D1EFE703291CD1012BBFD1FF213140FB
:10350000B1420AD154490E43FEF707FF0432043F8B
:103510003E601600FEF7F9FC2FE7043F3E600026F0
:10352000FEF750FB0232043F3E601600FEF7EDFC52
:1035300023E7042918D1012BA0D1330040CF002B61
:1035400000D11AE71F221A409A4205D0043F3E607C
:103550004688FEF7E2FE10E7043F3E6006889B01C6
:103560001E43FEF7DAFE08E7052923D1012B0FD110
:10357000043F3E600026FEF725FB043F3E60060048
:10358000FEF7C3FC043F3E60344EFEF7C6FEF4E691
:10359000043F3E600026FEF715FB043F3E60012617
:1035A000FEF710FBFEF7C5FC043F3E600600FEF789
:1035B000ACFCE2E601308047DFE600B5002B0BD023
:1035C000013B043F3E609E00BE59FEF7BDFB002B51
:1035D000F6D1043D2F0040CF0025256000BDC04638
:1035E000FC350000810009686F6F6B2D717569747F
:1035F000043F3E601A4E70473036000074360000BB
:103600000000047175697400164885460E4F16480F
:103610000A2101600F48002101600D48016009483E
:10362000016012480160124941600D4800688746F8
:10363000FEF7C8F8FFF7A0FEFEF772F905206F6BE2
:103640002E0AF5E7E43F00202C0200202C01002088
:1036500008000020D83F0020003E000040CF0000BE
:10366000D43F00202C030020FC3F0020DC3F002042
:10367000640000208436000020000465696E740038
:1036800062B670479436000020000464696E7400CE
:1036900072B67047AC360000200004697073720087
:1036A000043F3E60EFF305867047C046B836000021
:1036B0000000036E6F707047FC3600000000097553
:1036C0006E68616E646C656400B5FEF729F9145587
:1036D0006E68616E646C656420496E7465727275A3
:1036E00070742000043F3E60EFF30586FEF790F90A
:1036F000FEF716F902210A0000BDC046203700007F
:1037000081000B6972712D7379737469636B043F67
:103710003E60F34E7047C8360000F14800688746A7
:10372000443700008100096972712D6661756C74FF
:10373000043F3E60EB4E7047C8360000E948006821
:103740008746C0466C37000081000E6972712D6398
:103750006F6C6C656374696F6E00043F3E60E24E8F
:103760007047C8360000E048006887469037000080
:103770008100096972712D706F776572043F3E6038
:10378000DA4E7047C8360000D84800688746C04601
:10379000B43700008100096972712D726164696F2C
:1037A000043F3E60D24E7047C8360000D0480068E3
:1037B0008746C046D83700008100086972712D75B0
:1037C00061727400043F3E60CA4E7047C836000004
:1037D000C84800688746C046FC3700008100086979
:1037E00072712D7370693000043F3E60C24E7047A5
:1037F000C8360000C04800688746C0462038000030
:103800008100086972712D7370693100043F3E6058
:10381000BA4E7047C8360000B84800688746C046B0
:103820004438000081000A6972712D6770696F74F5
:103830006500043F3E60B24E7047C8360000B04895
:1038400000688746643800008100076972712D6145
:103850006463043F3E60AB4E7047C8360000A94821
:1038600000688746883800008100086972712D74ED
:10387000696D3000043F3E60A34E7047C8360000BB
:10388000A14800688746C046AC380000810008693E
:1038900072712D74696D3100043F3E609B4E70471C
:1038A000C8360000994800688746C046D0380000F6
:1038B0008100086972712D74696D3200043F3E60A9
:1038C000934E7047C8360000914800688746C0464E
:1038D000F43800008100086972712D727463300041
:1038E000043F3E608B4E7047C83600008948006830
:1038F0008746C046183900008100086972712D742E
:10390000656D7000043F3E60834E7047C83600000E
:10391000814800688746C046383900008100076941
:1039200072712D726E67043F3E607C4E7047C836E0
:1039300000007A480068874658390000810007690E
:1039400072712D656362043F3E60754E7047C836E4
:1039500000007348006887467C39000081000B69CD
:1039600072712D63636D5F616172043F3E606D4EE5
:103970007047C83600006B48006887469C390000D5
:103980008100076972712D776474043F3E60664E52
:103990007047C8360000644800688746C039000098
:1039A0008100086972712D7274633100043F3E60BA
:1039B0005E4E7047C83600005C4800688746C046C7
:1039C000E43900008100086972712D71646563003B
:1039D000043F3E60564E7047C836000054480068A9
:1039E0008746C046083A000081000A6972712D6C52
:1039F00070636F6D7000043F3E604E4E7047C83676
:103A000000004C48006887462C3A00008100086995
:103A100072712D7377693000043F3E60464E7047E7
:103A2000C8360000444800688746C046503A000047
:103A30008100086972712D7377693100043F3E601F
:103A40003E4E7047C83600003C4800688746C04676
:103A5000743A00008100086972712D737769320031
:103A6000043F3E60364E7047C83600003448006858
:103A70008746C046983A00008100086972712D732C
:103A800077693300043F3E602E4E7047C836000011
:103A90002C4800688746C046BC3A0000810008698F
:103AA00072712D7377693400043F3E60264E704773
:103AB000C8360000244800688746C046503B0000D6
:103AC0008100086972712D7377693500043F3E608B
:103AD0001E4E7047C83600001C480068874600002C
:103AE000D03F0020CC3F0020C83F0020C43F002032
:103AF000C03F0020BC3F0020B83F0020B43F002062
:103B0000B03F0020AC3F0020A83F0020A43F002091
:103B1000A03F00209C3F0020983F0020943F0020C1
:103B2000903F00208C3F0020883F0020843F0020F1
:103B3000803F00207C3F0020783F0020743F002021
:103B4000703F00206C3F0020683F0020643F002051
:103B500000400000FFFF182D2D2D20466C6173687A
:103B60002044696374696F6E617279202D2D2D0078
:103B7000FDF732FC4C4885464C4F2A264C484A49B2
:103B800001604C484C490160043F3E604A4E4B4D39
:103B9000B1884B4B994224D04A4B0B400AD0B01D00
:103BA000FEF766FEFEF7C5F903884088000403436C
:103BB000ED1A16E080230B4013D00F231940890023
:103BC0006D1AB01DFEF754FEFEF7B3F9043F3E60D8
:103BD0000600043F3E602E00043F3E600E00FDF7ED
:103BE00069F8FEF722FE300040CFD1D0364806609B
:103BF00040CF3648056036483649314A884204D0BD
:103C0000023803889342F9D0023033490860FDF747
:103C100087FE364D6563726973702D5374656C6CE5
:103C20006172697320322E302E32207769746820D9
:103C30004D3020636F7265206279204D6174746825
:103C4000696173204B6F63680A00FDF769FE2C4DB4
:103C50006F64696669656420666F72206E524635CE
:103C600031383232206279204A6F686E204875629E
:103C70006572747320284A4942290A0017480021B6
:103C80000160043F3E60164E043F3E600426FEF78E
:103C9000FFFD40CF002E02D0FEF7E1F9C5E440CF92
:103CA000B2E4696E697400002C0300202C0200202D
:103CB0000000002004000020C000000000400020A0
:103CC000FFFF00000001000018000020200000207D
:103CD0000000040000400000140000200800002044
:043CE000A23C000002
:00000001FF
