:020000040800F2
:100000002C0300204B3700000336000003360000AD
:100010000336000003360000033600000000000035
:100020000000000000000000000000003136000069
:10003000313600000000000031360000DB350000E2
:100040003136000031360000313600003136000014
:10005000313600003136000059360000813600008C
:10006000A9360000D1360000F93600003136000014
:1000700031360000313600003136000031360000E4
:1000800031360000313600001F37000031360000E5
:1000900031360000313600003136000031360000C4
:1000A00031360000313600003136000031360000B4
:1000B00031360000313600003136000031360000A4
:1000C0003136000031360000313600003136000094
:1000D0003136000031360000313600003136000084
:1000E00031360000313600003136000000000000DB
:1000F0000000000000000000000000000000000000
:100100000000000000000000313600003136000021
:100110003136000031360000313600003136000043
:100120003136000031360000313600003136000033
:100130003136000031360000313600003136000023
:100140003136000031360000313600003136000013
:1001500076010000FFFF1E2D2D2D204D6563726975
:1001600073702D5374656C6C6172697320436F7288
:1001700065202D2D2D008E01000042000432647593
:100180007000386847F8046D043F38607047A0017C
:1001900000006200053264726F70043740CF704710
:1001A000BE010000440005327377617007CF043F41
:1001B000386047F8046D043F3A600E007047D20182
:1001C0000000620004326E69700007CF043F38609F
:1001D0007047EC010000440005326F766572B86824
:1001E00047F8046D043F3860FE6870471002000055
:1001F000440005327475636B07CF043F386047F8DD
:10020000046D043F3A60043F3960043F3860704732
:100210003202000046000432726F74003868B96818
:100220003A69B86039613A6079687E60FE68F96061
:10023000704754020000460005322D726F74386812
:10024000B9683A6938613960BA60F968FE607E68F9
:100250007960704768020000200003323E7201CFCF
:1002600001B440B440CF7047800200002000033248
:10027000723E47F8046D40BC01BC043F38607047D3
:100280009802000020000332724047F8046D019E7E
:1002900047F8046D009E7047AA0200002000063255
:1002A0007264726F700002B07047C20200004200B8
:1002B0000364322F3868F10776104008084338602D
:1002C0007047D602000062000364322A38680018C2
:1002D000764138607047F0020000420004647368A1
:1002E00072003868F10776084008084338607047A4
:1002F000060300006200046473686C00386800182C
:10030000764138607047180300004200046461625F
:100310007300002E14D47047320300004300083FDE
:10032000646E656761746500300040CF002807D4B3
:10033000704750030000420007646E656761746592
:1003400038680021C043F64301304E4138607047A1
:1003500068030000640002642D0007CF121AB14147
:100360000E00043F3A6070477E03000064000264A0
:100370002B0007CF12184E41043F3A60704790039C
:100380000000610003733E6447F8046DF617704780
:10039000A4030000620003756D2A3868A0FB0606FE
:1003A00038607047B80300006200026D2A003868A8
:1003B00080FB060638607047F603000044000375B2
:1003C000642A07CF564341437618010C130C594356
:1003D0007618010C80B292B251434343504300223D
:1003E000C91852411204B6180A04090C80184E416B
:1003F000043F386070478804000044000475646D51
:100400002A0010B5002447F8046D7E6847F8046D93
:100410003E69FFF7C2FF310040CF300040CF47F8C0
:10042000046D3E6847F8046DFE6803B4FFF7B5FF3E
:1004300003BC330040CF320040CF47F8046D3E6824
:1004400047F8046D3E690FB4FFF7A7FF0FBC921980
:10045000634140CF89196241634140CF47F8046D41
:100460007E6847F8046DFE680FB4FFF796FF0FBC77
:100470009219634140CF89196241634140CF1E0008
:100480003A607960B86010BDAA0400004300022AF7
:100490002F0000B540B440CFFFF789FF47F8046D47
:1004A00040BC00F062F8043700BDCC0400004300FB
:1004B000052A2F6D6F6400B540B440CFFFF777FF7A
:1004C00047F8046D40BC00F050F800BDEE04000099
:1004D000430003752A2F00B540B440CFFFF75DFFFE
:1004E00047F8046D40BC00F01BF8043700BD12054E
:1004F0000000430006752A2F6D6F640000B540B4FC
:1005000040CFFFF74AFF47F8046D40BC00F008F801
:1005100000BD5E050000430006756D2F6D6F640021
:1005200010B4786839680022002420236400001881
:1005300049415241964201D8921B0134013BF5D109
:100540002023640049185241964201D8921B01347D
:10055000013BF6D104373A60260010BC7047D20543
:1005600000004300056D2F6D6F6400B5F01718D0C3
:10057000764200F019FAF0170DD0FFF7E1FE00F017
:1005800007FAFFF7CDFF39683E600E4676423968BC
:100590003E600E4600BD00F0FBF9FFF7C1FF76425A
:1005A00000BD00F001FAF0170ED0FFF7C9FE00F011
:1005B000EFF9FFF7B5FF764239683E600E467642A6
:1005C00039683E600E4600BD00F0E2F9FFF7A8FF73
:1005D00000BD2E06000044000675642F6D6F640098
:1005E00030B43C68B86879680022002520236D008B
:1005F000001849415241944201D8121B0135013B78
:10060000F5D120B4002520206D00491852415B41EE
:100610009E4204D8944202D8121BB34101350138DE
:10062000F2D13D60BA607B6040BC30BC7047A4062C
:100630000000440005642F6D6F6400B5F01719D0F9
:10064000FFF77EFEFFF7B2FDF0170CD0FFF778FE44
:10065000FFF7ACFDFFF7C4FFFFF7A8FDFFF770FE43
:10066000FFF7A4FD00BDFFF7A1FDFFF7B9FFFFF7FE
:1006700067FE00BDFFF79AFDF0170ED0FFF760FE92
:10068000FFF794FDFFF7ACFFFFF75AFEFFF78EFD73
:10069000FFF756FEFFF78AFD00BDFFF787FDFFF766
:1006A0009FFF00BDBA060000440002642F0000B5A1
:1006B000FFF7C3FFFFF789FD00BD520700004400AC
:1006C00002662A0000B5F0170DD0FFF739FEFFF7DC
:1006D0006DFDF0170DD0FFF733FEFFF792FE40CF10
:1006E00001CF386000BDFFF761FDF017F5D0FFF7CF
:1006F00027FEFFF786FE40CF01CF3860FFF720FED0
:1007000000BD30B43C68B9687A6800230025202019
:100710006D00491852415B419E4204D8944202D870
:10072000121BB34101350138F2D1290020206D00A0
:1007300092185B419E4204D8944202D8121BB341E6
:1007400001350138F3D13D60BA607B600E0030BCEA
:1007500070479E070000440002662F0000B5F017A6
:100760000ED0FFF7EDFDFFF721FDF0170ED0FFF7DC
:10077000E7FDFFF71BFDFFF7C4FFFFF726FD00BDF8
:10078000FFF714FDF017F4D0FFF7DAFDFFF70EFDC9
:10079000FFF7B7FFFFF7D4FDFFF717FD00BDB20766
:1007A000000020000232210006CF3160726040CF8D
:1007B0007047C6070000200002324000043F706806
:1007C000386036687047E607000044000364753CF3
:1007D00007CF8E4204D801D1904201D8002670473D
:1007E0000026F64370470608000044000364753E87
:1007F00007CFB14204D801D1824201D80026704708
:100800000026F643704726080000440002643C00BE
:1008100007CF8E4204DC01D1904201DC00267047F4
:100820000026F643704746080000440002643E007C
:1008300007CFB14204DC01D1824201DC00267047BF
:100840000026F64370475608000062000364303CFF
:100850000437F61770477008000042000364303D0B
:1008600001CF002801D000267047013EB6417047F5
:100870008A080000440003643C3E07CF904201D147
:10088000761A01D00026F6437047A60800004400FF
:1008900002643D0007CF904201D000267047761ACF
:1008A000013EB6417047B808000020000373704055
:1008B00047F8046D3E007047C8080000200003732D
:1008C0007021370040CF7047DA0800002000037223
:1008D000704047F8046D6E467047EA08000020003B
:1008E00003727021B54640CF704704090000000034
:1008F000056465707468E549C91B890847F8046D8B
:100900000E0070471409000061000364757047F819
:10091000046D70472409000061000464726F700068
:1009200040CF70473A0900006100043F64757000D1
:10093000002E01D047F8046D70474E090000620098
:1009400004737761700039683E600E0070475C097F
:1009500000006200036E6970043770477009000080
:100960006200046F7665720047F8046D7E68704718
:10097000860900006200047475636B0001CF083FB4
:100980007E60386070479C090000630003726F74DA
:1009900003CF083F78603E600E007047B409000046
:1009A0006300042D726F740003CF083F7E603960CE
:1009B00006007047C60900002000047069636B00E0
:1009C00057F826607047D60900002000023E7200EA
:1009D00040B440CF7047E8090000200002723E009A
:1009E00047F8046D40BC7047FA090000200002720D
:1009F000400047F8046D009E70470A0A000020007E
:100A0000057264726F7001B07047200A00006000C8
:100A100004747275650047F8046D0026F64370474C
:100A2000340A000060000566616C736547F8046D68
:100A3000002670474A0A00006E0003616E6401CF11
:100A4000064070470640000616F0620A00006E007D
:100A50000362696301CFB043060070478643000616
:100A600036F0780A00006E00026F720001CF064374
:100A700070470643000656F08E0A00006E000378A9
:100A80006F7201CF464070474640000696F09C0AC0
:100A900000006100036E6F74F6437047AC0A0000FB
:100AA000610003636C7AB6FA86F67047BA0A0000F2
:100AB00061000373687276087047C80A000061001D
:100AC0000373686C76007047D80A000061000372F7
:100AD0006F725FEA76067047EA0A000061000372EF
:100AE0006F6CB61956F100067047040B00006C00DD
:100AF000067273686966740001CFF04006007047A3
:100B0000360800261E0B00006C00076172736869CE
:100B1000667401CF3041060070473610F617380B67
:100B200000006C00066C73686966740001CFB04009
:100B30000600704736000026480B000061000230B6
:100B40003D00013EB64170475A0B00006100033082
:100B50003C3E013EB641F6437047680B0000610021
:100B600002303C00F6177047800B00004200023E46
:100B70003D0001CFB042B4BF00264FF0FF367047B2
:100B8000980B00004200023C3D0001CFB042CCBFB8
:100B900000264FF0FF367047AE0B00004200013CCC
:100BA00001CFB042B4BF4FF0FF3600267047C40BF0
:100BB00000004200013E01CFB042CCBF4FF0FF36F3
:100BC00000267047D80B0000620003753E3D01CF40
:100BD000861BB641F6437047EC0B000062000375BC
:100BE0003C3D01CF361AB641F6437047FE0B00007C
:100BF000620002753C0001CF861BB6417047100CA5
:100C00000000620002753E0001CF361AB6417047FF
:100C1000260C00006B00023C3E0001CF361A18BFC4
:100C20004FF0FF367047380C00006B00013D01CFDC
:100C3000361A013EB64170474C0C00006200036D4D
:100C4000696E01CFB042B8BF06467047600C000025
:100C50006200036D617801CFB042C8BF064670479D
:100C6000760C0000620004756D61780001CFB0421F
:100C700088BF06467047900C0000620004756D69DD
:100C80006E0001CFB04238BF064670472C020020EC
:100C9000CE0C00000000046D6F76650007B53100D2
:100CA00040CF320040CF00290FD0B2420DD006D342
:100CB000013E013A705C50540139FBD105E03078B7
:100CC0001070013601320139F9D140CF07BDF00C67
:100CD000000000000466696C6C00300040CF3100F9
:100CE00040CF002902D001397054FCD140CF704769
:100CF000FC0C00002000014036687047140D000015
:100D00006D00012103CF30600E0070470660704710
:100D1000016070473A0D00006D00022B210003CFE7
:100D20003268121832600E00704702689219026031
:100D300070470268521802607047480D000020009A
:100D40000268400036887047620D00006D0002683E
:100D5000210003CF30800E0070470680704701806D
:100D60007047880D00006D0003682B2103CF328887
:100D7000121832800E007047028892190280704764
:100D80000288521802807047960D0000200002630E
:100D9000400036787047B00D00006D0002632100FE
:100DA00003CF30700E0070470670704701707047B7
:100DB000D60D00006D0003632B2103CF327812188B
:100DC00032700E00704702789219027070470278F4
:100DD000521802707047FE0D00006D0004626973C6
:100DE000210003CF3268024332600E007047026870
:100DF00032430260704702680A4302607047260E61
:100E000000006D0004626963210003CF32688243F1
:100E100032600E0070470268B24302607047026899
:100E20008A43026070474E0E00006D0004786F72B6
:100E3000210003CF3268424032600E0070470268E2
:100E400072400260704702684A4002607047680E54
:100E50000000200004626974400001CF366806403B
:100E600018BF4FF0FF367047900E00006D00056808
:100E70006269732103CF3288024332800E007047CB
:100E8000028832430280704702880A43028070471A
:100E9000B80E00006D0005686269632103CF3288D7
:100EA000824332800E0070470288B243028070474E
:100EB00002888A4302807047E00E00006D000568DA
:100EC000786F722103CF3288424032800E00704723
:100ED000028872400280704702884A400280704750
:100EE000FA0E0000200005686269744001CF368860
:100EF000064018BF4FF0FF367047220F00006D000C
:100F000005636269732103CF3278024332700E00A9
:100F10007047027832430270704702780A430270C9
:100F200070474A0F00006D0005636269632103CFBB
:100F30003278824332700E0070470278B2430270FA
:100F4000704702788A4302707047720F00006D008C
:100F50000563786F722103CF3278424032700E0001
:100F60007047027872400270704702784A400270FF
:100F700070478C0F0000200005636269744001CF48
:100F80003678064018BF4FF0FF3670479C0F0000C0
:100F900061000563656C6C2B04367047AC0F000074
:100FA00061000563656C6C73B6007047401000000B
:100FB00000000768666C61736821300040CF310023
:100FC00040CF594B984221D3584B98421ED2584B90
:100FD0001940994219D010F00102002A16D1028856
:100FE0009A4213D110F10060524A534B1360534B95
:100FF0001360534A012313600180524A136813F0AF
:101000000103FBD14E4A80231360704700F09EFB22
:101010002A57726F6E672061646472657373206F04
:1010200072206461746120666F72207772697469DE
:101030006E6720666C61736820210A0002F046BA70
:101040008E10000000000E666C6173687061676549
:101050006572617365000FB5300040CF324B984226
:1010600014D3344A344B1360344B1360344A022394
:101070001360354A1060324A42231360314A1368C4
:1010800013F00103FBD12E4A802313600FBD0C1116
:10109000000000000A6572617365666C6173680028
:1010A000214872B621494FF6FF72038893421CD043
:1010B00047F8046D060047F8046D00F047FB104543
:1010C0007261736520626C6F636B20617420200015
:1010D00000F0AFFB00F03AFB0C2066726F6D20460B
:1010E0006C6173680A00FFF7B6FF02308842DCD1FA
:1010F00000F02CFB1246696E69736865642E2052FD
:101100006573657420210A0002F021BB4C110000B8
:1011100000000E6572617365666C61736866726F5C
:101120006D00300040CFBCE700400000000001002F
:10113000FFFF00000420024023016745AB89EFCD8B
:10114000102002400C2002401420024062110000D6
:101150006900012B01CF361870473618003600069B
:1011600016F1781100006900012D01CF861B704730
:10117000361A003E0006B6F1861100006100023109
:101180002D00013E704794110000610002312B00D8
:1011900001367047A2110000610002322D00023EAC
:1011A0007047B0110000610002322B000236704718
:1011B000C21100006100066E6567617465007642C9
:1011C0007047D6110000610003616273002E48BFB2
:1011D000D6F100067047F4110000420005752F6D2E
:1011E0006F6401CF3100B0FBF6F67143401A043F43
:1011F00038607047121200004200042F6D6F6400C7
:1012000001CF310090FBF6F67143401A043F38607D
:101210007047261200004200036D6F6400B5FFF7AF
:10122000EFFF40CF00BD361200006200012F01CF5A
:1012300090FBF6F67047461200006A00012A01CFC3
:1012400046437047464354120000610002322A00B0
:101250007600704762120000610002322F007610A3
:101260007047761200006100046576656E0001200B
:101270003040361870478E1200008100046261739E
:10128000650047F8046D114E70470A000000A41273
:10129000000000000662696E617279000B4802214D
:1012A00001607047BA120000000007646563696D51
:1012B000616C06480A2101607047D01200000000EE
:1012C000036865780148102101607047FC4F0020D9
:1012D000EC120000810009686F6F6B2D656D6974F9
:1012E00047F8046D6B4E7047E213000008130000CE
:1012F000810008686F6F6B2D6B65790047F8046D8E
:10130000654E7047081400002613000081000A682B
:101310006F6F6B2D656D69743F0047F8046D5F4E0C
:1013200070473214000042130000810009686F6F9B
:101330006B2D6B65793F47F8046D594E70475E140D
:1013400000006013000081000A686F6F6B2D7061F0
:101350007573650047F8046D524E7047783500008C
:1013600076130000000004656D6974000FB54948EC
:1013700000F02CF80FBD8A1300000000036B6579A4
:101380000FB5454800F022F80FBDA0130000000083
:1013900005656D69743F00B5404800F017F800BD61
:1013A000B61300000000046B65793F0000B53C48AF
:1013B00000F00CF800BDD01300000000057061754E
:1013C000736500B5374800F001F800BD0068874636
:1013D000F613000000000B73657269616C2D656D7A
:1013E000697400B500F025F8002E40CFFAD02E4ADF
:1013F000167040CF00BD1E14000000000A73657215
:1014000069616C2D6B65790000B500F028F8002E3D
:1014100040CFFAD047F8046D234A167800BD4C142B
:10142000000000000C73657269616C2D656D697454
:101430003F0000B5FFF7C5FF47F8046D00261B48C5
:1014400001688020014000D0F64300BDCC140000AC
:1014500000000B73657269616C2D6B65793F00B597
:10146000FFF7AFFF47F8046D002610480168202001
:10147000014000D0F64300BD0D490E4808600E49FA
:101480000E4808600E49462008600E490E48086064
:1014900070470000F84F0020F44F0020F04F00206C
:1014A000EC4F0020E84F0020043801400038014094
:1014B000181002403D40000004080140B004000044
:1014C000083801400C3801400C200000F0140000E6
:1014D0000000076365787065637400B5386801B40F
:1014E0000130386000F00BF801BC067040CF00BD41
:1014F000621500000000066163636570740000B54A
:1015000002CF01390022FFF73BFF300040CF2028F7
:1015100019D2092816D00A281FD00D281DD0082856
:10152000F1D1002AEFD000F011F903082008002AB9
:10153000E9D0885C013A80230340E4D04023034093
:10154000F5D0E0E72020B242DDD247F8046D060076
:10155000FFF70CFF01328854D5E7160000F0A2F81F
:1015600000BD7415000040000374696247F8046D03
:10157000294E70478A1500008100033E696E47F8C6
:10158000046D264E704700000000B0150000820078
:101590000E63757272656E742D736F75726365007C
:1015A00047F8046D1E4E70470000000064000020E4
:1015B000CC150000000009736574736F7572636564
:1015C000174802CF0660416040CF7047EA1500001F
:1015D000000006736F757263650047F8046D104E66
:1015E000043F7068386036687047241600000000B9
:1015F0000571756572790FB5084800210160FFF724
:10160000B5FF47F8046D47F8046DC826FFF777FF6C
:10161000FFF7D6FF0FBD000064000020E44F00205C
:10162000DC4F002072160000000007636F6D7061D0
:1016300072650FB5310040CF01CF884202D040CF54
:1016400000260FBD02CF002810D001380A5C335CA1
:10165000412A02D35B2A38BF2032412B02D35B2BB5
:1016600038BF20339A42EED000260FBD0026F64345
:101670000FBD8616000000000263720000B500F086
:1016800065F8010A00BD98160000000002626C00B7
:1016900047F8046D20267047AC1600000000057363
:1016A0007061636547F8046D20265FE6D21600007E
:1016B0000000067370616365730000B5002E06DDDF
:1016C00047F8046D2026FFF751FE013EF8D140CFC8
:1016D00000BDE21600005000065B636861725D00A9
:1016E00005E0FA160000000004636861720000B5AE
:1016F00001F078FB40CF367800BD0A17000050009B
:10170000012847F8046D292606E024170000500040
:10171000015C47F8046D002600B501F06DFB04374D
:1017200040CF00BD681700001000022E22009D4827
:1017300000B547F8046D060000F061FA47F8046D43
:10174000222601F059FB00F073FD00BD0AB447F8F2
:10175000046D7646013E33780121013319405B1850
:101760001EEB030E0ABC39E08E1700001000026366
:1017700022008D48DCE747F8046D7646013E337859
:101780000121013319405B181EEB030E7047B81797
:1017900000001000027322008448C9E747F8046D76
:1017A000764647F8046D013E36780121731C1940D6
:1017B0005B181EEB030E7047D01700000000056396
:1017C0006F756E74013647F8046D013E36787047C8
:1017D000F8170000000005637479706501B5307872
:1017E000002807D0013647F8046D3678FFF7BEFDB4
:1017F0000138F7D140CF01BD261800000000047465
:1018000079706500310040CF300040CF00B500292D
:1018100008D0002247F8046D865CFFF7A7FD01326F
:101820009142F7D100BD5E180000000004686578A1
:101830002E0003B5310040CF2020043847F8046D56
:1018400031FA00F616F00F06092E8CBF3736303607
:10185000FFF78CFD0028F0D1FFF724FF03BD6E18C1
:101860000000000003682E731FB5514C0EE07E1877
:101870000000000003752E731FB54E4C06E0FC18E7
:1018800000000000022E73001FB54B4C4B49C91BD2
:1018900089084B4A106803B40A201060FFF756FF0E
:1018A00008537461636B3A205B0047F8046D0E00C7
:1018B00001F06AFCFFF74AFF025D200003BC404ACA
:1018C000106000290AD03F4A106806B447F8046D3A
:1018D0000600A04706BC043A0139F5D1FFF736FFF0
:1018E0000620544F533A200047F8046D3600A047B5
:1018F000FFF72CFF04202A3E0A001FBDC819000074
:10190000000005776F72647300B5FFF71FFF06775D
:101910006F7264730A0000F0C0FEFFF717FF094101
:101920006464726573733A2047F8046DFFF781FFB2
:10193000FFF70CFF064C696E6B3A200047F8046D08
:101940003668FFF776FFFFF701FF07466C616773A4
:101950003A2047F8046DB688FFF76BFFFFF7F6FEF5
:1019600006436F64653A2000B01D00F0CFFE47F8D3
:10197000046D0600FFF75DFFFFF7E8FE064E616DA0
:10198000653A200047F8046D0636FFF727FFFFF79A
:10199000DDFE010A00F098FE300040CFBDD040CF00
:1019A00000BD00004C170000761700009C170000D7
:1019B0003318000079310000893100002C0200202A
:1019C000FC4F0020280200202C1B000000000D31DD
:1019D00032626974656E636F64696E670FB5FF2E5E
:1019E00004D847F8046D5FF0FF360FBD16F0FF1006
:1019F000B0420ED14FF6FF710840310C814208D140
:101A000016F0FF0656F4805647F8046D5FF0FF3677
:101A10000FBD16F0FF20B0420FD14FF6FF71084006
:101A2000310C814209D1360A16F0FF0656F40056F1
:101A300047F8046D5FF0FF360FBDFF223100114003
:101A4000300A1040884210D1300C104088420CD12E
:101A5000300E1040884208D116F0FF0656F440566A
:101A600047F8046D5FF0FF360FBD300000210131F3
:101A7000001850F100007FF07F020240802A05D05C
:101A80001F29F4D347F8046D00260FBD0829F9D3A8
:101A9000060036F0800611F00100C001064311F087
:101AA0000E00C002064311F010008005064347F8FF
:101AB000046D5FF0FF360FBD47F8046DDFF8C065B9
:101AC0005FF4704110EA0102120116435FF40061F5
:101AD00010EA0102D20316435FF4E06110EA01024A
:101AE00012011643FF2110EA010216431E438FE341
:101AF00047F8046DDFF88C655FF0704110EA010271
:101B0000120B16435FF0006110EA010252081643FF
:101B10005FF0E06110EA0102120B16435FF47F01EF
:101B200010EA0102120C16431E4371E3921B0000DF
:101B300000001072656769737465726C6974657210
:101B4000616C2C000FB5330040CF1B02FF2E05D86F
:101B500056F400561E4300F034FB0FBDFFF73EFF66
:101B6000002E40CF06D0DFF8200506431E4300F0CC
:101B70004FFB0FBDF643FFF731FF002E40CF06D0DD
:101B8000DFF8080506431E4300F042FB0FBDF64395
:101B90000BE0F21B00000000096D6F76776D6F7629
:101BA000742C0FB5330040CF1B02300040CFFFF73D
:101BB00083FF4FF6FF7110EA014001D0FFF798FF55
:101BC0000FBD0FB50136300040CF0023FFF774FF83
:101BD000FFF78EFF06E00FB5013647F8046D0026CB
:101BE000FFF7B0FF47F8046D44F2807600F0E9FAA1
:101BF0000FBD581C000000000563616C6C2C0FB514
:101C0000330000F026FE300040CF1B1A043BDFF803
:101C100080141940002906D0DFF87824914202D0C0
:101C2000BDE80F40D7E740CF5B08DFF86C0440F217
:101C3000FF7119400843DB0A40F2FF3119400904E3
:101C400008439B0A13F001018906084347F8046D15
:101C5000060000F0DDFA0FBD8E1C00000000086CCD
:101C600069746572616C2C0008B547F8046D4FF615
:101C7000470600F0A6FA47F8046D46F6045600F051
:101C8000A0FA47F8046D0626FFF75CFF08BDB21CFA
:101C900000000000066372656174650000B500F025
:101CA00033F841F6CF40804747F8046DBEF1010696
:101CB00000BDFA1C0000200005646F65733E41F60C
:101CC000CF40804747F8046DBEF10106704747F8E2
:101CD000046DBEF1010600F0AFF8F04A1368310060
:101CE00040CF0220084000D0023102311160FFF7DE
:101CF00068FF136000F0E5F900BD3C1D0000000026
:101D0000073C6275696C647300B500F05BFB00F022
:101D1000A0FD0220064040CF04D047F8046D3626CF
:101D200000F04FFA47F8046D4BF2005600F049FA04
:101D300047F8046D0A2600F0AEFA00BD481D000009
:101D40005000035B275D03E05E1D000000000127DB
:101D500000B501F047F800F017FD40CF00BDA41D0D
:101D60000000100008706F7374706F6E650000B52E
:101D700001F038F800F008FD300040CF102101409C
:101D80000DD12021014005D0FFF76EFF47F8046D0B
:101D9000C34E04E0FFF768FF47F8046DC14EFFF73C
:101DA0002EFF00BDFA1D0000000007696E6C696E11
:101DB000652C00B54BF200514BF6005244F27073A3
:101DC0003088884208D0904208D0984206D047F820
:101DD000046D060000F0F5F90236F1E740CF00BDD2
:101DE0000EB44BF6005244F27073018802309142F7
:101DF00001D09942F9D10EBC7047101E00000000BE
:101E0000047265742C0047F8046D4BF60056D8E157
:101E10001E1E00003000046578697400F3E7541E4C
:101E200000003000077265637572736500B500F0DD
:101E300003F8FFF7E4FE00BD0FB59B4800680630CD
:101E40000178013101220A408918401847F8046DD1
:101E500006000FBD6C1E000081000573746174657F
:101E600047F8046D914E7047000000007E1E000090
:101E70000000015D8D480021C943016070478E1E3E
:101E800000001000015B8948002101607047B61E08
:101E900000000000013A00B58548076000F092FAA2
:101EA00047F8046D4BF2005600F08BF97F48002193
:101EB000C943016000BDFE1E00003000013B00B5BB
:101EC0007B480168B9420ED0FFF740FC15205374DF
:101ED00061636B206E6F742062616C616E63656418
:101EE0002E0A01F0F3BA47F8046D4BF6005600F0E5
:101EF00068F900F0E6F86D480021016000BD141F8C
:101F0000000000000765786563757465300040CF98
:101F1000013087462C1F0000100009696D6D656453
:101F20006961746547F8046D1026F9E0421F0000EE
:101F3000100006696E6C696E650047F8046D202616
:101F4000EEE05C1F000010000B636F6D70696C6544
:101F50006F6E6C7947F8046D3026E1E0761F000063
:101F600010000A302D666F6C6461626C650047F882
:101F7000046D4026D4E0901F000010000A312D6649
:101F80006F6C6461626C650047F8046D4126C7E0C0
:101F9000AA1F000010000A322D666F6C6461626C2B
:101FA000650047F8046D4226BAE0C41F0000100027
:101FB0000A332D666F6C6461626C650047F8046DCE
:101FC0004326ADE0DE1F000010000A342D666F6C62
:101FD0006461626C650047F8046D4426A0E0F81F58
:101FE000000010000A352D666F6C6461626C65003C
:101FF00047F8046D452693E01220000010000A36D1
:102000002D666F6C6461626C650047F8046D46264E
:1020100086E02C20000010000A372D666F6C64618A
:10202000626C650047F8046D472679E05C2000008B
:10203000000008636F6E7374616E740000B500F089
:10204000C1F9FFF711FE47F8046D44F2707600F015
:10205000B8F8FFF78CFF00F034F800BDB4200000A2
:1020600000000932636F6E7374616E7400B500F026
:10207000A9F939683E600E46FFF7F6FDE1E700007A
:10208000000040F20000C0F200005FF000007FF0AE
:102090000100C0FF0000C0FF00F800F000000020B9
:1020A000B21D0000FE1B000004000020D84F0020DD
:1020B0001000002010210000000006736D75646799
:1020C000650000B523480168224A91421AD20239BC
:1020D0000A88214B9A4204D147F8046D1F4E00F044
:1020E00070F800F05DF81E48006847F8046D0600BF
:1020F0001C4909680431174A1368116000F061F83F
:10210000136000BD00F04CF847F8046D002608E0AD
:1021100068210000000008736574666C61677300D5
:1021200000B50C4801680B4A914205D20C48016881
:102130003143016040CF00BD320040CF0948006804
:1021400004300188044B99420CBF114611430180B1
:1021500000BD000000000020FFFF000000000000A4
:102160001C00002004000020762100000000056112
:102170006C69676E14E092210000410007616C6990
:10218000676E6564012030403618022030403618F2
:102190007047B8210000000007616C69676E342C3D
:1021A00000B57E4801680220014004D047F8046D64
:1021B000002600F006F800BDEC21000000000268D7
:1021C0002C000FB575480168744A914205D247F852
:1021D000046D0E00FEF7F1FE02E0320040CF0A80EF
:1021E00047F8046D022600F056F80FBD06220000E5
:1021F0000000012C00B547F8046DFFF7E2FF360C34
:10220000FFF7DFFF00BD222200000000033E3C2C50
:1022100000B547F8046D360CFFF7D3FFFFF7D1FF89
:1022200000BD8A220000000007737472696E672C7B
:1022300007B5FF21314040CF300040CF002905D104
:1022400047F8046D0026FFF7BCFF07BD47F8046D93
:10225000067836020E43FFF7B4FF01300139022938
:102260000AD347F8046D4678360202781643FFF722
:10227000A8FF02300239F2E7002900D107BD47F874
:10228000046D0678FFF79DFF07BDE4220000000003
:1022900005616C6C6F7441480168404A91420FD2ED
:1022A000320040CF89183E4A914219D3FFF74EFAC7
:1022B0000B466C6173682066756C6C0A01F006B998
:1022C000320040CF8918374A1268914208D3FFF78D
:1022D0003DFA0952616D2066756C6C0A01F0F6B822
:1022E000016070470C23000000000D636F6D706982
:1022F0006C65746F72616D3F47F8046D0026274866
:1023000000682649884248D3F64370472C230000D2
:1023100000000C636F6D70696C65746F72616D00A5
:102320001E4800681D49884211D37047B42300003D
:1023300000000E636F6D70696C65746F666C61731D
:102340006800164800681549884200D27047164850
:10235000164902680B680A60036010481449026855
:102360000B680A6003600F480068834215D300B50C
:10237000FFF7ECF923205661726961626C65732086
:10238000636F6C6C69646520776974682064696345
:1023900074696F6E6172790A00BD70470000002099
:1023A0000000010020000020040000201800002090
:1023B0001400002096240000000008286372656164
:1023C0007465290000B500F00DFD002E0ED1FFF759
:1023D000BDF91520437265617465206E656564738F
:1023E000206E616D6520210A01F070B8386847F8E9
:1023F000046D043F386000F098F940CF002E40CFC4
:1024000011D0386847F8046D043F3860FFF79EF933
:10241000095265646566696E6520FFF7F3F9FFF799
:1024200095F9022E0A00FFF7BBFE00F012FA8C4865
:1024300000688B4988421CD28A480021016047F815
:10244000046D0626FFF727FFFEF7AEFAFFF7F0FE52
:10245000854801680A68854B9A4207D1804A13680B
:10246000116047F8046DFFF7C5FE1360066040CFAA
:1024700000BD7D4847F8046D0668FFF7BBFE47F8CE
:10248000046D7B4EFFF79DFE7748310040CF016021
:10249000FFF7CEFE00BDAE2400000000087661729A
:1024A0006961626C650047F8046D012613E0C6247B
:1024B0000000000009327661726961626C6547F85C
:1024C000046D022607E0A02500000000096E766179
:1024D000726961626C6500B5FFF774FF604801685E
:1024E0005F4A914234D20F200640B2006148016831
:1024F000891A614A91420BD2FFF728F90F4E6F7487
:1025000020656E6F7567682052414D0A00F0DEBF8E
:10251000016047F8046D0E00FFF7A6FB47F8046D55
:1025200044F27076FFF74DFE300040CF02000028E5
:1025300005D00E600431FFF75DFE0138F9D147F890
:10254000046D80261643FFF7EBFDFFF7BAFD00BDD3
:1025500000F07FF90220064040CF04D147F8046D17
:102560003626FFF72EFE47F8046D444EFFF750FE67
:1025700047F8046D424EFFF74BFE47F8046D44F2F6
:102580007076FFF71EFE300040CF002803D0FFF723
:1025900031FE0138FBD1FFF7EAFCFFF792FD00BDE9
:1025A000842600000000076275666665723A00B511
:1025B000FFF708FF0120304036180220304036185F
:1025C00027480168264A914228D22A480168891B77
:1025D000294A91420BD2FFF7B9F80F4E6F7420656C
:1025E0006E6F7567682052414D0A00F06FBF016041
:1025F00047F8046D0E00FFF737FB47F8046D44F20F
:102600007076FFF7DEFDFFF7F5FD47F8046D40F249
:102610004016FFF785FDFFF754FD00BD00F019F9E6
:102620000220064040CF04D147F8046D3626FFF75C
:10263000C8FD47F8046D114EFFF7EAFD47F8046D39
:102640000F4EFFF7E5FD47F8046D44F27076FFF793
:10265000B8FDFFF720FEFFF78AFCFFF732FD00BD53
:10266000000000201C00002004000020FFFFFFFFEE
:10267000FFFF0000200000202C0300203E60043FEC
:1026800002367E46B226000000000F64696374695A
:102690006F6E617279737461727441480068404969
:1026A00047F8046D884201D23E4E70473E4E366870
:1026B0007047EC26000000000E64696374696F6E59
:1026C0006172796E6578740003B53168374881426C
:1026D00007D08879FF2804D00E0047F8046D002643
:1026E00003BD47F8046D0026F64303BD1E27000016
:1026F00000000A736B6970737472696E67003178D9
:10270000013101220A4089187618704706B4017811
:10271000013101220A408918401806BC7047B427CD
:10272000000000000466696E64003FB500220023CB
:10273000350040CF340040CFFFF7AFFF1C48B188D1
:10274000884217D047F8046D0636FFF73BF847F884
:10275000046D260047F8046D2E00FEF76AFF002E78
:1027600040CF07D0B01DFFF7D1FF02000B000C488F
:10277000824204D2FFF7A8FF300040CFDED016001F
:1027800047F8046D1E003FBD00B531003868FFF703
:10279000CCFF3A68002A01D100F06AFD00BD0000BC
:1027A000000000205001000004000020FFFFFFFF98
:1027B000FFFF00000E280000000006636A756D70C0
:1027C0002C00320040CF310040CF8B1B043BA3498B
:1027D000194000290DD0A24881420AD0FEF7B6FF69
:1027E0000D4A756D7020746F6F206661720A00F07B
:1027F0006DBE5B10FF210B40134330001E0000B57F
:10280000984A13681060FFF7DCFC136000BD46288F
:1028100000000000056A756D702C310040CF30005B
:1028200040CF0B1A043B90491940002902D08F4A2F
:102830009142D3D15B108E4A134053F4604347F862
:10284000046D1E00DBE75C28000000000468657270
:10285000650047F8046D834E3668704758290000BC
:1028600000000D666C6173687661722D6865726533
:1028700047F8046D7F4E3668704700B547F8046D21
:1028800042F60066FFF79DFC47F8046D4CF6407673
:10289000FFF797FC00BDDCE700B500F03AF83968B7
:1028A0003E600E4647F8046D4DF20016FFF789FFB3
:1028B00000BD00B500F02DF839683E600E4647F8BF
:1028C000046D4DF20076FFF77CFF00BD00B5FFF709
:1028D000D4FF00F01EF839683E600E4647F8046DDC
:1028E0004DF20006FFF76DFF00BD00B500F011F8D6
:1028F00039683E600E46FFF790FF00BD00B5FFF758
:10290000BCFFFFF7A6FF47F8046D0226FFF7C3FCE4
:1029100000BD00B5FFF79DFF47F8046D0226FFF7E5
:10292000BAFC00BD00B5FFF794FFFFF776FF00BDCE
:1029300000B5FFF78EFF47F8046D4DF20006FFF774
:1029400040FF00BD00B5FFF784FF47F8046D4DF26E
:102950000016FFF736FF00BD942900003000047414
:1029600068656E00052E01D140CFDBE7022E01D154
:1029700040CFDDE7FEF7EAFE175374727563747596
:1029800072657320646F6E2774206D617463680ACA
:1029900000F09CBDBE290000300004656C7365002A
:1029A00000B5022EE6D140CFFFF7B3FF39683E6095
:1029B0000E46FFF7BDFF47F8046D052600BDD6297A
:1029C000000030000269660000B5FFF797FF47F886
:1029D000046D022600BDFC290000300006726570FF
:1029E00065617400042EC5D140CF39683E600E4643
:1029F00000B5FFF77AFFFFF79BFF00BD182A000024
:102A00003000057768696C65012EB3D140CF00B501
:102A1000FFF7DAFF023600BD2C2A000030000575F2
:102A20006E74696C012EA5D140CF4FE7402A00009B
:102A3000300005616761696E012E9BD140CF54E77C
:102A4000782A0000300005626567696E00B5FFF7FF
:102A500022FF47F8046D012600BD000001FFFFFFC3
:102A600000FFFFFF0000002001F8FFFF00F8FFFF5C
:102A7000FF07000020000020882A00002000016BD2
:102A800047F8046D029E7047982A00002000016AF2
:102A900047F8046D009E7047A82A000020000169D5
:102AA00047F8046D26007047E82A00003000056CE6
:102AB0006561766500B5684801683B00043F1A68A7
:102AC000043B1A60043304338B42F8D103B4FFF79C
:102AD00020FF03BC330040CF04390B600160043990
:102AE0000A6801320A6000BDFA2A0000200006755B
:102AF0006E6C6F6F700030BC7047322B000030007E
:102B0000052B6C6F6F70032E00D033E740CF00B5FC
:102B100047F8046D514EFFF74CF9FFF7CAFE1AE073
:102B200014F10044641BA41940CF2C44A4F10044C8
:102B30007047742B00003000046C6F6F7000032E20
:102B400000D017E740CF00B547F8046D444EFFF7BB
:102B500030F9FFF7A1FE00F023F93F48310040CFE4
:102B6000016047F8046D3F4EFFF723F900BD0134C3
:102B7000AC427047BC2B0000780002646F0000B5C7
:102B800047F8046D384EFFF714F93348016847F8E9
:102B9000046D0E0047F8046D00260760FFF77BFE0A
:102BA00047F8046D032600BD00B500F02FF8ECE7F0
:102BB00030B4340040CF350040CF70476C2C00005B
:102BC0007800033F646F00B547F8046D264EFFF7A9
:102BD000F0F847F8046D44F2AC26FFF7F2FA1E480D
:102BE000016847F8046D0E00FFF793FE013647F8C1
:102BF000046D012618480760FFF74DFE47F8046D85
:102C0000032600BD00B500F001F8E2E700B547F883
:102C1000046D4BF23046FFF7D4FA47F8046D0426F2
:102C2000FEF790FF013B08D047F8046D0526FEF73C
:102C300089FF013B00F023FC00BD47F8046D3526F9
:102C4000FFF7BFFA47F8046D4CF64076FFF7B9FA84
:102C500000F015FC00BD00000C000020202B00003F
:102C60006E2B0000F62A0000B02B0000862C00001E
:102C7000300004636173650047F8046D002647F86F
:102C8000046D082670479C2C00003000033F6F66DF
:102C90004D4809E0013EB64140CF7047402D00004D
:102CA0007800026F66004948082E00D062E640CFE7
:102CB00000B547F8046D0600FFF77BF8FFF729FE23
:102CC00039683E600E46013647F8046D092647F81C
:102CD000046D4CF64076FFF774FA00BD00B5300085
:102CE00040CF013B01B400F0CAFB01BC082E00D06C
:102CF00040E640CF47F8046D0600FF213140B14265
:102D000004D133490E43FFF75CFAD7E7FEF766FEBE
:102D1000002E40CF04D02F480643FFF779FACDE7C5
:102D200047F8046D0026FEF70DFF47F8046D44F2E6
:102D3000B026FFF746FAC1E7300040CFB0427047F7
:102D4000762D0000300005656E646F66092E00D098
:102D500010E640CF00B540B440CFFFF7DAFD396848
:102D60003E600E46FFF7EEFD47F8046D40BC47F8A5
:102D7000046D082600BDD82D0000300007656E6484
:102D800063617365082E00D0F4E540CF00B547F8C5
:102D9000046D4CF64076FFF714FA00F001F800BD20
:102DA00000B5300040CF00280DD003B401213140E0
:102DB000002903D0013EFFF7BBFD01E0FFF7B2FDA4
:102DC00003BC0138EFE700BD942C0000382D000053
:102DD000002E0000000FB6F1EC2D0000000005747D
:102DE0006F6B656E47F8046D202605E0482E0000E5
:102DF000000005706172736510B5FEF7EEFB3100DF
:102E000040CF300040CF0F4A12688418202E07D1DF
:102E100091420FD0835CB34202D101328418F7E7AC
:102E2000914207D0835C0132B342F9D18618361B38
:102E3000013E01E08618361B043F3C6001480260F9
:102E400010BD0000E44F0020862E00000000056445
:102E500069676974CE4B1B68303E0BD30A2E0BD3C7
:102E6000073E0A2E06D3242E06D3203E0A2E01D377
:102E7000242E01D3002670479E42FBD247F8046DF2
:102E80000026F6437047902F00000000066E756D17
:102E9000626572003FB5310040CF701E01260122ED
:102EA00004B4BB4B1B680024002500293CD0013032
:102EB000013902782D2A04D101B00022D24304B492
:102EC000F3E7232A01D10A23EFE7242A01D11023B3
:102ED000EBE7252A01D10223E7E72E2A01D10226BA
:102EE000E3E72C2A36D047F8046D1600FFF7B4FF4D
:102EF000002E40CF2BD047F8046D260047F8046D14
:102F00002E0047F8046D1E0047F8046D00260FB42C
:102F1000FDF757FA0FBC350040CF340040CF0022F8
:102F2000A419554140CFC0E704BC002A04D50022B3
:102F3000E443ED430134554133002600012B02D018
:102F400047F8046D2E0047F8046D1E003FBD01B028
:102F500000263FBD2500002402260029E4D0425C63
:102F600001392E2AF9D047F8046D1600FFF774FFD7
:102F7000002E40CFEBD0043F3C6047F8046D1E00AC
:102F80000FB4FDF7CDFA0FBC340040CF40CFE4E7DB
:102F9000B02F00000000062E6469676974000A2ED5
:102FA0003CBF303603E0242E34BF3736232670472B
:102FB000E62F0000000004686F6C6400330040CF0F
:102FC000744801783F290DD2013101704018012960
:102FD00007D0013802780130027001380139012927
:102FE000F7D10370704706300000000005686F6C71
:102FF000643C330040CF674801783F2902D2013159
:103000000170435470471E3000000000047369676C
:103010006E00002E01D440CF70472D26CEE732300F
:103020000000000002233E005A4806780130386054
:1030300070474A30000000000366235310B5202477
:1030400000F008F8013CFBD110BD6C30000000001E
:103050000266230000B547F8046D4D4E3668FDF753
:103060009CF9FFF79CFFFFF7C4FF00BD883000000C
:1030700000000223530000B500F00AF8002EFBD137
:1030800038680028F8D100BDB430000000000123EA
:1030900000B547F8046D3E4E366847F8046D0026CB
:1030A000FDF79EFAFDF782F840CFFFF778FFFFF7B4
:1030B00085FF00BDC63000000000023C23003548FB
:1030C000002101707047D8300000000002662E0019
:1030D00047F8046D202604E0263100000000036656
:1030E0002E6E00B510B4340040CFFDF747FCFDF75D
:1030F00010F947F8046D0026FFF7E1FFFFF7BBFF6B
:1031000040CF2C26FFF775FF002C03D0FFF7A2FF5E
:10311000013CFBD110BC40CFFFF77BFF47F8046DAB
:1031200047F8046D1CE03C31000000000375642E7C
:1031300000B5FFF7C4FFFFF79EFF11E06E310000FE
:10314000000002642E0000B5FDF718FCFDF7E1F861
:10315000FFF7B5FFFFF78FFFFDF71AFCFFF759FFE9
:10316000FFF762FFFEF74EFBFEF79CFA00BD8031D1
:103170000000000002752E0047F8046D0026D7E716
:10318000983100000000012E47F8046DF617DAE7C9
:10319000FC4F002024000020E03100000000086502
:1031A00076616C756174650000B5FEF716FA01CFA3
:1031B00001B440B440CFD448016802B4002101609A
:1031C000FEF7FEF900F014F8CF4802BC016047F8A2
:1031D000046D40BC01BC043F3860FEF7F1F900BD4E
:1031E000A4340000000009696E7465727072657421
:1031F00030B5C64887420BD9FEF7A8FA1053746160
:10320000636B20756E646572666C6F770A005DE1B2
:10321000BF4887420AD2FEF799FA0F537461636B75
:10322000206F766572666C6F770A4FE1B94C25683E
:10323000002D01D13D002560FFF7D4FD002E02D105
:10324000043740CF30BD386847F8046D043F38601C
:10325000FFF76BFA310040CF320040CF002A13D184
:1032600038683100FFF716FE320040CF002AC0D187
:10327000FEF7CCFAFEF76AFA0C206E6F7420666FC8
:10328000756E642E0A0021E1A34B1B68002B1DD133
:103290000025256030230B40302B0ED1FEF7B2FA0B
:1032A000FEF754FA1220697320636F6D70696C65C4
:1032B0002D6F6E6C792E0A0008E1043740CF47F875
:1032C000046D1600FEF722FEFFF793FF043740CF90
:1032D000802008400ED1EB1B9B08402008400FD0F7
:1032E0000820084002D0002B00D01DE00F2008402D
:1032F000834205D347F8046D1600FEF707FE78E712
:1033000000F0BDF847F8046D160010220A4002D004
:10331000FEF7FCFD6DE720220A4002D0FEF749FDD2
:1033200067E7FEF76CFC64E7072001401000FEF73A
:1033300057FD01291FD1012BDCD1FF213140B142C2
:1033400004D140880643FEF73CFF52E7FEF746FBF8
:10335000002E40CF04D040680643FEF759FF48E7EF
:1033600047F8046D0026FEF7EDFB47F8046D06886C
:10337000FEF727FF3DE7022902D1012BBAD1EFE783
:10338000032926D1012BB5D1FF213140B1420AD109
:1033900062490E43FEF715FF043247F8046D16002C
:1033A000FEF707FD25E7FEF719FB002E40CF04D0FE
:1033B0005B490E43FEF72CFFEEE747F8046D00264D
:1033C000FEF7C0FB023247F8046D1600FEF7F1FC71
:1033D0000FE7042918D1012B8CD1330040CF002BEB
:1033E00000D106E71F221A409A4205D047F8046D23
:1033F0004688FEF7E6FEFCE647F8046D06889B016A
:103400001E43FEF7DEFEF4E6052924D1012B10D180
:1034100047F8046D0026FEF795FB47F8046D06009B
:10342000FEF7C7FC47F8046D4CF64076FEF7C9FE80
:10343000DFE647F8046D0026FEF784FB47F8046DCD
:103440000126FEF77FFBFEF7CBFC47F8046D060074
:10345000FEF7AFFCCDE606290ED1012B7FF44AAF73
:10346000FEF7BCFA002E40CF3FF47AAFD0F802004E
:103470000643FEF7CDFEBCE601308047B9E600B555
:10348000002B0CD0013B47F8046D1E0057F8266056
:10349000FEF7EAFB002BF5D1043D2F0040CF0025BD
:1034A000256000BDC0340000810009686F6F6B2D7E
:1034B0007175697447F8046D1A4E7047F434000052
:1034C000383500000000047175697400DFF858D0C9
:1034D0000E4F16480A2101600F48002101600D4877
:1034E00001600948016012480160124941600D48BD
:1034F00000688746FEF77FF8FFF77AFEFEF726F9A9
:1035000005206F6B2E0AF5E7E44F00202C02002007
:103510002C01002008000020D84F0020003E0000B1
:103520000006B6F1D44F00202C030020FC4F0020F1
:10353000DC4F0020640000204835000020000465B6
:10354000696E740062B6704758350000200004644C
:10355000696E740072B670476E3500002000046911
:103560007073720047F8046DEFF3058670477A3583
:1035700000000000036E6F707047BC350000000053
:1035800009756E68616E646C656400B5FEF7DEF8FF
:1035900014556E68616E646C656420496E74657262
:1035A00072757074200047F8046DEFF30586FEF71E
:1035B00040F9FEF7CBF802210A0000BDE635000015
:1035C00081000B6972712D7379737469636B47F8AD
:1035D000046D9F4E70478A35000044F6D070C2F2E9
:1035E0000000006887460E3600008100096972718C
:1035F0002D6661756C7447F8046D964E70478A3578
:10360000000044F6CC70C2F20000006887463C36E9
:10361000000081000E6972712D636F6C6C656374BC
:10362000696F6E0047F8046D8B4E70478A35000055
:1036300044F6C870C2F20000006887466436000095
:103640008100096972712D657874693047F8046DDD
:10365000824E70478A35000044F6C470C2F2000002
:10366000006887468C3600008100096972712D65FB
:103670007874693147F8046D794E70478A350000D7
:1036800044F6C070C2F2000000688746B4360000FD
:103690008100096972712D657874693247F8046D8B
:1036A000704E70478A35000044F6BC70C2F20000CC
:1036B00000688746DC3600008100096972712D655B
:1036C0007874693347F8046D674E70478A35000097
:1036D00044F6B870C2F20000006887460437000064
:1036E0008100096972712D657874693447F8046D39
:1036F0005E4E70478A35000044F6B470C2F2000096
:10370000006887462A3700008100076972712D61C1
:10371000646347F8046D564E70478A35000044F6DE
:10372000B070C2F200000068874600400000FFFF52
:10373000182D2D2D20466C617368204469637469CF
:103740006F6E617279202D2D2D00FDF795FE494891
:103750008546494F2A264948464901604848494913
:10376000016047F8046D474E474DB188474B994279
:1037700024D0474B0B400AD0B01DFEF7C7FFFEF721
:103780002FFB0388408800040343ED1A16E08023D2
:103790000B4013D00F23194089006D1AB01DFEF79E
:1037A000B5FFFEF71DFB47F8046D060047F8046DF2
:1037B0002E0047F8046D0E00FDF770FAFEF784FF47
:1037C000300040CFD1D03348066040CF324805604A
:1037D000324833492D4A884204D002380388934244
:1037E000F9D002302F490860FDF7B0FF374D65630F
:1037F000726973702D5374656C6C617269732032D9
:103800002E302E3220666F722053544D33324631A3
:103810003033206279204D61747468696173204B84
:103820006F63680A20480021016047F8046D1F4E4D
:1038300047F8046D0426FEF778FF40CF002E02D033
:10384000FEF764FB53E640CF40E6696E6974000002
:10385000D04F0020CC4F0020C84F0020C44F002084
:10386000C04F0020BC4F0020B84F0020B44F0020B4
:10387000B04F00202C0300202C020020000000206C
:10388000040000205001000000500020FFFF000055
:1038900000010000180000202000002000000100AE
:1038A0000040000014000020080000204A380000FA
:0400000508000000EF
:00000001FF
