S01900006B6C32357A3132382F6B6C32357A3132382E7372656336
S11300002CF3FF1F4D3D0000553C0000553C000003
S113001000000000000000000000000000000000DC
S11300200000000000000000000000007F3C000011
S113003000000000000000007F3C0000333C000092
S11300407F3C00007F3C00007F3C00007F3C0000C0
S11300507F3C00007F3C00007F3C00007F3C0000B0
S11300607F3C00007F3C00007F3C00007F3C0000A0
S11300707F3C00007F3C00007F3C00009F3C000070
S1130080BF3C00007F3C00007F3C00007F3C000040
S11300907F3C00007F3C00007F3C00007F3C000070
S11300A07F3C0000DF3C00007F3C00007F3C000000
S11300B07F3C00007F3C0000013D0000253D000026
S11300C0FFFFFFFFFFFFFFFFFFFFFFFFFFFFFFFF3C
S11300D0FFFFFFFFFFFFFFFFFFFFFFFFFFFFFFFF2C
S11300E0FFFFFFFFFFFFFFFFFFFFFFFFFFFFFFFF1C
S11300F0FFFFFFFFFFFFFFFFFFFFFFFFFFFFFFFF0C
S113041038040000FFFF1E2D2D2D204D65637269E9
S113042073702D5374656C6C6172697320436F72C1
S113043065202D2D2D00C0465004000042000432DA
S1130440647570003868043F3E60043F386070474C
S1130450640400006200053264726F70043740CF98
S11304607047C0468404000044000532737761700D
S113047007CF043F3860043F3E60043F3A600E00FB
S11304807047C04698040000620004326E69700030
S113049007CF043F38607047B404000044000532BD
S11304A06F766572B868043F3E60043F3860FE684A
S11304B07047C046D8040000440005327475636B6D
S11304C007CF043F3860043F3E60043F3A60043F76
S11304D03960043F38607047FC0400004600043271
S11304E0726F74003868B9683A69B86039613A6003
S11304F079687E60FE68F9607047C0462005000098
S1130500460005322D726F743868B9683A693861EB
S11305103960BA60F968FE607E6879607047C046E9
S113052034050000200003323E7201CF01B440B410
S113053040CF70474C05000020000332723E043F58
S11305403E6040BC01BC043F386070476405000055
S1130550200003327240043F3E60019E043F3E602F
S1130560009E704778050000200006327264726FA6
S1130570700002B07047C04690050000420003645A
S1130580322F3868F1077610400808433860704706
S1130590A405000062000364322A3868001876411A
S11305A038607047C005000042000464736872003C
S11305B03868F10776084008084338607047C04639
S11305C0D80500006200046473686C003868001881
S11305D0764138607047C046EC0500004200046470
S11305E061627300002E16D47047C04608060000EE
S11305F04300083F646E656761746500300040CF56
S1130600002808D47047C04628060000420007644A
S11306106E656761746538680021C043F643013034
S11306204E4138607047C0464006000064000264D2
S11306302D0007CF121AB1410E00043F3A607047F3
S113064058060000640002642B0007CF12184E41C4
S1130650043F3A607047C0466C06000061000373B3
S11306603E64043F3E60F6177047C046980600009B
S1130670420003756D2A3868030073433B60010C24
S1130680320C0B005343B6B280B24E43504336187B
S1130690360CF6187047C046C80600004200026DCA
S11306A02A003868C11705D040423860F01704D0DA
S11306B07642E0E7F017DED0764200B5FFF7DBFFC5
S11306C0FFF7A9FF00BDC0460807000044000375FA
S11306D0642A07CF564341437618010C130C59433F
S11306E07618010C80B292B2514343435043002226
S11306F0C91852411204B6180A04090C80184E4154
S1130700043F38607047C0469C07000044000475ED
S1130710646D2A0010B50024043F3E607E68043FE7
S11307203E603E69FFF7A7FF310040CF300040CF65
S1130730043F3E603E68043F3E60FE6803B4FFF73A
S11307409AFF03BC330040CF320040CF043F3E60E9
S11307503E68043F3E603E690FB4FFF78CFF0FBC58
S11307609219634140CF89196241634140CF043FEC
S11307703E607E68043F3E60FE680FB4FFF77BFF77
S11307800FBC9219634140CF89196241634140CF44
S11307901E003A607960B86010BDC046C007000012
S11307A04300022A2F0000B540B440CFFFF779FF81
S11307B0043F3E6040BC00F065F8043700BDC0460D
S11307C0E40700004300052A2F6D6F6400B540B4B0
S11307D040CFFFF766FF043F3E6040BC00F052F894
S11307E000BDC04608080000430003752A2F00B569
S11307F040B440CFFFF73FFF043F3E6040BC00F0F1
S11308001CF8043700BDC0462C08000043000675E0
S11308102A2F6D6F640000B540B440CFFFF72BFF63
S1130820043F3E6040BC00F008F800BD78080000BA
S1130830430006756D2F6D6F640010B478683968D5
S113084000220024202364000018494152419642AA
S113085001D8921B0134013BF5D1202364004918CF
S11308605241964201D8921B0134013BF6D1043720
S11308703A60260010BC7047EC0800004300056D88
S11308802F6D6F6400B5F01718D0764200F024FA8B
S1130890F0170DD0FFF7BFFE00F011FAFFF7CDFF00
S11308A039683E600E46764239683E600E4600BDA9
S11308B000F005FAFFF7C1FF764200BD00F00CFA24
S11308C0F0170ED0FFF7A7FE00F0F9F9FFF7B5FF18
S11308D0764239683E600E46764239683E600E467E
S11308E000BD00F0ECF9FFF7A8FF00BD48090000C7
S11308F044000675642F6D6F640030B43C68B868BA
S113090079680022002520236D00001849415241D6
S1130910944201D8121B0135013BF5D120B40025C6
S113092020206D00491852415B419E4204D89442F4
S113093002D8121BB34101350138F2D13D60BA60CF
S11309407B6040BC30BC7047C009000044000564B3
S11309502F6D6F6400B5F01719D0FFF75CFEFFF739
S113096087FDF0170CD0FFF756FEFFF781FDFFF768
S1130970C4FFFFF77DFDFFF74EFEFFF779FD00BDD5
S1130980FFF776FDFFF7B9FFFFF745FE00BDFFF760
S11309906FFDF0170ED0FFF73EFEFFF769FDFFF77E
S11309A0ACFFFFF738FEFFF763FDFFF734FEFFF7F8
S11309B05FFD00BDFFF75CFDFFF79FFF00BDC04674
S11309C0D8090000440002642F0000B5FFF7C2FFFD
S11309D0FFF75EFD00BDC046700A000044000266D9
S11309E02A0000B5F0170DD0FFF715FEFFF740FD04
S11309F0F0170DD0FFF70FFEFFF78CFE40CF01CFAD
S1130A00386000BDFFF734FDF017F5D0FFF703FEA3
S1130A10FFF780FE40CF01CF3860FFF7FCFD00BD3B
S1130A2030B43C68B9687A680023002520206D0042
S1130A30491852415B419E4204D8944202D8121B89
S1130A40B34101350138F2D1290020206D009218FC
S1130A505B419E4204D8944202D8121BB341013533
S1130A600138F3D13D60BA607B600E0030BC704742
S1130A70BC0A0000440002662F0000B5F0170ED037
S1130A80FFF7C9FDFFF7F4FCF0170ED0FFF7C3FD25
S1130A90FFF7EEFCFFF7C4FFFFF7FAFC00BDFFF71A
S1130AA0E7FCF017F4D0FFF7B6FDFFF7E1FCFFF722
S1130AB0B7FFFFF7B0FDFFF7EBFC00BDD00A000065
S1130AC020000232210006CF3160726040CF7047AF
S1130AD0E40A0000200002324000043F70683860DD
S1130AE036687047040B000044000364753C07CF6C
S1130AF08E4204D801D1904201D8002670470026C6
S1130B00F6437047240B000044000364753E07CF8E
S1130B10B14204D801D1824201D800267047002690
S1130B20F6437047440B0000440002643C0007CFC6
S1130B308E4204DC01D1904201DC0026704700267D
S1130B40F6437047640B0000440002643E0007CF84
S1130B50B14204DC01D1824201DC00267047002648
S1130B60F6437047740B000062000364303C0437A2
S1130B70F6177047900B000042000364303D01CF2C
S1130B80002801D000267047013EB6417047C04698
S1130B90AC0B0000440003643C3E07CF904201D1FB
S1130BA0761A01D00026F6437047C046C80B0000F1
S1130BB0440002643D0007CF904201D000267047F4
S1130BC0761A013EB6417047DC0B00002000037327
S1130BD07040043F3E603E007047C046EC0B00008E
S1130BE0200003737021370040CF7047000C0000D1
S1130BF0200003727040043F3E606E467047C0465A
S1130C00100C0000200003727021B54640CF7047DD
S1130C102C0C00000000056465707468F549C91B5C
S1130C208908043F3E600E007047C0463C0C00003B
S1130C30610003647570043F3E6070474C0C000013
S1130C4061000464726F700040CF7047640C000050
S1130C506100043F64757000002E01D0043F3E60C3
S1130C607047C046780C000062000473776170001E
S1130C7039683E600E007047880C00006200036E05
S1130C80697004377047C0469C0C00006200046F12
S1130C9076657200043F3E607E687047B40C0000C5
S1130CA06200047475636B0001CF083F7E60386096
S1130CB07047C046CC0C0000630003726F7403CF0E
S1130CC0083F78603E600E007047C046E40C0000A8
S1130CD06300042D726F740003CF083F7E60396097
S1130CE006007047F80C00002000047069636B0074
S1130CF0B0003E587047C046080D00002000023E78
S1130D00720040B440CF70471C0D000020000272F6
S1130D103E00043F3E6040BC7047C046300D0000BA
S1130D20200002724000043F3E60009E7047C046AF
S1130D30400D00002000057264726F7001B07047AE
S1130D40580D00006000047472756500043F3E6035
S1130D500026F6437047C0466C0D0000600005662F
S1130D60616C7365043F3E6000267047800D00008F
S1130D706A0003616E6401CF064070470640C046B6
S1130D80940D00006A000362696301CFB04306005A
S1130D9070478643A80D00006A00026F720001CFFD
S1130DA0064370470643C046BC0D00006A00037842
S1130DB06F7201CF464070474640C046CC0D0000DC
S1130DC06100036E6F74F6437047C046EC0D00007B
S1130DD0410003636C7A300006D00026400002D044
S1130DE001D20136FAE7704720267047FC0D000057
S1130DF061000373687276087047C0460C0E0000E9
S1130E0061000373686C76007047C0461C0E0000D6
S1130E10610003726F720120C6417047300E0000FA
S1130E20610003726F6C0020B61946417047C046DA
S1130E304C0E00006C00067273686966740001CF82
S1130E40F0400600704736080026C046680E0000D1
S1130E506C00076172736869667401CF30410600E3
S1130E6070473610F617C046840E00006C00066CFE
S1130E7073686966740001CFB0400600704736009D
S1130E800026C046940E0000610002303D00013E81
S1130E90B6417047A80E0000610003303C3E013E9D
S1130EA0B641F6437047C046B80E000061000230F8
S1130EB03C00F6177047C046D40E00004200023EC4
S1130EC03D0001CFB04201DA002670470026F64308
S1130ED07047C046F00E00004200023C3D0001CFC6
S1130EE0B04201DD002670470026F6437047C04635
S1130EF0080F00004200013C01CFB04202DA002694
S1130F00F643704700267047200F00004200013E60
S1130F1001CFB04202DD0026F64370470026704739
S1130F20340F0000620003753E3D01CF861BB641BD
S1130F30F6437047480F0000620003753C3D01CF43
S1130F40361AB641F64370475C0F00006200027522
S1130F503C0001CF861BB6417047C046700F0000AD
S1130F60620002753E0001CF361AB6417047C04692
S1130F70880F00006B00023C3E0001CF361A01D0FE
S1130F800026F6437047C0469C0F00006B00013DED
S1130F9001CF361A013EB6417047C046B00F00007B
S1130FA06200036D696E01CFB04200DA060070473B
S1130FB0C40F00006200036D617801CFB04200DB12
S1130FC006007047DC0F0000620004756D61780054
S1130FD001CFB04200D306007047C046F80F0000AE
S1130FE0620004756D696E0001CFB04200D806003E
S1130FF0704700002CF2FF1F381000000000046D41
S11310006F76650007B5310040CF320040CF00292C
S11310100FD0B2420DD006D3013E013A705C505459
S11310200139FBD105E03078107001360132013905
S1131030F9D140CF07BDC0465C1000000000046633
S1131040696C6C00300040CF310040CF002902D0E1
S113105001397054FCD140CF7047C046681000007D
S11310602000014036687047801000006D000121A7
S113107003CF30600E007047066070470160704710
S1131080A81000006D00022B210003CF3268121853
S113109032600E007047026892190260704702685D
S11310A0521802607047C046B81000002000026861
S11310B0400036887047C046D41000006D000268B6
S11310C0210003CF30800E007047068070470180F6
S11310D07047C046FC1000006D0003682B2103CF4D
S11310E03288121832800E007047028892190280EA
S11310F070470288521802807047C0460C110000E5
S113110020000263400036787047C0462811000072
S11311106D000263210003CF30700E00704706702B
S1131120704701707047C046501100006D000363A2
S11311302B2103CF3278121832700E0070470278D8
S11311409219027070470278521802707047C046B4
S1131150781100006D0004626973210003CF3268C6
S1131160024332600E0070470268324302607047E7
S113117002680A4302607047A01100006D00046217
S11311806963210003CF3268824332600E007047E6
S11311900268B2430260704702688A430260704783
S11311A0C81100006D0004786F72210003CF32680B
S11311B0424032600E00704702687240026070471D
S11311C002684A4002607047E41100002000046293
S11311D06974400001CF3668064001D00026F6430A
S11311E07047C0460C1200006D00056862697321E7
S11311F003CF3288024332800E00704702883243A4
S11312000280704702880A4302807047341200004B
S11312106D0005686269632103CF3288824332809E
S11312200E0070470288B2430280704702888A43E6
S1131230028070475C1200006D000568786F7221AF
S113124003CF3288424032800E00704702887240D9
S11312500280704702884A4002807047781200007A
S1131260200005686269744001CF3688064001D0C9
S11312700026F6437047C046A01200006D000563C7
S11312806269732103CF3278024332700E007047D3
S1131290027832430270704702780A430270704742
S11312A0C81200006D0005636269632103CF3278C0
S11312B0824332700E0070470278B2430270704766
S11312C002788A4302707047F01200006D000563D3
S11312D0786F722103CF3278424032700E0070472B
S11312E0027872400270704702784A400270704778
S11312F00C130000200005636269744001CF367846
S1131300064001D00026F6437047C0461C13000077
S113131061000563656C6C2B043670472C13000068
S113132061000563656C6C73B60070473C14000083
S1131330000006666C6173682100300040CF310004
S113134040CF854B984268D3844B99422ED00322D8
S113135002402CD102689A4246D1814A13788022F5
S11313601A40FAD030221A4002D07D4A302313703A
S11313707C4A062313707C4A1070000A7B4A107062
S1131380000A7B4A10707B4A1170090A7A4A11706C
S1131390090A7A4A1170090A794A1170704A80233D
S11313A013706F4A137880221A40FAD0704700F005
S11313B033FD304164647265737320686173207413
S11313C06F20626520342D616C69676E65642066E8
S11313D06F722077726974696E6720666C617368D6
S11313E020210A0002F09AFB00F016FD29466C61E8
S11313F07368206C6F636174696F6E2063616E6ED5
S11314006F74206265207772697474656E207477D6
S113141069636520210A02F081FB00F0FDFC194399
S1131420616E6E6F7420777269746520696E746F73
S113143020636F726520210A02F070FBC014000063
S113144000000E666C617368706167656572617334
S113145065000FB5300040CF3F4B984220D30323A3
S113146098433F4A137880221A40FAD030221A4017
S113147002D03B4A302313703A4A092313703A4A84
S11314801070000A394A1070000A394A1070344A40
S113149080231370324A137880221A40FAD00FBD89
S11314A000F0BAFC1443616E6E6F74206572617350
S11314B06520636F726520210A0002F02FFBC0468D
S11314C03C15000000000A6572617365666C617307
S11314D06800214872B62B492B4A036893421CD0FA
S11314E0043F3E600600043F3E6000F095FC10455A
S11314F07261736520626C6F636B206174202000DD
S113150000F002FD00F088FC0C2066726F6D20462E
S11315106C6173680A00FFF79CFF04308842DCD1D9
S113152000F07AFC1246696E69736865642E205275
S11315306573657420210A0002F00DFC2C1600006E
S113154000000E6572617365666C61736866726F24
S11315506D00300040CFBDE700400000FFFFFFFFFB
S1131560000002400700024004000240050002405F
S11315700600024008000240090002400A0002403E
S11315800B00024000000200FFFFFFFF5D486021E6
S11315900022028002300139FBD170475948602192
S11315A00288002A12D000F037FC1D556E70616964
S11315B07265642031362D62697420466C617368EB
S11315C02077726974652E0A02F0A8FA0230013994
S11315D0E6D170474B482021028843881B041A43F4
S11315E0B24221D006300139F6D100F015FC344C5A
S11315F06F636174696F6E206E6F7420666F756EB1
S11316006420696E20466C61736820777269746522
S113161020636F6C6C656374696F6E207461626CB7
S1131620652E0A0002F07AFA8688704708170000CF
S113163000000768666C6173682130B5320040CFE2
S11316400120104013D000F0E7FB1E68666C617344
S11316506821206E65656473206576656E2061641B
S1131660647265737365732E0A0002F057FA0223DD
S1131670534024482021048845882D042C439C424F
S11316802BD006300139F6D11E4820210488458824
S11316902D042C43002C1AD006300139F6D100F069
S11316A0BBFB27546F6F206D616E7920756E70617E
S11316B0697265642031362D62697420466C6173E9
S11316C068207772697465732E0A02F027FA028023
S11316D0120C4280868040CF30BD0221114003D0DD
S11316E0023A8188360401E0818809040E43043FEC
S11316F03E6016000021018041808180FFF71DFEBD
S113170030BD00002CF3FF1F1C1700006900012BE3
S113171001CF3618704736180036C046301700001F
S11317206900012D01CF861B7047361A003EC04662
S113173040170000610002312D00013E7047C04691
S113174050170000610002312B0001367047C0467B
S113175060170000610002322D00023E7047C0464F
S113176070170000610002322B0002367047C04639
S1131770841700006100066E656761746500764237
S11317807047C04698170000610003616273002E21
S113179000D576427047C046E01700004200057548
S11317A02F6D6F64310040CF002903D1043F3E60A8
S11317B000267047012200238E4206D9003104D44A
S11317C05200490001D48E42FAD88E4201D3761ACF
S11317D0134349085208F8D1043F3E601E00704785
S11317E0501800004200042F6D6F640000B53000F3
S11317F040CF002E1CDA764200280CDA4042043F27
S11318003E600600FFF7CEFF300040CF7642043F33
S11318103E60060000BD043F3E600600FFF7C2FFC5
S1131820300040CF40427642043F3E60060000BD97
S1131830002807DA4042043F3E600600FFF7B2FF8B
S1131840764200BD043F3E600600FFF7ABFF00BDDB
S1131850641800004200036D6F6400B5FFF7C6FF13
S113186040CF00BD781800004200012F00B5FFF7FB
S1131870BDFF043700BDC046881800006A00012A75
S113188001CF464370474643981800006100023276
S11318902A0076007047C046A81800006100023292
S11318A02F0076107047C046BC1800006100046524
S11318B076656E000120304036187047D418000059
S11318C08100046261736500043F3E60124E7047FC
S11318D00A000000EC18000000000662696E6172E4
S11318E079000D48022101607047C04604190000C8
S11318F0000007646563696D616C07480A21016033
S11319007047C04664190000000003686578024807
S11319101021016070470000FC2F00208349844897
S1131920016084498448016084498548016085498F
S1131930854801608548016000218548017085481B
S11319400170854801708548017006218448017042
S11319500021844801701A21834801700C217C48BD
S11319600170704780190000810009686F6F6B2D4A
S1131970656D6974043F3E607C4E7047821A0000B6
S11319809C190000810008686F6F6B2D6B657900EE
S1131990043F3E60764E7047AA1A0000BC1900004E
S11319A081000A686F6F6B2D656D69743F00043F99
S11319B03E60704E7047D81A0000C046D819000027
S11319C0810009686F6F6B2D6B65793F043F3E6042
S11319D0694E70470A1B0000F819000081000A686C
S11319E06F6F6B2D706175736500043F3E60634ECD
S11319F07047CE3B0000C046101A0000000004658A
S1131A006D6974000FB5594800F02FF80FBDC0463A
S1131A10241A00000000036B65790FB5544800F0E8
S1131A2024F80FBD3C1A0000000005656D69743F81
S1131A3000B5504800F019F800BDC046541A000023
S1131A400000046B65793F0000B54B4800F00DF8C9
S1131A5000BDC046701A0000000005706175736512
S1131A6000B5464800F001F800BD00688746C0464E
S1131A70981A000000000B73657269616C2D656D26
S1131A80697400B500F028F8002E40CFFAD03C4825
S1131A90067040CF00BDC046C41A000000000A739F
S1131AA0657269616C2D6B65790000B500F02DF8E5
S1131AB0002E40CFFAD03248043F3E600678F6B29A
S1131AC000BDC046F81A000000000C73657269611D
S1131AD06C2D656D69743F0000B5FFF7C1FF29489F
S1131AE008210170043F3E600026264880220178C8
S1131AF0114000D0F64300BD881B000000000B73AA
S1131B00657269616C2D6B65793F00B5FFF7A8FFBD
S1131B101C4808210170043F3E6000261948202219
S1131B200178114000D0F64300BD0000803F000062
S1131B3038800440300400F0348004400000000485
S1131B400480044000020000049004400890044013
S1131B5003A0064002A0064006A0064005A00640D9
S1131B600AA0064000A0064001A00640F82F00206D
S1131B70F42F0020F02F0020EC2F0020E82F00206D
S1131B8007A0064004A00640AC1B00000000076349
S1131B9065787065637400B5386801B401303860E5
S1131BA000F00BF801BC067040CF00BD201C000003
S1131BB00000066163636570740000B502CF0139EB
S1131BC00022FFF72AFF300040CF202819D209282D
S1131BD016D00A281FD00D281DD00828F1D1002ABC
S1131BE0EFD000F019F903082008002AE9D0885C36
S1131BF0013A80230340E4D040230340F5D0E0E7DA
S1131C002020B242DDD2043F3E600600FFF7FAFE18
S1131C1001328854D5E7160000F0A8F800BDC0468C
S1131C20341C0000400003746962043F3E602B4E84
S1131C307047C0464C1C00008100033E696E043F9F
S1131C403E60274E704700000000C046741C000030
S1131C5082000E63757272656E742D736F75726394
S1131C606500043F3E601F4E70470000000064F0B2
S1131C70FF1FC046901C0000000009736574736F59
S1131C8075726365174802CF0660416040CF7047A4
S1131C90B01C0000000006736F7572636500043F9A
S1131CA03E60104E043F7068386036687047C04626
S1131CB0E81C000000000571756572790FB50848CD
S1131CC000210160FFF7B1FF043F3E60043F3E6026
S1131CD0C826FFF772FFFFF7D5FF0FBD64F0FF1FA3
S1131CE0E42F0020DC2F0020381D000000000763D3
S1131CF06F6D706172650FB5310040CF01CF8842BE
S1131D0002D040CF00260FBD02CF002810D00138EA
S1131D100A5C335C412A02D35B2A00D22032412B75
S1131D2002D35B2B00D220339A42EED000260FBDA3
S1131D300026F6430FBDC0464C1D000000000263A0
S1131D40720000B500F068F8010A00BD601D0000D3
S1131D50000002626C00043F3E6020267047C046CB
S1131D60741D00000000057370616365043F3E60EC
S1131D70202647E69C1D0000000006737061636521
S1131D80730000B5002E06DD043F3E602026FFF7F9
S1131D9039FE013EF8D140CF00BDC046AC1D000065
S1131DA05000065B636861725D0005E0C41D0000BD
S1131DB0000004636861720000B501F055FB40CF78
S1131DC0367800BDD41D000050000128043F3E6059
S1131DD0292606E0F01D00005000015C043F3E602F
S1131DE0002600B501F04AFB043740CF00BDC046D1
S1131DF0381E00001000022E2200A14800B5043F46
S1131E003E60060000F0E2F9043F3E60222601F045
S1131E1035FB00F044FD00BD0AB4043F3E60764645
S1131E20013E33780121013319405B187146C9180A
S1131E308E460ABC3CE0C046601E000010000263EF
S1131E4022009048DAE7043F3E607646013E33784C
S1131E500121013319405B187146C9188E46704739
S1131E608C1E00001000027322008748C6E7043F5E
S1131E703E607646043F3E60013E36780121731C85
S1131E8019405B187146C9188E467047A41E00009D
S1131E90000005636F756E740136043F3E60013EB9
S1131EA036787047CC1E00000000056374797065B5
S1131EB001B53078002807D00136043F3E603678FB
S1131EC0FFF7A0FD0138F7D140CF01BDFC1E000093
S1131ED00000047479706500310040CF300040CFB9
S1131EE000B5002908D00022043F3E60865CFFF75D
S1131EF089FD01329142F7D100BDC046381F000070
S1131F000000046865782E0007B5310040CF20201A
S1131F100F220438043F3E600E00C6401640092ECE
S1131F2001D9373600E03036FFF76CFD0028F0D1D8
S1131F30FFF71CFF07BDC046481F000000000368F0
S1131F402E731FB5514C0EE0581F0000000003759E
S1131F502E731FB54E4C06E0D81F00000000022E61
S1131F6073001FB54B4C4C49C91B89084B4A106878
S1131F7003B40A201060FFF74FFF08537461636BCA
S1131F803A205B00043F3E600E0001F04BFCFFF77B
S1131F9043FF025D200003BC404A106000290AD0C0
S1131FA03F4A106806B4043F3E600600A04706BCE2
S1131FB0043A0139F5D1FFF72FFF0620544F533A65
S1131FC02000043F3E603600A047FFF725FF0420B1
S1131FD02A3E0A001FBDC046A42000000000057769
S1131FE06F72647300B5FFF717FF06776F7264733F
S1131FF00A0000F08CFEFFF70FFF0941646472656C
S113200073733A20043F3E60FFF77EFFFFF704FF3F
S1132010064C696E6B3A2000043F3E603668FFF759
S113202073FFFFF7F9FE07466C6167733A20043FBC
S11320303E60B688FFF768FFFFF7EEFE06436F6465
S1132040653A2000B01D00F09DFE043F3E6006008E
S1132050FFF75AFFFFF7E0FE064E616D653A200078
S1132060043F3E600636FFF723FFFFF7D5FE010A63
S113207000F065FE300040CFBDD040CF00BD000071
S1132080181E0000461E00006E1E0000091F0000FE
S113209013380000253800002CF2FF1FFC2F00200D
S11320A028F2FF1FC02100000000107265676973E9
S11320B07465726C69746572616C2C003FB535008F
S11320C040CF2900C90029432D029F480543FF231F
S11320D000223000D040984301D00132F9E73000AB
S11320E0D04018402843043F3E60060000F09FFBA8
S11320F09648054318009040864310D000243000D1
S1132100E040984301D00134F9E7101B043F3E60DE
S11321100E008001064300F08AFB2200DFE7002A5C
S113212006D0043F3E600E009201164300F07FFB90
S113213040CF3FBD1FB5310040CF854C0C43C90093
S11321400C434901300040CF020EFF231A407E4B5E
S11321500B431343043F3E601E0000F068FB043F42
S11321603E60260000F063FB020CFF231A40794B0B
S11321700B431343043F3E601E0000F058FB043F32
S11321803E60260000F053FB020AFF231A40714B05
S11321900B431343043F3E601E0000F048FB043F22
S11321A03E60260000F043FB0200FF231A40694B07
S11321B00B431343043F3E601E0000F038FB1FBD79
S11321C03022000000000563616C6C2C0FB53300F5
S11321D000F07CFE300040CF1B1A043B5E491940DE
S11321E000290ED05D4A91420BD00136043F3E6077
S11321F00026FFF763FF043F3E60594E00F017FBD3
S11322000FBD40CF5B085748574919400843DB0AC4
S113221056491940090408439B0A012119408906BB
S11322200843043F3E60060000F029FB0FBDC04692
S1132230842200000000086C69746572616C2C00D3
S113224008B5043F3E604A4E00F0F1FA043F3E6098
S1132250484E00F0ECFA484B3000184098420BD13D
S1132260F643043F3E600626FFF728FF043F3E6026
S1132270424E00F0DCFA08BD043F3E600626FFF73C
S11322801DFF08BDAC220000000006637265617486
S1132290650000B500F03FF822200002CB308047F3
S11322A0043F3E607646013E00BDC0460823000060
S11322B0200005646F65733E22200002CB30804706
S11322C0043F3E607646013E7047043F3E607646DA
S11322D0013E00F0D4F82A4A1368310040CF0220AE
S11322E0084000D10231023111600136043F3E60E2
S11322F00026FFF71FFF043F3E60194E00F097FAD7
S1132300136000F010FA00BD882300000000073CB1
S11323106275696C647300B500F08CFB00F0D6FD47
S11323200220064040CF04D1043F3E60362600F030
S11323307EFA043F3E60134E00F079FA043F3E609B
S1132340102600F0DFFA00BD00200000001000009D
S113235000020000003000000100C0FF0000C0FFC8
S11323608047000000F800F0FF070000FF030000B2
S1132370043F00003E6000000000FFFFF643000041
S113238000F0FF1F00B50000942300005000035B21
S1132390275D03E0AC2300000000012700B501F035
S11323A063F800F02EFD40CF00BDC046F4230000CA
S11323B0100008706F7374706F6E650000B501F0E3
S11323C053F800F01EFD300040CF102101400DD124
S11323D02021014005D0FFF733FF043F3E60C64E85
S11323E004E0FFF72DFF043F3E60C44EFFF7EEFE0E
S11323F000BDC04640240000000007696E6C696E91
S1132400652C00B5BE49BF4ABF4B3088884208D00E
S1132410904208D0984206D0043F3E60060000F087
S113242006FA0236F1E740CF00BD0EB4B54AB64B0A
S113243001880230914201D09942F9D10EBC704713
S1132440542400000000047265742C00043F3E60B4
S1132450AC4EECE16424000030000465786974003B
S1132460F4E7C046B4240000300007726563757257
S1132470736500B500F003F8FFF7A8FE00BD0FB5C3
S1132480A248006806300178FF2909D1043F3E6064
S1132490060001B4FFF79EF801BCFF21314040CF94
S11324A0013101220A4089184018043F3E600600A9
S11324B00FBDC046CC2400008100057374617465AF
S11324C0043F3E60924E704700000000E02400008C
S11324D00000015D8E480021C94301607047C04679
S11324E0F02400001000015B89480021016070475E
S11324F0182500000000013A00B58648076000F086
S113250099FA043F3E607E4E00F091F98048002124
S1132510C943016000BDC046602500003000013B96
S113252000B57C480168B9420ED0FFF775FC152050
S1132530537461636B206E6F742062616C616E63AF
S113254065642E0A01F0EAFA043F3E606D4E00F025
S11325506EF900F0E8F86E480021016000BDC04645
S113256078250000000007657865637574653000A0
S113257040CF01308746C04690250000100009690D
S11325806D6D656469617465043F3E601026FBE00F
S1132590A8250000100006696E6C696E6500043F92
S11325A03E602026F0E0C046C425000010000B6306
S11325B06F6D70696C656F6E6C79043F3E60302698
S11325C0E2E0C046E025000010000A302D666F6C82
S11325D06461626C6500043F3E604026D4E0C046FE
S11325E0FC25000010000A312D666F6C6461626C7A
S11325F06500043F3E604126C6E0C0461826000040
S113260010000A322D666F6C6461626C6500043FD1
S11326103E604226B8E0C0463426000010000A336B
S11326202D666F6C6461626C6500043F3E604326F6
S1132630AAE0C0465026000010000A342D666F6CD4
S11326406461626C6500043F3E6044269CE0C046C1
S11326506C26000010000A352D666F6C6461626C94
S11326606500043F3E6045268EE0C0468826000093
S113267010000A362D666F6C6461626C6500043F5D
S11326803E60462680E0C046A426000010000A37BB
S11326902D666F6C6461626C6500043F3E60472682
S11326A072E0C046D4260000000008636F6E7374A5
S11326B0616E740000B500F0BDF9FFF7C1FD043F81
S11326C03E60114E00F0B3F8FFF785FF00F02BF8E1
S11326D000BDC0461827000000000932636F6E7306
S11326E074616E7400B500F0A5F939683E600E4659
S11326F0FFF7A6FDE1E7000002240000CC21000062
S113270000B5000000BD00007047000004F0FF1F8A
S1132710D82F002010F0FF1F782700000000067358
S11327206D756467650000B524480168234A9142C9
S11327301CD202390A88224B9A4204D1043F3E60DB
S1132740204E00F074F800F060F81F480068043F61
S11327503E6006001D4909680431184A1368116077
S113276000F065F81360FEF719FF00BD00F04DF8A6
S1132770043F3E60002608E0D027000000000873F4
S11327806574666C6167730000B50C4801680B4A98
S1132790914205D20C4801683143016040CF00BD2D
S11327A0320040CF0948006804300188044B994244
S11327B001D1110000E01143018000BD00F0FF1FB2
S11327C0FFFF0000000000001CF0FF1F04F0FF1FCB
S11327D0E0270000000005616C69676E15E0C046E3
S11327E0FC270000410007616C69676E6564012085
S11327F03040361802203040361870472428000034
S1132800000007616C69676E342C00B57F4801686D
S11328100220014004D0043F3E60002600F007F887
S113282000BDC04658280000000002682C000FB507
S113283076480168754A914205D2043F3E600E0015
S1132840FEF7FBFE02E0320040CF0A80043F3E6008
S1132850022600F057F80FBD742800000000012C78
S113286000B5043F3E60FFF7E2FF360CFFF7DFFFE1
S113287000BDC046902800000000033E3C2C00B57B
S1132880043F3E60360CFFF7D2FFFFF7D0FF00BDD8
S1132890F8280000000007737472696E672C07B58E
S11328A0FF21314040CF300040CF002905D1043F03
S11328B03E600026FFF7BBFF07BD043F3E6006787D
S11328C036020E43FFF7B3FF0130013902290AD360
S11328D0043F3E604678360202781643FFF7A7FFAE
S11328E002300239F2E7002900D107BD043F3E60FF
S11328F00678FFF79CFF07BD54290000000005611E
S11329006C6C6F7441480168404A91420FD23200A6
S113291040CF89183E4A914219D3FFF77DFA0B46FE
S11329206C6173682066756C6C0A01F0F7F832000C
S113293040CF8918374A1268914208D3FFF76CFADE
S11329400952616D2066756C6C0A01F0E7F801604C
S11329507047C0467C29000000000D636F6D7069EC
S11329606C65746F72616D3F043F3E6000262748BA
S113297000682649884248D3F64370479C290000E2
S113298000000C636F6D70696C65746F72616D002B
S11329901E4800681D49884211D37047242A00004C
S11329A000000E636F6D70696C65746F666C6173A3
S11329B06800164800681549884200D270471648D6
S11329C0164902680B680A600360104814490268DB
S11329D00B680A6003600F480068834215D300B592
S11329E0FFF71AFA23205661726961626C657320DD
S11329F0636F6C6C696465207769746820646963CB
S1132A0074696F6E6172790A00BD704700F0FF1F30
S1132A100000020020F0FF1F04F0FF1F18F0FF1F4A
S1132A2014F0FF1F082B0000000008286372656182
S1132A307465290000B500F017FD002E0ED1FFF7D4
S1132A40EBF91520437265617465206E65656473E6
S1132A50206E616D6520210A01F060F83868043F3A
S1132A603E60043F386000F09DF940CF002E40CF17
S1132A7011D03868043F3E60043F3860FFF7CCF95A
S1132A80095265646566696E6520FFF725FAFFF7EC
S1132A90C3F9022E0A00FFF7B8FE00F017FA8B48BC
S1132AA000688A4988421CD2894800210160043F99
S1132AB03E600626FFF726FFFEF70EF9FFF7EFFE4E
S1132AC0844801680A68844B9A4207D17F4A136894
S1132AD01160043F3E60FFF7C3FE1360066040CF01
S1132AE000BD7C48043F3E600668FFF7B9FE043F22
S1132AF03E607A4EFFF79BFE7648310040CF01607E
S1132B00FFF7CDFE00BDC046202B00000000087674
S1132B1061726961626C6500043F3E60012613E0E6
S1132B20382B0000000009327661726961626C65BD
S1132B30043F3E60022607E0102C00000000096EEE
S1132B407661726961626C6500B5FFF773FF5F4877
S1132B5001685E4A914233D20F200640B2006048B9
S1132B600168891A5F4A91420BD2FFF755F90F4E5B
S1132B706F7420656E6F7567682052414D0A00F0CE
S1132B80CDFF0160043F3E600E00FFF759FB043F98
S1132B903E60554EFFF74BFE300040CF0200002848
S1132BA005D00E600431FFF75BFE0138F9D1043F14
S1132BB03E6080261643FFF7E7FDFFF7B4FD00BD36
S1132BC000F084F90220064040CF04D1043F3E6067
S1132BD03626FFF72CFE043F3E60444EFFF74FFEBF
S1132BE0043F3E60424EFFF74AFE043F3E603E4EC5
S1132BF0FFF71DFE300040CF002803D0FFF730FE62
S1132C000138FBD1FFF7E7FCFFF78DFD00BDC0469F
S1132C10F82C00000000076275666665723A00B51C
S1132C20FFF708FF012030403618022030403618E4
S1132C3026480168254A914226D229480168891B01
S1132C40284A91420BD2FFF7E7F80F4E6F742065C4
S1132C506E6F7567682052414D0A00F05FFF016096
S1132C60043F3E600E00FFF7EBFA043F3E601E4E49
S1132C70FFF7DDFDFFF7F4FD043F3E601D4EFFF757
S1132C8083FDFFF750FD00BD00F020F9022006404F
S1132C9040CF04D1043F3E603626FFF7C8FD043F11
S1132CA03E60124EFFF7EBFD043F3E60104EFFF70F
S1132CB0E6FD043F3E600C4EFFF7B9FDFFF722FE30
S1132CC0FFF789FCFFF72FFD00BD000000F0FF1F98
S1132CD01CF0FF1F04F0FF1FFFFFFFFFFFFF0000BA
S1132CE020F0FF1FECF3FF1F704700003E60043F1D
S1132CF002367E4640010000282D000000000F64CB
S1132D00696374696F6E6172797374617274424835
S1132D1000684149043F3E60884201D23F4E7047FB
S1132D203F4E36687047C046642D000000000E64B4
S1132D30696374696F6E6172796E6578740003B546
S1132D4031683848814207D08879FF2804D00E00C2
S1132D50043F3E60002603BD043F3E600026F64368
S1132D6003BDC046982D000000000A736B697073A0
S1132D707472696E67003178013101220A40891842
S1132D807618704706B40178013101220A40891887
S1132D90401806BC7047C0462C2E00000000046694
S1132DA0696E64003FB500220023350040CF340033
S1132DB040CFFFF7ACFF1C48B188884217D0043FCE
S1132DC03E600636FFF768F8043F3E602600043F85
S1132DD03E602E00FEF78FFF002E40CF07D0B01DBF
S1132DE0FFF7D0FF02000B000B48824204D2FFF72A
S1132DF0A6FF300040CFDED01600043F3E601E0028
S1132E003FBD00B531003868FFF7CCFF3A68002AAF
S1132E1001D100F07BFD00BD00F0FF1F1004000095
S1132E2004F0FF1FFFFFFFFFFFFF0000882E0000DC
S1132E30000006636A756D702C00320040CF3100CB
S1132E4040CF8B1B043BA249194000290DD0A14857
S1132E5081420AD0FEF7E0FF0D4A756D7020746F51
S1132E606F206661720A00F059FE5B10FF210B406F
S1132E70134330001E0000B5974A13681060FFF733
S1132E80D6FC136000BDC046C02E00000000056AD9
S1132E90756D702C310040CF300040CF0B1A043BCD
S1132EA08E491940002902D08D4A9142D2D15B103B
S1132EB08C4A13408C4A1343043F3E601E00DAE7F9
S1132EC0D82E00000000046865726500043F3E606F
S1132ED0814E36687047C046C82F000000000D665A
S1132EE06C6173687661722D68657265043F3E603B
S1132EF07E4E3668704700B5043F3E607C4EFFF757
S1132F0096FC043F3E607B4EFFF791FC00BDDDE77D
S1132F1000B500F037F839683E600E46043F3E6065
S1132F20754EFFF78AFF00BD00B500F02BF8396835
S1132F303E600E46043F3E60704EFFF77EFF00BDCC
S1132F4000B5FFF7D8FF00F01DF839683E600E4663
S1132F50043F3E606A4EFFF770FF00BD00B500F00D
S1132F6011F839683E600E46FFF794FF00BD00B5C6
S1132F70FFF7C1FFFFF7AAFF043F3E600226FFF7F9
S1132F80C1FC00BD00B5FFF7A1FF043F3E6002266F
S1132F90FFF7B8FC00BD00B5FFF798FFFFF77AFF15
S1132FA000BD00B5FFF792FF043F3E60544EFFF7AB
S1132FB044FF00BD00B5FFF789FF043F3E604E4E5D
S1132FC0FFF73BFF00BDC04604300000300004742E
S1132FD068656E00052E01D140CFDCE7022E01D1D9
S1132FE040CFDEE7FEF718FF1753747275637475EC
S1132FF072657320646F6E2774206D617463680A50
S113300000F08CFD30300000300004656C73650006
S113301000B5022EE6D140CFFFF7B4FF39683E6019
S11330200E46FFF7BEFF043F3E60052600BDC046C6
S11330304830000030000269660000B5FFF797FFD2
S1133040043F3E60022600BD70300000300006726E
S1133050657065617400042EC4D140CF39683E6048
S11330600E4600B5FFF77AFFFFF79BFF00BDC04691
S11330708C3000003000057768696C65012EB1D191
S113308040CF00B5FFF7D9FF023600BDA0300000E5
S1133090300005756E74696C012EA3D140CF4FE7E3
S11330A0B4300000300005616761696E012E99D16A
S11330B040CF53E704310000300005626567696E54
S11330C000B5FFF724FF043F3E60012600BD000069
S11330D001FFFFFF00FFFFFF00F0FF1F01F8FFFFEC
S11330E000F8FFFFFF07000000E0000020F0FF1FD2
S11330F0002E000040CF000000D1000000D70000E7
S113310000D00000143100002000016B043F3E6039
S1133110029E7047243100002000016A043F3E6093
S1133120009E70473431000020000169043F3E6076
S113313026007047743100003000056C65617665C7
S113314000B5674801683B00043F1A68043B1A60F5
S1133150043304338B42F8D103B4FFF713FF03BCE9
S1133160330040CF04390B60016004390A6801322E
S11331700A6000BD88310000200006756E6C6F6F18
S1133180700030BC7047C046C03100003000052BD1
S11331906C6F6F70032E00D024E740CF00B5043F5E
S11331A03E60504EFFF72DF9FFF7BEFE1AE0802077
S11331B000060019A419401B801940CF7047C0466F
S11331C0043200003000046C6F6F7000032E00D0D6
S11331D008E740CF00B5043F3E60434EFFF711F9C6
S11331E0FFF796FE00F01CF93D48310040CF016026
S11331F0043F3E603D4EFFF704F900BD0134AC428C
S11332007047C0464C320000780002646F0000B57D
S1133210043F3E60364EFFF7F4F831480168043F3E
S11332203E600E00043F3E6000260760FFF76FFE1D
S1133230043F3E60032600BD00B500F02EF8ECE725
S113324030B4340040CF350040CF70470033000025
S11332507800033F646F00B5043F3E60244EFFF7DF
S1133260D0F8043F3E60234EFFF7E1FA1C480168A2
S1133270043F3E600E00FFF785FE0136043F3E60CA
S1133280012617480760FFF742FE043F3E6003260D
S113329000BD00B500F001F8E3E700B5043F3E606F
S11332A0154EFFF7C4FA043F3E600426FEF706FFFE
S11332B0013B08D0043F3E600526FEF7FFFE013BBC
S11332C000F005FC00BD043F3E603526FFF7AFFA71
S11332D0043F3E60094EFFF7AAFA00F0F8FB00BD78
S11332E00CF0FF1FAE310000FC3100008231000001
S11332F040320000AC42000030B4000040CF000077
S11333001C3300003000046361736500043F3E60B9
S11333100026043F3E6008267047C0463433000050
S11333203000033F6F6648480AE0013EB64140CF93
S11333307047C046C03300007800026F66004348FF
S1133340082E00D04EE640CF00B5043F3E60060094
S1133350FFF757F8FFF716FE39683E600E46013650
S1133360043F3E600926043F3E60394EFFF75FFA92
S113337000BD00B5300040CF013B01B400F0A7FB15
S113338001BC082E00D02DE640CF043F3E6006006D
S1133390FF213140B14204D12E490E43FFF747FAD1
S11333A0D8E7043F3E600026FEF788FE043F3E60F7
S11333B0294EFFF73CFACDE7300040CFB0427047CA
S11333C0F8330000300005656E646F66092E00D086
S11333D008E640CF00B540B440CFFFF7D3FD3968CD
S11333E03E600E46FFF7E6FD043F3E6040BC043FEE
S11333F03E60082600BDC0465C340000300007650E
S11334006E6463617365082E00D0EBE540CF00B5B0
S1133410043F3E600E4EFFF70AFA00F001F800BDCB
S113342000B5300040CF00280DD003B40121314055
S1133430002903D0013EFFF7B4FD01E0FFF7ABFD27
S113344003BC0138EFE700BD2A330000B8330000A5
S113345040CF0000002E0000B04200007034000095
S1133460000005746F6B656E043F3E60202605E026
S1133470CC340000000005706172736510B5FEF76E
S11334800EFC310040CF300040CF0F4A1268841840
S1133490202E07D191420FD0835CB34202D1013276
S11334A08418F7E7914207D0835C0132B342F9D123
S11334B08618361B013E01E08618361B043F3C602B
S11334C00148026010BD0000E42F00200C3500000C
S11334D00000056469676974D44B1B68303E0BD3E4
S11334E00A2E0BD3073E0A2E06D3242E06D3203EE3
S11334F00A2E01D3242E01D3002670479E42FBD20C
S1133500043F3E600026F6437047C046183600006C
S11335100000066E756D626572003FB5310040CFE4
S1133520701E0126012204B4C04B1B680024002530
S113353000293CD00130013902782D2A04D101B090
S11335400022D24304B4F3E7232A01D10A23EFE78C
S1133550242A01D11023EBE7252A01D10223E7E72E
S11335602E2A01D10226E3E72C2A36D0043F3E60FE
S11335701600FFF7B3FF002E40CF2BD0043F3E6070
S11335802600043F3E602E00043F3E601E00043FC0
S11335903E6000260FB4FDF79CF80FBC350040CF09
S11335A0340040CF0022A419554140CFC0E704BCE9
S11335B0002A04D50022E443ED430134554133008D
S11335C02600012B02D0043F3E602E00043F3E60E3
S11335D01E003FBD01B000263FBD25000024022689
S11335E00029E4D0425C01392E2AF9D0043F3E6020
S11335F01600FFF773FF002E40CFEBD0043F3C6072
S1133600043F3E601E000FB4FDF717F90FBC3400F1
S113361040CF40CFE4E7C0463C3600000000062E11
S11336206469676974000A2E01D2303604E0242EDE
S113363001D2373600E023267047C04674360000B6
S1133640000004686F6C6400330040CF7848017850
S11336503F290DD2013101704018012907D00138EA
S1133660027801300270013801390129F7D1037061
S11336707047C04694360000000005686F6C643CD7
S1133680330040CF6A4801783F2902D201310170EA
S113369043547047AC3600000000047369676E0041
S11336A0002E01D440CF70472D26CDE7C036000050
S11336B0000002233E005E480678013038607047FF
S11336C0D836000000000366235310B5202400F010
S11336D008F8013CFBD110BDFC3600000000026676
S11336E0230000B5043F3E60504E3668FCF7C3FF2C
S11336F0FFF799FFFFF7C4FF00BDC046183700006D
S113370000000223530000B500F00AF8002EFBD19C
S113371038680028F8D100BD4437000000000123B8
S113372000B5043F3E60414E3668043F3E600026CB
S1133730FDF7E3F8FCF79CFE40CFFFF774FFFFF7BB
S113374083FF00BD583700000000023C23003848C6
S1133750002101707047C0466C370000000002660B
S11337602E00043F3E60202605E0C046BC37000022
S1133770000003662E6E00B510B4340040CFFDF790
S113378093FAFCF72FFF043F3E600026FFF7DFFFAC
S1133790FFF7B9FF40CF2C26FFF772FF002C03D0B0
S11337A0FFF79FFF013CFBD110BC40CFFFF778FF30
S11337B0043F3E60043F3E601EE0C046D437000034
S11337C000000375642E00B5FFF7C1FFFFF79BFFF0
S11337D012E0C04608380000000002642E0000B564
S11337E0FDF762FAFCF7FEFEFFF7B1FFFFF78BFF70
S11337F0FDF765FAFFF754FFFFF75DFFFEF76CFB7B
S1133800FEF7B4FA00BDC0461C3800000000027583
S11338102E00043F3E600026D5E7C0463438000041
S11338200000012E043F3E60F617D8E7FC2F00206D
S113383024F0FF1F7C3800000000086576616C7579
S11338406174650000B5FEF72AFA01CF01B440B4F3
S113385040CFC248016802B400210160FEF712FAA9
S113386000F014F8BD4802BC0160043F3E6040BC57
S113387001BC043F3860FEF705FA00BDF43A0000CD
S1133880000009696E7465727072657430B5B4486D
S113389087420BD9FEF7C0FA10537461636B20752D
S11338A06E646572666C6F770A0037E1AD488742D3
S11338B00AD2FEF7B1FA0F537461636B206F766519
S11338C072666C6F770A29E1A74C2568002D01D137
S11338D03D002560FFF7C8FD002E02D1043740CF1C
S11338E030BD3868043F3E60043F3860FFF75AFA41
S11338F0310040CF320040CF002A13D13868310064
S1133900FFF70BFE320040CF002AC0D1FEF7E8FAE1
S1133910FEF782FA0C206E6F7420666F756E642E4B
S11339200A00FBE0914B1B68002B1DD1002525608C
S113393030230B40302B0ED1FEF7CEFAFEF76CFA93
S11339401220697320636F6D70696C652D6F6E6CE6
S1133950792E0A00E2E0043740CF043F3E601600AF
S1133960FEF705FEFFF793FF043740CF80200840A1
S11339700ED1EB1B9B08402008400FD008200840C4
S113398002D0002B00D01DE00F200840834205D355
S1133990043F3E601600FEF7EAFD78E700F097F872
S11339A0043F3E60160010220A4002D0FEF7DFFDFD
S11339B06DE720220A4002D0FEF723FD67E7FEF7F9
S11339C005FC64E7072001401000FEF72EFD0129E5
S11339D015D1012BDCD1FF213140B14204D1408803
S11339E00643FEF724FF52E7043F3E600026FEF73D
S11339F065FB043F3E600688FEF719FF47E702298E
S1133A0002D1012BC4D1EFE703291CD1012BBFD173
S1133A10FF213140B1420AD155490E43FEF707FF59
S1133A200432043F3E601600FEF7EBFC2FE7043F30
S1133A303E600026FEF742FB0232043F3E60160061
S1133A40FEF7DFFC23E7042918D1012BA0D13300B2
S1133A5040CF002B00D11AE71F221A409A4205D00A
S1133A60043F3E604688FEF7E2FE10E7043F3E60F6
S1133A7006889B011E43FEF7DAFE08E7052923D1D9
S1133A80012B0FD1043F3E600026FEF717FB043FD5
S1133A903E600600FEF7B5FC043F3E60354EFEF77F
S1133AA0C6FEF4E6043F3E600026FEF707FB043F33
S1133AB03E600126FEF702FBFEF7B7FC043F3E60C2
S1133AC00600FEF79EFCE2E601308047DFE600B523
S1133AD0002B0BD0013B043F3E609E00BE59FEF715
S1133AE0AFFB002BF6D1043D2F0040CF002525600D
S1133AF000BDC046103B0000810009686F6F6B2D4C
S1133B0071756974043F3E601B4E7047483B00006A
S1133B108C3B0000000004717569740017488546E9
S1133B200F4FFDF733FD16480A2101600F480021AD
S1133B3001600D48016009480160124801601249A2
S1133B4041600D4800688746FEF7B8F8FFF79EFE0F
S1133B50FEF762F905206F6B2E0AF5E7E42F0020CB
S1133B602CF2FF1F2CF1FF1F08F0FF1FD82F00209D
S1133B70003E000040CF0000D42F00202CF3FF1F94
S1133B80FC2F0020DC2F002064F0FF1F9C3B000072
S1133B9020000465696E740062B67047AC3B000097
S1133BA020000464696E740072B67047C43B000060
S1133BB02000046970737200043F3E60EFF30586D1
S1133BC07047C046D03B00000000036E6F70704722
S1133BD0143C0000000009756E68616E646C6564D5
S1133BE000B5FEF719F914556E68616E646C65646E
S1133BF020496E746572727570742000043F3E60D3
S1133C00EFF30586FEF780F9FEF706F902210A00B4
S1133C1000BDC046383C000081000B6972712D73F1
S1133C2079737469636B043F3E608F4E7047E03B69
S1133C3000008D48006887465C3C000081000969EB
S1133C4072712D6661756C74043F3E60874E7047D7
S1133C50E03B0000854800688746C046843C00007D
S1133C6081000E6972712D636F6C6C656374696F8A
S1133C706E00043F3E607E4E7047E03B00007C488F
S1133C8000688746A43C00008100076972712D61B9
S1133C906463043F3E60774E7047E03B0000754824
S1133CA000688746C43C00008100076972712D6377
S1133CB06D70043F3E60704E7047E03B00006E48FC
S1133CC000688746E43C00008100076972712D6436
S1133CD06163043F3E60694E7047E03B0000674803
S1133CE000688746083D00008100096972712D70E3
S1133CF06F727461043F3E60614E7047E03B0000A8
S1133D005F4800688746C0462C3D00008100096971
S1133D1072712D706F727464043F3E60594E704727
S1133D20E03B0000574800688746C046004000005A
S1133D30FFFF182D2D2D20466C61736820446963A4
S1133D4074696F6E617279202D2D2D0000214E480B
S1133D500160FDF7E3FD4D4885464D4F2A264D4849
S1133D604D4901604D484E490160043F3E604C4E50
S1133D704C4DB1884C4B994224D04C4B0B400AD04B
S1133D80B01DFEF7FFFFFEF750FB038840880004D8
S1133D900343ED1A16E080230B4013D00F23194080
S1133DA089006D1AB01DFEF7EDFFFEF73EFB043FE0
S1133DB03E600600043F3E602E00043F3E600E005D
S1133DC0FDF720F9FEF7BBFF300040CFD1D03848D3
S1133DD0066040CF3748056037483849324A884240
S1133DE004D0023803889342F9D002303449086081
S1133DF0FDF7CCFBFEF710F8434D656372697370F1
S1133E002D5374656C6C6172697320322E302E32BE
S1133E102077697468204D3020636F726520666F67
S1133E2072204B4C32355A313238206279204D6140
S1133E30747468696173204B6F63680A21480021B8
S1133E400160043F3E60204E043F3E600426FEF7BE
S1133E50A9FF40CF002E02D0FEF789FB71E640CFC8
S1133E605CE6696E69740000D02F0020CC2F00201E
S1133E70C82F0020C42F0020C02F0020BC2F0020FA
S1133E80B82F0020B42F0020008104402CF3FF1F22
S1133E902CF2FF1F00F0FF1FECF3FF1F04F0FF1FC5
S1133EA01004000000300020FFFF000000010000AB
S1133EB018F0FF1F20F0FF1F000002000040000068
S10F3EC014F0FF1F08F0FF1F623E00001A
S9030000FC
