:020000040800F2
:100000002C030020B7390000F7370000F737000055
:10001000F7370000F7370000F73700000000000056
:100020000000000000000000000000002538000073
:10003000253800000000000025380000CF37000000
:10004000253800002538000025380000253800003C
:1000500025380000253800004D38000075380000B4
:100060009D380000C5380000ED380000253800003C
:10007000253800002538000025380000253800000C
:10008000253800002538000013390000253800000D
:1000900025380000253800002538000025380000EC
:1000A00025380000253800002538000025380000DC
:1000B0003B390000633900008B390000253800000F
:1000C00025380000253800002538000025380000BC
:1000D00025380000253800002538000025380000AC
:1000E000253800002538000025380000253800009C
:1000F000253800002538000025380000253800008C
:10010000253800002538000025380000253800007B
:10011000253800002538000025380000253800006B
:10012000253800002538000025380000253800005B
:10013000253800002538000025380000253800004B
:10014000253800002538000025380000253800003B
:10015000253800002538000025380000253800002B
:10016000253800002538000025380000253800001B
:10017000253800002538000025380000253800000B
:1001800025380000253800002538000025380000FB
:1001900025380000BA010000FFFF1E2D2D2D204D37
:1001A0006563726973702D5374656C6C61726973E9
:1001B00020436F7265202D2D2D00D20100004200DA
:1001C000043264757000386847F8046D043F386085
:1001D0007047E40100006200053264726F700437FA
:1001E00040CF70470202000044000532737761700F
:1001F00007CF043F386047F8046D043F3A600E00B3
:10020000704716020000620004326E69700007CF6A
:10021000043F3860704730020000440005326F76BA
:100220006572B86847F8046D043F3860FE6870472F
:1002300054020000440005327475636B07CF043F1D
:10024000386047F8046D043F3A60043F3960043F6A
:10025000386070477602000046000432726F740006
:100260003868B9683A69B86039613A6079687E601F
:10027000FE68F960704798020000460005322D7252
:100280006F743868B9683A6938613960BA60F9687A
:10029000FE607E6879607047AC0200002000033287
:1002A0003E7201CF01B440B440CF7047C402000099
:1002B00020000332723E47F8046D40BC01BC043F8D
:1002C00038607047DC02000020000332724047F8BB
:1002D000046D019E47F8046D009E7047EE02000019
:1002E000200006327264726F700002B0704706031D
:1002F000000042000364322F3868F107761040088E
:100300000843386070471A03000062000364322A11
:1003100038680018764138607047340300004200A6
:100320000464736872003868F1077608400808436F
:10033000386070474A0300006200046473686C0010
:10034000386800187641386070475C03000042004E
:10035000046461627300002E14D4704776030000B9
:100360004300083F646E656761746500300040CFEC
:10037000002807D4704794030000420007646E65AC
:100380006761746538680021C043F64301304E410F
:1003900038607047AC030000640002642D0007CF92
:1003A000121AB1410E00043F3A607047C2030000C8
:1003B000640002642B0007CF12184E41043F3A60DC
:1003C0007047D4030000610003733E6447F8046D76
:1003D000F6177047E8030000620003756D2A38685D
:1003E000A0FB060638607047FC0300006200026D47
:1003F0002A00386880FB0606386070473A0400001F
:1004000044000375642A07CF564341437618010C14
:10041000130C59437618010C80B292B251434343F6
:1004200050430022C91852411204B6180A04090C9C
:1004300080184E41043F38607047CC0400004400EF
:100440000475646D2A0010B5002447F8046D7E68B9
:1004500047F8046D3E69FFF7C2FF310040CF30001E
:1004600040CF47F8046D3E6847F8046DFE6803B45A
:10047000FFF7B5FF03BC330040CF320040CF47F851
:10048000046D3E6847F8046D3E690FB4FFF7A7FF9F
:100490000FBC9219634140CF89196241634140CF3B
:1004A00047F8046D7E6847F8046DFE680FB4FFF7E7
:1004B00096FF0FBC9219634140CF89196241634195
:1004C00040CF1E003A607960B86010BDEE040000B5
:1004D0004300022A2F0000B540B440CFFFF789FF48
:1004E00047F8046D40BC00F062F8043700BD100509
:1004F00000004300052A2F6D6F6400B540B440CF63
:10050000FFF777FF47F8046D40BC00F050F800BDDE
:1005100032050000430003752A2F00B540B440CFD8
:10052000FFF75DFF47F8046D40BC00F01BF804378F
:1005300000BD56050000430006752A2F6D6F64004C
:1005400000B540B440CFFFF74AFF47F8046D40BC08
:1005500000F008F800BDA2050000430006756D2FED
:100560006D6F640010B4786839680022002420237D
:100570006400001849415241964201D8921B01344F
:10058000013BF5D12023640049185241964201D81D
:10059000921B0134013BF6D104373A60260010BCAF
:1005A0007047160600004300056D2F6D6F6400B59F
:1005B000F01718D0764200F019FAF0170DD0FFF7B7
:1005C000E1FE00F007FAFFF7CDFF39683E600E4606
:1005D000764239683E600E4600BD00F0FBF9FFF739
:1005E000C1FF764200BD00F001FAF0170ED0FFF710
:1005F000C9FE00F0EFF9FFF7B5FF764239683E60BB
:100600000E46764239683E600E4600BD00F0E2F9C3
:10061000FFF7A8FF00BD7206000044000675642FB6
:100620006D6F640030B43C68B868796800220025BA
:1006300020236D00001849415241944201D8121BF9
:100640000135013BF5D120B4002520206D0049186B
:1006500052415B419E4204D8944202D8121BB341DE
:1006600001350138F2D13D60BA607B6040BC30BCDE
:100670007047E8060000440005642F6D6F6400B504
:10068000F01719D0FFF77EFEFFF7B2FDF0170CD080
:10069000FFF778FEFFF7ACFDFFF7C4FFFFF7A8FDFB
:1006A000FFF770FEFFF7A4FD00BDFFF7A1FDFFF708
:1006B000B9FFFFF767FE00BDFFF79AFDF0170ED0F8
:1006C000FFF760FEFFF794FDFFF7ACFFFFF75AFE60
:1006D000FFF78EFDFFF756FEFFF78AFD00BDFFF71F
:1006E00087FDFFF79FFF00BDFE0600004400026487
:1006F0002F0000B5FFF7C3FFFFF789FD00BD960788
:100700000000440002662A0000B5F0170DD0FFF784
:1007100039FEFFF76DFDF0170DD0FFF733FEFFF741
:1007200092FE40CF01CF386000BDFFF761FDF017AA
:10073000F5D0FFF727FEFFF786FE40CF01CF3860E8
:10074000FFF720FE00BD30B43C68B9687A6800232A
:10075000002520206D00491852415B419E4204D87B
:10076000944202D8121BB34101350138F2D129005D
:1007700020206D0092185B419E4204D8944202D81A
:10078000121BB34101350138F3D13D60BA607B6083
:100790000E0030BC7047E2070000440002662F00E4
:1007A00000B5F0170ED0FFF7EDFDFFF721FDF017B4
:1007B0000ED0FFF7E7FDFFF71BFDFFF7C4FFFFF7C4
:1007C00026FD00BDFFF714FDF017F4D0FFF7DAFDAA
:1007D000FFF70EFDFFF7B7FFFFF7D4FDFFF717FD9B
:1007E00000BDF607000020000232210006CF316074
:1007F000726040CF70470A080000200002324000BB
:10080000043F70683860366870472A08000044006A
:100810000364753C07CF8E4204D801D1904201D8C1
:10082000002670470026F64370474A08000044003F
:100830000364753E07CFB14204D801D1824201D88A
:10084000002670470026F64370476A0800004400FF
:1008500002643C0007CF8E4204DC01D1904201DCEF
:10086000002670470026F64370478A0800004400BF
:1008700002643E0007CFB14204DC01D1824201DCB8
:10088000002670470026F64370479A080000620071
:100890000364303C0437F6177047B4080000420088
:1008A0000364303D01CF002801D000267047013E8F
:1008B000B6417047CE080000440003643C3E07CFB9
:1008C000904201D1761A01D00026F6437047EA081B
:1008D0000000440002643D0007CF904201D0002692
:1008E0007047761A013EB6417047FC0800002000B0
:1008F0000373704047F8046D3E0070470C09000018
:10090000200003737021370040CF70471E0900009C
:1009100020000372704047F8046D6E4670472E0940
:100920000000200003727021B54640CF704748098F
:1009300000000000056465707468E549C91B8908FA
:1009400047F8046D0E007047580900006100036409
:10095000757047F8046D7047680900006100046411
:10096000726F700040CF70477E0900006100043F45
:1009700064757000002E01D047F8046D704792092D
:100980000000620004737761700039683E600E00F9
:100990007047A00900006200036E69700437704759
:1009A000B40900006200046F7665720047F8046DB8
:1009B0007E687047CA0900006200047475636B00AA
:1009C00001CF083F7E6038607047E0090000630097
:1009D00003726F7403CF083F78603E600E0070476B
:1009E000F80900006300042D726F740003CF083F04
:1009F0007E603960060070470A0A0000200004701B
:100A000069636B0057F8266070471A0A00002000DF
:100A1000023E720040B440CF70472C0A0000200014
:100A200002723E0047F8046D40BC70473E0A000069
:100A300020000272400047F8046D009E70474E0A85
:100A400000002000057264726F7001B07047640A84
:100A50000000600004747275650047F8046D00269C
:100A6000F6437047780A000060000566616C7365A4
:100A700047F8046D002670478E0A00006E0003617F
:100A80006E6401CF064070470640000616F0A60AC5
:100A900000006E000362696301CFB0430600704737
:100AA0008643000636F0BC0A00006E00026F72003A
:100AB00001CF064370470643000656F0D20A0000F5
:100AC0006E0003786F7201CF4640704746400006C3
:100AD00096F0E00A00006100036E6F74F643704701
:100AE000F00A0000610003636C7AB6FA86F670477C
:100AF000FE0A0000610003736872760870470C0BF1
:100B0000000061000373686C760070471C0B0000E6
:100B1000610003726F725FEA760670472E0B000069
:100B2000610003726F6CB61956F100067047480BEE
:100B300000006C00067273686966740001CFF040B3
:100B40000600704736080026620B00006C00076143
:100B500072736869667401CF3041060070473610C1
:100B6000F6177C0B00006C00066C736869667400F5
:100B700001CFB04006007047360000268C0B000005
:100B8000610002303D00013EB64170479E0B0000FF
:100B9000610003303C3E013EB641F6437047AC0B6A
:100BA0000000610002303C00F6177047C40B0000E3
:100BB0004200023E3D0001CFB042B4BF00264FF0DC
:100BC000FF367047DC0B00004200023C3D0001CFC5
:100BD000B042CCBF00264FF0FF367047F20B00004A
:100BE0004200013C01CFB042B4BF4FF0FF360026B7
:100BF0007047080C00004200013E01CFB042CCBF5C
:100C00004FF0FF36002670471C0C00006200037591
:100C10003E3D01CF861BB641F6437047300C0000C5
:100C2000620003753C3D01CF361AB641F64370476A
:100C3000420C0000620002753C0001CF861BB641E9
:100C40007047540C0000620002753E0001CF361A56
:100C5000B64170476A0C00006B00023C3E0001CFB9
:100C6000361A18BF4FF0FF3670477C0C00006B003F
:100C7000013D01CF361A013EB6417047900C00008D
:100C80006200036D696E01CFB042B8BF064670477F
:100C9000A40C00006200036D617801CFB042C8BFB0
:100CA00006467047BA0C0000620004756D6178005A
:100CB00001CFB04288BF06467047D40C00006200E6
:100CC00004756D696E0001CFB04238BF06467047AB
:100CD0002C020020120D00000000046D6F766500EC
:100CE00007B5310040CF320040CF00290FD0B242CB
:100CF0000DD006D3013E013A705C50540139FBD14E
:100D000005E030781070013601320139F9D140CF59
:100D100007BD340D000000000466696C6C003000F3
:100D200040CF310040CF002902D001397054FCD1AE
:100D300040CF7047400D00002000014036687047EA
:100D4000580D00006D00012103CF30600E00704788
:100D500006607047016070477E0D00006D00022B39
:100D6000210003CF3268121832600E00704702680B
:100D700092190260704702685218026070478C0D29
:100D8000000020000268400036887047A60D000071
:100D90006D000268210003CF30800E00704706808E
:100DA000704701807047CC0D00006D0003682B2157
:100DB00003CF3288121832800E00704702889219D1
:100DC000028070470288521802807047DA0D0000D6
:100DD00020000263400036787047F40D00006D007B
:100DE0000263210003CF30700E0070470670704719
:100DF000017070471A0E00006D0003632B2103CFB2
:100E00003278121832700E00704702789219027010
:100E100070470278521802707047420E00006D0051
:100E200004626973210003CF3268024332600E000E
:100E30007047026832430260704702680A430260EA
:100E400070476A0E00006D0004626963210003CFE1
:100E50003268824332600E0070470268B24302601B
:100E6000704702688A4302607047920E00006D006E
:100E700004786F72210003CF3268424032600E0066
:100E80007047026872400260704702684A40026020
:100E90007047AC0E0000200004626974400001CF6E
:100EA0003668064018BF4FF0FF367047D40E00007A
:100EB0006D0005686269732103CF32880243328076
:100EC0000E007047028832430280704702880A434E
:100ED00002807047FC0E00006D00056862696321A6
:100EE00003CF3288824332800E0070470288B243BB
:100EF0000280704702888A4302807047240F0000F6
:100F00006D000568786F722103CF328842403280CD
:100F10000E007047028872400280704702884A4083
:100F2000028070473E0F000020000568626974402F
:100F300001CF3688064018BF4FF0FF367047660F66
:100F400000006D0005636269732103CF32780243AC
:100F500032700E0070470278324302707047027898
:100F60000A43027070478E0F00006D0005636269CE
:100F7000632103CF3278824332700E0070470278CB
:100F8000B2430270704702788A4302707047B60F0E
:100F900000006D000563786F722103CF3278424004
:100FA00032700E007047027872400270704702780B
:100FB0004A4002707047D00F00002000056362694C
:100FC000744001CF3678064018BF4FF0FF367047A7
:100FD000E00F000061000563656C6C2B0436704700
:100FE000F00F000061000563656C6C73B60070471C
:100FF0008410000000000768666C6173682130008F
:1010000040CF310040CF954B984221D3944B98422A
:101010001ED2944B1940994219D010F00102002AB7
:1010200016D102889A4213D110F100608E4A8F4B7C
:1010300013608F4B13608F4A8F4B136001808F4A70
:10104000136813F48033FBD18A4A8D4B13607047C9
:1010500000F046FC2A57726F6E6720616464726507
:101060007373206F72206461746120666F722077E1
:10107000726974696E6720666C61736820210A006A
:1010800002F01EBBDC10000000000763666C617399
:101090006821300040CF310040CF704B9842D7D309
:1010A0006F4B9842D4D211F0FF01FF2915D002787E
:1010B000FF2ACDD110F100606B4A6C4B13606C4B72
:1010C00013606C4A6F4B136001706C4A136813F421
:1010D0008033FBD1674A6A4B13607047521100009E
:1010E0000000106572617365666C61736873656397
:1010F000746F720000B5012E29D30C2E27D25A4AE4
:101100005A4B13605A4B136000F0EAFB0D457261B5
:10111000736520736563746F722047F8046D02F085
:1011200025F9544A584BF60033431360534A136869
:1011300013F48033FBD14F4A514B136000F0D0FBC6
:101140000C66726F6D20466C6173682E0A0040CF8A
:1011500000BDC412000000000A6572617365666C10
:101160006173680072B600B5484849490268B2F137
:10117000FF3F05D047F8046D0126FFF7BBFF02E0F3
:1011800004308842F2D3434843490268B2F1FF3F3A
:1011900005D047F8046D0226FFF7ACFF02E00430EB
:1011A0008842F2D33D483E490268B2F1FF3F05D084
:1011B00047F8046D0326FFF79DFF02E004308842E4
:1011C000F2D3384838490268B2F1FF3F05D047F8FA
:1011D000046D0426FFF78EFF02E004308842F2D34C
:1011E000324833490268B2F1FF3F05D047F8046D39
:1011F0000526FFF77FFF02E004308842F2D32D4836
:101200002D490268B2F1FF3F05D047F8046D06266C
:10121000FFF770FF02E004308842F2D327482849E4
:101220000268B2F1FF3F05D047F8046D0726FFF7CB
:1012300061FF02E004308842F2D300F051FB124615
:10124000696E69736865642E205265736574202128
:101250000A005DF804EB62B602F0AFBB004000008C
:1012600000000800FFFF0000043C02402301674526
:10127000AB89EFCD103C0240010100000C3C024064
:101280000000008001000000020001000040000892
:10129000FF7F000800800008FFBF000800C00008B2
:1012A000FFFF000800000108FFFF0108000002081E
:1012B000FFFF030800000408FFFF05080000060800
:1012C000FFFF0708DA1200006900012B01CF361872
:1012D000704736180036000616F1F012000069005B
:1012E000012D01CF861B7047361A003E0006B6F16D
:1012F000FE120000610002312D00013E70470C1308
:101300000000610002312B00013670471A13000003
:10131000610002322D00023E704728130000610078
:1013200002322B00023670473A1300006100066E4D
:10133000656761746500764270474E130000610076
:1013400003616273002E48BFD6F1000670476C132C
:101350000000420005752F6D6F6401CF3100B0FBB6
:10136000F6F67143401A043F386070478A13000054
:101370004200042F6D6F640001CF310090FBF6F640
:101380007143401A043F386070479E1300004200CA
:10139000036D6F6400B5FFF7EFFF40CF00BDAE13E4
:1013A00000006200012F01CF90FBF6F67047BE13DC
:1013B00000006A00012A01CF464370474643CC1320
:1013C0000000610002322A0076007047DA13000044
:1013D000610002322F0076107047EE1300006100AA
:1013E000046576656E00012030403618704706149B
:1013F0000000810004626173650047F8046D114EBE
:1014000070470A0000001C14000000000662696EAC
:10141000617279000B4802210160704732140000AC
:10142000000007646563696D616C06480A2101600C
:1014300070474814000000000368657801481021D7
:1014400001607047FC7F012064140000810009687E
:101450006F6F6B2D656D697447F8046D6F4E704743
:101460005A15000080140000810008686F6F6B2D12
:101470006B65790047F8046D694E70478015000070
:101480009E14000081000A686F6F6B2D656D697492
:101490003F0047F8046D634E7047AA150000BA1468
:1014A0000000810009686F6F6B2D6B65793F47F80D
:1014B000046D5D4E7047D6150000D8140000810001
:1014C0000A686F6F6B2D70617573650047F8046D66
:1014D000564E70476C370000EE14000000000465A3
:1014E0006D6974000FB54D4800F02CF80FBD021562
:1014F00000000000036B65790FB5494800F022F841
:101500000FBD18150000000005656D69743F00B53A
:10151000444800F017F800BD2E1500000000046BD1
:1015200065793F0000B5404800F00CF800BD481553
:101530000000000005706175736500B53B4800F060
:1015400001F800BD006887466E15000000000B73AF
:10155000657269616C2D656D697400B500F025F8E0
:10156000002E40CFFAD0324A167040CF00BD9615FB
:10157000000000000A73657269616C2D6B6579006B
:1015800000B500F028F8002E40CFFAD047F8046DDF
:10159000274A167800BDC415000000000C73657260
:1015A00069616C2D656D69743F0000B5FFF7C5FF7B
:1015B00047F8046D00261F4801688020014000D0D4
:1015C000F64300BD6016000000000B736572696190
:1015D0006C2D6B65793F00B5FFF7AFFF47F8046DE1
:1015E0000026144801682020014000D0F64300BDC9
:1015F0001149124808601249086850F0A0000860BC
:1016000010491148086011491148086011498B20A0
:10161000086011491148086070470000F87F0120F8
:10162000F47F0120F07F0120EC7F0120E87F012082
:101630000444004000440040303802409F00000055
:1016400000000240200002400077000040380240C5
:1016500000000200084400400C4400400C20000040
:10166000841600000000076365787065637400B538
:10167000386801B40130386000F00BF801BC067026
:1016800040CF00BDF6160000000006616363657080
:10169000740000B502CF01390022FFF72DFF3000A2
:1016A00040CF202819D2092816D00A281FD00D288B
:1016B0001DD00828F1D1002AEFD000F011F903085D
:1016C0002008002AE9D0885C013A80230340E4D056
:1016D00040230340F5D0E0E72020B242DDD247F8B6
:1016E000046D0600FFF7FEFE01328854D5E71600B0
:1016F00000F0A2F800BD0817000040000374696202
:1017000047F8046D294E70471E1700008100033E04
:10171000696E47F8046D264E7047000000004417BC
:10172000000082000E63757272656E742D736F75A2
:101730007263650047F8046D1E4E7047000000009C
:101740006400002060170000000009736574736F67
:1017500075726365174802CF0660416040CF7047DD
:101760007E170000000006736F757263650047F80E
:10177000046D104E043F7068386036687047B817C3
:10178000000000000571756572790FB508480021E9
:101790000160FFF7B5FF47F8046D47F8046DC826F0
:1017A000FFF777FFFFF7D6FF0FBD000064000020B2
:1017B000E47F0120DC7F01200618000000000763A1
:1017C0006F6D706172650FB5310040CF01CF8842F7
:1017D00002D040CF00260FBD02CF002810D0013824
:1017E0000A5C335C412A02D35B2A38BF2032412B8A
:1017F00002D35B2B38BF20339A42EED000260FBDB8
:101800000026F6430FBD1A180000000002637200A4
:1018100000B500F065F8010A00BD2C1800000000BA
:1018200002626C0047F8046D2026704740180000E3
:10183000000005737061636547F8046D202651E66A
:10184000661800000000067370616365730000B5E0
:10185000002E06DD47F8046D2026FFF743FE013E0B
:10186000F8D140CF00BD761800005000065B6368D9
:1018700061725D0005E08E1800000000046368617D
:10188000720000B501F0A8FB40CF367800BD9E186D
:1018900000005000012847F8046D292606E0B8181A
:1018A00000005000015C47F8046D002600B501F00F
:1018B0009DFB043740CF00BDFC1800001000022E35
:1018C00022009D4800B547F8046D060000F061FA5B
:1018D00047F8046D222601F089FB00F0A0FD00BD51
:1018E0000AB447F8046D7646013E3378012101338E
:1018F00019405B181EEB030E0ABC39E022190000E8
:101900001000026322008D48DCE747F8046D76463C
:10191000013E33780121013319405B181EEB030EA1
:1019200070474C1900001000027322008448C9E778
:1019300047F8046D764647F8046D013E367801217C
:10194000731C19405B181EEB030E704764190000EE
:10195000000005636F756E74013647F8046D013E33
:10196000367870478C190000000005637479706543
:1019700001B53078002807D0013647F8046D367875
:10198000FFF7B0FD0138F7D140CF01BDBA19000013
:101990000000047479706500310040CF300040CF02
:1019A00000B5002908D0002247F8046D865CFFF7D7
:1019B00099FD01329142F7D100BDF21900000000FB
:1019C000046865782E0003B5310040CF202004382C
:1019D00047F8046D31FA00F616F00F06092E8CBF99
:1019E00037363036FFF77EFD0028F0D1FFF724FFB1
:1019F00003BD021A0000000003682E731FB5514C8E
:101A00000EE0121A0000000003752E731FB54E4C35
:101A100006E0901A00000000022E73001FB54B4C28
:101A20004B49C91B89084B4A106803B40A2010604F
:101A3000FFF756FF08537461636B3A205B0047F869
:101A4000046D0E0001F09AFCFFF74AFF025D2000D2
:101A500003BC404A106000290AD03F4A106806B40F
:101A600047F8046D0600A04706BC043A0139F5D1D9
:101A7000FFF736FF0620544F533A200047F8046D15
:101A80003600A047FFF72CFF04202A3E0A001FBDA6
:101A90005C1B0000000005776F72647300B5FFF7F0
:101AA0001FFF06776F7264730A0000F0F0FEFFF705
:101AB00017FF09416464726573733A2047F8046D37
:101AC000FFF781FFFFF70CFF064C696E6B3A2000B1
:101AD00047F8046D3668FFF776FFFFF701FF07460A
:101AE0006C6167733A2047F8046DB688FFF76BFFA7
:101AF000FFF7F6FE06436F64653A2000B01D00F064
:101B0000FFFE47F8046D0600FFF75DFFFFF7E8FEF4
:101B1000064E616D653A200047F8046D0636FFF702
:101B200027FFFFF7DDFE010A00F0C8FE300040CFBE
:101B3000BDD040CF00BD0000E01800000A19000031
:101B400030190000C71900006D3300007D3300001C
:101B50002C020020FC7F012028020020C01C000075
:101B600000000D3132626974656E636F64696E677F
:101B70000FB5FF2E04D847F8046D5FF0FF360FBD98
:101B800016F0FF10B0420ED14FF6FF710840310C35
:101B9000814208D116F0FF0656F4805647F8046DCE
:101BA0005FF0FF360FBD16F0FF20B0420FD14FF6A9
:101BB000FF710840310C814209D1360A16F0FF0648
:101BC00056F4005647F8046D5FF0FF360FBDFF2254
:101BD00031001140300A1040884210D1300C1040C2
:101BE00088420CD1300E1040884208D116F0FF0612
:101BF00056F4405647F8046D5FF0FF360FBD3000D5
:101C000000210131001850F100007FF07F020240F6
:101C1000802A05D01F29F4D347F8046D00260FBD94
:101C20000829F9D3060036F0800611F00100C00142
:101C3000064311F00E00C002064311F010008005AB
:101C4000064347F8046D5FF0FF360FBD47F8046D9B
:101C5000DFF8C0655FF4704110EA0102120116431B
:101C60005FF4006110EA0102D20316435FF4E06101
:101C700010EA010212011643FF2110EA0102164385
:101C80001E43BCE347F8046DDFF88C655FF07041DC
:101C900010EA0102120B16435FF0006110EA010224
:101CA000520816435FF0E06110EA0102120B16437E
:101CB0005FF47F0110EA0102120C16431E439EE3FB
:101CC000261D000000001072656769737465726CF0
:101CD00069746572616C2C000FB5330040CF1B0234
:101CE000FF2E05D856F400561E4300F061FB0FBDD1
:101CF000FFF73EFF002E40CF06D0DFF82005064359
:101D00001E4300F07CFB0FBDF643FFF731FF002EB2
:101D100040CF06D0DFF8080506431E4300F06FFBF6
:101D20000FBDF6430BE0861D00000000096D6F76C5
:101D3000776D6F76742C0FB5330040CF1B023000E7
:101D400040CFFFF783FF4FF6FF7110EA014001D04B
:101D5000FFF798FF0FBD0FB50136300040CF0023CD
:101D6000FFF774FFFFF78EFF06E00FB5013647F867
:101D7000046D0026FFF7B0FF47F8046D44F280764B
:101D800000F016FB0FBDEC1D000000000563616C48
:101D90006C2C0FB5330000F056FE300040CF1B1AFC
:101DA000043BDFF880141940002906D0DFF87824BE
:101DB000914202D0BDE80F40D7E740CF5B08DFF883
:101DC0006C0440F2FF7119400843DB0A40F2FF3116
:101DD0001940090408439B0A13F0010189060843CE
:101DE00047F8046D060000F00AFB0FBD221E00003C
:101DF0000000086C69746572616C2C0008B547F8C6
:101E0000046D4FF6470600F0D3FA47F8046D46F626
:101E1000045600F0CDFA47F8046D0626FFF75CFF84
:101E200008BD461E0000000006637265617465000F
:101E300000B500F033F841F66360804747F8046D61
:101E4000BEF1010600BD8E1E0000200005646F6516
:101E5000733E41F66360804747F8046DBEF10106AA
:101E6000704747F8046DBEF1010600F0AFF8F04A84
:101E70001368310040CF0220084000D00231023107
:101E80001160FFF768FF136000F0E5F900BDD01E98
:101E900000000000073C6275696C647300B500F0D7
:101EA00089FB00F0D0FD0220064040CF04D047F867
:101EB000046D362600F07CFA47F8046D4BF20056AC
:101EC00000F076FA47F8046D0A2600F0DBFA00BD50
:101ED000DC1E00005000035B275D03E0F21E0000E3
:101EE0000000012700B501F077F800F047FD40CF72
:101EF00000BD381F0000100008706F7374706F6EA3
:101F0000650000B501F068F800F038FD300040CF02
:101F1000102101400DD12021014005D0FFF76EFFB7
:101F200047F8046DC34E04E0FFF768FF47F8046DFF
:101F3000C14EFFF72EFF00BD8E1F00000000076995
:101F40006E6C696E652C00B54BF200514BF6005279
:101F500044F270733088884208D0904208D098428A
:101F600006D047F8046D060000F022FA0236F1E7C9
:101F700040CF00BD0EB44BF6005244F2707301889E
:101F80000230914201D09942F9D10EBC7047A41F92
:101F900000000000047265742C0047F8046D4BF6D5
:101FA000005605E2B21F0000300004657869740035
:101FB000F3E7E81F00003000077265637572736510
:101FC00000B500F003F8FFF7E4FE00BD0FB59B4835
:101FD000006806300178013101220A408918401852
:101FE00047F8046D06000FBD002000008100057356
:101FF0007461746547F8046D914E704700000000ED
:10200000122000000000015D8D480021C9430160DD
:102010007047222000001000015B89480021016008
:1020200070474A2000000000013A00B5854807606B
:1020300000F0C0FA47F8046D4BF2005600F0B8F912
:102040007F480021C943016000BD9220000030009C
:10205000013B00B57B480168B9420ED0FFF740FC58
:102060001520537461636B206E6F742062616C6124
:102070006E6365642E0A01F023BB47F8046D4BF6CE
:10208000005600F095F900F0E6F86D480021016077
:1020900000BDA820000000000765786563757465C1
:1020A000300040CF01308746C02000001000096991
:1020B0006D6D65646961746547F8046D1026F9E01B
:1020C000D6200000100006696E6C696E650047F846
:1020D000046D2026EEE0F020000010000B636F6D11
:1020E00070696C656F6E6C7947F8046D3026E1E0BD
:1020F0000A21000010000A302D666F6C6461626C6A
:10210000650047F8046D4026D4E02421000010004B
:102110000A312D666F6C6461626C650047F8046D6E
:102120004126C7E03E21000010000A322D666F6C88
:102130006461626C650047F8046D4226BAE058217C
:10214000000010000A332D666F6C6461626C6500DC
:1021500047F8046D4326ADE07221000010000A34F8
:102160002D666F6C6461626C650047F8046D4426EF
:10217000A0E08C21000010000A352D666F6C6461B0
:10218000626C650047F8046D452693E0A6210000C7
:1021900010000A362D666F6C6461626C650047F84A
:1021A000046D462686E0C021000010000A372D6627
:1021B0006F6C6461626C650047F8046D472679E0D6
:1021C000F0210000000008636F6E7374616E74008C
:1021D00000B500F0EFF9FFF711FE47F8046D44F287
:1021E000707600F0E5F8FFF78CFF00F034F800BDE2
:1021F0004822000000000932636F6E7374616E74D0
:1022000000B500F0D7F939683E600E46FFF7F6FDDD
:10221000E1E70000000040F20000C0F200005FF0C3
:1022200000007FF00100C0FF0000C0FF00F800F0D8
:1022300000000020461F0000921D00000400002046
:10224000D87F012010000020A422000000000673A7
:102250006D756467650000B523480168224A9142A4
:102260001AD202390A88214B9A4204D147F8046DE8
:102270001F4E00F09DF800F06EF81E48006847F809
:10228000046D06001C4909680431174A136811607F
:1022900000F08EF8136000BD00F05DF847F8046DA3
:1022A000002608E0FC220000000008736574666CDC
:1022B0006167730000B50C4801680B4A914205D272
:1022C0000C4801683143016040CF00BD320040CF6F
:1022D0000948006804300188044B99420CBF11463C
:1022E0001143018000BD000000000020FFFF00003E
:1022F000000000001C000020040000200A23000051
:10230000000005616C69676E25E02623000041002E
:1023100007616C69676E65640120304036180220E1
:1023200030403618704748230000000006616C6991
:10233000676E2C00954801680120014003D047F8E2
:10234000046D00261AE07047722300000000076148
:102350006C69676E342C00B5FFF7ECFF8B480168A1
:102360000220014004D047F8046D002600F020F858
:1023700000BDA6230000000002632C0000B58348C6
:102380000168824A914205D247F8046D0E00FEF7BB
:1023900080FE02E0320040CF0A7047F8046D01264B
:1023A00000F070F800BDDA230000000002682C0085
:1023B0000FB576480168754A914205D247F8046D19
:1023C0000E00FEF71CFE02E0320040CF0A8047F804
:1023D000046D022600F056F80FBDF4230000000043
:1023E000012C00B547F8046DFFF7E2FF360CFFF74C
:1023F000DFFF00BD102400000000033E3C2C00B5B0
:1024000047F8046D360CFFF7D3FFFFF7D1FF00BD8F
:1024100078240000000007737472696E672C07B59A
:10242000FF21314040CF300040CF002905D147F88F
:10243000046D0026FFF7BCFF07BD47F8046D067862
:1024400036020E43FFF7B4FF0130013902290AD3E7
:1024500047F8046D4678360202781643FFF7A8FF66
:1024600002300239F2E7002900D107BD47F8046DB8
:102470000678FFF79DFF07BDD2240000000005612C
:102480006C6C6F7441480168404A91420FD232002F
:1024900040CF89183E4A914219D3FFF721FA0B46E3
:1024A0006C6173682066756C6C0A01F009B93200C2
:1024B00040CF8918374A1268914208D3FFF710FAC3
:1024C0000952616D2066756C6C0A01F0F9B8016003
:1024D0007047FA24000000000D636F6D70696C6531
:1024E000746F72616D3F47F8046D002627480068DD
:1024F0002649884248D3F64370471A250000000059
:102500000C636F6D70696C65746F72616D001F484C
:1025100000681E49884211D37047A42500000000BE
:102520000E636F6D70696C65746F666C61736800C3
:10253000164800681549884200D270471648174966
:1025400002680B680A6003601048154902680B684E
:102550000A6003600F480068834215D300B5FFF797
:10256000BFF923205661726961626C657320636FE5
:102570006C6C696465207769746820646963746948
:102580006F6E6172790A00BD704700000000002084
:102590000000080020000020040000201800002097
:1025A000140000208A26000000000828637265617C
:1025B0007465290000B500F00FFD002E0ED1FFF765
:1025C0008FF91520437265617465206E65656473CB
:1025D000206E616D6520210A01F072B8386847F8F5
:1025E000046D043F386000F09AF940CF002E40CFD0
:1025F00011D0386847F8046D043F3860FFF770F970
:10260000095265646566696E6520FFF7C5F9FFF7D5
:1026100067F9022E0A00FFF78DFEFFF79CFE00F01F
:1026200012FA8C4800688B4988421CD28A480021E3
:10263000016047F8046D0626FFF724FFFEF7D6F980
:10264000FFF7EDFE854801680A68854B9A4207D17D
:10265000804A1368116047F8046DFFF7C2FE1360EB
:10266000066040CF00BD7D4847F8046D0668FFF75F
:10267000B8FE47F8046D7B4EFFF79AFE77483100AD
:1026800040CF0160FFF7CBFE00BDA2260000000096
:10269000087661726961626C650047F8046D012615
:1026A00013E0BA26000000000932766172696162A7
:1026B0006C6547F8046D022607E0942700000000CF
:1026C000096E7661726961626C6500B5FFF772FF31
:1026D000604801685F4A914234D20F200640B20040
:1026E00061480168891A614A91420BD2FFF7F8F8F4
:1026F0000F4E6F7420656E6F7567682052414D0AEA
:1027000000F0DEBF016047F8046D0E00FFF776FBB6
:1027100047F8046D44F27076FFF74AFE300040CF70
:102720000200002805D00E600431FFF75AFE013880
:10273000F9D147F8046D80261643FFF7BBFDFFF77C
:102740008AFD00BD00F07FF90220064040CF04D191
:1027500047F8046D3626FFF72BFE47F8046D444E0C
:10276000FFF74DFE47F8046D424EFFF748FE47F86D
:10277000046D44F27076FFF71BFE300040CF002856
:1027800003D0FFF72EFE0138FBD1FFF7BAFCFFF7AD
:1027900062FD00BD7828000000000762756666656E
:1027A000723A00B5FFF706FF0120304036180220CC
:1027B0003040361827480168264A914228D22A48D4
:1027C0000168891B294A91420BD2FFF789F80F4E05
:1027D0006F7420656E6F7567682052414D0A00F076
:1027E0006FBF016047F8046D0E00FFF707FB47F865
:1027F000046D44F27076FFF7DBFDFFF7F2FD47F85A
:10280000046D40F24016FFF755FDFFF724FD00BDB3
:1028100000F019F90220064040CF04D147F8046DBA
:102820003626FFF7C5FD47F8046D114EFFF7E7FDAB
:1028300047F8046D0F4EFFF7E2FD47F8046D44F2D0
:102840007076FFF7B5FDFFF71DFEFFF75AFCFFF7A7
:1028500002FD00BD000000201C000020040000203C
:10286000FFFFFFFFFFFF0000200000202C030020DF
:102870003E60043F02367E46A628000000000F643A
:10288000696374696F6E61727973746172744148BF
:102890000068404947F8046D884201D23E4E7047B7
:1028A0003E4E36687047E028000000000E64696301
:1028B00074696F6E6172796E6578740003B5316802
:1028C0003748814207D08879FF2804D00E0047F8A6
:1028D000046D002603BD47F8046D0026F64303BDD2
:1028E0001229000000000A736B6970737472696EBC
:1028F00067003178013101220A4089187618704743
:1029000006B40178013101220A408918401806BC3A
:102910007047A829000000000466696E64003FB596
:1029200000220023350040CF340040CFFFF7AFFF37
:102930001C48B188884217D047F8046D0636FFF767
:102940000BF847F8046D260047F8046D2E00FEF7DB
:102950003AFF002E40CF07D0B01DFFF7D1FF020095
:102960000B000C48824204D2FFF7A8FF300040CF92
:10297000DED0160047F8046D1E003FBD00B53100E3
:102980003868FFF7CCFF3A68002A01D100F06AFDF1
:1029900000BD0000000000209401000004000020A1
:1029A000FFFFFFFFFFFF0000022A00000000066398
:1029B0006A756D702C00320040CF310040CF8B1B08
:1029C000043BA349194000290DD0A24881420AD0F6
:1029D000FEF786FF0D4A756D7020746F6F2066617B
:1029E000720A00F06DBE5B10FF210B4013433000F4
:1029F0001E0000B5984A13681060FFF7D9FC1360F9
:102A000000BD3A2A00000000056A756D702C310087
:102A100040CF300040CF0B1A043B904919400029A9
:102A200002D08F4A9142D3D15B108E4A134053F4A7
:102A3000604347F8046D1E00DBE7502A00000000E9
:102A400004686572650047F8046D834E3668704708
:102A50004C2B000000000D666C6173687661722D6E
:102A60006865726547F8046D7F4E3668704700B53B
:102A700047F8046D42F60066FFF79AFC47F8046DCC
:102A80004CF64076FFF794FC00BDDCE700B500F0A3
:102A90003AF839683E600E4647F8046D4DF200166C
:102AA000FFF789FF00BD00B500F02DF839683E60E2
:102AB0000E4647F8046D4DF20076FFF77CFF00BD2F
:102AC00000B5FFF7D4FF00F01EF839683E600E46EF
:102AD00047F8046D4DF20006FFF76DFF00BD00B52D
:102AE00000F011F839683E600E46FFF790FF00BD18
:102AF00000B5FFF7BCFFFFF7A6FF47F8046D0226FD
:102B0000FFF7C0FC00BD00B5FFF79DFF47F8046D5F
:102B10000226FFF7B7FC00BD00B5FFF794FFFFF7F3
:102B200076FF00BD00B5FFF78EFF47F8046D4DF24C
:102B30000006FFF740FF00BD00B5FFF784FF47F830
:102B4000046D4DF20016FFF736FF00BD882B000024
:102B50003000047468656E00052E01D140CFDBE7BC
:102B6000022E01D140CFDDE7FEF7BAFE1753747293
:102B70007563747572657320646F6E2774206D6160
:102B80007463680A00F09CBDB22B0000300004653D
:102B90006C73650000B5022EE6D140CFFFF7B3FF9E
:102BA00039683E600E46FFF7BDFF47F8046D052605
:102BB00000BDCA2B000030000269660000B5FFF7B7
:102BC00097FF47F8046D022600BDF02B000030008F
:102BD0000672657065617400042EC5D140CF3968F6
:102BE0003E600E4600B5FFF77AFFFFF79BFF00BD82
:102BF0000C2C00003000057768696C65012EB3D19C
:102C000040CF00B5FFF7DAFF023600BD202C0000F0
:102C1000300005756E74696C012EA5D140CF4FE769
:102C2000342C0000300005616761696E012E9BD174
:102C300040CF54E76C2C0000300005626567696E78
:102C400000B5FFF722FF47F8046D012600BD000024
:102C500001FFFFFF00FFFFFF0000002001F8FFFF62
:102C600000F8FFFFFF070000200000207C2C000080
:102C70002000016B47F8046D029E70478C2C000009
:102C80002000016A47F8046D009E70479C2C0000EC
:102C90002000016947F8046D26007047DC2C000015
:102CA0003000056C6561766500B5684801683B00D9
:102CB000043F1A68043B1A60043304338B42F8D192
:102CC00003B4FFF720FF03BC330040CF04390B608F
:102CD000016004390A6801320A6000BDEE2C000070
:102CE000200006756E6C6F6F700030BC7047262D2B
:102CF00000003000052B6C6F6F70032E00D033E79F
:102D000040CF00B547F8046D514EFFF71CF9FFF7AF
:102D1000CAFE1AE014F10044641BA41940CF2C44ED
:102D2000A4F100447047682D00003000046C6F6F00
:102D30007000032E00D017E740CF00B547F8046DB0
:102D4000444EFFF700F9FFF7A1FE00F023F93F48DA
:102D5000310040CF016047F8046D3F4EFFF7F3F8B4
:102D600000BD0134AC427047B02D00007800026411
:102D70006F0000B547F8046D384EFFF7E4F83348AC
:102D8000016847F8046D0E0047F8046D00260760DF
:102D9000FFF77BFE47F8046D032600BD00B500F089
:102DA0002FF8ECE730B4340040CF350040CF704707
:102DB000602E00007800033F646F00B547F8046D93
:102DC000264EFFF7C0F847F8046D44F2AC26FFF733
:102DD000EFFA1E48016847F8046D0E00FFF793FEF6
:102DE000013647F8046D012618480760FFF74DFECD
:102DF00047F8046D032600BD00B500F001F8E2E7D6
:102E000000B547F8046D4BF23046FFF7D1FA47F8AA
:102E1000046D0426FEF760FF013B08D047F8046DFF
:102E20000526FEF759FF013B00F023FC00BD47F8E3
:102E3000046D3526FFF7BCFA47F8046D4CF6407672
:102E4000FFF7B6FA00F015FC00BD00000C000020F2
:102E5000142D0000622D0000EA2C0000A42D0000BB
:102E60007A2E0000300004636173650047F8046D3A
:102E7000002647F8046D08267047902E00003000A9
:102E8000033F6F664D4809E0013EB64140CF7047B1
:102E9000342F00007800026F66004948082E00D0E9
:102EA00062E640CF00B547F8046D0600FFF74BF827
:102EB000FFF729FE39683E600E46013647F8046D7B
:102EC000092647F8046D4CF64076FFF771FA00BD0D
:102ED00000B5300040CF013B01B400F0CAFB01BC9B
:102EE000082E00D040E640CF47F8046D0600FF21D1
:102EF0003140B14204D133490E43FFF759FAD7E7C5
:102F0000FEF736FE002E40CF04D02F480643FFF7D1
:102F100076FACDE747F8046D0026FEF7DDFE47F8A8
:102F2000046D44F2B026FFF743FAC1E7300040CF0A
:102F3000B04270476A2F0000300005656E646F660E
:102F4000092E00D010E640CF00B540B440CFFFF7C7
:102F5000DAFD39683E600E46FFF7EEFD47F8046D76
:102F600040BC47F8046D082600BDCC2F000030009F
:102F700007656E6463617365082E00D0F4E540CF89
:102F800000B547F8046D4CF64076FFF711FA00F0F3
:102F900001F800BD00B5300040CF00280DD003B4CB
:102FA00001213140002903D0013EFFF7BBFD01E0C4
:102FB000FFF7B2FD03BC0138EFE700BD882E00002B
:102FC0002C2F0000002E0000000FB6F1E02F0000B3
:102FD000000005746F6B656E47F8046D202605E0F0
:102FE0003C300000000005706172736510B5FEF79B
:102FF000BEFB310040CF300040CF0F4A126884182A
:10300000202E07D191420FD0835CB34202D101320E
:103010008418F7E7914207D0835C0132B342F9D1BB
:103020008618361B013E01E08618361B043F3C60C3
:103030000148026010BD0000E47F01207A300000EA
:103040000000056469676974CE4B1B68303E0BD382
:103050000A2E0BD3073E0A2E06D3242E06D3203E7B
:103060000A2E01D3242E01D3002670479E42FBD2A4
:1030700047F8046D0026F6437047843100000000D5
:10308000066E756D626572003FB5310040CF701EEF
:103090000126012204B4BB4B1B6800240025002933
:1030A0003CD00130013902782D2A04D101B0002230
:1030B000D24304B4F3E7232A01D10A23EFE7242AF9
:1030C00001D11023EBE7252A01D10223E7E72E2ABD
:1030D00001D10226E3E72C2A36D047F8046D16000A
:1030E000FFF7B4FF002E40CF2BD047F8046D260029
:1030F00047F8046D2E0047F8046D1E0047F8046D74
:1031000000260FB4FDF77FF90FBC350040CF340027
:1031100040CF0022A419554140CFC0E704BC002A8B
:1031200004D50022E443ED43013455413300260029
:10313000012B02D047F8046D2E0047F8046D1E00E5
:103140003FBD01B000263FBD250000240226002916
:10315000E4D0425C01392E2AF9D047F8046D1600FC
:10316000FFF774FF002E40CFEBD0043F3C6047F8E0
:10317000046D1E000FB4FDF7F5F90FBC340040CF0D
:1031800040CFE4E7A43100000000062E64696769BF
:1031900074000A2E3CBF303603E0242E34BF37368D
:1031A00023267047DA310000000004686F6C640069
:1031B000330040CF744801783F290DD201310170AE
:1031C0004018012907D00138027801300270013817
:1031D00001390129F7D103707047FA31000000006E
:1031E00005686F6C643C330040CF674801783F2925
:1031F00002D20131017043547047123200000000C6
:10320000047369676E00002E01D440CF70472D26ED
:10321000CEE726320000000002233E005A4806781E
:103220000130386070473E320000000003662353CF
:1032300010B5202400F008F8013CFBD110BD60322D
:10324000000000000266230000B547F8046D4D4EF3
:103250003668FDF7C4F8FFF79CFFFFF7C4FF00BD19
:103260007C32000000000223530000B500F00AF891
:10327000002EFBD138680028F8D100BDA83200002C
:103280000000012300B547F8046D3E4E366847F84C
:10329000046D0026FDF7C6F9FCF7AAFF40CFFFF743
:1032A00078FFFFF785FF00BDBA3200000000023C46
:1032B00023003548002101707047CC320000000027
:1032C00002662E0047F8046D202604E01A33000041
:1032D000000003662E6E00B510B4340040CFFDF739
:1032E0006FFBFDF738F847F8046D0026FFF7E1FFA4
:1032F000FFF7BBFF40CF2C26FFF775FF002C03D054
:10330000FFF7A2FF013CFBD110BC40CFFFF77BFFD2
:1033100047F8046D47F8046D1CE0303300000000EE
:103320000375642E00B5FFF7C4FFFFF79EFF11E0A1
:1033300062330000000002642E0000B5FDF740FB80
:10334000FDF709F8FFF7B5FFFFF78FFFFDF742FB29
:10335000FFF759FFFFF762FFFEF71EFBFEF76CFA5F
:1033600000BD74330000000002752E0047F8046DA4
:103370000026D7E78C3300000000012E47F8046DCB
:10338000F617DAE7FC7F012024000020D433000088
:103390000000086576616C756174650000B5FEF724
:1033A000E6F901CF01B440B440CFD448016802B47B
:1033B00000210160FEF7CEF900F014F8CF4802BCFE
:1033C000016047F8046D40BC01BC043F3860FEF763
:1033D000C1F900BD98360000000009696E7465727D
:1033E0007072657430B5C64887420BD9FEF778FA1B
:1033F00010537461636B20756E646572666C6F77D1
:103400000A005DE1BF4887420AD2FEF769FA0F530E
:103410007461636B206F766572666C6F770A4FE13B
:10342000B94C2568002D01D13D002560FFF7D4FD82
:10343000002E02D1043740CF30BD386847F8046D04
:10344000043F3860FFF76BFA310040CF320040CFC5
:10345000002A13D138683100FFF716FE320040CF42
:10346000002AC0D1FEF79CFAFEF73AFA0C206E6FE4
:103470007420666F756E642E0A0021E1A34B1B68F1
:10348000002B1DD10025256030230B40302B0ED1A1
:10349000FEF782FAFEF724FA1220697320636F6D3B
:1034A00070696C652D6F6E6C792E0A0008E1043727
:1034B00040CF47F8046D1600FEF7F2FDFFF793FFCB
:1034C000043740CF802008400ED1EB1B9B084020E2
:1034D00008400FD00820084002D0002B00D01DE08B
:1034E0000F200840834205D347F8046D1600FEF70D
:1034F000D7FD78E700F0BDF847F8046D16001022FC
:103500000A4002D0FEF7CCFD6DE720220A4002D02F
:10351000FEF719FD67E7FEF73CFC64E70720014072
:103520001000FEF727FD01291FD1012BDCD1FF215F
:103530003140B14204D140880643FEF739FF52E7DB
:10354000FEF716FB002E40CF04D040680643FEF77E
:1035500056FF48E747F8046D0026FEF7BDFB47F825
:10356000046D0688FEF724FF3DE7022902D1012BF6
:10357000BAD1EFE7032926D1012BB5D1FF21314084
:10358000B1420AD162490E43FEF712FF043247F8F6
:10359000046D1600FEF7D7FC25E7FEF7E9FA002ECA
:1035A00040CF04D05B490E43FEF729FFEEE747F812
:1035B000046D0026FEF790FB023247F8046D1600FA
:1035C000FEF7C1FC0FE7042918D1012B8CD1330081
:1035D00040CF002B00D106E71F221A409A4205D0A7
:1035E00047F8046D4688FEF7E3FEFCE647F8046DF5
:1035F00006889B011E43FEF7DBFEF4E6052924D175
:10360000012B10D147F8046D0026FEF765FB47F843
:10361000046D0600FEF797FC47F8046D4CF6407603
:10362000FEF7C6FEDFE647F8046D0026FEF754FB02
:1036300047F8046D0126FEF74FFBFEF79BFC47F8A9
:10364000046D0600FEF77FFCCDE606290ED1012BA6
:103650007FF44AAFFEF78CFA002E40CF3FF47AAFEA
:10366000D0F802000643FEF7CAFEBCE601308047F0
:10367000B9E600B5002B0CD0013B47F8046D1E00E5
:1036800057F82660FEF7BAFB002BF5D1043D2F005A
:1036900040CF0025256000BDB436000081000968D8
:1036A0006F6F6B2D7175697447F8046D1A4E704712
:1036B000E83600002C3700000000047175697400C2
:1036C000DFF858D00E4F16480A2101600F4800213C
:1036D00001600D480160094801601248016012490B
:1036E00041600D4800688746FEF74FF8FFF77AFE05
:1036F000FEF7F6F805206F6B2E0AF5E7E47F012050
:103700002C0200202C01002008000020D87F01207E
:10371000003E00000006B6F1D47F01202C030020FB
:10372000FC7F0120DC7F0120640000203C3700008A
:1037300020000465696E740062B670474C37000063
:1037400020000464696E740072B67047623700002E
:10375000200004697073720047F8046DEFF305866A
:1037600070476E3700000000036E6F707047B0370F
:103770000000000009756E68616E646C656400B5D8
:10378000FEF7AEF814556E68616E646C656420498E
:103790006E74657272757074200047F8046DEFF3F3
:1037A0000586FEF710F9FEF79BF802210A0000BD1E
:1037B000DA37000081000B6972712D7379737469B7
:1037C000636B47F8046DBD4E70477E37000047F6C7
:1037D000D070C2F201000068874602380000810004
:1037E000096972712D6661756C7447F8046DB44E89
:1037F00070477E37000047F6CC70C2F201000068C7
:1038000087463038000081000E6972712D636F6C3D
:103810006C656374696F6E0047F8046DA94E70475C
:103820007E37000047F6C870C2F201000068874684
:10383000583800008100096972712D65787469300B
:1038400047F8046DA04E70477E37000047F6C470FD
:10385000C2F20100006887468038000081000969D3
:1038600072712D657874693147F8046D974E704711
:103870007E37000047F6C070C2F20100006887463C
:10388000A83800008100096972712D657874693269
:1038900047F8046D8E4E70477E37000047F6BC70C7
:1038A000C2F2010000688746D03800008100096933
:1038B00072712D657874693347F8046D854E7047D1
:1038C0007E37000047F6B870C2F2010000688746F4
:1038D000F83800008100096972712D6578746934C7
:1038E00047F8046D7C4E70477E37000047F6B47091
:1038F000C2F20100006887461E3900008100076996
:1039000072712D61646347F8046D744E70477E37A1
:10391000000047F6B070C2F20100006887464639E1
:1039200000008100086972712D74696D320047F8DA
:10393000046D6B4E70477E37000047F6AC70C2F2E4
:103940000100006887466E390000810008697271C5
:103950002D74696D330047F8046D624E70477E37F1
:10396000000047F6A870C2F2010000688746963949
:1039700000008100086972712D74696D340047F888
:10398000046D594E70477E37000047F6A470C2F2AE
:1039900001000068874600400000FFFF182D2D2D14
:1039A00020466C6173682044696374696F6E61724C
:1039B00079202D2D2D00FDF71BFE4C4885464C4FE0
:1039C0002A264C48494901604B484C49016047F858
:1039D000046D4A4E4A4DB1884A4B994224D04A4B15
:1039E0000B400AD0B01DFEF78BFFFEF7C3FA038829
:1039F000408800040343ED1A16E080230B4013D0E7
:103A00000F23194089006D1AB01DFEF779FFFEF7EC
:103A1000B1FA47F8046D060047F8046D2E0047F828
:103A2000046D0E00FDF75CF9FEF748FF300040CF53
:103A3000D1D03648066040CF354805603548364914
:103A4000304A884204D0023803889342F9D00230C9
:103A500032490860FDF744FF374D65637269737042
:103A60002D5374656C6C6172697320322E302E3266
:103A700020666F722053544D333246343031206209
:103A800079204D61747468696173204B6F63680AB3
:103A900023480021016047F8046D224E47F8046D69
:103AA0000426FEF73CFF40CF002E02D0FEF7F8FAC6
:103AB00017E640CF04E6696E69740000D07F0120EC
:103AC000CC7F0120C87F0120C47F0120C07F01205E
:103AD000BC7F0120B87F0120B47F0120B07F01208E
:103AE000AC7F0120A87F0120A47F01202C030020AF
:103AF0002C0200200000002004000020940100009F
:103B000000800120FFFF00000001000018000020DD
:103B100020000020000008000040000014000020E9
:083B200008000020B63A000085
:0400000508000000EF
:00000001FF
