:020000040800F2
:100000002C0300202F370000E7350000E735000003
:10001000E7350000E7350000E7350000000000008C
:100020000000000000000000000000001536000085
:10003000153600000000000015360000BF35000036
:100040001536000015360000153600001536000084
:1000500015360000153600003D36000065360000FC
:100060008D360000B5360000DD3600001536000084
:100070001536000015360000153600001536000054
:1000800015360000153600000337000000000000A0
:100090000000000000000000000000001536000015
:1000A0001536000015360000153600001536000024
:1000B0001536000015360000153600001536000014
:1000C0001536000015360000153600001536000004
:1000D00015360000153600001536000015360000F4
:1000E00015360000153600001536000015360000E4
:1000F000153600001536000000000000000000006A
:10010000153600000000000015360000153600000E
:1001100015360000153600001536000015360000B3
:1001200015360000153600001536000015360000A3
:10013000153600005A010000FFFF1E2D2D2D204D09
:100140006563726973702D5374656C6C6172697349
:1001500020436F7265202D2D2D007201000042009A
:10016000043264757000386847F8046D043F3860E5
:100170007047840100006200053264726F700437BA
:1001800040CF7047A20100004400053273776170D0
:1001900007CF043F386047F8046D043F3A600E0013
:1001A0007047B6010000620004326E69700007CF2C
:1001B000043F38607047D0010000440005326F767C
:1001C0006572B86847F8046D043F3860FE68704790
:1001D000F4010000440005327475636B07CF043FDF
:1001E000386047F8046D043F3A60043F3960043FCB
:1001F000386070471602000046000432726F7400C7
:100200003868B9683A69B86039613A6079687E607F
:10021000FE68F960704738020000460005322D7212
:100220006F743868B9683A6938613960BA60F968DA
:10023000FE607E68796070474C0200002000033247
:100240003E7201CF01B440B440CF70476402000059
:1002500020000332723E47F8046D40BC01BC043FED
:10026000386070477C02000020000332724047F87B
:10027000046D019E47F8046D009E70478E020000D9
:10028000200006327264726F700002B07047A602DE
:10029000000042000364322F3868F10776104008EE
:1002A000084338607047BA02000062000364322AD3
:1002B00038680018764138607047D4020000420068
:1002C0000464736872003868F107760840080843D0
:1002D00038607047EA0200006200046473686C00D2
:1002E00038680018764138607047FC020000420010
:1002F000046461627300002E14D47047160300007A
:100300004300083F646E656761746500300040CF4C
:10031000002807D4704734030000420007646E656C
:100320006761746538680021C043F64301304E416F
:10033000386070474C030000640002642D0007CF52
:10034000121AB1410E00043F3A6070476203000088
:10035000640002642B0007CF12184E41043F3A603C
:10036000704774030000610003733E6447F8046D36
:10037000F617704788030000620003756D2A38681D
:10038000A0FB0606386070479C0300006200026D07
:100390002A00386880FB060638607047DA030000E0
:1003A00044000375642A07CF564341437618010C75
:1003B000130C59437618010C80B292B25143434357
:1003C00050430022C91852411204B6180A04090CFD
:1003D00080184E41043F386070476C0400004400B0
:1003E0000475646D2A0010B5002447F8046D7E681A
:1003F00047F8046D3E69FFF7C2FF310040CF30007F
:1004000040CF47F8046D3E6847F8046DFE6803B4BA
:10041000FFF7B5FF03BC330040CF320040CF47F8B1
:10042000046D3E6847F8046D3E690FB4FFF7A7FFFF
:100430000FBC9219634140CF89196241634140CF9B
:1004400047F8046D7E6847F8046DFE680FB4FFF747
:1004500096FF0FBC9219634140CF891962416341F5
:1004600040CF1E003A607960B86010BD8E04000075
:100470004300022A2F0000B540B440CFFFF789FFA8
:1004800047F8046D40BC00F062F8043700BDB004CA
:1004900000004300052A2F6D6F6400B540B440CFC3
:1004A000FFF777FF47F8046D40BC00F050F800BD3F
:1004B000D2040000430003752A2F00B540B440CF9A
:1004C000FFF75DFF47F8046D40BC00F01BF80437F0
:1004D00000BDF6040000430006752A2F6D6F64000E
:1004E00000B540B440CFFFF74AFF47F8046D40BC69
:1004F00000F008F800BD42050000430006756D2FAE
:100500006D6F640010B478683968002200242023DD
:100510006400001849415241964201D8921B0134AF
:10052000013BF5D12023640049185241964201D87D
:10053000921B0134013BF6D104373A60260010BC0F
:100540007047B60500004300056D2F6D6F6400B560
:10055000F01718D0764200F019FAF0170DD0FFF717
:10056000E1FE00F007FAFFF7CDFF39683E600E4666
:10057000764239683E600E4600BD00F0FBF9FFF799
:10058000C1FF764200BD00F001FAF0170ED0FFF770
:10059000C9FE00F0EFF9FFF7B5FF764239683E601B
:1005A0000E46764239683E600E4600BD00F0E2F924
:1005B000FFF7A8FF00BD1206000044000675642F77
:1005C0006D6F640030B43C68B8687968002200251B
:1005D00020236D00001849415241944201D8121B5A
:1005E0000135013BF5D120B4002520206D004918CC
:1005F00052415B419E4204D8944202D8121BB3413F
:1006000001350138F2D13D60BA607B6040BC30BC3E
:10061000704788060000440005642F6D6F6400B5C4
:10062000F01719D0FFF77EFEFFF7B2FDF0170CD0E0
:10063000FFF778FEFFF7ACFDFFF7C4FFFFF7A8FD5B
:10064000FFF770FEFFF7A4FD00BDFFF7A1FDFFF768
:10065000B9FFFFF767FE00BDFFF79AFDF0170ED058
:10066000FFF760FEFFF794FDFFF7ACFFFFF75AFEC0
:10067000FFF78EFDFFF756FEFFF78AFD00BDFFF77F
:1006800087FDFFF79FFF00BD9E0600004400026447
:100690002F0000B5FFF7C3FFFFF789FD00BD360748
:1006A0000000440002662A0000B5F0170DD0FFF7E5
:1006B00039FEFFF76DFDF0170DD0FFF733FEFFF7A2
:1006C00092FE40CF01CF386000BDFFF761FDF0170B
:1006D000F5D0FFF727FEFFF786FE40CF01CF386049
:1006E000FFF720FE00BD30B43C68B9687A6800238B
:1006F000002520206D00491852415B419E4204D8DC
:10070000944202D8121BB34101350138F2D12900BD
:1007100020206D0092185B419E4204D8944202D87A
:10072000121BB34101350138F3D13D60BA607B60E3
:100730000E0030BC704782070000440002662F00A4
:1007400000B5F0170ED0FFF7EDFDFFF721FDF01714
:100750000ED0FFF7E7FDFFF71BFDFFF7C4FFFFF724
:1007600026FD00BDFFF714FDF017F4D0FFF7DAFD0A
:10077000FFF70EFDFFF7B7FFFFF7D4FDFFF717FDFB
:1007800000BD9607000020000232210006CF316034
:10079000726040CF7047AA0700002000023240007C
:1007A000043F7068386036687047CA07000044002C
:1007B0000364753C07CF8E4204D801D1904201D822
:1007C000002670470026F6437047EA070000440001
:1007D0000364753E07CFB14204D801D1824201D8EB
:1007E000002670470026F64370470A0800004400C0
:1007F00002643C0007CF8E4204DC01D1904201DC50
:10080000002670470026F64370472A08000044007F
:1008100002643E0007CFB14204DC01D1824201DC18
:10082000002670470026F64370473A080000620031
:100830000364303C0437F617704754080000420048
:100840000364303D01CF002801D000267047013EEF
:10085000B64170476E080000440003643C3E07CF79
:10086000904201D1761A01D00026F64370478A08DB
:100870000000440002643D0007CF904201D00026F2
:100880007047761A013EB64170479C080000200070
:100890000373704047F8046D3E007047AC080000D9
:1008A000200003737021370040CF7047BE0800005E
:1008B00020000372704047F8046D6E467047CE0802
:1008C0000000200003727021B54640CF7047E80851
:1008D00000000000056465707468E549C91B89085B
:1008E00047F8046D0E007047F808000061000364CB
:1008F000757047F8046D70470809000061000464D2
:10090000726F700040CF70471E0900006100043F05
:1009100064757000002E01D047F8046D70473209ED
:100920000000620004737761700039683E600E0059
:100930007047400900006200036E69700437704719
:10094000540900006200046F7665720047F8046D78
:100950007E6870476A0900006200047475636B006A
:1009600001CF083F7E603860704780090000630057
:1009700003726F7403CF083F78603E600E007047CB
:10098000980900006300042D726F740003CF083FC4
:100990007E60396006007047AA09000020000470DC
:1009A00069636B0057F826607047BA0900002000A1
:1009B000023E720040B440CF7047CC0900002000D6
:1009C00002723E0047F8046D40BC7047DE0900002B
:1009D00020000272400047F8046D009E7047EE0947
:1009E00000002000057264726F7001B07047040A45
:1009F0000000600004747275650047F8046D0026FD
:100A0000F6437047180A000060000566616C736564
:100A100047F8046D002670472E0A00006E0003613F
:100A20006E6401CF064070470640000616F0460A85
:100A300000006E000362696301CFB0430600704797
:100A40008643000636F05C0A00006E00026F7200FA
:100A500001CF064370470643000656F0720A0000B5
:100A60006E0003786F7201CF464070474640000623
:100A700096F0800A00006100036E6F74F6437047C1
:100A8000900A0000610003636C7AB6FA86F670473C
:100A90009E0A000061000373687276087047AC0A12
:100AA000000061000373686C76007047BC0A0000A8
:100AB000610003726F725FEA76067047CE0A00002B
:100AC000610003726F6CB61956F100067047E80AB0
:100AD00000006C00067273686966740001CFF04014
:100AE0000600704736080026020B00006C00076104
:100AF00072736869667401CF304106007047361022
:100B0000F6171C0B00006C00066C736869667400B5
:100B100001CFB04006007047360000262C0B0000C5
:100B2000610002303D00013EB64170473E0B0000BF
:100B3000610003303C3E013EB641F64370474C0B2A
:100B40000000610002303C00F6177047640B0000A3
:100B50004200023E3D0001CFB042B4BF00264FF03C
:100B6000FF3670477C0B00004200023C3D0001CF85
:100B7000B042CCBF00264FF0FF367047920B00000A
:100B80004200013C01CFB042B4BF4FF0FF36002617
:100B90007047A80B00004200013E01CFB042CCBF1D
:100BA0004FF0FF3600267047BC0B00006200037553
:100BB0003E3D01CF861BB641F6437047D00B000087
:100BC000620003753C3D01CF361AB641F6437047CB
:100BD000E20B0000620002753C0001CF861BB641AB
:100BE0007047F40B0000620002753E0001CF361A18
:100BF000B64170470A0C00006B00023C3E0001CF7A
:100C0000361A18BF4FF0FF3670471C0C00006B00FF
:100C1000013D01CF361A013EB6417047300C00004D
:100C20006200036D696E01CFB042B8BF06467047DF
:100C3000440C00006200036D617801CFB042C8BF70
:100C4000064670475A0C0000620004756D6178001A
:100C500001CFB04288BF06467047740C00006200A6
:100C600004756D696E0001CFB04238BF064670470B
:100C70002C020020B20C00000000046D6F766500AD
:100C800007B5310040CF320040CF00290FD0B2422B
:100C90000DD006D3013E013A705C50540139FBD1AE
:100CA00005E030781070013601320139F9D140CFBA
:100CB00007BDD40C000000000466696C6C003000B5
:100CC00040CF310040CF002902D001397054FCD10F
:100CD00040CF7047E00C00002000014036687047AC
:100CE000F80C00006D00012103CF30600E0070474A
:100CF00006607047016070471E0D00006D00022BFA
:100D0000210003CF3268121832600E00704702686B
:100D100092190260704702685218026070472C0DE9
:100D2000000020000268400036887047460D000031
:100D30006D000268210003CF30800E0070470680EE
:100D40007047018070476C0D00006D0003682B2117
:100D500003CF3288121832800E0070470288921931
:100D60000280704702885218028070477A0D000096
:100D700020000263400036787047940D00006D003B
:100D80000263210003CF30700E0070470670704779
:100D900001707047BA0D00006D0003632B2103CF73
:100DA0003278121832700E00704702789219027071
:100DB00070470278521802707047E20D00006D0013
:100DC00004626973210003CF3268024332600E006F
:100DD0007047026832430260704702680A4302604B
:100DE00070470A0E00006D0004626963210003CFA2
:100DF0003268824332600E0070470268B24302607C
:100E0000704702688A4302607047320E00006D002E
:100E100004786F72210003CF3268424032600E00C6
:100E20007047026872400260704702684A40026080
:100E300070474C0E0000200004626974400001CF2E
:100E40003668064018BF4FF0FF367047740E00003A
:100E50006D0005686269732103CF328802433280D6
:100E60000E007047028832430280704702880A43AE
:100E7000028070479C0E00006D0005686269632166
:100E800003CF3288824332800E0070470288B2431B
:100E90000280704702888A4302807047C40E0000B7
:100EA0006D000568786F722103CF3288424032802E
:100EB0000E007047028872400280704702884A40E4
:100EC00002807047DE0E00002000056862697440F1
:100ED00001CF3688064018BF4FF0FF367047060F27
:100EE00000006D0005636269732103CF327802430D
:100EF00032700E00704702783243027070470278F9
:100F00000A43027070472E0F00006D00056362698E
:100F1000632103CF3278824332700E00704702782B
:100F2000B2430270704702788A4302707047560FCE
:100F300000006D000563786F722103CF3278424064
:100F400032700E007047027872400270704702786B
:100F50004A4002707047700F00002000056362690C
:100F6000744001CF3678064018BF4FF0FF36704707
:100F7000800F000061000563656C6C2B04367047C0
:100F8000900F000061000563656C6C73B6007047DC
:100F90002410000000000768666C6173682130004F
:100FA00040CF310040CF594B984221D3584B984203
:100FB0001ED2584B1940994219D010F00102002A54
:100FC00016D102889A4213D110F10060524A534B55
:100FD0001360534B1360534A012313600180524A3C
:100FE000136813F00103FBD14E4A8023136070474E
:100FF00000F09EFB2A57726F6E6720616464726511
:101000007373206F72206461746120666F72207741
:10101000726974696E6720666C61736820210A00CA
:1010200002F046BA7210000000000E666C61736830
:10103000706167656572617365000FB5300040CF00
:10104000324B984214D3344A344B1360344B136000
:10105000344A02231360354A1060324A4223136037
:10106000314A136813F00103FBD12E4A8023136029
:101070000FBDF010000000000A6572617365666CB8
:1010800061736800214872B621494FF6FF720388E8
:1010900093421CD047F8046D060047F8046D00F039
:1010A00047FB10457261736520626C6F636B206152
:1010B0007420200000F0AFFB00F03AFB0C206672B9
:1010C0006F6D20466C6173680A00FFF7B6FF02304F
:1010D0008842DCD100F02CFB1246696E69736865AA
:1010E000642E20526573657420210A0002F021BB32
:1010F0003011000000000E6572617365666C6173EB
:101100006866726F6D00300040CFBCE700400000A1
:1011100000000200FFFF0000042002402301674599
:10112000AB89EFCD102002400C2002401420024079
:10113000461100006900012B01CF361870473618A0
:101140000036000616F15C1100006900012D01CF88
:10115000861B7047361A003E0006B6F16A11000081
:10116000610002312D00013E7047781100006100DE
:1011700002312B00013670478611000061000232F7
:101180002D00023E704794110000610002322B00D6
:1011900002367047A61100006100066E6567617433
:1011A000650076427047BA11000061000361627306
:1011B000002E48BFD6F100067047D811000042004B
:1011C00005752F6D6F6401CF3100B0FBF6F67143EA
:1011D000401A043F38607047F61100004200042FA7
:1011E0006D6F640001CF310090FBF6F67143401A39
:1011F000043F386070470A1200004200036D6F64BC
:1012000000B5FFF7EFFF40CF00BD1A1200006200EB
:10121000012F01CF90FBF6F670472A1200006A00FA
:10122000012A01CF4643704746433812000061004F
:1012300002322A0076007047461200006100023236
:101240002F00761070475A12000061000465766521
:101250006E00012030403618704772120000810085
:1012600004626173650047F8046D114E70470A000F
:1012700000008812000000000662696E6172790049
:101280000B480221016070479E12000000000764B5
:101290006563696D616C06480A2101607047B4128C
:1012A0000000000003686578014810210160704764
:1012B000FC1F0020D0120000810009686F6F6B2DA9
:1012C000656D697447F8046D6B4E7047C613000076
:1012D000EC120000810008686F6F6B2D6B65790060
:1012E00047F8046D654E7047EC1300000A130000C8
:1012F00081000A686F6F6B2D656D69743F0047F858
:10130000046D5F4E70471614000026130000810024
:1013100009686F6F6B2D6B65793F47F8046D594E07
:101320007047421400004413000081000A686F6F88
:101330006B2D70617573650047F8046D524E7047F0
:101340005C3500005A130000000004656D697400EC
:101350000FB5494800F02CF80FBD6E1300000000D7
:10136000036B65790FB5454800F022F80FBD841373
:101370000000000005656D69743F00B5404800F04D
:1013800017F800BD9A1300000000046B65793F0058
:1013900000B53C4800F00CF800BDB413000000009C
:1013A00005706175736500B5374800F001F800BD40
:1013B00000688746DA13000000000B7365726961EC
:1013C0006C2D656D697400B500F025F8002E40CFD6
:1013D000FAD02E4A167040CF00BD02140000000063
:1013E0000A73657269616C2D6B65790000B500F058
:1013F00028F8002E40CFFAD047F8046D234A16781B
:1014000000BD3014000000000C73657269616C2D22
:10141000656D69743F0000B5FFF7C5FF47F8046DBF
:1014200000261B4801688020014000D0F64300BD23
:10143000B014000000000B73657269616C2D6B6560
:10144000793F00B5FFF7AFFF47F8046D002610485D
:1014500001682020014000D0F64300BD0D490E4830
:1014600008600E490E4808600E49462008600E4983
:101470000E48086070470000F81F0020F41F00208D
:10148000F01F0020EC1F0020E81F0020043801405E
:1014900000380140181002403D400000040801409F
:1014A000B0040000083801400C3801400C20000056
:1014B000D41400000000076365787065637400B59C
:1014C000386801B40130386000F00BF801BC0670D8
:1014D00040CF00BD461500000000066163636570E3
:1014E000740000B502CF01390022FFF73BFF300046
:1014F00040CF202819D2092816D00A281FD00D283D
:101500001DD00828F1D1002AEFD000F011F903080E
:101510002008002AE9D0885C013A80230340E4D007
:1015200040230340F5D0E0E72020B242DDD247F867
:10153000046D0600FFF70CFF01328854D5E7160052
:1015400000F0A2F800BD5815000040000374696265
:1015500047F8046D294E70476E1500008100033E68
:10156000696E47F8046D264E704700000000941520
:10157000000082000E63757272656E742D736F7554
:101580007263650047F8046D1E4E7047000000004E
:1015900064000020B0150000000009736574736FCB
:1015A00075726365174802CF0660416040CF70478F
:1015B000CE150000000006736F757263650047F872
:1015C000046D104E043F7068386036687047081626
:1015D000000000000571756572790FB5084800219B
:1015E0000160FFF7B5FF47F8046D47F8046DC826A2
:1015F000FFF777FFFFF7D6FF0FBD00006400002064
:10160000E41F0020DC1F00205616000000000763C6
:101610006F6D706172650FB5310040CF01CF8842A8
:1016200002D040CF00260FBD02CF002810D00138D5
:101630000A5C335C412A02D35B2A38BF2032412B3B
:1016400002D35B2B38BF20339A42EED000260FBD69
:101650000026F6430FBD6A16000000000263720008
:1016600000B500F065F8010A00BD7C16000000001E
:1016700002626C0047F8046D202670479016000047
:10168000000005737061636547F8046D20265FE60E
:10169000B61600000000067370616365730000B544
:1016A000002E06DD47F8046D2026FFF751FE013EAF
:1016B000F8D140CF00BDC61600005000065B63683D
:1016C00061725D0005E0DE160000000004636861E1
:1016D000720000B501F078FB40CF367800BDEE1601
:1016E00000005000012847F8046D292606E008177D
:1016F00000005000015C47F8046D002600B501F0C1
:101700006DFB043740CF00BD4C1700001000022EC7
:1017100022009D4800B547F8046D060000F061FA0C
:1017200047F8046D222601F059FB00F073FD00BD5F
:101730000AB447F8046D7646013E3378012101333F
:1017400019405B181EEB030E0ABC39E0721700004B
:101750001000026322008D48DCE747F8046D7646EE
:10176000013E33780121013319405B181EEB030E53
:1017700070479C1700001000027322008448C9E7DC
:1017800047F8046D764647F8046D013E367801212E
:10179000731C19405B181EEB030E7047B417000052
:1017A000000005636F756E74013647F8046D013EE5
:1017B00036787047DC1700000000056374797065A7
:1017C00001B53078002807D0013647F8046D367827
:1017D000FFF7BEFD0138F7D140CF01BD0A18000068
:1017E0000000047479706500310040CF300040CFB4
:1017F00000B5002908D0002247F8046D865CFFF789
:10180000A7FD01329142F7D100BD4218000000004F
:10181000046865782E0003B5310040CF20200438DD
:1018200047F8046D31FA00F616F00F06092E8CBF4A
:1018300037363036FFF78CFD0028F0D1FFF724FF54
:1018400003BD52180000000003682E731FB5514CF1
:101850000EE062180000000003752E731FB54E4C99
:1018600006E0E01800000000022E73001FB54B4C8C
:101870004B49C91B89084B4A106803B40A20106001
:10188000FFF756FF08537461636B3A205B0047F81B
:10189000046D0E0001F06AFCFFF74AFF025D2000B4
:1018A00003BC404A106000290AD03F4A106806B4C1
:1018B00047F8046D0600A04706BC043A0139F5D18B
:1018C000FFF736FF0620544F533A200047F8046DC7
:1018D0003600A047FFF72CFF04202A3E0A001FBD58
:1018E000AC190000000005776F72647300B5FFF754
:1018F0001FFF06776F7264730A0000F0C0FEFFF7E7
:1019000017FF09416464726573733A2047F8046DE8
:10191000FFF781FFFFF70CFF064C696E6B3A200062
:1019200047F8046D3668FFF776FFFFF701FF0746BB
:101930006C6167733A2047F8046DB688FFF76BFF58
:10194000FFF7F6FE06436F64653A2000B01D00F015
:10195000CFFE47F8046D0600FFF75DFFFFF7E8FED6
:10196000064E616D653A200047F8046D0636FFF7B4
:1019700027FFFFF7DDFE010A00F098FE300040CFA0
:10198000BDD040CF00BD0000301700005A17000046
:1019900080170000171800005D3100006D31000055
:1019A0002C020020FC1F002028020020101B000039
:1019B00000000D3132626974656E636F64696E6731
:1019C0000FB5FF2E04D847F8046D5FF0FF360FBD4A
:1019D00016F0FF10B0420ED14FF6FF710840310CE7
:1019E000814208D116F0FF0656F4805647F8046D80
:1019F0005FF0FF360FBD16F0FF20B0420FD14FF65B
:101A0000FF710840310C814209D1360A16F0FF06F9
:101A100056F4005647F8046D5FF0FF360FBDFF2205
:101A200031001140300A1040884210D1300C104073
:101A300088420CD1300E1040884208D116F0FF06C3
:101A400056F4405647F8046D5FF0FF360FBD300086
:101A500000210131001850F100007FF07F020240A8
:101A6000802A05D01F29F4D347F8046D00260FBD46
:101A70000829F9D3060036F0800611F00100C001F4
:101A8000064311F00E00C002064311F0100080055D
:101A9000064347F8046D5FF0FF360FBD47F8046D4D
:101AA000DFF8C0655FF4704110EA010212011643CD
:101AB0005FF4006110EA0102D20316435FF4E061B3
:101AC00010EA010212011643FF2110EA0102164337
:101AD0001E438FE347F8046DDFF88C655FF07041BB
:101AE00010EA0102120B16435FF0006110EA0102D6
:101AF000520816435FF0E06110EA0102120B164330
:101B00005FF47F0110EA0102120C16431E4371E3D9
:101B1000761B000000001072656769737465726C53
:101B200069746572616C2C000FB5330040CF1B02E5
:101B3000FF2E05D856F400561E4300F034FB0FBDAF
:101B4000FFF73EFF002E40CF06D0DFF8200506430A
:101B50001E4300F04FFB0FBDF643FFF731FF002E91
:101B600040CF06D0DFF8080506431E4300F042FBD5
:101B70000FBDF6430BE0D61B00000000096D6F7629
:101B8000776D6F76742C0FB5330040CF1B02300099
:101B900040CFFFF783FF4FF6FF7110EA014001D0FD
:101BA000FFF798FF0FBD0FB50136300040CF00237F
:101BB000FFF774FFFFF78EFF06E00FB5013647F819
:101BC000046D0026FFF7B0FF47F8046D44F28076FD
:101BD00000F0E9FA0FBD3C1C000000000563616CD9
:101BE0006C2C0FB5330000F026FE300040CF1B1ADE
:101BF000043BDFF880141940002906D0DFF8782470
:101C0000914202D0BDE80F40D7E740CF5B08DFF834
:101C10006C0440F2FF7119400843DB0A40F2FF31C7
:101C20001940090408439B0A13F00101890608437F
:101C300047F8046D060000F0DDFA0FBD721C0000CD
:101C40000000086C69746572616C2C0008B547F877
:101C5000046D4FF6470600F0A6FA47F8046D46F605
:101C6000045600F0A0FA47F8046D0626FFF75CFF63
:101C700008BD961C00000000066372656174650073
:101C800000B500F033F841F6B340804747F8046DE3
:101C9000BEF1010600BDDE1C0000200005646F657A
:101CA000733E41F6B340804747F8046DBEF101062C
:101CB000704747F8046DBEF1010600F0AFF8F04A36
:101CC0001368310040CF0220084000D002310231B9
:101CD0001160FFF768FF136000F0E5F900BD201DFB
:101CE00000000000073C6275696C647300B500F089
:101CF0005BFB00F0A0FD0220064040CF04D047F877
:101D0000046D362600F04FFA47F8046D4BF200568A
:101D100000F049FA47F8046D0A2600F0AEFA00BD5B
:101D20002C1D00005000035B275D03E0421D0000F6
:101D30000000012700B501F047F800F017FD40CF83
:101D400000BD881D0000100008706F7374706F6E06
:101D5000650000B501F038F800F008FD300040CF14
:101D6000102101400DD12021014005D0FFF76EFF69
:101D700047F8046DC34E04E0FFF768FF47F8046DB1
:101D8000C14EFFF72EFF00BDDE1D000000000769F9
:101D90006E6C696E652C00B54BF200514BF600522B
:101DA00044F270733088884208D0904208D098423C
:101DB00006D047F8046D060000F0F5F90236F1E7A9
:101DC00040CF00BD0EB44BF6005244F27073018850
:101DD0000230914201D09942F9D10EBC7047F41DF6
:101DE00000000000047265742C0047F8046D4BF687
:101DF0000056D8E1021E00003000046578697400C6
:101E0000F3E7381E00003000077265637572736572
:101E100000B500F003F8FFF7E4FE00BD0FB59B48E6
:101E2000006806300178013101220A408918401803
:101E300047F8046D06000FBD501E000081000573B9
:101E40007461746547F8046D914E7047000000009E
:101E5000621E00000000015D8D480021C943016041
:101E60007047721E00001000015B8948002101606C
:101E700070479A1E00000000013A00B585480760CF
:101E800000F092FA47F8046D4BF2005600F08BF91F
:101E90007F480021C943016000BDE21E0000300000
:101EA000013B00B57B480168B9420ED0FFF740FC0A
:101EB0001520537461636B206E6F742062616C61D6
:101EC0006E6365642E0A01F0F3BA47F8046D4BF6B1
:101ED000005600F068F900F0E6F86D480021016056
:101EE00000BDF81E00000000076578656375746525
:101EF000300040CF01308746101F000010000969F4
:101F00006D6D65646961746547F8046D1026F9E0CC
:101F1000261F0000100006696E6C696E650047F8A8
:101F2000046D2026EEE0401F000010000B636F6D73
:101F300070696C656F6E6C7947F8046D3026E1E06E
:101F40005A1F000010000A302D666F6C6461626CCD
:101F5000650047F8046D4026D4E0741F00001000AF
:101F60000A312D666F6C6461626C650047F8046D20
:101F70004126C7E08E1F000010000A322D666F6CEC
:101F80006461626C650047F8046D4226BAE0A81FE0
:101F9000000010000A332D666F6C6461626C65008E
:101FA00047F8046D4326ADE0C21F000010000A345C
:101FB0002D666F6C6461626C650047F8046D4426A1
:101FC000A0E0DC1F000010000A352D666F6C646114
:101FD000626C650047F8046D452693E0F61F00002B
:101FE00010000A362D666F6C6461626C650047F8FC
:101FF000046D462686E01020000010000A372D668A
:102000006F6C6461626C650047F8046D472679E087
:1020100040200000000008636F6E7374616E7400EE
:1020200000B500F0C1F9FFF711FE47F8046D44F266
:10203000707600F0B8F8FFF78CFF00F034F800BDC0
:102040009820000000000932636F6E7374616E7433
:1020500000B500F0A9F939683E600E46FFF7F6FDBD
:10206000E1E70000000040F20000C0F200005FF075
:1020700000007FF00100C0FF0000C0FF00F800F08A
:1020800000000020961D0000E21B0000040000205C
:10209000D81F002010000020F4200000000006736C
:1020A0006D756467650000B523480168224A914256
:1020B0001AD202390A88214B9A4204D147F8046D9A
:1020C0001F4E00F070F800F05DF81E48006847F8F9
:1020D000046D06001C4909680431174A1368116031
:1020E00000F061F8136000BD00F04CF847F8046D93
:1020F000002608E04C210000000008736574666C3F
:102100006167730000B50C4801680B4A914205D223
:102110000C4801683143016040CF00BD320040CF20
:102120000948006804300188044B99420CBF1146ED
:102130001143018000BD000000000020FFFF0000EF
:10214000000000001C000020040000205A210000B4
:10215000000005616C69676E14E0762100004100A3
:1021600007616C69676E6564012030403618022093
:102170003040361870479C210000000007616C69F0
:10218000676E342C00B57E4801680220014004D0FF
:1021900047F8046D002600F006F800BDD0210000CD
:1021A000000002682C000FB575480168744A91421E
:1021B00005D247F8046D0E00FEF7F1FE02E0320092
:1021C00040CF0A8047F8046D022600F056F80FBD94
:1021D000EA2100000000012C00B547F8046DFFF76C
:1021E000E2FF360CFFF7DFFF00BD06220000000013
:1021F000033E3C2C00B547F8046D360CFFF7D3FFC7
:10220000FFF7D1FF00BD6E2200000000077374725B
:10221000696E672C07B5FF21314040CF300040CFB9
:10222000002905D147F8046D0026FFF7BCFF07BD64
:1022300047F8046D067836020E43FFF7B4FF01300D
:10224000013902290AD347F8046D4678360202782C
:102250001643FFF7A8FF02300239F2E7002900D148
:1022600007BD47F8046D0678FFF79DFF07BDC8223C
:102270000000000005616C6C6F7441480168404AC1
:1022800091420FD2320040CF89183E4A914219D371
:10229000FFF74EFA0B466C6173682066756C6C0A2A
:1022A00001F006B9320040CF8918374A12689142CE
:1022B00008D3FFF73DFA0952616D2066756C6C0A10
:1022C00001F0F6B801607047F022000000000D63D5
:1022D0006F6D70696C65746F72616D3F47F8046D66
:1022E0000026274800682649884248D3F6437047AD
:1022F0001023000000000C636F6D70696C65746FD3
:1023000072616D001E4800681D49884211D37047F4
:102310009823000000000E636F6D70696C65746F28
:10232000666C61736800164800681549884200D2DF
:1023300070471648164902680B680A600360104827
:10234000144902680B680A6003600F480068834202
:1023500015D300B5FFF7ECF923205661726961626D
:102360006C657320636F6C6C696465207769746851
:102370002064696374696F6E6172790A00BD704789
:1023800000000020000002002000002004000020C7
:1023900018000020140000207A2400000000082803
:1023A000637265617465290000B500F00DFD002EB3
:1023B0000ED1FFF7BDF91520437265617465206E7B
:1023C00065656473206E616D6520210A01F070B847
:1023D000386847F8046D043F386000F098F940CF42
:1023E000002E40CF11D0386847F8046D043F3860A4
:1023F000FFF79EF9095265646566696E6520FFF70F
:10240000F3F9FFF795F9022E0A00FFF7BBFE00F083
:1024100012FA8C4800688B4988421CD28A480021F5
:10242000016047F8046D0626FFF727FFFEF7AEFAB6
:10243000FFF7F0FE854801680A68854B9A4207D18C
:10244000804A1368116047F8046DFFF7C5FE1360FA
:10245000066040CF00BD7D4847F8046D0668FFF771
:10246000BBFE47F8046D7B4EFFF79DFE77483100B9
:1024700040CF0160FFF7CEFE00BD922400000000B7
:10248000087661726961626C650047F8046D012627
:1024900013E0AA24000000000932766172696162CB
:1024A0006C6547F8046D022607E0842500000000F3
:1024B000096E7661726961626C6500B5FFF774FF41
:1024C000604801685F4A914234D20F200640B20052
:1024D00061480168891A614A91420BD2FFF728F9D5
:1024E0000F4E6F7420656E6F7567682052414D0AFC
:1024F00000F0DEBF016047F8046D0E00FFF7A6FB99
:1025000047F8046D44F27076FFF74DFE300040CF7F
:102510000200002805D00E600431FFF75DFE01388F
:10252000F9D147F8046D80261643FFF7EBFDFFF75E
:10253000BAFD00BD00F07FF90220064040CF04D173
:1025400047F8046D3626FFF72EFE47F8046D444E1B
:10255000FFF750FE47F8046D424EFFF74BFE47F879
:10256000046D44F27076FFF71EFE300040CF002865
:1025700003D0FFF731FE0138FBD1FFF7EAFCFFF78C
:1025800092FD00BD68260000000007627566666562
:10259000723A00B5FFF708FF0120304036180220DC
:1025A0003040361827480168264A914228D22A48E6
:1025B0000168891B294A91420BD2FFF7B9F80F4EE7
:1025C0006F7420656E6F7567682052414D0A00F088
:1025D0006FBF016047F8046D0E00FFF737FB47F847
:1025E000046D44F27076FFF7DEFDFFF7F5FD47F866
:1025F000046D40F24016FFF785FDFFF754FD00BD66
:1026000000F019F90220064040CF04D147F8046DCC
:102610003626FFF7C8FD47F8046D114EFFF7EAFDB7
:1026200047F8046D0F4EFFF7E5FD47F8046D44F2DF
:102630007076FFF7B8FDFFF720FEFFF78AFCFFF783
:1026400032FD00BD000000201C000020040000201E
:10265000FFFFFFFFFFFF0000200000202C030020F1
:102660003E60043F02367E469626000000000F645E
:10267000696374696F6E61727973746172744148D1
:102680000068404947F8046D884201D23E4E7047C9
:102690003E4E36687047D026000000000E64696325
:1026A00074696F6E6172796E6578740003B5316814
:1026B0003748814207D08879FF2804D00E0047F8B8
:1026C000046D002603BD47F8046D0026F64303BDE4
:1026D0000227000000000A736B6970737472696EE0
:1026E00067003178013101220A4089187618704755
:1026F00006B40178013101220A408918401806BC4D
:1027000070479827000000000466696E64003FB5BA
:1027100000220023350040CF340040CFFFF7AFFF49
:102720001C48B188884217D047F8046D0636FFF779
:102730003BF847F8046D260047F8046D2E00FEF7BD
:102740006AFF002E40CF07D0B01DFFF7D1FF020077
:102750000B000C48824204D2FFF7A8FF300040CFA4
:10276000DED0160047F8046D1E003FBD00B53100F5
:102770003868FFF7CCFF3A68002A01D100F06AFD03
:1027800000BD000000000020340100000400002013
:10279000FFFFFFFFFFFF0000F227000000000663BD
:1027A0006A756D702C00320040CF310040CF8B1B1A
:1027B000043BA349194000290DD0A24881420AD008
:1027C000FEF7B6FF0D4A756D7020746F6F2066615D
:1027D000720A00F06DBE5B10FF210B401343300006
:1027E0001E0000B5984A13681060FFF7DCFC136008
:1027F00000BD2A2800000000056A756D702C3100AC
:1028000040CF300040CF0B1A043B904919400029BB
:1028100002D08F4A9142D3D15B108E4A134053F4B9
:10282000604347F8046D1E00DBE74028000000000D
:1028300004686572650047F8046D834E366870471A
:102840003C29000000000D666C6173687661722D92
:102850006865726547F8046D7F4E3668704700B54D
:1028600047F8046D42F60066FFF79DFC47F8046DDB
:102870004CF64076FFF797FC00BDDCE700B500F0B2
:102880003AF839683E600E4647F8046D4DF200167E
:10289000FFF789FF00BD00B500F02DF839683E60F4
:1028A0000E4647F8046D4DF20076FFF77CFF00BD41
:1028B00000B5FFF7D4FF00F01EF839683E600E4601
:1028C00047F8046D4DF20006FFF76DFF00BD00B53F
:1028D00000F011F839683E600E46FFF790FF00BD2A
:1028E00000B5FFF7BCFFFFF7A6FF47F8046D02260F
:1028F000FFF7C3FC00BD00B5FFF79DFF47F8046D6F
:102900000226FFF7BAFC00BD00B5FFF794FFFFF702
:1029100076FF00BD00B5FFF78EFF47F8046D4DF25E
:102920000006FFF740FF00BD00B5FFF784FF47F842
:10293000046D4DF20016FFF736FF00BD7829000048
:102940003000047468656E00052E01D140CFDBE7CE
:10295000022E01D140CFDDE7FEF7EAFE1753747275
:102960007563747572657320646F6E2774206D6172
:102970007463680A00F09CBDA22900003000046561
:102980006C73650000B5022EE6D140CFFFF7B3FFB0
:1029900039683E600E46FFF7BDFF47F8046D052617
:1029A00000BDBA29000030000269660000B5FFF7DB
:1029B00097FF47F8046D022600BDE02900003000B3
:1029C0000672657065617400042EC5D140CF396808
:1029D0003E600E4600B5FFF77AFFFFF79BFF00BD94
:1029E000FC2900003000057768696C65012EB3D1C1
:1029F00040CF00B5FFF7DAFF023600BD102A000015
:102A0000300005756E74696C012EA5D140CF4FE77B
:102A1000242A0000300005616761696E012E9BD198
:102A200040CF54E75C2A0000300005626567696E9C
:102A300000B5FFF722FF47F8046D012600BD000036
:102A400001FFFFFF00FFFFFF0000002001F8FFFF74
:102A500000F8FFFFFF070000200000206C2A0000A4
:102A60002000016B47F8046D029E70477C2A00002D
:102A70002000016A47F8046D009E70478C2A000010
:102A80002000016947F8046D26007047CC2A000039
:102A90003000056C6561766500B5684801683B00EB
:102AA000043F1A68043B1A60043304338B42F8D1A4
:102AB00003B4FFF720FF03BC330040CF04390B60A1
:102AC000016004390A6801320A6000BDDE2A000094
:102AD000200006756E6C6F6F700030BC7047162B4F
:102AE00000003000052B6C6F6F70032E00D033E7B1
:102AF00040CF00B547F8046D514EFFF74CF9FFF792
:102B0000CAFE1AE014F10044641BA41940CF2C44FF
:102B1000A4F100447047582B00003000046C6F6F24
:102B20007000032E00D017E740CF00B547F8046DC2
:102B3000444EFFF730F9FFF7A1FE00F023F93F48BC
:102B4000310040CF016047F8046D3F4EFFF723F995
:102B500000BD0134AC427047A02B00007800026435
:102B60006F0000B547F8046D384EFFF714F933488D
:102B7000016847F8046D0E0047F8046D00260760F1
:102B8000FFF77BFE47F8046D032600BD00B500F09B
:102B90002FF8ECE730B4340040CF350040CF704719
:102BA000502C00007800033F646F00B547F8046DB7
:102BB000264EFFF7F0F847F8046D44F2AC26FFF715
:102BC000F2FA1E48016847F8046D0E00FFF793FE05
:102BD000013647F8046D012618480760FFF74DFEDF
:102BE00047F8046D032600BD00B500F001F8E2E7E8
:102BF00000B547F8046D4BF23046FFF7D4FA47F8BA
:102C0000046D0426FEF790FF013B08D047F8046DE1
:102C10000526FEF789FF013B00F023FC00BD47F8C5
:102C2000046D3526FFF7BFFA47F8046D4CF6407681
:102C3000FFF7B9FA00F015FC00BD00000C00002001
:102C4000042B0000522B0000DA2A0000942B000015
:102C50006A2C0000300004636173650047F8046D5E
:102C6000002647F8046D08267047802C00003000CD
:102C7000033F6F664D4809E0013EB64140CF7047C3
:102C8000242D00007800026F66004948082E00D00D
:102C900062E640CF00B547F8046D0600FFF77BF809
:102CA000FFF729FE39683E600E46013647F8046D8D
:102CB000092647F8046D4CF64076FFF774FA00BD1C
:102CC00000B5300040CF013B01B400F0CAFB01BCAD
:102CD000082E00D040E640CF47F8046D0600FF21E3
:102CE0003140B14204D133490E43FFF75CFAD7E7D4
:102CF000FEF766FE002E40CF04D02F480643FFF7B4
:102D000079FACDE747F8046D0026FEF70DFF47F886
:102D1000046D44F2B026FFF746FAC1E7300040CF19
:102D2000B04270475A2D0000300005656E646F6632
:102D3000092E00D010E640CF00B540B440CFFFF7D9
:102D4000DAFD39683E600E46FFF7EEFD47F8046D88
:102D500040BC47F8046D082600BDBC2D00003000C3
:102D600007656E6463617365082E00D0F4E540CF9B
:102D700000B547F8046D4CF64076FFF714FA00F002
:102D800001F800BD00B5300040CF00280DD003B4DD
:102D900001213140002903D0013EFFF7BBFD01E0D6
:102DA000FFF7B2FD03BC0138EFE700BD782C00004F
:102DB0001C2D0000002E0000000FB6F1D02D0000E9
:102DC000000005746F6B656E47F8046D202605E002
:102DD0002C2E0000000005706172736510B5FEF7BF
:102DE000EEFB310040CF300040CF0F4A126884180C
:102DF000202E07D191420FD0835CB34202D1013221
:102E00008418F7E7914207D0835C0132B342F9D1CD
:102E10008618361B013E01E08618361B043F3C60D5
:102E20000148026010BD0000E41F00206A2E00006F
:102E30000000056469676974CE4B1B68303E0BD394
:102E40000A2E0BD3073E0A2E06D3242E06D3203E8D
:102E50000A2E01D3242E01D3002670479E42FBD2B6
:102E600047F8046D0026F6437047742F00000000F9
:102E7000066E756D626572003FB5310040CF701E01
:102E80000126012204B4BB4B1B6800240025002945
:102E90003CD00130013902782D2A04D101B0002242
:102EA000D24304B4F3E7232A01D10A23EFE7242A0B
:102EB00001D11023EBE7252A01D10223E7E72E2ACF
:102EC00001D10226E3E72C2A36D047F8046D16001C
:102ED000FFF7B4FF002E40CF2BD047F8046D26003B
:102EE00047F8046D2E0047F8046D1E0047F8046D86
:102EF00000260FB4FDF757FA0FBC350040CF340061
:102F000040CF0022A419554140CFC0E704BC002A9D
:102F100004D50022E443ED4301345541330026003B
:102F2000012B02D047F8046D2E0047F8046D1E00F7
:102F30003FBD01B000263FBD250000240226002928
:102F4000E4D0425C01392E2AF9D047F8046D16000E
:102F5000FFF774FF002E40CFEBD0043F3C6047F8F2
:102F6000046D1E000FB4FDF7CDFA0FBC340040CF46
:102F700040CFE4E7942F00000000062E64696769E3
:102F800074000A2E3CBF303603E0242E34BF37369F
:102F900023267047CA2F0000000004686F6C64008D
:102FA000330040CF744801783F290DD201310170C0
:102FB0004018012907D00138027801300270013829
:102FC00001390129F7D103707047EA2F0000000092
:102FD00005686F6C643C330040CF674801783F2937
:102FE00002D20131017043547047023000000000EA
:102FF000047369676E00002E01D440CF70472D2600
:10300000CEE716300000000002233E005A48067842
:103010000130386070472E300000000003662353F3
:1030200010B5202400F008F8013CFBD110BD503051
:10303000000000000266230000B547F8046D4D4E05
:103040003668FDF79CF9FFF79CFFFFF7C4FF00BD52
:103050006C30000000000223530000B500F00AF8B5
:10306000002EFBD138680028F8D100BD9830000050
:103070000000012300B547F8046D3E4E366847F85E
:10308000046D0026FDF79EFAFDF782F840CFFFF7AA
:1030900078FFFFF785FF00BDAA3000000000023C6A
:1030A00023003548002101707047BC30000000004B
:1030B00002662E0047F8046D202604E00A31000065
:1030C000000003662E6E00B510B4340040CFFDF74B
:1030D00047FCFDF710F947F8046D0026FFF7E1FF04
:1030E000FFF7BBFF40CF2C26FFF775FF002C03D066
:1030F000FFF7A2FF013CFBD110BC40CFFFF77BFFE5
:1031000047F8046D47F8046D1CE020310000000012
:103110000375642E00B5FFF7C4FFFFF79EFF11E0B3
:1031200052310000000002642E0000B5FDF718FCCB
:10313000FDF7E1F8FFF7B5FFFFF78FFFFDF71AFC8A
:10314000FFF759FFFFF762FFFEF74EFBFEF79CFA11
:1031500000BD64310000000002752E0047F8046DC8
:103160000026D7E77C3100000000012E47F8046DEF
:10317000F617DAE7FC1F002024000020C43100000D
:103180000000086576616C756174650000B5FEF736
:1031900016FA01CF01B440B440CFD448016802B45C
:1031A00000210160FEF7FEF900F014F8CF4802BCE0
:1031B000016047F8046D40BC01BC043F3860FEF775
:1031C000F1F900BD88340000000009696E74657271
:1031D0007072657430B5C64887420BD9FEF7A8FAFD
:1031E00010537461636B20756E646572666C6F77E3
:1031F0000A005DE1BF4887420AD2FEF799FA0F53F1
:103200007461636B206F766572666C6F770A4FE14D
:10321000B94C2568002D01D13D002560FFF7D4FD94
:10322000002E02D1043740CF30BD386847F8046D16
:10323000043F3860FFF76BFA310040CF320040CFD7
:10324000002A13D138683100FFF716FE320040CF54
:10325000002AC0D1FEF7CCFAFEF76AFA0C206E6F96
:103260007420666F756E642E0A0021E1A34B1B6803
:10327000002B1DD10025256030230B40302B0ED1B3
:10328000FEF7B2FAFEF754FA1220697320636F6DED
:1032900070696C652D6F6E6C792E0A0008E1043739
:1032A00040CF47F8046D1600FEF722FEFFF793FFAC
:1032B000043740CF802008400ED1EB1B9B084020F4
:1032C00008400FD00820084002D0002B00D01DE09D
:1032D0000F200840834205D347F8046D1600FEF71F
:1032E00007FE78E700F0BDF847F8046D16001022DD
:1032F0000A4002D0FEF7FCFD6DE720220A4002D012
:10330000FEF749FD67E7FEF76CFC64E70720014024
:103310001000FEF757FD01291FD1012BDCD1FF2141
:103320003140B14204D140880643FEF73CFF52E7EA
:10333000FEF746FB002E40CF04D040680643FEF760
:1033400059FF48E747F8046D0026FEF7EDFB47F804
:10335000046D0688FEF727FF3DE7022902D1012B05
:10336000BAD1EFE7032926D1012BB5D1FF21314096
:10337000B1420AD162490E43FEF715FF043247F805
:10338000046D1600FEF707FD25E7FEF719FB002E7A
:1033900040CF04D05B490E43FEF72CFFEEE747F821
:1033A000046D0026FEF7C0FB023247F8046D1600DC
:1033B000FEF7F1FC0FE7042918D1012B8CD1330063
:1033C00040CF002B00D106E71F221A409A4205D0B9
:1033D00047F8046D4688FEF7E6FEFCE647F8046D04
:1033E00006889B011E43FEF7DEFEF4E6052924D184
:1033F000012B10D147F8046D0026FEF795FB47F826
:10340000046D0600FEF7C7FC47F8046D4CF64076E5
:10341000FEF7C9FEDFE647F8046D0026FEF784FBE1
:1034200047F8046D0126FEF77FFBFEF7CBFC47F85B
:10343000046D0600FEF7AFFCCDE606290ED1012B88
:103440007FF44AAFFEF7BCFA002E40CF3FF47AAFCC
:10345000D0F802000643FEF7CDFEBCE601308047FF
:10346000B9E600B5002B0CD0013B47F8046D1E00F7
:1034700057F82660FEF7EAFB002BF5D1043D2F003C
:1034800040CF0025256000BDA434000081000968FC
:103490006F6F6B2D7175697447F8046D1A4E704724
:1034A000D83400001C3500000000047175697400F8
:1034B000DFF858D00E4F16480A2101600F4800214E
:1034C00001600D480160094801601248016012491D
:1034D00041600D4800688746FEF77FF8FFF77AFEE7
:1034E000FEF726F905206F6B2E0AF5E7E41F002092
:1034F0002C0200202C01002008000020D81F0020F2
:10350000003E00000006B6F1D41F00202C0300206E
:10351000FC1F0020DC1F0020640000202C35000070
:1035200020000465696E740062B670473C35000087
:1035300020000464696E740072B670475235000052
:10354000200004697073720047F8046DEFF305867C
:1035500070475E3500000000036E6F707047A03545
:103560000000000009756E68616E646C656400B5EA
:10357000FEF7DEF814556E68616E646C6564204970
:103580006E74657272757074200047F8046DEFF305
:103590000586FEF740F9FEF7CBF802210A0000BDD0
:1035A000CA35000081000B6972712D7379737469DB
:1035B000636B47F8046D9F4E70476E35000041F60F
:1035C000D070C2F2000000688746F235000081002A
:1035D000096972712D6661756C7447F8046D964EB9
:1035E00070476E35000041F6CC70C2F200000068F2
:1035F00087462036000081000E6972712D636F6C62
:103600006C656374696F6E0047F8046D8B4E70478C
:103610006E35000041F6C870C2F2000000688746AF
:10362000483600008100096972712D65787469302F
:1036300047F8046D824E70476E35000041F6C47045
:10364000C2F20000006887467036000081000969F8
:1036500072712D657874693147F8046D794E704741
:103660006E35000041F6C070C2F200000068874667
:10367000983600008100096972712D65787469328D
:1036800047F8046D704E70476E35000041F6BC700F
:10369000C2F2000000688746C03600008100096958
:1036A00072712D657874693347F8046D674E704701
:1036B0006E35000041F6B870C2F20000006887461F
:1036C000E83600008100096972712D6578746934EB
:1036D00047F8046D5E4E70476E35000041F6B470D9
:1036E000C2F20000006887460E37000081000769BB
:1036F00072712D61646347F8046D564E70476E35E4
:10370000000041F6B070C2F2000000688746004039
:103710000000FFFF182D2D2D20466C61736820449A
:10372000696374696F6E617279202D2D2D00FDF72C
:1037300095FE49488546494F2A2649484649016031
:1037400048484949016047F8046D474E474DB188E4
:10375000474B994224D0474B0B400AD0B01DFEF78F
:10376000C7FFFEF72FFB0388408800040343ED1AD0
:1037700016E080230B4013D00F23194089006D1AE7
:10378000B01DFEF7B5FFFEF71DFB47F8046D060000
:1037900047F8046D2E0047F8046D0E00FDF770FA2F
:1037A000FEF784FF300040CFD1D03348066040CFD1
:1037B00032480560324833492D4A884204D00238E5
:1037C00003889342F9D002302F490860FDF7B0FF1B
:1037D000374D6563726973702D5374656C6C6172DB
:1037E000697320322E302E3220666F722053544D72
:1037F000333246313030206279204D61747468690B
:103800006173204B6F63680A20480021016047F80C
:10381000046D1F4E47F8046D0426FEF778FF40CF75
:10382000002E02D0FEF764FB53E640CF40E6696EFF
:1038300069740000D01F0020CC1F0020C81F00208A
:10384000C41F0020C01F0020BC1F0020B81F002084
:10385000B41F0020B01F00202C0300202C020020E9
:10386000000000200400002034010000002000209F
:10387000FFFF0000000100001800002020000020D1
:10388000000002000040000014000020080000209A
:043890002E380000CE
:0400000508000000EF
:00000001FF
