:020000040800F2
:100000002C030020E137000071360000713600003B
:1000100000000000000000000000000000000000E0
:100020000000000000000000000000009B360000FF
:1000300000000000000000009B3600004F3600006A
:100040009B3600009B3600009B3600009B3600006C
:100050009B360000BF360000E33600000937000081
:100060009B3600009B3600009B3600009B3600004C
:100070002B3700004F370000733700009537000022
:10008000B93700009B3600009B3600009B3600000D
:100090009B3600009B3600009B3600009B3600001C
:1000A0009B3600009B3600009B3600009B3600000C
:1000B0009B3600009B3600009B3600009B360000FC
:1000C0009B360000EC000000FFFF1E2D2D2D204D63
:1000D0006563726973702D5374656C6C61726973BA
:1000E00020436F7265202D2D2D00C04604010000B5
:1000F00042000432647570003868043F3E60043F7B
:1001000038607047180100006200053264726F7039
:10011000043740CF7047C046380100004400053224
:100120007377617007CF043F3860043F3E60043F3F
:100130003A600E007047C0464C0100006200043275
:100140006E69700007CF043F386070476801000097
:10015000440005326F766572B868043F3E60043F24
:100160003860FE687047C0468C01000044000532CC
:100170007475636B07CF043F3860043F3E60043FF3
:100180003A60043F3960043F38607047B0010000B6
:1001900046000432726F74003868B9683A69B86012
:1001A00039613A6079687E60FE68F9607047C046E0
:1001B000D4010000460005322D726F743868B968AA
:1001C0003A6938613960BA60F968FE607E687960C2
:1001D0007047C046E8010000200003323E7201CFA4
:1001E00001B440B440CF7047000200002000033249
:1001F000723E043F3E6040BC01BC043F3860704723
:1002000018020000200003327240043F3E60019E4D
:10021000043F3E60009E70472C0200002000063222
:100220007264726F700002B07047C04644020000F2
:1002300042000364322F3868F10776104008084303
:10024000386070475802000062000364322A386840
:100250000018764138607047740200004200046460
:10026000736872003868F107760840080843386000
:100270007047C0468C0200006200046473686C0022
:1002800038680018764138607047C046A002000008
:100290004200046461627300002E16D47047C046A9
:1002A000BC0200004300083F646E6567617465002E
:1002B000300040CF002808D47047C046DC02000060
:1002C000420007646E656761746538680021C04349
:1002D000F64301304E4138607047C046F4020000DA
:1002E000640002642D0007CF121AB1410E00043FD2
:1002F0003A6070470C030000640002642B0007CFD3
:1003000012184E41043F3A607047C0462003000077
:10031000610003733E64043F3E60F6177047C046B9
:100320004C030000420003756D2A386803007343D4
:100330003B60010C320C0B005343B6B280B24E430B
:1003400050433618360CF6187047C0467C03000040
:100350004200026D2A003868C11705D0404238605B
:10036000F01704D07642E0E7F017DED0764200B511
:10037000FFF7DBFFFFF7A9FF00BDC046BC0300008D
:1003800044000375642A07CF564341437618010C95
:10039000130C59437618010C80B292B25143434377
:1003A00050430022C91852411204B6180A04090C1D
:1003B00080184E41043F38607047C046500400002A
:1003C00044000475646D2A0010B50024043F3E60AB
:1003D0007E68043F3E603E69FFF7A7FF310040CFD3
:1003E000300040CF043F3E603E68043F3E60FE6800
:1003F00003B4FFF79AFF03BC330040CF320040CF75
:10040000043F3E603E68043F3E603E690FB4FFF724
:100410008CFF0FBC9219634140CF8919624163413F
:1004200040CF043F3E607E68043F3E60FE680FB4EC
:10043000FFF77BFF0FBC9219634140CF89196241DE
:10044000634140CF1E003A607960B86010BDC0467D
:10045000740400004300022A2F0000B540B440CFCE
:10046000FFF779FF043F3E6040BC00F065F80437B9
:1004700000BDC046980400004300052A2F6D6F643C
:1004800000B540B440CFFFF766FF043F3E6040BC7C
:1004900000F052F800BDC046BC04000043000375E4
:1004A0002A2F00B540B440CFFFF73FFF043F3E6026
:1004B00040BC00F01CF8043700BDC046E00400005A
:1004C000430006752A2F6D6F640000B540B440CF1D
:1004D000FFF72BFF043F3E6040BC00F008F800BD72
:1004E0002C050000430006756D2F6D6F640010B47D
:1004F00078683968002200242023640000184941EC
:100500005241964201D8921B0134013BF5D1202380
:10051000640049185241964201D8921B0134013BB4
:10052000F6D104373A60260010BC7047A0050000E1
:100530004300056D2F6D6F6400B5F01718D076423B
:1005400000F024FAF0170DD0FFF7BFFE00F011FA0B
:10055000FFF7CDFF39683E600E46764239683E604F
:100560000E4600BD00F005FAFFF7C1FF764200BD60
:1005700000F00CFAF0170ED0FFF7A7FE00F0F9F923
:10058000FFF7B5FF764239683E600E46764239681D
:100590003E600E4600BD00F0ECF9FFF7A8FF00BD7D
:1005A000FC05000044000675642F6D6F640030B4D4
:1005B0003C68B86879680022002520236D00001887
:1005C00049415241944201D8121B0135013BF5D1FA
:1005D00020B4002520206D00491852415B419E4205
:1005E00004D8944202D8121BB34101350138F2D12C
:1005F0003D60BA607B6040BC30BC70477406000050
:10060000440005642F6D6F6400B5F01719D0FFF733
:100610005CFEFFF787FDF0170CD0FFF756FEFFF7E3
:1006200081FDFFF7C4FFFFF77DFDFFF74EFEFFF7EB
:1006300079FD00BDFFF776FDFFF7B9FFFFF745FE37
:1006400000BDFFF76FFDF0170ED0FFF73EFEFFF77E
:1006500069FDFFF7ACFFFFF738FEFFF763FDFFF71B
:1006600034FEFFF75FFD00BDFFF75CFDFFF79FFF66
:1006700000BDC0468C060000440002642F0000B597
:10068000FFF7C2FFFFF75EFD00BDC0462407000074
:10069000440002662A0000B5F0170DD0FFF715FEE2
:1006A000FFF740FDF0170DD0FFF70FFEFFF78CFEB0
:1006B00040CF01CF386000BDFFF734FDF017F5D013
:1006C000FFF703FEFFF780FE40CF01CF3860FFF752
:1006D000FCFD00BD30B43C68B9687A680023002591
:1006E00020206D00491852415B419E4204D894423B
:1006F00002D8121BB34101350138F2D12900202064
:100700006D0092185B419E4204D8944202D8121B9D
:10071000B34101350138F3D13D60BA607B600E0012
:1007200030BC704770070000440002662F0000B51F
:10073000F0170ED0FFF7C9FDFFF7F4FCF0170ED04D
:10074000FFF7C3FDFFF7EEFCFFF7C4FFFFF7FAFC6E
:1007500000BDFFF7E7FCF017F4D0FFF7B6FDFFF799
:10076000E1FCFFF7B7FFFFF7B0FDFFF7EBFC00BDC3
:100770008407000020000232210006CF3160726041
:1007800040CF704798070000200002324000043F2D
:100790007068386036687047B8070000440003642A
:1007A000753C07CF8E4204D801D1904201D8002673
:1007B00070470026F6437047D807000044000364E2
:1007C000753E07CFB14204D801D1824201D800263C
:1007D00070470026F6437047F807000044000264A3
:1007E0003C0007CF8E4204DC01D1904201DC0026A0
:1007F00070470026F6437047180800004400026462
:100800003E0007CFB14204DC01D1824201DC002668
:1008100070470026F6437047280800006200036412
:10082000303C0437F6177047440800004200036468
:10083000303D01CF002801D000267047013EB6416F
:100840007047C04660080000440003643C3E07CF88
:10085000904201D1761A01D00026F6437047C04677
:100860007C080000440002643D0007CF904201D0A4
:1008700000267047761A013EB64170479008000086
:10088000200003737040043F3E603E007047C04646
:10089000A0080000200003737021370040CF70478C
:1008A000B4080000200003727040043F3E606E46B2
:1008B0007047C046C4080000200003727021B5468E
:1008C00040CF7047E0080000000005646570746860
:1008D000F549C91B8908043F3E600E007047C046B9
:1008E000F0080000610003647570043F3E607047CB
:1008F0000009000061000464726F700040CF70470F
:10090000180900006100043F64757000002E01D0DA
:10091000043F3E607047C0462C090000620004732B
:100920007761700039683E600E0070473C09000036
:100930006200036E697004377047C04650090000BA
:100940006200046F76657200043F3E607E68704707
:10095000680900006200047475636B0001CF083FF2
:100960007E6038607047C0468009000063000372F3
:100970006F7403CF083F78603E600E007047C0463A
:10098000980900006300042D726F740003CF083FC4
:100990007E60396006007047AC09000020000470DA
:1009A00069636B00B0003E587047C046BC09000048
:1009B0002000023E720040B440CF7047D0090000D2
:1009C000200002723E00043F3E6040BC7047C046BB
:1009D000E4090000200002724000043F3E60009ED7
:1009E0007047C046F40900002000057264726F7001
:1009F00001B070470C0A0000600004747275650055
:100A0000043F3E600026F6437047C046200A0000BF
:100A100060000566616C7365043F3E6000267047A8
:100A2000340A00006A0003616E6401CF064070471B
:100A30000640C046480A00006A000362696301CFAD
:100A4000B0430600704786435C0A00006A00026FEC
:100A5000720001CF064370470643C046700A00008B
:100A60006A0003786F7201CF464070474640C04627
:100A7000800A00006100036E6F74F6437047C04641
:100A8000A00A0000410003636C7A300006D0002603
:100A9000400002D001D20136FAE7704720267047A5
:100AA000B00A000061000373687276087047C046A0
:100AB000C00A000061000373686C76007047C0468E
:100AC000D00A0000610003726F720120C6417047B6
:100AD000E40A0000610003726F6C0020B619464101
:100AE0007047C046000B00006C00067273686966B0
:100AF000740001CFF0400600704736080026C0465B
:100B00001C0B00006C00076172736869667401CF8A
:100B10003041060070473610F617C046380B00000B
:100B20006C00066C73686966740001CFB040060003
:100B3000704736000026C046480B000061000230B6
:100B40003D00013EB64170475C0B00006100033080
:100B50003C3E013EB641F6437047C0466C0B000078
:100B6000610002303C00F6177047C046880B000059
:100B70004200023E3D0001CFB04201DA002670473C
:100B80000026F6437047C046A40B00004200023C1A
:100B90003D0001CFB04201DD002670470026F6433C
:100BA0007047C046BC0B00004200013C01CFB04280
:100BB00002DA0026F643704700267047D40B000087
:100BC0004200013E01CFB04202DD0026F6437047ED
:100BD00000267047E80B0000620003753E3D01CF20
:100BE000861BB641F6437047FC0B0000620003759C
:100BF0003C3D01CF361AB641F6437047100C000059
:100C0000620002753C0001CF861BB6417047C046AA
:100C1000240C0000620002753E0001CF361AB64176
:100C20007047C0463C0C00006B00023C3E0001CF08
:100C3000361A01D00026F6437047C046500C00001B
:100C40006B00013D01CF361A013EB6417047C046E8
:100C5000640C00006200036D696E01CFB04200DADF
:100C600006007047780C00006200036D617801CFC8
:100C7000B04200DB06007047900C00006200047573
:100C80006D61780001CFB04200D306007047C046C6
:100C9000AC0C0000620004756D696E0001CFB042BB
:100CA00000D80600704700002C020020EC0C000069
:100CB0000000046D6F76650007B5310040CF32004B
:100CC00040CF00290FD0B2420DD006D3013E013AE9
:100CD000705C50540139FBD105E03078107001365A
:100CE00001320139F9D140CF07BDC046100D0000D7
:100CF00000000466696C6C00300040CF310040CFCA
:100D0000002902D001397054FCD140CF7047C04651
:100D10001C0D00002000014036687047340D0000B3
:100D20006D00012103CF30600E00704706607047F0
:100D3000016070475C0D00006D00022B210003CFA5
:100D40003268121832600E00704702689219026011
:100D500070470268521802607047C0466C0D000070
:100D600020000268400036887047C046880D0000A9
:100D70006D000268210003CF30800E0070470680AE
:100D8000704701807047C046B00D00006D000368D9
:100D90002B2103CF3288121832800E007047028850
:100DA0009219028070470288521802807047C0462C
:100DB000C00D000020000263400036787047C04636
:100DC000DC0D00006D000263210003CF30700E00C7
:100DD00070470670704701707047C046040E0000EF
:100DE0006D0003632B2103CF3278121832700E008E
:100DF0007047027892190270704702785218027098
:100E00007047C0462C0E00006D000462697321001B
:100E100003CF3268024332600E00704702683243EB
:100E20000260704702680A4302607047540E000077
:100E30006D0004626963210003CF3268824332602F
:100E40000E0070470268B2430260704702688A432E
:100E5000026070477C0E00006D0004786F72210004
:100E600003CF3268424032600E0070470268724021
:100E70000260704702684A4002607047980E0000A6
:100E8000200004626974400001CF3668064001D03A
:100E90000026F6437047C046C00E00006D0005688E
:100EA0006269732103CF3288024332800E0070479B
:100EB000028832430280704702880A4302807047EA
:100EC000E80E00006D0005686269632103CF328877
:100ED000824332800E0070470288B243028070471E
:100EE00002888A4302807047100F00006D00056879
:100EF000786F722103CF3288424032800E007047F3
:100F0000028872400280704702884A40028070471F
:100F10002C0F0000200005686269744001CF3688FC
:100F2000064001D00026F6437047C046540F00002B
:100F30006D0005636269732103CF3278024332701A
:100F40000E007047027832430270704702780A43FD
:100F5000027070477C0F00006D00056362696321B9
:100F600003CF3278824332700E0070470278B2436A
:100F70000270704702788A4302707047A40F000025
:100F80006D000563786F722103CF32784240327072
:100F90000E007047027872400270704702784A4033
:100FA00002707047C00F0000200005636269744042
:100FB00001CF3678064001D00026F6437047C04680
:100FC000D00F000061000563656C6C2B0436704720
:100FD000E00F000061000563656C6C73B60070473C
:100FE0007410000000000768666C617368213000AF
:100FF00040CF310040CF594B984221D3584B9842B3
:101000001ED2584B1940994219D001220240002AA1
:1010100016D102889A4213D1534A8018534A544B2E
:101020001360544B1360544A012313600180534AE8
:10103000136801201840FBD14F4A8023136070478A
:1010400000F008FC2A57726F6E6720616464726555
:101050007373206F72206461746120666F722077F1
:10106000726974696E6720666C61736820210A007A
:1010700002F064FAC410000000000E666C61736830
:10108000706167656572617365000FB5300040CFB0
:10109000324B984214D3354A354B1360354B1360AD
:1010A000354A02231360364A1060334A42231360E4
:1010B000324A136801201840FBD12F4A8023136065
:1010C0000FBDC0464011000000000A6572617365E3
:1010D000666C61736800214872B62149214A038811
:1010E00093421CD0043F3E600600043F3E6000F087
:1010F000B1FB10457261736520626C6F636B206198
:101100007420200000F01EFC00F0A4FB0C2066728E
:101110006F6D20466C6173680A00FFF7B6FF0230FE
:101120008842DCD100F096FB1246696E69736865EF
:10113000642E20526573657420210A0002F052FB70
:101140008411000000000E6572617365666C617346
:101150006866726F6D00300040CFBDE70040000050
:1011600000000100FFFF0000000000080420024012
:1011700023016745AB89EFCD102002400C200240CF
:1011800014200240981100006900012B01CF36188D
:10119000704736180036C046AC1100006900012DBA
:1011A00001CF861B7047361A003EC046BC110000B6
:1011B000610002312D00013E7047C046CC11000095
:1011C000610002312B0001367047C046DC1100007F
:1011D000610002322D00023E7047C046EC11000053
:1011E000610002322B0002367047C0460012000038
:1011F0006100066E65676174650076427047C0469F
:1012000014120000610003616273002E00D5764263
:101210007047C0465C120000420005752F6D6F6478
:10122000310040CF002903D1043F3E6000267047C3
:10123000012200238E4206D9003104D45200490015
:1012400001D48E42FAD88E4201D3761A134349084C
:101250005208F8D1043F3E601E007047CC120000D7
:101260004200042F6D6F640000B5300040CF002EA7
:101270001CDA764200280CDA4042043F3E60060049
:10128000FFF7CEFF300040CF7642043F3E600600BD
:1012900000BD043F3E600600FFF7C2FF300040CFB4
:1012A00040427642043F3E60060000BD002807DA57
:1012B0004042043F3E600600FFF7B2FF764200BDA9
:1012C000043F3E600600FFF7ABFF00BDE0120000E8
:1012D0004200036D6F6400B5FFF7C6FF40CF00BD4D
:1012E000F41200004200012F00B5FFF7BDFF0437E4
:1012F00000BDC046041300006A00012A01CF464326
:101300007047464314130000610002322A00760041
:101310007047C04624130000610002322F0076108F
:101320007047C046381300006100046576656E00A2
:1013300001203040361870475013000081000462CD
:1013400061736500043F3E60124E70470A00000062
:101350006813000000000662696E617279000D4832
:10136000022101607047C04680130000000007643E
:101370006563696D616C07480A2101607047C0466A
:10138000C013000000000368657802481021016066
:1013900070470000FC1F00207749784808607849B2
:1013A0007848086078497948086079497948086040
:1013B0007949462008607949794808607047C046F5
:1013C000DC130000810009686F6F6B2D656D697417
:1013D000043F3E60734E7047DE140000F8130000B7
:1013E000810008686F6F6B2D6B657900043F3E606C
:1013F0006D4E7047061500001814000081000A6841
:101400006F6F6B2D656D69743F00043F3E60674EE2
:10141000704730150000C046341400008100096890
:101420006F6F6B2D6B65793F043F3E60604E704778
:101430005E1500005414000081000A686F6F6B2D68
:10144000706175736500043F3E605A4E7047EA351F
:101450000000C0466C140000000004656D69740053
:101460000FB5504800F02FF80FBDC04680140000A3
:101470000000036B65790FB54B4800F024F80FBDF1
:1014800098140000000005656D69743F00B5474879
:1014900000F019F800BDC046B01400000000046B55
:1014A00065793F0000B5424800F00DF800BDC04628
:1014B000CC140000000005706175736500B53D48EF
:1014C00000F001F800BD00688746C046F414000033
:1014D00000000B73657269616C2D656D697400B5F0
:1014E00000F026F8002E40CFFAD0334A167040CFD5
:1014F00000BDC0461C15000000000A7365726961DA
:101500006C2D6B65790000B500F029F8002E40CFF6
:10151000FAD0043F3E60294A167800BD4C15000001
:1015200000000C73657269616C2D656D69743F0014
:1015300000B5FFF7C3FF043F3E6000262048016866
:101540008020014000D0F64300BDC046C415000015
:1015500000000B73657269616C2D6B65793F00B596
:10156000FFF7ACFF043F3E600026154801682020CD
:10157000014000D0F64300BD1410024000005E00A0
:101580001810024000400000000000480000282819
:1015900024000048100100000C38014000380140D0
:1015A0000D000000F81F0020F41F0020F01F002095
:1015B000EC1F0020E81F002028380140243801409B
:1015C0001C380140E815000000000763657870656D
:1015D000637400B5386801B40130386000F00BF86E
:1015E00001BC067040CF00BD5C1600000000066123
:1015F00063636570740000B502CF01390022FFF704
:101600003AFF300040CF202819D2092816D00A28E6
:101610001FD00D281DD00828F1D1002AEFD000F0EE
:1016200019F903082008002AE9D0885C013A8023D0
:101630000340E4D040230340F5D0E0E72020B2424D
:10164000DDD2043F3E600600FFF70AFF01328854F6
:10165000D5E7160000F0A8F800BDC04670160000DF
:10166000400003746962043F3E602B4E7047C046E1
:10167000881600008100033E696E043F3E60274EDD
:10168000704700000000C046B016000082000E63E4
:10169000757272656E742D736F7572636500043FA9
:1016A0003E601F4E70470000000064000020C046EE
:1016B000CC160000000009736574736F7572636562
:1016C000174802CF0660416040CF7047EC1600001B
:1016D000000006736F7572636500043F3E60104E34
:1016E000043F7068386036687047C04624170000B1
:1016F00000000571756572790FB508480021016019
:10170000FFF7B1FF043F3E60043F3E60C826FFF78D
:1017100072FFFFF7D5FF0FBD64000020E41F00201B
:10172000DC1F002074170000000007636F6D7061FC
:1017300072650FB5310040CF01CF884202D040CF53
:1017400000260FBD02CF002810D001380A5C335CA0
:10175000412A02D35B2A00D22032412B02D35B2BD9
:1017600000D220339A42EED000260FBD0026F64369
:101770000FBDC0468817000000000263720000B56C
:1017800000F068F8010A00BD9C170000000002622A
:101790006C00043F3E6020267047C046B017000032
:1017A0000000057370616365043F3E60202657E6C4
:1017B000D81700000000067370616365730000B500
:1017C000002E06DD043F3E602026FFF749FE013E65
:1017D000F8D140CF00BDC046E81700005000065BBE
:1017E000636861725D0005E000180000000004639A
:1017F0006861720000B501F047FB40CF367800BD4C
:101800001018000050000128043F3E60292606E021
:101810002C1800005000015C043F3E60002600B51B
:1018200001F03CFB043740CF00BDC04674180000F7
:101830001000022E2200A14800B5043F3E600600C1
:1018400000F0E2F9043F3E60222601F027FB00F0A1
:1018500036FD00BD0AB4043F3E607646013E337853
:101860000121013319405B187146C9188E460ABC24
:101870003CE0C0469C180000100002632200904823
:10188000DAE7043F3E607646013E337801210133BA
:1018900019405B187146C9188E467047C818000079
:1018A0001000027322008748C6E7043F3E60764678
:1018B000043F3E60013E36780121731C19405B18DD
:1018C0007146C9188E467047E01800000000056395
:1018D0006F756E740136043F3E60013E3678704786
:1018E00008190000000005637479706501B530784F
:1018F000002807D00136043F3E603678FFF7B0FD80
:101900000138F7D140CF01BD381900000000047440
:1019100079706500310040CF300040CF00B500291C
:1019200008D00022043F3E60865CFFF799FD01323B
:101930009142F7D100BDC046741900000000046850
:1019400065782E0007B5310040CF20200F220438E3
:10195000043F3E600E00C6401640092E01D93736BE
:1019600000E03036FFF77CFD0028F0D1FFF71CFFC8
:1019700007BDC04684190000000003682E731FB520
:10198000514C0EE094190000000003752E731FB532
:101990004E4C06E0141A00000000022E73001FB522
:1019A0004B4C4C49C91B89084B4A106803B40A20A8
:1019B0001060FFF74FFF08537461636B3A205B00C0
:1019C000043F3E600E0001F03DFCFFF743FF025D67
:1019D000200003BC404A106000290AD03F4A10682A
:1019E00006B4043F3E600600A04706BC043A013935
:1019F000F5D1FFF72FFF0620544F533A2000043F44
:101A00003E603600A047FFF725FF04202A3E0A006B
:101A10001FBDC046E01A0000000005776F726473B6
:101A200000B5FFF717FF06776F7264730A0000F0C6
:101A30007EFEFFF70FFF09416464726573733A20FD
:101A4000043F3E60FFF77EFFFFF704FF064C696E20
:101A50006B3A2000043F3E603668FFF773FFFFF7E4
:101A6000F9FE07466C6167733A20043F3E60B68812
:101A7000FFF768FFFFF7EEFE06436F64653A20004C
:101A8000B01D00F08FFE043F3E600600FFF75AFFD6
:101A9000FFF7E0FE064E616D653A2000043F3E60B0
:101AA0000636FFF723FFFFF7D5FE010A00F057FEC9
:101AB000300040CFBDD040CF00BD00005418000022
:101AC00082180000AA1800004519000033320000F7
:101AD000453200002C020020FC1F002028020020BC
:101AE000FC1B000000001072656769737465726CFE
:101AF00069746572616C2C003FB5350040CF2900D8
:101B0000C90029432D029F480543FF2300223000CE
:101B1000D040984301D00132F9E73000D04018405E
:101B20002843043F3E60060000F091FB96480543C1
:101B300018009040864310D000243000E0409843C5
:101B400001D00134F9E7101B043F3E600E00800114
:101B5000064300F07CFB2200DFE7002A06D0043FAA
:101B60003E600E009201164300F071FB40CF3FBD76
:101B70001FB5310040CF854C0C43C9000C434901CF
:101B8000300040CF020EFF231A407E4B0B4313431D
:101B9000043F3E601E0000F05AFB043F3E602600FA
:101BA00000F055FB020CFF231A40794B0B43134303
:101BB000043F3E601E0000F04AFB043F3E602600EA
:101BC00000F045FB020AFF231A40714B0B431343FD
:101BD000043F3E601E0000F03AFB043F3E602600DA
:101BE00000F035FB0200FF231A40694B0B431343FF
:101BF000043F3E601E0000F02AFB1FBD6C1C00006D
:101C000000000563616C6C2C0FB5330000F06EFEB4
:101C1000300040CF1B1A043B5E49194000290ED00A
:101C20005D4A91420BD00136043F3E600026FFF72B
:101C300063FF043F3E60594E00F009FB0FBD40CFEB
:101C40005B085748574919400843DB0A5649194071
:101C5000090408439B0A0121194089060843043FEF
:101C60003E60060000F01BFB0FBDC046C01C00001C
:101C70000000086C69746572616C2C0008B5043F43
:101C80003E604A4E00F0E3FA043F3E60484E00F0EA
:101C9000DEFA484B3000184098420BD1F643043F1F
:101CA0003E600626FFF728FF043F3E60424E00F0EC
:101CB000CEFA08BD043F3E600626FFF71DFF08BDB3
:101CC000E81C00000000066372656174650000B5E1
:101CD00000F03FF81D20000207308047043F3E60BF
:101CE0007646013E00BDC046441D0000200005644C
:101CF0006F65733E1D20000207308047043F3E6041
:101D00007646013E7047043F3E607646013E00F055
:101D1000D4F82A4A1368310040CF0220084000D18D
:101D20000231023111600136043F3E600026FFF7A8
:101D30001FFF043F3E60194E00F089FA136000F067
:101D400004FA00BDC41D00000000073C6275696C08
:101D5000647300B500F07EFB00F0C8FD0220064071
:101D600040CF04D1043F3E60362600F070FA043FB5
:101D70003E60134E00F06BFA043F3E60102600F008
:101D8000D1FA00BD00200000001000000002000099
:101D9000003000000100C0FF0000C0FF80470000CD
:101DA00000F800F0FF070000FF030000043F000000
:101DB0003E6000000000FFFFF6430000000000202E
:101DC00000B50000D01D00005000035B275D03E05C
:101DD000E81D00000000012700B501F055F800F0F3
:101DE00020FD40CF00BDC046301E0000100008702E
:101DF0006F7374706F6E650000B501F045F800F008
:101E000010FD300040CF102101400DD120210140B4
:101E100005D0FFF733FF043F3E60C04E04E0FFF7FC
:101E20002DFF043F3E60BE4EFFF7EEFE00BDC046F4
:101E30007C1E0000000007696E6C696E652C00B5A1
:101E4000B849B94AB94B3088884208D0904208D086
:101E5000984206D0043F3E60060000F0F8F90236D2
:101E6000F1E740CF00BD0EB4AF4AB04B018802305D
:101E7000914201D09942F9D10EBC7047901E0000EA
:101E80000000047265742C00043F3E60A64EDEE143
:101E9000A01E00003000046578697400F4E7C046B5
:101EA000D81E00003000077265637572736500B557
:101EB00000F003F8FFF7A8FE00BD0FB59C480068CE
:101EC00006300178013101220A4089184018043F88
:101ED0003E6006000FBDC046F01E00008100057385
:101EE00074617465043F3E60924E704700000000CC
:101EF000041F00000000015D8E480021C9430160FD
:101F00007047C046141F00001000015B8948002183
:101F1000016070473C1F00000000013A00B5864890
:101F2000076000F097FA043F3E607E4E00F08FF9A4
:101F300080480021C943016000BDC046841F0000E5
:101F40003000013B00B57C480168B9420ED0FFF774
:101F500081FC1520537461636B206E6F7420626185
:101F60006C616E6365642E0A01F0E8FA043F3E601E
:101F70006D4E00F06CF900F0E8F86E480021016049
:101F800000BDC0469C1F00000000076578656375B2
:101F90007465300040CF01308746C046B41F000052
:101FA000100009696D6D656469617465043F3E6088
:101FB0001026F9E0CC1F0000100006696E6C696EF7
:101FC0006500043F3E602026EEE0C046E81F0000AA
:101FD00010000B636F6D70696C656F6E6C79043FF8
:101FE0003E603026E0E0C0460420000010000A30C9
:101FF0002D666F6C6461626C6500043F3E60402634
:10200000D2E0C0462020000010000A312D666F6C1F
:102010006461626C6500043F3E604126C4E0C046D6
:102020003C20000010000A322D666F6C6461626C07
:102030006500043F3E604226B6E0C04658200000DE
:1020400010000A332D666F6C6461626C6500043F9A
:102050003E604326A8E0C0467420000010000A3409
:102060002D666F6C6461626C6500043F3E604426BF
:102070009AE0C0469020000010000A352D666F6C73
:102080006461626C6500043F3E6045268CE0C0469A
:10209000AC20000010000A362D666F6C6461626C23
:1020A0006500043F3E6046267EE0C046C820000032
:1020B00010000A372D666F6C6461626C6500043F26
:1020C0003E60472670E0C046F8200000000008632C
:1020D0006F6E7374616E740000B500F0BBF9FFF7AA
:1020E000CDFD043F3E60114E00F0B1F8FFF785FFD3
:1020F00000F02BF800BDC0463C2100000000093272
:10210000636F6E7374616E7400B500F0A3F9396883
:102110003E600E46FFF7B2FDE1E700003E1E000004
:10212000081C000000B5000000BD00007047000062
:1021300004000020D81F002010000020982100007B
:10214000000006736D756467650000B5234801687B
:10215000224A91421AD202390A88214B9A4204D16A
:10216000043F3E601F4E00F072F800F05EF81E481B
:102170000068043F3E6006001C4909680431174AA4
:102180001368116000F063F8136000BD00F04DF8B3
:10219000043F3E60002608E0F021000000000873C4
:1021A0006574666C6167730000B50C4801680B4A82
:1021B000914205D20C4801683143016040CF00BD17
:1021C000320040CF0948006804300188044B99422E
:1021D00001D1110000E01143018000BD000000208A
:1021E000FFFF0000000000001C0000200400002091
:1021F00000220000000005616C69676E15E0C046B2
:102200001C220000410007616C69676E6564012053
:102210003040361802203040361870474422000003
:10222000000007616C69676E342C00B57F48016857
:102230000220014004D0043F3E60002600F007F871
:1022400000BDC04678220000000002682C000FB5D7
:1022500076480168754A914205D2043F3E600E00FF
:10226000FEF7C5FE02E0320040CF0A80043F3E6028
:10227000022600F057F80FBD942200000000012C48
:1022800000B5043F3E60FFF7E2FF360CFFF7DFFFCB
:1022900000BDC046B02200000000033E3C2C00B54B
:1022A000043F3E60360CFFF7D2FFFFF7D0FF00BDC2
:1022B00018230000000007737472696E672C07B55D
:1022C000FF21314040CF300040CF002905D1043FED
:1022D0003E600026FFF7BBFF07BD043F3E60067867
:1022E00036020E43FFF7B3FF0130013902290AD34A
:1022F000043F3E604678360202781643FFF7A7FF98
:1023000002300239F2E7002900D107BD043F3E60E8
:102310000678FFF79CFF07BD7423000000000561ED
:102320006C6C6F7441480168404A91420FD2320090
:1023300040CF89183E4A914219D3FFF78BFA0B46DA
:102340006C6173682066756C6C0A01F0F7F83200F6
:1023500040CF8918374A1268914208D3FFF77AFABA
:102360000952616D2066756C6C0A01F0E7F8016036
:102370007047C0469C23000000000D636F6D7069BC
:102380006C65746F72616D3F043F3E6000262748A4
:1023900000682649884248D3F6437047BC230000B2
:1023A00000000C636F6D70696C65746F72616D0015
:1023B0001E4800681D49884211D37047442400001C
:1023C00000000E636F6D70696C65746F666C61738D
:1023D0006800164800681549884200D270471648C0
:1023E000164902680B680A600360104814490268C5
:1023F0000B680A6003600F480068834215D300B57C
:10240000FFF728FA23205661726961626C657320B8
:10241000636F6C6C696465207769746820646963B4
:1024200074696F6E6172790A00BD70470000002008
:1024300000000100200000200400002018000020FF
:102440001400002028250000000008286372656140
:102450007465290000B500F017FD002E0ED1FFF7BE
:10246000F9F91520437265617465206E65656473C2
:10247000206E616D6520210A01F060F83868043F24
:102480003E60043F386000F09DF940CF002E40CF01
:1024900011D03868043F3E60043F3860FFF7DAF936
:1024A000095265646566696E6520FFF733FAFFF7C8
:1024B000D1F9022E0A00FFF7B8FE00F017FA8B4898
:1024C00000688A4988421CD2894800210160043F83
:1024D0003E600626FFF726FFFEF758FAFFF7EFFEED
:1024E000844801680A68844B9A4207D17F4A13687E
:1024F0001160043F3E60FFF7C3FE1360066040CFEB
:1025000000BD7C48043F3E600668FFF7B9FE043F0B
:102510003E607A4EFFF79BFE7648310040CF016067
:10252000FFF7CDFE00BDC046402500000000087644
:1025300061726961626C6500043F3E60012613E0D0
:1025400058250000000009327661726961626C658D
:10255000043F3E60022607E0302600000000096EBE
:102560007661726961626C6500B5FFF773FF5F4861
:1025700001685E4A914233D20F200640B2006048A3
:102580000168891A5F4A91420BD2FFF763F90F4E37
:102590006F7420656E6F7567682052414D0A00F0B8
:1025A000CDFF0160043F3E600E00FFF767FB043F74
:1025B0003E60554EFFF74BFE300040CF0200002832
:1025C00005D00E600431FFF75BFE0138F9D1043FFE
:1025D0003E6080261643FFF7E7FDFFF7B6FD00BD1E
:1025E00000F084F90220064040CF04D1043F3E6051
:1025F0003626FFF72CFE043F3E60444EFFF74FFEA9
:10260000043F3E60424EFFF74AFE043F3E603E4EAE
:10261000FFF71DFE300040CF002803D0FFF730FE4B
:102620000138FBD1FFF7E9FCFFF78FFD00BDC04685
:10263000182700000000076275666665723A00B5EB
:10264000FFF708FF012030403618022030403618CE
:1026500026480168254A914226D229480168891BEB
:10266000284A91420BD2FFF7F5F80F4E6F742065A0
:102670006E6F7567682052414D0A00F05FFF016080
:10268000043F3E600E00FFF7F9FA043F3E601E4E25
:10269000FFF7DDFDFFF7F4FD043F3E601D4EFFF741
:1026A00083FDFFF752FD00BD00F020F90220064037
:1026B00040CF04D1043F3E603626FFF7C8FD043FFB
:1026C0003E60124EFFF7EBFD043F3E60104EFFF7F9
:1026D000E6FD043F3E600C4EFFF7B9FDFFF722FE1A
:1026E000FFF78BFCFFF731FD00BD0000000000206C
:1026F0001C00002004000020FFFFFFFFFFFF000080
:10270000200000202C030020704700003E60043FA2
:1027100002367E46400100004827000000000F649A
:10272000696374696F6E617279737461727442481F
:1027300000684149043F3E60884201D23F4E7047E5
:102740003F4E36687047C0468427000000000E6484
:10275000696374696F6E6172796E6578740003B530
:1027600031683848814207D08879FF2804D00E00AC
:10277000043F3E60002603BD043F3E600026F64352
:1027800003BDC046B827000000000A736B69707370
:102790007472696E67003178013101220A4089182C
:1027A0007618704706B40178013101220A40891871
:1027B000401806BC7047C0464C2800000000046664
:1027C000696E64003FB500220023350040CF34001D
:1027D00040CFFFF7ACFF1C48B188884217D0043FB8
:1027E0003E600636FFF776F8043F3E602600043F61
:1027F0003E602E00FEF79DFF002E40CF07D0B01D9B
:10280000FFF7D0FF02000B000B48824204D2FFF713
:10281000A6FF300040CFDED01600043F3E601E0011
:102820003FBD00B531003868FFF7CCFF3A68002A99
:1028300001D100F07BFD00BD00000020C4000000BD
:1028400004000020FFFFFFFFFFFF0000A82800009A
:10285000000006636A756D702C00320040CF3100B5
:1028600040CF8B1B043BA249194000290DD0A14841
:1028700081420AD0FEF7EEFF0D4A756D7020746F2D
:102880006F206661720A00F059FE5B10FF210B4059
:10289000134330001E0000B5974A13681060FFF71D
:1028A000D6FC136000BDC046E02800000000056AA9
:1028B000756D702C310040CF300040CF0B1A043BB7
:1028C0008E491940002902D08D4A9142D2D15B1025
:1028D0008C4A13408C4A1343043F3E601E00DAE7E3
:1028E000F82800000000046865726500043F3E603F
:1028F000814E36687047C046E829000000000D662A
:102900006C6173687661722D68657265043F3E6024
:102910007E4E3668704700B5043F3E607C4EFFF740
:1029200096FC043F3E607B4EFFF791FC00BDDDE767
:1029300000B500F037F839683E600E46043F3E604F
:10294000754EFFF78AFF00BD00B500F02BF839681F
:102950003E600E46043F3E60704EFFF77EFF00BDB6
:1029600000B5FFF7D8FF00F01DF839683E600E464D
:10297000043F3E606A4EFFF770FF00BD00B500F0F7
:1029800011F839683E600E46FFF794FF00BD00B5B0
:10299000FFF7C1FFFFF7AAFF043F3E600226FFF7E3
:1029A000C1FC00BD00B5FFF7A1FF043F3E60022659
:1029B000FFF7B8FC00BD00B5FFF798FFFFF77AFFFF
:1029C00000BD00B5FFF792FF043F3E60544EFFF795
:1029D00044FF00BD00B5FFF789FF043F3E604E4E47
:1029E000FFF73BFF00BDC046242A000030000474FE
:1029F00068656E00052E01D140CFDCE7022E01D1C3
:102A000040CFDEE7FEF726FF1753747275637475C7
:102A100072657320646F6E2774206D617463680A39
:102A200000F08CFD502A0000300004656C736500D6
:102A300000B5022EE6D140CFFFF7B4FF39683E6003
:102A40000E46FFF7BEFF043F3E60052600BDC046B0
:102A5000682A000030000269660000B5FFF797FFA2
:102A6000043F3E60022600BD902A0000300006723E
:102A7000657065617400042EC4D140CF39683E6032
:102A80000E4600B5FFF77AFFFFF79BFF00BDC0467B
:102A9000AC2A00003000057768696C65012EB1D161
:102AA00040CF00B5FFF7D9FF023600BDC02A0000B5
:102AB000300005756E74696C012EA3D140CF4FE7CD
:102AC000D42A0000300005616761696E012E99D13A
:102AD00040CF53E7242B0000300005626567696E24
:102AE00000B5FFF724FF043F3E60012600BD000053
:102AF00001FFFFFF00FFFFFF0000002001F8FFFFC4
:102B000000F8FFFFFF07000000E0000020000020A9
:102B1000002E000040CF000000D1000000D70000D0
:102B200000D00000342B00002000016B043F3E6009
:102B3000029E7047442B00002000016A043F3E6063
:102B4000009E7047542B000020000169043F3E6046
:102B500026007047942B00003000056C6561766597
:102B600000B5674801683B00043F1A68043B1A60DF
:102B7000043304338B42F8D103B4FFF713FF03BCD3
:102B8000330040CF04390B60016004390A68013218
:102B90000A6000BDA82B0000200006756E6C6F6FE8
:102BA000700030BC7047C046E02B00003000052BA1
:102BB0006C6F6F70032E00D024E740CF00B5043F48
:102BC0003E60504EFFF73BF9FFF7BEFE1AE0802053
:102BD00000060019A419401B801940CF7047C04659
:102BE000242C00003000046C6F6F7000032E00D0A6
:102BF00008E740CF00B5043F3E60434EFFF71FF9A2
:102C0000FFF796FE00F01CF93D48310040CF01600F
:102C1000043F3E603D4EFFF712F900BD0134AC4267
:102C20007047C0466C2C0000780002646F0000B54D
:102C3000043F3E60364EFFF702F931480168043F19
:102C40003E600E00043F3E6000260760FFF76FFE07
:102C5000043F3E60032600BD00B500F02EF8ECE70F
:102C600030B4340040CF350040CF7047202D0000F5
:102C70007800033F646F00B5043F3E60244EFFF7C9
:102C8000DEF8043F3E60234EFFF7E1FA1C4801687E
:102C9000043F3E600E00FFF785FE0136043F3E60B4
:102CA000012617480760FFF742FE043F3E600326F7
:102CB00000BD00B500F001F8E3E700B5043F3E6059
:102CC000154EFFF7C4FA043F3E600426FEF714FFDA
:102CD000013B08D0043F3E600526FEF70DFF013B97
:102CE00000F005FC00BD043F3E603526FFF7AFFA5B
:102CF000043F3E60094EFFF7AAFA00F0F8FB00BD62
:102D00000C000020CE2B00001C2C0000A22B000089
:102D1000602C0000AC42000030B4000040CF000046
:102D20003C2D00003000046361736500043F3E6089
:102D30000026043F3E6008267047C046542D000020
:102D40003000033F6F6648480AE0013EB64140CF7D
:102D50007047C046E02D00007800026F66004348CF
:102D6000082E00D04EE640CF00B5043F3E6006007E
:102D7000FFF765F8FFF716FE39683E600E4601362C
:102D8000043F3E600926043F3E60394EFFF75FFA7C
:102D900000BD00B5300040CF013B01B400F0A7FBFF
:102DA00001BC082E00D02DE640CF043F3E60060057
:102DB000FF213140B14204D12E490E43FFF747FABB
:102DC000D8E7043F3E600026FEF796FE043F3E60D3
:102DD000294EFFF73CFACDE7300040CFB0427047B4
:102DE000182E0000300005656E646F66092E00D055
:102DF00008E640CF00B540B440CFFFF7D3FD3968B7
:102E00003E600E46FFF7E6FD043F3E6040BC043FD7
:102E10003E60082600BDC0467C2E000030000765DD
:102E20006E6463617365082E00D0EBE540CF00B59A
:102E3000043F3E600E4EFFF70AFA00F001F800BDB5
:102E400000B5300040CF00280DD003B4012131403F
:102E5000002903D0013EFFF7B4FD01E0FFF7ABFD11
:102E600003BC0138EFE700BD4A2D0000D82D00005B
:102E700040CF0000002E0000B0420000902E000065
:102E8000000005746F6B656E043F3E60202605E010
:102E9000EC2E0000000005706172736510B5FEF73E
:102EA0001CFC310040CF300040CF0F4A126884181C
:102EB000202E07D191420FD0835CB34202D1013260
:102EC0008418F7E7914207D0835C0132B342F9D10D
:102ED0008618361B013E01E08618361B043F3C6015
:102EE0000148026010BD0000E41F00202C2F0000EC
:102EF0000000056469676974D44B1B68303E0BD3CE
:102F00000A2E0BD3073E0A2E06D3242E06D3203ECC
:102F10000A2E01D3242E01D3002670479E42FBD2F5
:102F2000043F3E600026F6437047C046383000003C
:102F30000000066E756D626572003FB5310040CFCE
:102F4000701E0126012204B4C04B1B68002400251A
:102F500000293CD00130013902782D2A04D101B07A
:102F60000022D24304B4F3E7232A01D10A23EFE776
:102F7000242A01D11023EBE7252A01D10223E7E718
:102F80002E2A01D10226E3E72C2A36D0043F3E60E8
:102F90001600FFF7B3FF002E40CF2BD0043F3E605A
:102FA0002600043F3E602E00043F3E601E00043FAA
:102FB0003E6000260FB4FDF7E6F90FBC350040CFA8
:102FC000340040CF0022A419554140CFC0E704BCD3
:102FD000002A04D50022E443ED4301345541330077
:102FE0002600012B02D0043F3E602E00043F3E60CD
:102FF0001E003FBD01B000263FBD25000024022673
:103000000029E4D0425C01392E2AF9D0043F3E6009
:103010001600FFF773FF002E40CFEBD0043F3C605B
:10302000043F3E601E000FB4FDF761FA0FBC340090
:1030300040CF40CFE4E7C0465C3000000000062EE1
:103040006469676974000A2E01D2303604E0242EC8
:1030500001D2373600E023267047C0469430000086
:10306000000004686F6C6400330040CF784801783A
:103070003F290DD2013101704018012907D00138D4
:10308000027801300270013801390129F7D103704B
:103090007047C046B4300000000005686F6C643CA7
:1030A000330040CF6A4801783F2902D201310170D4
:1030B00043547047CC3000000000047369676E0011
:1030C000002E01D440CF70472D26CDE7E030000020
:1030D000000002233E005E480678013038607047E9
:1030E000F830000000000366235310B5202400F0E0
:1030F00008F8013CFBD110BD1C3100000000026645
:10310000230000B5043F3E60504E3668FDF70DF9D0
:10311000FFF799FFFFF7C4FF00BDC046383100003C
:1031200000000223530000B500F00AF8002EFBD186
:1031300038680028F8D100BD643100000000012388
:1031400000B5043F3E60414E3668043F3E600026B5
:10315000FDF72DFAFCF7E6FF40CFFFF774FFFFF70E
:1031600083FF00BD783100000000023C2300384896
:10317000002101707047C0468C31000000000266DB
:103180002E00043F3E60202605E0C046DC310000F2
:10319000000003662E6E00B510B4340040CFFDF77A
:1031A000DDFBFDF779F8043F3E600026FFF7DFFF07
:1031B000FFF7B9FF40CF2C26FFF772FF002C03D09A
:1031C000FFF79FFF013CFBD110BC40CFFFF778FF1A
:1031D000043F3E60043F3E601EE0C046F431000004
:1031E00000000375642E00B5FFF7C1FFFFF79BFFDA
:1031F00012E0C04628320000000002642E0000B534
:10320000FDF7ACFBFDF748F8FFF7B1FFFFF78BFFC9
:10321000FDF7AFFBFFF754FFFFF75DFFFEF77AFB0B
:10322000FEF7C2FA00BDC0463C3200000000027545
:103230002E00043F3E600026D5E7C0465432000011
:103240000000012E043F3E60F617D8E7FC1F002067
:10325000240000209C3200000000086576616C7537
:103260006174650000B5FEF738FA01CF01B440B4CF
:1032700040CFC148016802B400210160FEF720FA86
:1032800000F014F8BC4802BC0160043F3E6040BC42
:1032900001BC043F3860FEF713FA00BD143500008E
:1032A000000009696E7465727072657430B5B34858
:1032B00087420BD9FEF7CEFA10537461636B207509
:1032C0006E646572666C6F770A0037E1AC488742BE
:1032D0000AD2FEF7BFFA0F537461636B206F7665F5
:1032E00072666C6F770A29E1A64C2568002D01D122
:1032F0003D002560FFF7C8FD002E02D1043740CF06
:1033000030BD3868043F3E60043F3860FFF75AFA2A
:10331000310040CF320040CF002A13D1386831004D
:10332000FFF70BFE320040CF002AC0D1FEF7F6FABD
:10333000FEF790FA0C206E6F7420666F756E642E27
:103340000A00FBE0904B1B68002B1DD10025256077
:1033500030230B40302B0ED1FEF7DCFAFEF77AFA61
:103360001220697320636F6D70696C652D6F6E6CD0
:10337000792E0A00E2E0043740CF043F3E60160099
:10338000FEF707FEFFF793FF043740CF8020084089
:103390000ED1EB1B9B08402008400FD008200840AE
:1033A00002D0002B00D01DE00F200840834205D33F
:1033B000043F3E601600FEF7ECFD78E700F097F85A
:1033C000043F3E60160010220A4002D0FEF7E1FDE5
:1033D0006DE720220A4002D0FEF731FD67E7FEF7D5
:1033E00013FC64E7072001401000FEF73CFD0129B3
:1033F00015D1012BDCD1FF213140B14204D14088ED
:103400000643FEF724FF52E7043F3E600026FEF726
:1034100073FB043F3E600688FEF719FF47E7022969
:1034200002D1012BC4D1EFE703291CD1012BBFD15D
:10343000FF213140B1420AD154490E43FEF707FF44
:103440000432043F3E601600FEF7F9FC2FE7043F0C
:103450003E600026FEF750FB0232043F3E6016003D
:10346000FEF7EDFC23E7042918D1012BA0D133008E
:1034700040CF002B00D11AE71F221A409A4205D0F4
:10348000043F3E604688FEF7E2FE10E7043F3E60E0
:1034900006889B011E43FEF7DAFE08E7052923D1C3
:1034A000012B0FD1043F3E600026FEF725FB043FB1
:1034B0003E600600FEF7C3FC043F3E60344EFEF75C
:1034C000C6FEF4E6043F3E600026FEF715FB043F0F
:1034D0003E600126FEF710FBFEF7C5FC043F3E6090
:1034E0000600FEF7ACFCE2E601308047DFE600B5FF
:1034F000002B0BD0013B043F3E609E00BE59FEF7FF
:10350000BDFB002BF6D1043D2F0040CF00252560E8
:1035100000BDC04630350000810009686F6F6B2D1B
:1035200071756974043F3E601A4E7047643500003F
:10353000A8350000000004717569740016488546BE
:103540000E4F16480A2101600F48002101600D4806
:1035500001600948016012480160124941600D484C
:1035600000688746FEF7C8F8FFF7A0FEFEF772F97D
:1035700005206F6B2E0AF5E7E41F00202C020020C7
:103580002C01002008000020D81F0020003E000071
:1035900040CF0000D41F00202C030020FC1F00207F
:1035A000DC1F002064000020B83500002000046506
:1035B000696E740062B67047C8350000200004646C
:1035C000696E740072B67047E0350000200004692F
:1035D00070737200043F3E60EFF305867047C0468B
:1035E000EC3500000000036E6F707047303600004D
:1035F000000009756E68616E646C656400B5FEF765
:1036000029F914556E68616E646C656420496E74A6
:103610006572727570742000043F3E60EFF305869A
:10362000FEF790F9FEF716F902210A0000BDC04628
:103630005436000081000B6972712D7379737469BF
:10364000636B043F3E60AB4E7047FC350000A948F9
:1036500000688746783600008100096972712D661E
:1036600061756C74043F3E60A34E7047FC350000EA
:10367000A14800688746C046A036000081000E6958
:1036800072712D636F6C6C656374696F6E00043FBB
:103690003E609A4E7047FC350000984800688746A7
:1036A000C436000081000B6972712D657874693031
:1036B0005F31043F3E60924E7047FC3500009048F9
:1036C00000688746E836000081000B6972712D653D
:1036D000787469325F33043F3E608A4E7047FC3530
:1036E00000008848006887461037000081000C6998
:1036F00072712D65787469345F313500043F3E6026
:10370000814E7047FC3500007F4800688746C04600
:10371000303700008100076972712D616463043FD6
:103720003E607A4E7047FC35000078480068874656
:103730005437000081000B6972712D74696D315F1F
:103740007570043F3E60724E7047FC350000704853
:10375000006887467837000081000B6972712D740C
:10376000696D315F6363043F3E606A4E7047FC35AC
:1037700000006848006887469C370000810008699F
:1037800072712D74696D3200043F3E60624E704765
:10379000FC350000604800688746C046C03700001E
:1037A0008100086972712D74696D3300043F3E60B9
:1037B0005A4E7047FC350000584800688746C0469E
:1037C00000400000FFFF182D2D2D20466C6173680E
:1037D0002044696374696F6E617279202D2D2D000C
:1037E000FDF7DAFD4E4885464E4F2A264E484C4995
:1037F00001604E484E490160043F3E604C4E4D4DC5
:10380000B1884D4B994224D04C4B0B400AD0B01D8F
:10381000FEF7C8FFFEF727FB038840880004034338
:10382000ED1A16E080230B4013D00F2319408900B6
:103830006D1AB01DFEF7B6FFFEF715FB043F3E60A4
:103840000600043F3E602E00043F3E600E00FDF780
:1038500033FAFEF784FF300040CFD1D038480660FD
:1038600040CF3848056038483849334A884204D048
:10387000023803889342F9D0023035490860FDF7D9
:10388000E9FF444D6563726973702D5374656C6C08
:103890006172697320322E302E322077697468206D
:1038A0004D3020636F726520666F722053544D3324
:1038B0003246303531206279204D61747468696117
:1038C00073204B6F63680A00224800210160043FA7
:1038D0003E60214E043F3E600426FEF773FF40CF5A
:1038E000002E02D0FEF755FB39E640CF26E6696E82
:1038F00069740000D01F0020CC1F0020C81F0020CA
:10390000C41F0020C01F0020BC1F0020B81F0020C3
:10391000B41F0020B01F0020AC1F0020A81F0020F3
:103920002C0300202C0200200000002004000020B6
:10393000C400000000200020FFFF00000001000084
:1039400018000020200000200000010000400000BE
:0C3950001400002008000020EE380000E9
:0400000508000000EF
:00000001FF
