:020000040800F2
:100000002C0300201F3800005F3600005F36000020
:100010005F3600005F3600005F3600000000000021
:100020000000000000000000000000008D3600000D
:100030008D360000000000008D36000037360000CD
:100040008D3600008D3600008D3600008D360000A4
:100050008D3600008D360000B5360000DD3600001C
:10006000053700002D370000553700008D360000A1
:100070008D3600008D3600008D3600008D36000074
:100080008D3600008D3600007B3700008D36000075
:100090008D3600008D3600008D3600008D36000054
:1000A0008D3600008D3600008D3600008D36000044
:1000B000A3370000CB370000F33700008D36000077
:1000C0008D3600008D3600008D3600008D36000024
:1000D0008D3600008D3600008D3600008D36000014
:1000E0008D3600008D3600008D3600008D36000004
:1000F0008D3600008D3600008D3600008D360000F4
:100100008D3600008D3600008D3600008D360000E3
:100110008D3600008D3600008D3600008D360000D3
:100120008D3600008D3600008D3600008D360000C3
:100130008D3600008D3600008D3600008D360000B3
:100140008D3600008D3600008D3600008D360000A3
:100150008D3600008D3600008D3600008D36000093
:100160008D3600008D3600008D3600008D36000083
:100170008D3600008D3600008D3600008D36000073
:100180008D3600008D360000AE010000FFFF1E2DF1
:100190002D2D204D6563726973702D5374656C6CE1
:1001A0006172697320436F7265202D2D2D00C60189
:1001B00000004200043264757000386847F8046D2E
:1001C000043F38607047D801000062000532647255
:1001D0006F70043740CF7047F601000044000532CD
:1001E0007377617007CF043F386047F8046D043FB0
:1001F0003A600E0070470A020000620004326E6925
:10020000700007CF043F38607047240200004400AC
:1002100005326F766572B86847F8046D043F386040
:10022000FE68704748020000440005327475636B35
:1002300007CF043F386047F8046D043F3A60043F3D
:100240003960043F386070476A020000460004329B
:10025000726F74003868B9683A69B86039613A6099
:1002600079687E60FE68F96070478C020000460085
:1002700005322D726F743868B9683A69386139602F
:10028000BA60F968FE607E6879607047A00200007D
:10029000200003323E7201CF01B440B440CF70471A
:1002A000B802000020000332723E47F8046D40BCE3
:1002B00001BC043F38607047D002000020000332C8
:1002C000724047F8046D019E47F8046D009E704728
:1002D000E2020000200006327264726F700002B009
:1002E0007047FA02000042000364322F3868F107B9
:1002F000761040080843386070470E030000620023
:100300000364322A38680018764138607047280341
:10031000000042000464736872003868F1077608D0
:1003200040080843386070473E03000062000464E0
:1003300073686C0038680018764138607047500365
:1003400000004200046461627300002E14D4704700
:100350006A0300004300083F646E656761746500CE
:10036000300040CF002807D47047880300004200C7
:1003700007646E656761746538680021C043F643A1
:1003800001304E4138607047A003000064000264F1
:100390002D0007CF121AB1410E00043F3A6070479A
:1003A000B6030000640002642B0007CF12184E4110
:1003B000043F3A607047C8030000610003733E6465
:1003C00047F8046DF6177047DC0300006200037500
:1003D0006D2A3868A0FB060638607047F0030000FD
:1003E0006200026D2A00386880FB0606386070479C
:1003F0002E04000044000375642A07CF564341438E
:100400007618010C130C59437618010C80B292B285
:100410005143434350430022C91852411204B618B5
:100420000A04090C80184E41043F38607047C0042C
:10043000000044000475646D2A0010B5002447F8DC
:10044000046D7E6847F8046D3E69FFF7C2FF310016
:1004500040CF300040CF47F8046D3E6847F8046D48
:10046000FE6803B4FFF7B5FF03BC330040CF320092
:1004700040CF47F8046D3E6847F8046D3E690FB4FD
:10048000FFF7A7FF0FBC9219634140CF8919624162
:10049000634140CF47F8046D7E6847F8046DFE68FD
:1004A0000FB4FFF796FF0FBC9219634140CF891933
:1004B0006241634140CF1E003A607960B86010BD70
:1004C000E20400004300022A2F0000B540B440CFF0
:1004D000FFF789FF47F8046D40BC00F062F804376D
:1004E00000BD040500004300052A2F6D6F6400B5B0
:1004F00040B440CFFFF777FF47F8046D40BC00F0F1
:1005000050F800BD26050000430003752A2F00B5F2
:1005100040B440CFFFF75DFF47F8046D40BC00F0EA
:100520001BF8043700BD4A050000430006752A2F5A
:100530006D6F640000B540B440CFFFF74AFF47F845
:10054000046D40BC00F008F800BD960500004300B3
:1005500006756D2F6D6F640010B4786839680022DD
:10056000002420236400001849415241964201D8DA
:10057000921B0134013BF5D12023640049185241FC
:10058000964201D8921B0134013BF6D104373A6000
:10059000260010BC70470A0600004300056D2F6D51
:1005A0006F6400B5F01718D0764200F019FAF01712
:1005B0000DD0FFF7E1FE00F007FAFFF7CDFF396835
:1005C0003E600E46764239683E600E4600BD00F041
:1005D000FBF9FFF7C1FF764200BD00F001FAF0170A
:1005E0000ED0FFF7C9FE00F0EFF9FFF7B5FF764236
:1005F00039683E600E46764239683E600E4600BD60
:1006000000F0E2F9FFF7A8FF00BD66060000440015
:100610000675642F6D6F640030B43C68B868796803
:100620000022002520236D000018494152419442C8
:1006300001D8121B0135013BF5D120B40025202043
:100640006D00491852415B419E4204D8944202D841
:10065000121BB34101350138F2D13D60BA607B60B5
:1006600040BC30BC7047DC060000440005642F6DC0
:100670006F6400B5F01719D0FFF77EFEFFF7B2FDEB
:10068000F0170CD0FFF778FEFFF7ACFDFFF7C4FFC3
:10069000FFF7A8FDFFF770FEFFF7A4FD00BDFFF711
:1006A000A1FDFFF7B9FFFFF767FE00BDFFF79AFD59
:1006B000F0170ED0FFF760FEFFF794FDFFF7ACFFD9
:1006C000FFF75AFEFFF78EFDFFF756FEFFF78AFD94
:1006D00000BDFFF787FDFFF79FFF00BDF20600009A
:1006E000440002642F0000B5FFF7C3FFFFF789FD48
:1006F00000BD8A070000440002662A0000B5F0171A
:100700000DD0FFF739FEFFF76DFDF0170DD0FFF7A5
:1007100033FEFFF792FE40CF01CF386000BDFFF7F8
:1007200061FDF017F5D0FFF727FEFFF786FE40CFFB
:1007300001CF3860FFF720FE00BD30B43C68B968D7
:100740007A680023002520206D00491852415B4142
:100750009E4204D8944202D8121BB341013501389D
:10076000F2D1290020206D0092185B419E4204D8EE
:10077000944202D8121BB34101350138F3D13D60D8
:10078000BA607B600E0030BC7047D60700004400A2
:1007900002662F0000B5F0170ED0FFF7EDFDFFF752
:1007A00021FDF0170ED0FFF7E7FDFFF71BFDFFF768
:1007B000C4FFFFF726FD00BDFFF714FDF017F4D0CE
:1007C000FFF7DAFDFFF70EFDFFF7B7FFFFF7D4FDE8
:1007D000FFF717FD00BDEA070000200002322100EC
:1007E00006CF3160726040CF7047FE0700002000E6
:1007F00002324000043F70683860366870471E0857
:10080000000044000364753C07CF8E4204D801D138
:10081000904201D8002670470026F64370473E08F4
:10082000000044000364753E07CFB14204D801D1F3
:10083000824201D8002670470026F64370475E08C2
:100840000000440002643C0007CF8E4204DC01D16A
:10085000904201DC002670470026F64370477E0870
:100860000000440002643E0007CFB14204DC01D125
:10087000824201DC002670470026F64370478E084E
:10088000000062000364303C0437F6177047A80884
:10089000000042000364303D01CF002801D0002653
:1008A0007047013EB6417047C2080000440003642F
:1008B0003C3E07CF904201D1761A01D00026F64384
:1008C0007047DE080000440002643D0007CF9042FC
:1008D00001D000267047761A013EB6417047F008F5
:1008E000000020000373704047F8046D3E0070471D
:1008F00000090000200003737021370040CF7047CB
:100900001209000020000372704047F8046D6E4623
:10091000704722090000200003727021B54640CFC5
:1009200070473C0900000000056465707468E54983
:10093000C91B890847F8046D0E0070474C09000078
:1009400061000364757047F8046D70475C0900002E
:1009500061000464726F700040CF7047720900003C
:100960006100043F64757000002E01D047F8046DEB
:10097000704786090000620004737761700039686F
:100980003E600E007047940900006200036E6970BB
:1009900004377047A80900006200046F7665720092
:1009A00047F8046D7E687047BE0900006200047459
:1009B00075636B0001CF083F7E6038607047D409D3
:1009C0000000630003726F7403CF083F78603E60DD
:1009D0000E007047EC0900006300042D726F740074
:1009E00003CF083F7E60396006007047FE090000B3
:1009F0002000047069636B0057F8266070470E0A88
:100A000000002000023E720040B440CF7047200A30
:100A10000000200002723E0047F8046D40BC7047A1
:100A2000320A000020000272400047F8046D009E68
:100A30007047420A00002000057264726F7001B0B6
:100A40007047580A0000600004747275650047F82A
:100A5000046D0026F64370476C0A000060000566CE
:100A6000616C736547F8046D00267047820A0000C8
:100A70006E0003616E6401CF0640704706400006B9
:100A800016F09A0A00006E000362696301CFB0435A
:100A9000060070478643000636F0B00A00006E007C
:100AA000026F720001CF064370470643000656F0FE
:100AB000C60A00006E0003786F7201CF464070478F
:100AC0004640000696F0D40A00006100036E6F7481
:100AD000F6437047E40A0000610003636C7AB6FADB
:100AE00086F67047F20A00006100037368727608A8
:100AF0007047000B000061000373686C760070475C
:100B0000100B0000610003726F725FEA7606704797
:100B1000220B0000610003726F6CB61956F10006DB
:100B200070473C0B00006C000672736869667400C5
:100B300001CFF0400600704736080026560B000033
:100B40006C00076172736869667401CF30410600FA
:100B500070473610F617700B00006C00066C736857
:100B60006966740001CFB040060070473600002669
:100B7000800B0000610002303D00013EB64170472D
:100B8000920B0000610003303C3E013EB641F6434B
:100B90007047A00B0000610002303C00F617704760
:100BA000B80B00004200023E3D0001CFB042B4BF8E
:100BB00000264FF0FF367047D00B00004200023C89
:100BC0003D0001CFB042CCBF00264FF0FF3670474A
:100BD000E60B00004200013C01CFB042B4BF4FF031
:100BE000FF3600267047FC0B00004200013E01CF9B
:100BF000B042CCBF4FF0FF3600267047100C00000B
:100C0000620003753E3D01CF861BB641F643704737
:100C1000240C0000620003753C3D01CF361AB6413A
:100C2000F6437047360C0000620002753C0001CFAD
:100C3000861BB6417047480C0000620002753E00FA
:100C400001CF361AB64170475E0C00006B00023CC3
:100C50003E0001CF361A18BF4FF0FF367047700CB8
:100C600000006B00013D01CF361A013EB6417047CE
:100C7000840C00006200036D696E01CFB042B8BF02
:100C800006467047980C00006200036D617801CF42
:100C9000B042C8BF06467047AE0C00006200047543
:100CA0006D61780001CFB04288BF06467047C80C1E
:100CB0000000620004756D696E0001CFB04238BF5C
:100CC000064670472C020020060D00000000046D4F
:100CD0006F76650007B5310040CF320040CF002964
:100CE0000FD0B2420DD006D3013E013A705C505491
:100CF0000139FBD105E0307810700136013201393D
:100D0000F9D140CF07BD280D000000000466696CD2
:100D10006C00300040CF310040CF002902D00139B3
:100D20007054FCD140CF7047340D000020000140CA
:100D3000366870474C0D00006D00012103CF306014
:100D40000E0070470660704701607047720D00002A
:100D50006D00022B210003CF3268121832600E00A2
:100D60007047026892190260704702685218026068
:100D70007047800D000020000268400036887047F0
:100D80009A0D00006D000268210003CF30800E0034
:100D900070470680704701807047C00D00006D00ED
:100DA00003682B2103CF3288121832800E0070475F
:100DB0000288921902807047028852180280704798
:100DC000CE0D000020000263400036787047E80D29
:100DD00000006D000263210003CF30700E007047E9
:100DE00006707047017070470E0E00006D000363BF
:100DF0002B2103CF3278121832700E007047027820
:100E00009219027070470278521802707047360EBD
:100E100000006D0004626973210003CF3268024351
:100E200032600E0070470268324302607047026809
:100E30000A43026070475E0E00006D000462696341
:100E4000210003CF3268824332600E00704702688F
:100E5000B2430260704702688A4302607047860EA0
:100E600000006D0004786F72210003CF32684240A9
:100E700032600E007047026872400260704702687C
:100E80004A4002607047A00E0000200004626974AE
:100E9000400001CF3668064018BF4FF0FF3670475C
:100EA000C80E00006D0005686269732103CF3288A7
:100EB000024332800E00704702883243028070473E
:100EC00002880A4302807047F00E00006D0005683A
:100ED0006269632103CF3288824332800E007047FB
:100EE0000288B2430280704702888A4302807047BA
:100EF000180F00006D000568786F722103CF3288EB
:100F0000424032800E007047028872400280704773
:100F100002884A4002807047320F000020000568B6
:100F20006269744001CF3688064018BF4FF0FF3623
:100F300070475A0F00006D0005636269732103CF8B
:100F40003278024332700E007047027832430270EA
:100F5000704702780A4302707047820F00006D00EC
:100F600005636269632103CF3278824332700E00D9
:100F700070470278B2430270704702788A43027069
:100F80007047AA0F00006D000563786F722103CFD0
:100F90003278424032700E00704702787240027020
:100FA000704702784A4002707047C40F000020006A
:100FB00005636269744001CF3678064018BF4FF070
:100FC000FF367047D40F000061000563656C6C2B21
:100FD00004367047E40F000061000563656C6C73B4
:100FE000B60070477810000000000768666C6173F7
:100FF0006821300040CF310040CF594B984221D377
:10100000584B98421ED2584B1940994219D0012290
:101010000240002A16D102889A4213D1534A8018FE
:10102000534A544B1360544B1360544A01231360CA
:101030000180534A136801201840FBD14F4A802396
:101040001360704700F0B0FB2A57726F6E67206123
:10105000646472657373206F7220646174612066CA
:101060006F722077726974696E6720666C6173684D
:1010700020210A0002F058BAC610000000000E66D7
:101080006C617368706167656572617365000FB547
:10109000300040CF324B984214D3354A354B136061
:1010A000354B1360354A02231360364A1060334AC9
:1010B00042231360324A136801201840FBD12F4AA3
:1010C000802313600FBD4211000000000A657261A9
:1010D0007365666C61736800214872B62149224AC3
:1010E000038893421CD047F8046D060047F8046D4E
:1010F00000F05AFB10457261736520626C6F636B80
:1011000020617420200000F0C2FB00F04DFB0C2099
:1011100066726F6D20466C6173680A00FFF7B7FF57
:1011200002308842DCD100F03FFB1246696E6973E1
:101130006865642E20526573657420210A0002F0F0
:1011400070FB8811000000000E6572617365666CAB
:1011500061736866726F6D00300040CFBDE70000BC
:101160000040000000000400FFFF00000000000835
:101170000420024023016745AB89EFCD10200240D7
:101180000C200240142002409E1100006900012B37
:1011900001CF3618704736180036000616F1B41124
:1011A00000006900012D01CF861B7047361A003EF2
:1011B0000006B6F1C2110000610002312D00013EAF
:1011C0007047D0110000610002312B0001367047DA
:1011D000DE110000610002322D00023E7047EC116A
:1011E0000000610002322B0002367047FE11000041
:1011F0006100066E65676174650076427047121281
:101200000000610003616273002E48BFD6F1000642
:10121000704730120000420005752F6D6F6401CFDA
:101220003100B0FBF6F67143401A043F3860704756
:101230004E1200004200042F6D6F640001CF310098
:1012400090FBF6F67143401A043F38607047621213
:1012500000004200036D6F6400B5FFF7EFFF40CF61
:1012600000BD721200006200012F01CF90FBF6F664
:101270007047821200006A00012A01CF464370477E
:10128000464390120000610002322A007600704747
:101290009E120000610002322F0076107047B212D9
:1012A00000006100046576656E000120304036184C
:1012B0007047CA120000810004626173650047F83C
:1012C000046D114E70470A000000E012000000009B
:1012D0000662696E617279000B48022101607047F5
:1012E000F6120000000007646563696D616C0648D2
:1012F0000A2101607047321300000000036865781E
:101300000148102101607047FC9F00207349744818
:1013100008607449744808607449754808607549E4
:101320007548086075494620086075497548086029
:1013300070474E130000810009686F6F6B2D656D5B
:10134000697447F8046D704E7047441400006A13C6
:101350000000810008686F6F6B2D6B65790047F89E
:10136000046D6A4E70476A14000088130000810003
:101370000A686F6F6B2D656D69743F0047F8046DE7
:10138000634E704794140000A413000081000968A4
:101390006F6F6B2D6B65793F47F8046D5D4E70473D
:1013A000C0140000C213000081000A686F6F6B2D2B
:1013B00070617573650047F8046D574E7047D435FA
:1013C0000000D8130000000004656D6974000FB5BB
:1013D0004D4800F02CF80FBDEC1300000000036B2B
:1013E00065790FB5494800F022F80FBD02140000DE
:1013F000000005656D69743F00B5454800F017F8B9
:1014000000BD181400000000046B65793F0000B5B2
:10141000404800F00CF800BD3214000000000570D8
:101420006175736500B53C4800F001F800BD0068C7
:1014300087465814000000000B73657269616C2DBB
:10144000656D697400B500F025F8002E40CFFAD024
:10145000324A167040CF00BD8014000000000A73AD
:10146000657269616C2D6B65790000B500F028F834
:10147000002E40CFFAD047F8046D294A167800BDF7
:10148000AE14000000000C73657269616C2D656D0F
:1014900069743F0000B5FFF7C5FF47F8046D0026EB
:1014A000204801688020014000D0F64300BD281587
:1014B000000000000B73657269616C2D6B65793FEC
:1014C00000B5FFF7AFFF47F8046D00261548016827
:1014D0002020014000D0F64300BD0000141002405F
:1014E00014007E0018100240004000000000004878
:1014F000000028A824000048700700000C380140B4
:10150000003801400D000000F89F0020F49F0020EB
:10151000F09F0020EC9F0020E89F00202838014029
:10152000243801401C3801404C15000000000763BE
:1015300065787065637400B5386801B4013038604F
:1015400000F00BF801BC067040CF00BDBE150000D6
:101550000000066163636570740000B502CF013955
:101560000022FFF73EFF300040CF202819D2092883
:1015700016D00A281FD00D281DD00828F1D1002A26
:10158000EFD000F011F903082008002AE9D0885CA8
:10159000013A80230340E4D040230340F5D0E0E744
:1015A0002020B242DDD247F8046D0600FFF70FFF9E
:1015B00001328854D5E7160000F0A2F800BDD0151E
:1015C000000040000374696247F8046D294E7047BB
:1015D000E61500008100033E696E47F8046D264E53
:1015E0007047000000000C16000082000E63757248
:1015F00072656E742D736F757263650047F8046DC4
:101600001E4E7047000000006400002028160000F5
:10161000000009736574736F75726365174802CFB4
:101620000660416040CF7047461600000000067318
:101630006F757263650047F8046D104E043F706863
:1016400038603668704780160000000005717565C7
:1016500072790FB5084800210160FFF7B5FF47F820
:10166000046D47F8046DC826FFF777FFFFF7D6FF34
:101670000FBD000064000020E49F0020DC9F0020DC
:10168000CE160000000007636F6D706172650FB5C4
:10169000310040CF01CF884202D040CF00260FBD9D
:1016A00002CF002810D001380A5C335C412A02D3F3
:1016B0005B2A38BF2032412B02D35B2B38BF20334B
:1016C0009A42EED000260FBD0026F6430FBDE2166B
:1016D000000000000263720000B500F065F8010A26
:1016E00000BDF4160000000002626C0047F8046DB3
:1016F00020267047081700000000057370616365BD
:1017000047F8046D202662E62E17000000000673DD
:1017100070616365730000B5002E06DD47F8046D47
:101720002026FFF754FE013EF8D140CF00BD3E1702
:1017300000005000065B636861725D0005E05617AB
:101740000000000004636861720000B501F078FBDE
:1017500040CF367800BD661700005000012847F8DA
:10176000046D292606E0801700005000015C47F850
:10177000046D002600B501F06DFB043740CF00BDBD
:10178000C41700001000022E22009D4800B547F843
:10179000046D060000F061FA47F8046D222601F09E
:1017A00059FB00F073FD00BD0AB447F8046D76469E
:1017B000013E33780121013319405B181EEB030E03
:1017C0000ABC39E0EA1700001000026322008D48CD
:1017D000DCE747F8046D7646013E3378012101339A
:1017E00019405B181EEB030E704714180000100020
:1017F000027322008448C9E747F8046D764647F82B
:10180000046D013E36780121731C19405B181EEBF4
:10181000030E70472C180000000005636F756E748E
:10182000013647F8046D013E3678704754180000C1
:10183000000005637479706501B53078002807D021
:10184000013647F8046D3678FFF7C1FD0138F7D14E
:1018500040CF01BD8218000000000474797065005B
:10186000310040CF300040CF00B5002908D0002221
:1018700047F8046D865CFFF7AAFD01329142F7D16B
:1018800000BDBA1800000000046865782E0003B59A
:10189000310040CF2020043847F8046D31FA00F6BB
:1018A00016F00F06092E8CBF37363036FFF78FFD46
:1018B0000028F0D1FFF724FF03BDCA180000000084
:1018C00003682E731FB5514C0EE0DA1800000000BB
:1018D00003752E731FB54E4C06E05819000000002A
:1018E000022E73001FB54B4C4B49C91B89084B4A4C
:1018F000106803B40A201060FFF756FF08537461A4
:10190000636B3A205B0047F8046D0E0001F06AFC3F
:10191000FFF74AFF025D200003BC404A1060002927
:101920000AD03F4A106806B447F8046D0600A04785
:1019300006BC043A0139F5D1FFF736FF0620544FB3
:10194000533A200047F8046D3600A047FFF72CFFFC
:1019500004202A3E0A001FBD241A0000000005775B
:101960006F72647300B5FFF71FFF06776F726473C1
:101970000A0000F0C0FEFFF717FF094164647265BA
:1019800073733A2047F8046DFFF781FFFFF70CFFF0
:10199000064C696E6B3A200047F8046D3668FFF715
:1019A00076FFFFF701FF07466C6167733A2047F83F
:1019B000046DB688FFF76BFFFFF7F6FE06436F6412
:1019C000653A2000B01D00F0CFFE47F8046D060018
:1019D000FFF75DFFFFF7E8FE064E616D653A2000F8
:1019E00047F8046D0636FFF727FFFFF7DDFE010A13
:1019F00000F098FE300040CFBDD040CF00BD0000C9
:101A0000A8170000D2170000F81700008F18000078
:101A1000D5310000E53100002C020020FC9F0020A1
:101A200028020020881B000000000D31326269741A
:101A3000656E636F64696E670FB5FF2E04D847F853
:101A4000046D5FF0FF360FBD16F0FF10B0420ED1EF
:101A50004FF6FF710840310C814208D116F0FF06A5
:101A600056F4805647F8046D5FF0FF360FBD16F050
:101A7000FF20B0420FD14FF6FF710840310C814278
:101A800009D1360A16F0FF0656F4005647F8046DE1
:101A90005FF0FF360FBDFF2231001140300A1040C9
:101AA000884210D1300C104088420CD1300E1040CA
:101AB000884208D116F0FF0656F4405647F8046DE8
:101AC0005FF0FF360FBD300000210131001850F1EA
:101AD00000007FF07F020240802A05D01F29F4D346
:101AE00047F8046D00260FBD0829F9D3060036F02B
:101AF000800611F00100C001064311F00E00C00283
:101B0000064311F010008005064347F8046D5FF0AE
:101B1000FF360FBD47F8046DDFF8C0655FF4704114
:101B200010EA0102120116435FF4006110EA01029B
:101B3000D20316435FF4E06110EA0102120116437A
:101B4000FF2110EA010216431E438FE347F8046D9C
:101B5000DFF88C655FF0704110EA0102120B16434A
:101B60005FF0006110EA0102520816435FF0E06185
:101B700010EA0102120B16435FF47F0110EA010222
:101B8000120C16431E4371E3EE1B0000000010729E
:101B9000656769737465726C69746572616C2C0039
:101BA0000FB5330040CF1B02FF2E05D856F4005668
:101BB0001E4300F034FB0FBDFFF73EFF002E40CF69
:101BC00006D0DFF8200506431E4300F04FFB0FBD93
:101BD000F643FFF731FF002E40CF06D0DFF80805AF
:101BE00006431E4300F042FB0FBDF6430BE04E1CC4
:101BF00000000000096D6F76776D6F76742C0FB55D
:101C0000330040CF1B02300040CFFFF783FF4FF679
:101C1000FF7110EA014001D0FFF798FF0FBD0FB52B
:101C20000136300040CF0023FFF774FFFFF78EFF2F
:101C300006E00FB5013647F8046D0026FFF7B0FF48
:101C400047F8046D44F2807600F0E9FA0FBDB41C49
:101C5000000000000563616C6C2C0FB5330000F0D0
:101C600026FE300040CF1B1A043BDFF880141940D9
:101C7000002906D0DFF87824914202D0BDE80F4059
:101C8000D7E740CF5B08DFF86C0440F2FF711940E2
:101C90000843DB0A40F2FF311940090408439B0A5C
:101CA00013F001018906084347F8046D060000F0AF
:101CB000DDFA0FBDEA1C00000000086C6974657253
:101CC000616C2C0008B547F8046D4FF6470600F02C
:101CD000A6FA47F8046D46F6045600F0A0FA47F855
:101CE000046D0626FFF75CFF08BD0E1D0000000016
:101CF000066372656174650000B500F033F841F663
:101D00002B50804747F8046DBEF1010600BD561DFB
:101D10000000200005646F65733E41F62B5080473C
:101D200047F8046DBEF10106704747F8046DBEF137
:101D3000010600F0AFF8F04A1368310040CF0220EE
:101D4000084000D0023102311160FFF768FF1360D4
:101D500000F0E5F900BD981D00000000073C627529
:101D6000696C647300B500F05BFB00F0A0FD02201D
:101D7000064040CF04D047F8046D362600F04FFAF5
:101D800047F8046D4BF2005600F049FA47F8046D2D
:101D90000A2600F0AEFA00BDA41D00005000035B4F
:101DA000275D03E0BA1D00000000012700B501F027
:101DB00047F800F017FD40CF00BD001E00001000E6
:101DC00008706F7374706F6E650000B501F038F8BD
:101DD00000F008FD300040CF102101400DD120213E
:101DE000014005D0FFF76EFF47F8046DC34E04E0D5
:101DF000FFF768FF47F8046DC14EFFF72EFF00BDE7
:101E0000561E0000000007696E6C696E652C00B5F7
:101E10004BF200514BF6005244F270733088884206
:101E200008D0904208D0984206D047F8046D0600CA
:101E300000F0F5F90236F1E740CF00BD0EB44BF6E5
:101E4000005244F2707301880230914201D09942ED
:101E5000F9D10EBC70476C1E00000000047265745E
:101E60002C0047F8046D4BF60056D8E17A1E0000AE
:101E70003000046578697400F3E7B01E000030009C
:101E8000077265637572736500B500F003F8FFF7BC
:101E9000E4FE00BD0FB59B480068063001780131B3
:101EA00001220A408918401847F8046D06000FBD4A
:101EB000C81E0000810005737461746547F8046DE5
:101EC000914E704700000000DA1E00000000015D26
:101ED0008D480021C94301607047EA1E00001000D0
:101EE000015B8948002101607047121F000000005B
:101EF000013A00B58548076000F092FA47F8046D92
:101F00004BF2005600F08BF97F480021C943016075
:101F100000BD5A1F00003000013B00B57B4801683E
:101F2000B9420ED0FFF740FC1520537461636B205B
:101F30006E6F742062616C616E6365642E0A01F0DD
:101F4000F3BA47F8046D4BF6005600F068F900F05C
:101F5000E6F86D480021016000BD701F0000000020
:101F60000765786563757465300040CF013087463A
:101F7000881F0000100009696D6D656469617465F2
:101F800047F8046D1026F9E09E1F00001000066956
:101F90006E6C696E650047F8046D2026EEE0B81F90
:101FA000000010000B636F6D70696C656F6E6C796B
:101FB00047F8046D3026E1E0D21F000010000A301F
:101FC0002D666F6C6461626C650047F8046D402695
:101FD000D4E0EC1F000010000A312D666F6C6461C4
:101FE000626C650047F8046D4126C7E006200000DA
:101FF00010000A322D666F6C6461626C650047F8F0
:10200000046D4226BAE02020000010000A332D663D
:102010006F6C6461626C650047F8046D4326ADE047
:102020003A20000010000A342D666F6C6461626C07
:10203000650047F8046D4426A0E05420000010001D
:102040000A352D666F6C6461626C650047F8046D3B
:10205000452693E06E20000010000A362D666F6C56
:102060006461626C650047F8046D462686E088204E
:10207000000010000A372D666F6C6461626C6500A9
:1020800047F8046D472679E0B82000000000086397
:102090006F6E7374616E740000B500F0C1F9FFF7E4
:1020A00011FE47F8046D44F2707600F0B8F8FFF7BF
:1020B0008CFF00F034F800BD102100000000093250
:1020C000636F6E7374616E7400B500F0A9F93968BE
:1020D0003E600E46FFF7F6FDE1E70000000040F22B
:1020E0000000C0F200005FF000007FF00100C0FFC0
:1020F0000000C0FF00F800F0000000200E1E0000ED
:102100005A1C000004000020D89F0020100000206E
:102110006C210000000006736D756467650000B5F2
:1021200023480168224A91421AD202390A88214B77
:102130009A4204D147F8046D1F4E00F070F800F089
:102140005DF81E48006847F8046D06001C490968E0
:102150000431174A1368116000F061F8136000BD84
:1021600000F04CF847F8046D002608E0C421000098
:10217000000008736574666C6167730000B50C48F5
:1021800001680B4A914205D20C4801683143016055
:1021900040CF00BD320040CF0948006804300188BC
:1021A000044B99420CBF11461143018000BD000051
:1021B00000000020FFFF0000000000001C000020C5
:1021C00004000020D2210000000005616C69676EE8
:1021D00014E0EE210000410007616C69676E6564E0
:1021E0000120304036180220304036187047142243
:1021F0000000000007616C69676E342C00B57E48F2
:1022000001680220014004D047F8046D002600F068
:1022100006F800BD48220000000002682C000FB53F
:1022200075480168744A914205D247F8046D0E0062
:10223000FEF7DFFE02E0320040CF0A8047F8046D6F
:10224000022600F056F80FBD622200000000012CAB
:1022500000B547F8046DFFF7E2FF360CFFF7DFFF2C
:1022600000BD7E2200000000033E3C2C00B547F874
:10227000046D360CFFF7D3FFFFF7D1FF00BDE62258
:102280000000000007737472696E672C07B5FF21A8
:10229000314040CF300040CF002905D147F8046DD0
:1022A0000026FFF7BCFF07BD47F8046D067836022D
:1022B0000E43FFF7B4FF0130013902290AD347F872
:1022C000046D4678360202781643FFF7A8FF023005
:1022D0000239F2E7002900D107BD47F8046D0678FE
:1022E000FFF79DFF07BD40230000000005616C6CF7
:1022F0006F7441480168404A91420FD2320040CF8A
:1023000089183E4A914219D3FFF74EFA0B466C6189
:1023100073682066756C6C0A01F006B9320040CF14
:102320008918374A1268914208D3FFF73DFA0952DB
:10233000616D2066756C6C0A01F0F6B8016070473B
:102340006823000000000D636F6D70696C65746F29
:1023500072616D3F47F8046D0026274800682649E2
:10236000884248D3F64370478823000000000C637E
:102370006F6D70696C65746F72616D001E480068E6
:102380001D49884211D370471024000000000E63DD
:102390006F6D70696C65746F666C61736800164868
:1023A00000681549884200D27047164816490268ED
:1023B0000B680A6003601048144902680B680A60E1
:1023C00003600F480068834215D300B5FFF7ECF9AE
:1023D00023205661726961626C657320636F6C6C57
:1023E00069646520776974682064696374696F6ED5
:1023F0006172790A00BD70470000002000000400EF
:1024000020000020040000201800002014000020FC
:10241000F2240000000008286372656174652900D9
:1024200000B500F00DFD002E0ED1FFF7BDF915200F
:10243000437265617465206E65656473206E616DBD
:102440006520210A01F070B8386847F8046D043F30
:10245000386000F098F940CF002E40CF11D0386896
:1024600047F8046D043F3860FFF79EF90952656430
:102470006566696E6520FFF7F3F9FFF795F9022E9F
:102480000A00FFF7BBFE00F012FA8C4800688B4987
:1024900088421CD28A480021016047F8046D062654
:1024A000FFF727FFFEF79CFAFFF7F0FE854801686B
:1024B0000A68854B9A4207D1804A1368116047F831
:1024C000046DFFF7C5FE1360066040CF00BD7D4878
:1024D00047F8046D0668FFF7BBFE47F8046D7B4EB6
:1024E000FFF79DFE7748310040CF0160FFF7CEFE39
:1024F00000BD0A2500000000087661726961626C07
:10250000650047F8046D012613E022250000000055
:1025100009327661726961626C6547F8046D022662
:1025200007E0FC2500000000096E766172696162B7
:102530006C6500B5FFF774FF604801685F4A91421F
:1025400034D20F200640B20061480168891A614AFE
:1025500091420BD2FFF728F90F4E6F7420656E6F12
:102560007567682052414D0A00F0DEBF016047F8F0
:10257000046D0E00FFF7A6FB47F8046D44F2707679
:10258000FFF74DFE300040CF0200002805D00E605E
:102590000431FFF75DFE0138F9D147F8046D80265C
:1025A0001643FFF7EBFDFFF7BAFD00BD00F07FF922
:1025B0000220064040CF04D147F8046D3626FFF7CD
:1025C0002EFE47F8046D444EFFF750FE47F8046DA9
:1025D000424EFFF74BFE47F8046D44F27076FFF76A
:1025E0001EFE300040CF002803D0FFF731FE013837
:1025F000FBD1FFF7EAFCFFF792FD00BDE0260000EB
:102600000000076275666665723A00B5FFF708FF5D
:102610000120304036180220304036182748016823
:10262000264A914228D22A480168891B294A9142A8
:102630000BD2FFF7B9F80F4E6F7420656E6F756798
:10264000682052414D0A00F06FBF016047F8046DE9
:102650000E00FFF737FB47F8046D44F27076FFF782
:10266000DEFDFFF7F5FD47F8046D40F24016FFF779
:1026700085FDFFF754FD00BD00F019F9022006406A
:1026800040CF04D147F8046D3626FFF7C8FD47F860
:10269000046D114EFFF7EAFD47F8046D0F4EFFF78A
:1026A000E5FD47F8046D44F27076FFF7B8FDFFF7DB
:1026B00020FEFFF78AFCFFF732FD00BD000000207E
:1026C0001C00002004000020FFFFFFFFFFFF0000B0
:1026D000200000202C0300203E60043F02367E468E
:1026E0000E27000000000F64696374696F6E6172E9
:1026F00079737461727441480068404947F8046D09
:10270000884201D23E4E70473E4E36687047482799
:10271000000000000E64696374696F6E6172796E07
:102720006578740003B531683748814207D08879ED
:10273000FF2804D00E0047F8046D002603BD47F8BB
:10274000046D0026F64303BD7A27000000000A73DB
:102750006B6970737472696E6700317801310122A0
:102760000A4089187618704706B4017801310122B1
:102770000A408918401806BC704710280000000065
:102780000466696E64003FB500220023350040CF27
:10279000340040CFFFF7AFFF1C48B188884217D004
:1027A00047F8046D0636FFF73BF847F8046D26003E
:1027B00047F8046D2E00FEF76AFF002E40CF07D0C9
:1027C000B01DFFF7D1FF02000B000C48824204D27B
:1027D000FFF7A8FF300040CFDED0160047F8046DA9
:1027E0001E003FBD00B531003868FFF7CCFF3A68E6
:1027F000002A01D100F06AFD00BD000000000020A9
:102800008801000004000020FFFFFFFFFFFF000021
:102810006A280000000006636A756D702C003200A3
:1028200040CF310040CF8B1B043BA3491940002906
:102830000DD0A24881420AD0FEF7B6FF0D4A756D51
:102840007020746F6F206661720A00F06DBE5B10BD
:10285000FF210B40134330001E0000B5984A136857
:102860001060FFF7DCFC136000BDA2280000000030
:10287000056A756D702C310040CF300040CF0B1AC7
:10288000043B90491940002902D08F4A9142D3D18C
:102890005B108E4A134053F4604347F8046D1E00EA
:1028A000DBE7B8280000000004686572650047F89F
:1028B000046D834E36687047B429000000000D6631
:1028C0006C6173687661722D6865726547F8046D96
:1028D0007F4E3668704700B547F8046D42F60066D3
:1028E000FFF79DFC47F8046D4CF64076FFF797FC28
:1028F00000BDDCE700B500F03AF839683E600E46EE
:1029000047F8046D4DF20016FFF789FF00BD00B5D2
:1029100000F02DF839683E600E4647F8046D4DF220
:102920000076FFF77CFF00BD00B5FFF7D4FF00F095
:102930001EF839683E600E4647F8046D4DF20006F9
:10294000FFF76DFF00BD00B500F011F839683E607B
:102950000E46FFF790FF00BD00B5FFF7BCFFFFF785
:10296000A6FF47F8046D0226FFF7C3FC00BD00B5C3
:10297000FFF79DFF47F8046D0226FFF7BAFC00BD84
:1029800000B5FFF794FFFFF776FF00BD00B5FFF736
:102990008EFF47F8046D4DF20006FFF740FF00BDC3
:1029A00000B5FFF784FF47F8046D4DF20016FFF7FE
:1029B00036FF00BDF02900003000047468656E0029
:1029C000052E01D140CFDBE7022E01D140CFDDE75C
:1029D000FEF7EAFE1753747275637475726573209F
:1029E000646F6E2774206D617463680A00F09CBD8B
:1029F0001A2A0000300004656C73650000B5022ED1
:102A0000E6D140CFFFF7B3FF39683E600E46FFF7CF
:102A1000BDFF47F8046D052600BD322A00003000D6
:102A20000269660000B5FFF797FF47F8046D0226BC
:102A300000BD582A000030000672657065617400A0
:102A4000042EC5D140CF39683E600E4600B5FFF771
:102A50007AFFFFF79BFF00BD742A00003000057766
:102A600068696C65012EB3D140CF00B5FFF7DAFF7E
:102A7000023600BD882A0000300005756E74696C4E
:102A8000012EA5D140CF4FE79C2A00003000056100
:102A90006761696E012E9BD140CF54E7D42A0000B4
:102AA000300005626567696E00B5FFF722FF47F8E1
:102AB000046D012600BD000001FFFFFF00FFFFFFC6
:102AC0000000002001F8FFFF00F8FFFFFF070000F3
:102AD00020000020E42A00002000016B47F8046D6C
:102AE000029E7047F42A00002000016A47F8046D36
:102AF000009E7047042B00002000016947F8046D18
:102B000026007047442B00003000056C6561766537
:102B100000B5684801683B00043F1A68043B1A602E
:102B2000043304338B42F8D103B4FFF720FF03BC16
:102B3000330040CF04390B60016004390A68013268
:102B40000A6000BD562B0000200006756E6C6F6F8A
:102B5000700030BC70478E2B00003000052B6C6F6E
:102B60006F70032E00D033E740CF00B547F8046DF7
:102B7000514EFFF74CF9FFF7CAFE1AE014F100447A
:102B8000641BA41940CF2C44A4F100447047D02BFF
:102B900000003000046C6F6F7000032E00D017E748
:102BA00040CF00B547F8046D444EFFF730F9FFF70A
:102BB000A1FE00F023F93F48310040CF016047F803
:102BC000046D3F4EFFF723F900BD0134AC4270475E
:102BD000182C0000780002646F0000B547F8046DFF
:102BE000384EFFF714F93348016847F8046D0E00BA
:102BF00047F8046D00260760FFF77BFE47F8046D79
:102C0000032600BD00B500F02FF8ECE730B4340027
:102C100040CF350040CF7047C82C00007800033FFC
:102C2000646F00B547F8046D264EFFF7F0F847F8DB
:102C3000046D44F2AC26FFF7F2FA1E48016847F82B
:102C4000046D0E00FFF793FE013647F8046D012670
:102C500018480760FFF74DFE47F8046D032600BDD6
:102C600000B500F001F8E2E700B547F8046D4BF25B
:102C70003046FFF7D4FA47F8046D0426FEF790FFBC
:102C8000013B08D047F8046D0526FEF789FF013B9C
:102C900000F023FC00BD47F8046D3526FFF7BFFAAE
:102CA00047F8046D4CF64076FFF7B9FA00F015FCD2
:102CB00000BD00000C0000207C2B0000CA2B00008F
:102CC000522B00000C2C0000E22C000030000463AA
:102CD0006173650047F8046D002647F8046D082607
:102CE0007047F82C00003000033F6F664D4809E044
:102CF000013EB64140CF70479C2D00007800026F26
:102D000066004948082E00D062E640CF00B547F87B
:102D1000046D0600FFF77BF8FFF729FE39683E6077
:102D20000E46013647F8046D092647F8046D4CF647
:102D30004076FFF774FA00BD00B5300040CF013B8C
:102D400001B400F0CAFB01BC082E00D040E640CF21
:102D500047F8046D0600FF213140B14204D13349E8
:102D60000E43FFF75CFAD7E7FEF766FE002E40CF72
:102D700004D02F480643FFF779FACDE747F8046DF2
:102D80000026FEF70DFF47F8046D44F2B026FFF76A
:102D900046FAC1E7300040CFB0427047D22D000064
:102DA000300005656E646F66092E00D010E640CFD6
:102DB00000B540B440CFFFF7DAFD39683E600E46FB
:102DC000FFF7EEFD47F8046D40BC47F8046D082698
:102DD00000BD342E0000300007656E6463617365CA
:102DE000082E00D0F4E540CF00B547F8046D4CF64E
:102DF0004076FFF714FA00F001F800BD00B530008E
:102E000040CF00280DD003B401213140002903D068
:102E1000013EFFF7BBFD01E0FFF7B2FD03BC013847
:102E2000EFE700BDF02C0000942D0000002E000004
:102E3000000FB6F1482E0000000005746F6B656E40
:102E400047F8046D202605E0A42E00000000057060
:102E50006172736510B5FEF7EEFB310040CF3000B4
:102E600040CF0F4A12688418202E07D191420FD00C
:102E7000835CB34202D101328418F7E7914207D054
:102E8000835C0132B342F9D18618361B013E01E062
:102E90008618361B043F3C600148026010BD0000EC
:102EA000E49F0020E22E0000000005646967697459
:102EB000CE4B1B68303E0BD30A2E0BD3073E0A2E97
:102EC00006D3242E06D3203E0A2E01D3242E01D36E
:102ED000002670479E42FBD247F8046D0026F64359
:102EE0007047EC2F00000000066E756D6265720081
:102EF0003FB5310040CF701E0126012204B4BB4B08
:102F00001B680024002500293CD0013001390278DB
:102F10002D2A04D101B00022D24304B4F3E7232ABE
:102F200001D10A23EFE7242A01D11023EBE7252A58
:102F300001D10223E7E72E2A01D10226E3E72C2A5A
:102F400036D047F8046D1600FFF7B4FF002E40CFCF
:102F50002BD047F8046D260047F8046D2E0047F883
:102F6000046D1E0047F8046D00260FB4FDF745FA06
:102F70000FBC350040CF340040CF0022A41955418A
:102F800040CFC0E704BC002A04D50022E443ED434F
:102F90000134554133002600012B02D047F8046D5F
:102FA0002E0047F8046D1E003FBD01B000263FBD56
:102FB0002500002402260029E4D0425C01392E2A93
:102FC000F9D047F8046D1600FFF774FF002E40CFCC
:102FD000EBD0043F3C6047F8046D1E000FB4FDF7D2
:102FE000BBFA0FBC340040CF40CFE4E70C30000008
:102FF0000000062E6469676974000A2E3CBF3036F3
:1030000003E0242E34BF37362326704742300000B9
:10301000000004686F6C6400330040CF744801788E
:103020003F290DD2013101704018012907D0013824
:10303000027801300270013801390129F7D103709B
:10304000704762300000000005686F6C643C33001C
:1030500040CF674801783F2902D2013101704354C3
:1030600070477A3000000000047369676E00002E1C
:1030700001D440CF70472D26CEE78E3000000000EF
:1030800002233E005A480678013038607047A63067
:10309000000000000366235310B5202400F008F858
:1030A000013CFBD110BDC8300000000002662300C7
:1030B00000B547F8046D4D4E3668FDF78AF9FFF705
:1030C0009CFFFFF7C4FF00BDE430000000000223B6
:1030D000530000B500F00AF8002EFBD13868002834
:1030E000F8D100BD103100000000012300B547F801
:1030F000046D3E4E366847F8046D0026FDF78CFAE5
:10310000FDF770F840CFFFF778FFFFF785FF00BDB0
:10311000223100000000023C2300354800210170EC
:10312000704734310000000002662E0047F8046D3D
:10313000202604E082310000000003662E6E00B5F8
:1031400010B4340040CFFDF735FCFDF7FEF847F82A
:10315000046D0026FFF7E1FFFFF7BBFF40CF2C26F1
:10316000FFF775FF002C03D0FFF7A2FF013CFBD156
:1031700010BC40CFFFF77BFF47F8046D47F8046DA4
:103180001CE09831000000000375642E00B5FFF7C5
:10319000C4FFFFF79EFF11E0CA3100000000026487
:1031A0002E0000B5FDF706FCFDF7CFF8FFF7B5FFE1
:1031B000FFF78FFFFDF708FCFFF759FFFFF762FFEE
:1031C000FEF74EFBFEF79CFA00BDDC31000000006C
:1031D00002752E0047F8046D0026D7E7F431000091
:1031E0000000012E47F8046DF617DAE7FC9F002077
:1031F000240000203C3200000000086576616C75F8
:103200006174650000B5FEF716FA01CF01B440B451
:1032100040CFD448016802B400210160FEF7FEF9F6
:1032200000F014F8CF4802BC016047F8046D40BCC0
:1032300001BC043F3860FEF7F1F900BD0035000025
:10324000000009696E7465727072657430B5C648A5
:1032500087420BD9FEF7A8FA10537461636B20758F
:103260006E646572666C6F770A005DE1BF488742E5
:103270000AD2FEF799FA0F537461636B206F76657B
:1032800072666C6F770A4FE1B94C2568002D01D149
:103290003D002560FFF7D4FD002E02D1043740CF5A
:1032A00030BD386847F8046D043F3860FFF76BFAAB
:1032B000310040CF320040CF002A13D138683100AE
:1032C000FFF716FE320040CF002AC0D1FEF7CCFA3D
:1032D000FEF76AFA0C206E6F7420666F756E642EAE
:1032E0000A0021E1A34B1B68002B1DD1002525609E
:1032F00030230B40302B0ED1FEF7B2FAFEF754FA12
:103300001220697320636F6D70696C652D6F6E6C30
:10331000792E0A0008E1043740CF47F8046D160003
:10332000FEF722FEFFF793FF043740CF80200840CE
:103330000ED1EB1B9B08402008400FD0082008400E
:1033400002D0002B00D01DE00F200840834205D39F
:1033500047F8046D1600FEF707FE78E700F0BDF8A9
:1033600047F8046D160010220A4002D0FEF7FCFD5B
:103370006DE720220A4002D0FEF749FD67E7FEF71D
:103380006CFC64E7072001401000FEF757FD01299F
:103390001FD1012BDCD1FF213140B14204D1408843
:1033A0000643FEF73CFF52E7FEF746FB002E40CFF8
:1033B00004D040680643FEF759FF48E747F8046D1C
:1033C0000026FEF7EDFB47F8046D0688FEF727FFA1
:1033D0003DE7022902D1012BBAD1EFE7032926D11B
:1033E000012BB5D1FF213140B1420AD162490E43D0
:1033F000FEF715FF043247F8046D1600FEF707FDCF
:1034000025E7FEF719FB002E40CF04D05B490E43A1
:10341000FEF72CFFEEE747F8046D0026FEF7C0FB31
:10342000023247F8046D1600FEF7F1FC0FE704299D
:1034300018D1012B8CD1330040CF002B00D106E7EF
:103440001F221A409A4205D047F8046D4688FEF7BD
:10345000E6FEFCE647F8046D06889B011E43FEF776
:10346000DEFEF4E6052924D1012B10D147F8046DC6
:103470000026FEF795FB47F8046D0600FEF7C7FC33
:1034800047F8046D4CF64076FEF7C9FEDFE647F8D4
:10349000046D0026FEF784FB47F8046D0126FEF755
:1034A0007FFBFEF7CBFC47F8046D0600FEF7AFFC90
:1034B000CDE606290ED1012B7FF44AAFFEF7BCFA08
:1034C000002E40CF3FF47AAFD0F802000643FEF75B
:1034D000CDFEBCE601308047B9E600B5002B0CD02C
:1034E000013B47F8046D1E0057F82660FEF7EAFB23
:1034F000002BF5D1043D2F0040CF0025256000BDF5
:103500001C350000810009686F6F6B2D717569743F
:1035100047F8046D1A4E704750350000943500008E
:103520000000047175697400DFF858D00E4F16481A
:103530000A2101600F48002101600D48016009481F
:10354000016012480160124941600D4800688746D9
:10355000FEF77FF8FFF77AFEFEF726F905206F6B7E
:103560002E0AF5E7E49F00202C0200202C01002009
:1035700008000020D89F0020003E00000006B6F1A1
:10358000D49F00202C030020FC9F0020DC9F002003
:1035900064000020A435000020000465696E7400FA
:1035A00062B67047B435000020000464696E740090
:1035B00072B67047CA35000020000469707372004B
:1035C00047F8046DEFF305867047D635000000001C
:1035D000036E6F70704718360000000009756E6842
:1035E000616E646C656400B5FEF7DEF814556E68B4
:1035F000616E646C656420496E7465727275707476
:10360000200047F8046DEFF30586FEF740F9FEF75A
:10361000CBF802210A0000BD4236000081000B6990
:1036200072712D7379737469636B47F8046DBD4EC5
:103630007047E635000049F6D070C2F2000000681D
:1036400087466A3600008100096972712D666175CE
:103650006C7447F8046DB44E7047E635000049F6C7
:10366000CC70C2F2000000688746983600008100E6
:103670000E6972712D636F6C6C656374696F6E0097
:1036800047F8046DA94E7047E635000049F6C8704A
:10369000C2F2000000688746C03600008100096958
:1036A00072712D657874693047F8046DA04E7047CB
:1036B000E635000049F6C470C2F200000068874693
:1036C000E83600008100096972712D6578746931EE
:1036D00047F8046D974E7047E635000049F6C07014
:1036E000C2F20000006887461037000081000969B7
:1036F00072712D657874693247F8046D8E4E70478B
:10370000E635000049F6BC70C2F20000006887464A
:10371000383700008100096972712D65787469334A
:1037200047F8046D854E7047E635000049F6B870DD
:10373000C2F2000000688746603700008100096916
:1037400072712D657874693447F8046D7C4E70474A
:10375000E635000049F6B470C2F200000068874602
:10376000863700008100076972712D61646347F834
:10377000046D744E7047E635000049F6B070C2F231
:10378000000000688746AE3700008100086972714A
:103790002D74696D320047F8046D6B4E7047E63545
:1037A000000049F6AC70C2F2000000688746D637C8
:1037B00000008100086972712D74696D330047F84B
:1037C000046D624E7047E635000049F6A870C2F2FB
:1037D000000000688746FE370000810008697271AA
:1037E0002D74696D340047F8046D594E7047E63505
:1037F000000049F6A470C2F200000068874600404D
:103800000000FFFF182D2D2D20466C6173682044A9
:10381000696374696F6E617279202D2D2D00FDF73B
:1038200075FD4C4885464C4F2A264C484949016055
:103830004B484C49016047F8046D4A4E4A4DB188E7
:103840004A4B994224D04A4B0B400AD0B01DFEF798
:103850008BFFFEF7F3FA0388408800040343ED1A58
:1038600016E080230B4013D00F23194089006D1AF6
:10387000B01DFEF779FFFEF7E1FA47F8046D060088
:1038800047F8046D2E0047F8046D0E00FDF722FA8C
:10389000FEF748FF300040CFD1D03648066040CF19
:1038A0003548056035483649304A884204D00238E8
:1038B00003889342F9D0023032490860FDF774FF63
:1038C000374D6563726973702D5374656C6C6172EA
:1038D000697320322E302E3220666F722053544D81
:1038E000333246333033206279204D617474686915
:1038F0006173204B6F63680A23480021016047F819
:10390000046D224E47F8046D0426FEF73CFF40CFBD
:10391000002E02D0FEF728FB17E640CF04E6696EC2
:1039200069740000D09F0020CC9F0020C89F002019
:10393000C49F0020C09F0020BC9F0020B89F002093
:10394000B49F0020B09F0020AC9F0020A89F0020C3
:10395000A49F00202C0300202C0200200000002047
:10396000040000208801000000A00020FFFF0000EC
:1039700000010000180000202000002000000400CA
:103980000040000014000020080000201E39000044
:0400000508000000EF
:00000001FF
