:020000040800F2
:100000002C0300208F3C0000CF3A0000CF3A0000C4
:10001000CF3A0000CF3A0000CF3A000000000000C5
:10002000000000000000000000000000FD3A000099
:10003000FD3A000000000000FD3A0000A73A000071
:10004000FD3A0000FD3A0000FD3A0000FD3A0000D4
:10005000FD3A0000FD3A0000253B00004D3B00004A
:10006000753B00009D3B0000C53B0000FD3A0000D1
:10007000FD3A0000FD3A0000FD3A0000FD3A0000A4
:10008000FD3A0000FD3A0000EB3B0000FD3A0000A5
:10009000FD3A0000FD3A0000FD3A0000FD3A000084
:1000A000FD3A0000FD3A0000FD3A0000FD3A000074
:1000B000133C00003B3C0000633C0000FD3A0000A4
:1000C000FD3A0000FD3A0000FD3A0000FD3A000054
:1000D000FD3A0000FD3A0000FD3A0000FD3A000044
:1000E000FD3A0000FD3A0000FD3A0000FD3A000034
:1000F000FD3A0000FD3A0000FD3A0000FD3A000024
:10010000FD3A0000FD3A0000FD3A0000FD3A000013
:10011000FD3A0000FD3A0000FD3A0000FD3A000003
:10012000FD3A0000FD3A0000FD3A0000FD3A0000F3
:10013000FD3A0000FD3A0000FD3A0000FD3A0000E3
:10014000FD3A0000FD3A0000FD3A0000FD3A0000D3
:10015000FD3A0000FD3A0000FD3A0000FD3A0000C3
:10016000FD3A0000FD3A0000FD3A0000FD3A0000B3
:10017000FD3A0000FD3A0000FD3A0000FD3A0000A3
:10018000FD3A0000FD3A0000FD3A0000FD3A000093
:10019000FD3A0000FD3A0000FD3A0000FD3A000083
:1001A000FD3A0000FD3A0000FD3A0000D2010000D7
:1001B000FFFF1E2D2D2D204D6563726973702D5329
:1001C00074656C6C6172697320436F7265202D2DAC
:1001D0002D00EA01000042000432647570003868A6
:1001E00047F8046D043F38607047FC01000062006E
:1001F000053264726F70043740CF70471A020000F6
:10020000440005327377617007CF043F386047F8C8
:10021000046D043F3A600E0070472E020000620039
:1002200004326E69700007CF043F3860704748029F
:100230000000440005326F766572B86847F8046DB7
:10024000043F3860FE6870476C02000044000532CD
:100250007475636B07CF043F386047F8046D043F43
:100260003A60043F3960043F386070478E020000F6
:1002700046000432726F74003868B9683A69B86031
:1002800039613A6079687E60FE68F9607047B00253
:100290000000460005322D726F743868B9683A69FB
:1002A00038613960BA60F968FE607E6879607047CD
:1002B000C4020000200003323E7201CF01B440B4FA
:1002C00040CF7047DC02000020000332723E47F846
:1002D000046D40BC01BC043F38607047F40200006C
:1002E00020000332724047F8046D019E47F8046D08
:1002F000009E704706030000200006327264726F91
:10030000700002B070471E03000042000364322FE9
:100310003868F107761040080843386070473203A8
:10032000000062000364322A3868001876413860A1
:1003300070474C0300004200046473687200386820
:10034000F1077608400808433860704762030000F0
:100350006200046473686C00386800187641386085
:100360007047740300004200046461627300002E51
:1003700014D470478E0300004300083F646E656725
:1003800061746500300040CF002807D47047AC038B
:100390000000420007646E6567617465386800217B
:1003A000C043F64301304E4138607047C40300003B
:1003B000640002642D0007CF121AB1410E00043F01
:1003C0003A607047DA030000640002642B0007CF34
:1003D00012184E41043F3A607047EC030000610080
:1003E00003733E6447F8046DF6177047000400007D
:1003F000620003756D2A3868A0FB060638607047F6
:10040000140400006200026D2A00386880FB0606B2
:10041000386070475204000044000375642A07CF17
:10042000564341437618010C130C59437618010CBE
:1004300080B292B25143434350430022C918524103
:100440001204B6180A04090C80184E41043F3860A3
:100450007047E404000044000475646D2A0010B580
:10046000002447F8046D7E6847F8046D3E69FFF785
:10047000C2FF310040CF300040CF47F8046D3E68E6
:1004800047F8046DFE6803B4FFF7B5FF03BC330003
:1004900040CF320040CF47F8046D3E6847F8046D06
:1004A0003E690FB4FFF7A7FF0FBC9219634140CF1D
:1004B00089196241634140CF47F8046D7E6847F86F
:1004C000046DFE680FB4FFF796FF0FBC92196341ED
:1004D00040CF89196241634140CF1E003A60796084
:1004E000B86010BD060500004300022A2F0000B5C9
:1004F00040B440CFFFF789FF47F8046D40BC00F0DF
:1005000062F8043700BD280500004300052A2F6D5E
:100510006F6400B540B440CFFFF777FF47F8046D34
:1005200040BC00F050F800BD4A05000043000375D0
:100530002A2F00B540B440CFFFF75DFF47F8046DA8
:1005400040BC00F01BF8043700BD6E0500004300FE
:1005500006752A2F6D6F640000B540B440CFFFF7D9
:100560004AFF47F8046D40BC00F008F800BDBA052A
:100570000000430006756D2F6D6F640010B478683D
:1005800039680022002420236400001849415241A8
:10059000964201D8921B0134013BF5D1202364001F
:1005A00049185241964201D8921B0134013BF6D1C1
:1005B00004373A60260010BC70472E060000430046
:1005C000056D2F6D6F6400B5F01718D0764200F0FE
:1005D00019FAF0170DD0FFF7E1FE00F007FAFFF768
:1005E000CDFF39683E600E46764239683E600E4661
:1005F00000BD00F0FBF9FFF7C1FF764200BD00F03F
:1006000001FAF0170ED0FFF7C9FE00F0EFF9FFF77F
:10061000B5FF764239683E600E46764239683E60E4
:100620000E4600BD00F0E2F9FFF7A8FF00BD8A0604
:10063000000044000675642F6D6F640030B43C68A0
:10064000B86879680022002520236D000018494110
:100650005241944201D8121B0135013BF5D120B41F
:10066000002520206D00491852415B419E4204D86C
:10067000944202D8121BB34101350138F2D13D60DA
:10068000BA607B6040BC30BC70470007000044008B
:1006900005642F6D6F6400B5F01719D0FFF77EFE6B
:1006A000FFF7B2FDF0170CD0FFF778FEFFF7ACFDB7
:1006B000FFF7C4FFFFF7A8FDFFF770FEFFF7A4FDEB
:1006C00000BDFFF7A1FDFFF7B9FFFFF767FE00BD13
:1006D000FFF79AFDF0170ED0FFF760FEFFF794FDCD
:1006E000FFF7ACFFFFF75AFEFFF78EFDFFF756FE50
:1006F000FFF78AFD00BDFFF787FDFFF79FFF00BDF5
:1007000016070000440002642F0000B5FFF7C3FF86
:10071000FFF789FD00BDAE070000440002662A0015
:1007200000B5F0170DD0FFF739FEFFF76DFDF0179C
:100730000DD0FFF733FEFFF792FE40CF01CF3860B8
:1007400000BDFFF761FDF017F5D0FFF727FEFFF7BB
:1007500086FE40CF01CF3860FFF720FE00BD30B4E9
:100760003C68B9687A680023002520206D0049188C
:1007700052415B419E4204D8944202D8121BB341BD
:1007800001350138F2D1290020206D0092185B411B
:100790009E4204D8944202D8121BB341013501385D
:1007A000F3D13D60BA607B600E0030BC7047FA0741
:1007B0000000440002662F0000B5F0170ED0FFF7CE
:1007C000EDFDFFF721FDF0170ED0FFF7E7FDFFF776
:1007D0001BFDFFF7C4FFFFF726FD00BDFFF714FD6B
:1007E000F017F4D0FFF7DAFDFFF70EFDFFF7B7FFC4
:1007F000FFF7D4FDFFF717FD00BD0E080000200035
:100800000232210006CF3160726040CF704722086B
:100810000000200002324000043F706838603668F3
:1008200070474208000044000364753C07CF8E42C5
:1008300004D801D1904201D8002670470026F64323
:1008400070476208000044000364753E07CFB14260
:1008500004D801D1824201D8002670470026F64311
:10086000704782080000440002643C0007CF8E42BB
:1008700004DC01D1904201DC002670470026F643DB
:100880007047A2080000440002643E0007CFB14256
:1008900004DC01D1824201DC002670470026F643C9
:1008A0007047B208000062000364303C0437F6175A
:1008B0007047CC08000042000364303D01CF00289F
:1008C00001D000267047013EB6417047E60800009F
:1008D000440003643C3E07CF904201D1761A01D018
:1008E0000026F643704702090000440002643D0000
:1008F00007CF904201D000267047761A013EB641DC
:1009000070471409000020000373704047F8046D1D
:100910003E00704724090000200003737021370057
:1009200040CF70473609000020000372704047F83E
:10093000046D6E4670474609000020000372702166
:10094000B54640CF7047600900000000056465703F
:100950007468E549C91B890847F8046D0E007047A3
:100960007009000061000364757047F8046D7047FA
:100970008009000061000464726F700040CF70470E
:10098000960900006100043F64757000002E01D0DC
:1009900047F8046D7047AA0900006200047377618C
:1009A000700039683E600E007047B80900006200B0
:1009B000036E697004377047CC0900006200046F51
:1009C0007665720047F8046D7E687047E2090000A2
:1009D0006200047475636B0001CF083F7E6038606D
:1009E0007047F8090000630003726F7403CF083F7B
:1009F00078603E600E007047100A00006300042D0E
:100A0000726F740003CF083F7E6039600600704744
:100A1000220A00002000047069636B0057F826600A
:100A20007047320A00002000023E720040B440CFFE
:100A30007047440A0000200002723E0047F8046D2F
:100A400040BC7047560A000020000272400047F880
:100A5000046D009E7047660A0000200005726472F3
:100A60006F7001B070477C0A0000600004747275FA
:100A7000650047F8046D0026F6437047900A0000B1
:100A800060000566616C736547F8046D0026704769
:100A9000A60A00006E0003616E6401CF0640704735
:100AA0000640000616F0BE0A00006E00036269638D
:100AB00001CFB043060070478643000636F0D40AE3
:100AC00000006E00026F720001CF064370470643BC
:100AD000000656F0EA0A00006E0003786F7201CF3C
:100AE000464070474640000696F0F80A0000610054
:100AF000036E6F74F6437047080B000061000363D8
:100B00006C7AB6FA86F67047160B00006100037324
:100B1000687276087047240B000061000373686CEC
:100B200076007047340B0000610003726F725FEA59
:100B300076067047460B0000610003726F6CB619B1
:100B400056F100067047600B00006C000672736877
:100B50006966740001CFF040060070473608002631
:100B60007A0B00006C00076172736869667401CFCC
:100B70003041060070473610F617940B00006C00E9
:100B8000066C73686966740001CFB0400600704758
:100B900036000026A40B0000610002303D00013E3B
:100BA000B6417047B60B0000610003303C3E013E89
:100BB000B641F6437047C40B0000610002303C00B0
:100BC000F6177047DC0B00004200023E3D0001CFEB
:100BD000B042B4BF00264FF0FF367047F40B000060
:100BE0004200023C3D0001CFB042CCBF00264FF096
:100BF000FF3670470A0C00004200013C01CFB042B2
:100C0000B4BF4FF0FF3600267047200C00004200B2
:100C1000013E01CFB042CCBF4FF0FF3600267047F7
:100C2000340C0000620003753E3D01CF861BB641C7
:100C3000F6437047480C0000620003753C3D01CF4D
:100C4000361AB641F64370475A0C0000620002752E
:100C50003C0001CF861BB64170476C0C000062005F
:100C600002753E0001CF361AB6417047820C000073
:100C70006B00023C3E0001CF361A18BF4FF0FF3622
:100C80007047940C00006B00013D01CF361A013E05
:100C9000B6417047A80C00006200036D696E01CF79
:100CA000B042B8BF06467047BC0C00006200036D3E
:100CB000617801CFB042C8BF06467047D20C000031
:100CC000620004756D61780001CFB04288BF0646AE
:100CD0007047EC0C0000620004756D696E0001CF76
:100CE000B04238BF064670472C0200202A0D000093
:100CF0000000046D6F76650007B5310040CF32000B
:100D000040CF00290FD0B2420DD006D3013E013AA8
:100D1000705C50540139FBD105E030781070013619
:100D200001320139F9D140CF07BD4C0D0000000060
:100D30000466696C6C00300040CF310040CF002960
:100D400002D001397054FCD140CF7047580D0000DB
:100D50002000014036687047700D00006D000121D1
:100D600003CF30600E007047066070470160704727
:100D7000960D00006D00022B210003CF326812187F
:100D800032600E0070470268921902607047026874
:100D9000521802607047A40D000020000268400055
:100DA00036887047BE0D00006D000268210003CF39
:100DB00030800E0070470680704701807047E40D58
:100DC00000006D0003682B2103CF32881218328097
:100DD0000E007047028892190280704702885218EC
:100DE00002807047F20D0000200002634000367858
:100DF00070470C0E00006D000263210003CF3070BD
:100E00000E0070470670704701707047320E000088
:100E10006D0003632B2103CF3278121832700E005D
:100E20007047027892190270704702785218027067
:100E300070475A0E00006D0004626973210003CFF1
:100E40003268024332600E0070470268324302602B
:100E5000704702680A4302607047820E00006D000E
:100E600004626963210003CF3268824332600E005E
:100E700070470268B2430260704702688A430260AA
:100E80007047AA0E00006D0004786F72210003CF36
:100E90003268424032600E00704702687240026061
:100EA000704702684A4002607047C40E000020008C
:100EB00004626974400001CF3668064018BF4FF0E5
:100EC000FF367047EC0E00006D0005686269732103
:100ED00003CF3288024332800E00704702883243CB
:100EE0000280704702880A4302807047140F000096
:100EF0006D0005686269632103CF328882433280C6
:100F00000E0070470288B2430280704702888A430D
:100F1000028070473C0F00006D000568786F7221F9
:100F200003CF3288424032800E0070470288724000
:100F30000280704702884A4002807047560F0000C6
:100F4000200005686269744001CF3688064018BFEA
:100F50004FF0FF3670477E0F00006D000563626939
:100F6000732103CF3278024332700E00704702784B
:100F700032430270704702780A4302707047A60F2E
:100F800000006D0005636269632103CF32788243FC
:100F900032700E0070470278B243027070470278D8
:100FA0008A4302707047CE0F00006D000563786FB2
:100FB000722103CF3278424032700E0070470278BF
:100FC00072400270704702784A4002707047E80F22
:100FD0000000200005636269744001CF3678064046
:100FE00018BF4FF0FF367047F80F0000610005632F
:100FF000656C6C2B043670470810000061000563B7
:10100000656C6C73B6007047B21000000000076892
:10101000666C61736821300040CF310040CFDFF84B
:101020005C3498422BD3DFF85834984227D2DFF84B
:1010300054341940994221D010F00102002A1ED1E7
:1010400002889A421BD110F10060DFF83C24DFF8DF
:101050003C341360DFF838341360DFF83824DFF8ED
:10106000383413600180DFF83424136813F48033BC
:10107000FBD1DFF82024DFF828341360704700F03C
:101080009BFD2A57726F6E6720616464726573738B
:10109000206F72206461746120666F7220777269BC
:1010A00074696E6720666C61736820210A0002F023
:1010B00073BC0A11000000000763666C617368214D
:1010C000300040CF310040CFEC4B9842D7D3EC4BAF
:1010D0009842D4D211F0FF01FF2915D00278FF2ADF
:1010E000CDD110F10060E84AE84B1360E84B136083
:1010F000E84AEC4B13600170E84A136813F480333C
:10110000FBD1E44AE64B13607047901100000000E9
:10111000106572617365666C617368736563746F83
:10112000720000B5012E31D31C2E2FD20C2E2DD0E3
:101130000D2E2BD00E2E29D00F2E27D0D24AD34BD6
:101140001360D34B136000F037FD0D45726173657A
:1011500020736563746F722047F8046D02F072FAB1
:10116000CC4AD14BF60033431360CC4A136813F4D6
:101170008033FBD1C74ACA4B136000F01DFD0C66DB
:10118000726F6D20466C6173682E0A0040CF00BDFF
:101190006415000000000A6572617365666C617316
:1011A000680072B600B5C148C1490268B2F1FF3F9C
:1011B00005D047F8046D0126FFF7B3FF02E00430C5
:1011C0008842F2D3BB48BC490268B2F1FF3F05D068
:1011D00047F8046D0226FFF7A4FF02E004308842BE
:1011E000F2D3B648B6490268B2F1FF3F05D047F8DE
:1011F000046D0326FFF795FF02E004308842F2D326
:10120000B048B1490268B2F1FF3F05D047F8046D1C
:101210000426FFF786FF02E004308842F2D3AB4891
:10122000AB490268B2F1FF3F05D047F8046D0526CF
:10123000FFF777FF02E004308842F2D3A548A649C1
:101240000268B2F1FF3F05D047F8046D0626FFF7AC
:1012500068FF02E004308842F2D3A048A049026847
:10126000B2F1FF3F05D047F8046D0726FFF759FF9D
:1012700002E004308842F2D39A489B490268B2F1F6
:10128000FF3F05D047F8046D0826FFF74AFF02E04C
:1012900004308842F2D3954895490268B2F1FF3F85
:1012A00005D047F8046D0926FFF73BFF02E0043044
:1012B0008842F2D38F4890490268B2F1FF3F05D0CF
:1012C00047F8046D0A26FFF72CFF02E0043088423D
:1012D000F2D38A488A490268B2F1FF3F05D047F845
:1012E000046D0B26FFF71DFF02E004308842F2D3A5
:1012F000844885490268B2F1FF3F05D047F8046D84
:101300001026FFF70EFF02E004308842F2D37F4838
:101310007F490268B2F1FF3F05D047F8046D1126FE
:10132000FFF7FFFE02E004308842F2D379487A49A1
:101330000268B2F1FF3F05D047F8046D1226FFF7AF
:10134000F0FE02E004308842F2D374487449026827
:10135000B2F1FF3F05D047F8046D1326FFF7E1FE19
:1013600002E004308842F2D36E486F490268B2F15D
:10137000FF3F05D047F8046D1426FFF7D2FE02E0C8
:1013800004308842F2D3694869490268B2F1FF3FEC
:1013900005D047F8046D1526FFF7C3FE02E00430C0
:1013A0008842F2D3634864490268B2F1FF3F05D036
:1013B00047F8046D1626FFF7B4FE02E004308842B9
:1013C000F2D35E485E490268B2F1FF3F05D047F8AC
:1013D000046D1726FFF7A5FE02E004308842F2D321
:1013E000584859490268B2F1FF3F05D047F8046DEB
:1013F0001826FFF796FE02E004308842F2D35348E5
:1014000053490268B2F1FF3F05D047F8046D192631
:10141000FFF787FE02E004308842F2D34D484E4980
:101420000268B2F1FF3F05D047F8046D1A26FFF7B6
:1014300078FE02E004308842F2D348484849026806
:10144000B2F1FF3F05D047F8046D1B26FFF769FE98
:1014500002E004308842F2D300F0AEFB1246696E1F
:1014600069736865642E20526573657420210A00D3
:101470005DF804EB62B602F00CBC00000040000016
:1014800000002000FFFF0000043C024023016745EC
:10149000AB89EFCD103C0240010100000C3C024042
:1014A0000000008001000000020001000040000870
:1014B000FF7F000800800008FFBF000800C0000890
:1014C000FFFF000800000108FFFF010800000208FC
:1014D000FFFF030800000408FFFF050800000608DE
:1014E000FFFF070800000808FFFF090800000A08BE
:1014F000FFFF0B0800000C08FFFF0D0800000E089E
:10150000FFFF0F0800001008FF3F10080040100800
:10151000FF7F100800801008FFBF100800C01008EF
:10152000FFFF100800001108FFFF1108000012085B
:10153000FFFF130800001408FFFF1508000016083D
:10154000FFFF170800001808FFFF190800001A081D
:10155000FFFF1B0800001C08FFFF1D0800001E08FD
:10156000FFFF1F087A1500006900012B01CF361814
:10157000704736180036000616F190150000690015
:10158000012D01CF861B7047361A003E0006B6F1CA
:101590009E150000610002312D00013E7047AC1520
:1015A0000000610002312B0001367047BA150000BF
:1015B000610002322D00023E7047C8150000610034
:1015C00002322B0002367047DA1500006100066E09
:1015D00065676174650076427047EE150000610032
:1015E00003616273002E48BFD6F1000670470C16E7
:1015F0000000420005752F6D6F6401CF3100B0FB14
:10160000F6F67143401A043F386070472A1600000E
:101610004200042F6D6F640001CF310090FBF6F69D
:101620007143401A043F386070473E160000420084
:10163000036D6F6400B5FFF7EFFF40CF00BD4E169E
:1016400000006200012F01CF90FBF6F670475E1696
:1016500000006A00012A01CF4643704746436C16DA
:101660000000610002322A00760070477A160000FE
:10167000610002322F00761070478E160000610064
:10168000046576656E000120304036187047A61656
:101690000000810004626173650047F8046D114E1B
:1016A00070470A000000BC16000000000662696E68
:1016B000617279000B48022101607047D216000068
:1016C000000007646563696D616C06480A2101606A
:1016D0007047E81600000000036865780148102193
:1016E00001607047FCFF02200417000081000968B8
:1016F0006F6F6B2D656D697447F8046D7B4E704795
:10170000FA17000020170000810008686F6F6B2D2A
:101710006B65790047F8046D754E7047201800001E
:101720003E17000081000A686F6F6B2D656D69744C
:101730003F0047F8046D6F4E70474A1800005A1773
:101740000000810009686F6F6B2D6B65793F47F86A
:10175000046D694E7047761800007817000081000C
:101760000A686F6F6B2D70617573650047F8046DC3
:10177000624E7047443A00008E1700000000046576
:101780006D6974000FB5594800F02CF80FBDA21711
:1017900000000000036B65790FB5554800F022F892
:1017A0000FBDB8170000000005656D69743F00B5F6
:1017B000504800F017F800BDCE1700000000046B81
:1017C00065793F0000B54C4800F00CF800BDE81703
:1017D0000000000005706175736500B5474800F0B2
:1017E00001F800BD006887460E18000000000B736A
:1017F000657269616C2D656D697400B500F025F83E
:10180000002E40CFFAD03E4A167040CF00BD3618A9
:10181000000000000A73657269616C2D6B657900C8
:1018200000B500F028F8002E40CFFAD047F8046D3C
:10183000334A167800BD6418000000000C7365720E
:1018400069616C2D656D69743F0000B5FFF7C5FFD8
:1018500047F8046D00262B4801688020014000D025
:10186000F64300BD3819000000000B736572696112
:101870006C2D6B65793F00B5FFF7AFFF47F8046D3E
:101880000026204801682020014000D0F64300BD1A
:101890001D494FF480300860086810F40030FBD018
:1018A0001A494FF0010008601749086820F001004C
:1018B000086070471649174808601749086840F4DF
:1018C0002010086015491648086016491648086037
:1018D000164946200860164916480860704700B54A
:1018E000FFF7D6FFFFF7E6FF00BD0000F8FF02207C
:1018F000F4FF0220F0FF0220ECFF0220E8FF0220AC
:101900000410014000100140003802400838024035
:1019100030380240FF07100000000240240002405F
:101920007007000044380240100000000810014019
:101930000C1001400C2000005C190000000007633F
:1019400065787065637400B5386801B4013038603B
:1019500000F00BF801BC067040CF00BDCE190000AE
:101960000000066163636570740000B502CF013941
:101970000022FFF711FF300040CF202819D209289C
:1019800016D00A281FD00D281DD00828F1D1002A12
:10199000EFD000F011F903082008002AE9D0885C94
:1019A000013A80230340E4D040230340F5D0E0E730
:1019B0002020B242DDD247F8046D0600FFF7E2FEB8
:1019C00001328854D5E7160000F0A2F800BDE019F6
:1019D000000040000374696247F8046D294E7047A7
:1019E000F61900008100033E696E47F8046D264E2B
:1019F0007047000000001C1A000082000E63757220
:101A000072656E742D736F757263650047F8046DAF
:101A10001E4E70470000000064000020381A0000CD
:101A2000000009736574736F75726365174802CFA0
:101A30000660416040CF7047561A000000000673F0
:101A40006F757263650047F8046D104E043F70684F
:101A5000386036687047901A00000000057175659F
:101A600072790FB5084800210160FFF7B5FF47F80C
:101A7000046D47F8046DC826FFF777FFFFF7D6FF20
:101A80000FBD000064000020E4FF0220DCFF022004
:101A9000DE1A0000000007636F6D706172650FB59C
:101AA000310040CF01CF884202D040CF00260FBD89
:101AB00002CF002810D001380A5C335C412A02D3DF
:101AC0005B2A38BF2032412B02D35B2B38BF203337
:101AD0009A42EED000260FBD0026F6430FBDF21A43
:101AE000000000000263720000B500F065F8010A12
:101AF00000BD041B0000000002626C0047F8046D8A
:101B000020267047181B0000000005737061636594
:101B100047F8046D202635E63E1B000000000673E2
:101B200070616365730000B5002E06DD47F8046D33
:101B30002026FFF727FE013EF8D140CF00BD4E1B07
:101B400000005000065B636861725D0005E0661B83
:101B50000000000004636861720000B501F0A8FB9A
:101B600040CF367800BD761B00005000012847F8B2
:101B7000046D292606E0901B00005000015C47F828
:101B8000046D002600B501F09DFB043740CF00BD79
:101B9000D41B00001000022E22009D4800B547F81B
:101BA000046D060000F061FA47F8046D222601F08A
:101BB00089FB00F0A0FD00BD0AB447F8046D76462D
:101BC000013E33780121013319405B181EEB030EEF
:101BD0000ABC39E0FA1B00001000026322008D48A5
:101BE000DCE747F8046D7646013E33780121013386
:101BF00019405B181EEB030E7047241C00001000F8
:101C0000027322008448C9E747F8046D764647F816
:101C1000046D013E36780121731C19405B181EEBE0
:101C2000030E70473C1C0000000005636F756E7466
:101C3000013647F8046D013E36787047641C000099
:101C4000000005637479706501B53078002807D00D
:101C5000013647F8046D3678FFF794FD0138F7D167
:101C600040CF01BD921C0000000004747970650033
:101C7000310040CF300040CF00B5002908D000220D
:101C800047F8046D865CFFF77DFD01329142F7D184
:101C900000BDCA1C00000000046865782E0003B572
:101CA000310040CF2020043847F8046D31FA00F6A7
:101CB00016F00F06092E8CBF37363036FFF762FD5F
:101CC0000028F0D1FFF724FF03BDDA1C000000005C
:101CD00003682E731FB5514C0EE0EA1C0000000093
:101CE00003752E731FB54E4C06E0681D0000000002
:101CF000022E73001FB54B4C4B49C91B89084B4A38
:101D0000106803B40A201060FFF756FF085374618F
:101D1000636B3A205B0047F8046D0E0001F09AFCFB
:101D2000FFF74AFF025D200003BC404A1060002913
:101D30000AD03F4A106806B447F8046D0600A04771
:101D400006BC043A0139F5D1FFF736FF0620544F9F
:101D5000533A200047F8046D3600A047FFF72CFFE8
:101D600004202A3E0A001FBD341E00000000057733
:101D70006F72647300B5FFF71FFF06776F726473AD
:101D80000A0000F0F0FEFFF717FF09416464726576
:101D900073733A2047F8046DFFF781FFFFF70CFFDC
:101DA000064C696E6B3A200047F8046D3668FFF701
:101DB00076FFFFF701FF07466C6167733A2047F82B
:101DC000046DB688FFF76BFFFFF7F6FE06436F64FE
:101DD000653A2000B01D00F0FFFE47F8046D0600D4
:101DE000FFF75DFFFFF7E8FE064E616D653A2000E4
:101DF00047F8046D0636FFF727FFFFF7DDFE010AFF
:101E000000F0C8FE300040CFBDD040CF00BD000084
:101E1000B81B0000E21B0000081C00009F1C000013
:101E200045360000553600002C020020FCFF022041
:101E300028020020981F000000000D3132626974F2
:101E4000656E636F64696E670FB5FF2E04D847F83F
:101E5000046D5FF0FF360FBD16F0FF10B0420ED1DB
:101E60004FF6FF710840310C814208D116F0FF0691
:101E700056F4805647F8046D5FF0FF360FBD16F03C
:101E8000FF20B0420FD14FF6FF710840310C814264
:101E900009D1360A16F0FF0656F4005647F8046DCD
:101EA0005FF0FF360FBDFF2231001140300A1040B5
:101EB000884210D1300C104088420CD1300E1040B6
:101EC000884208D116F0FF0656F4405647F8046DD4
:101ED0005FF0FF360FBD300000210131001850F1D6
:101EE00000007FF07F020240802A05D01F29F4D332
:101EF00047F8046D00260FBD0829F9D3060036F017
:101F0000800611F00100C001064311F00E00C0026E
:101F1000064311F010008005064347F8046D5FF09A
:101F2000FF360FBD47F8046DDFF8C0655FF4704100
:101F300010EA0102120116435FF4006110EA010287
:101F4000D20316435FF4E06110EA01021201164366
:101F5000FF2110EA010216431E43BCE347F8046D5B
:101F6000DFF88C655FF0704110EA0102120B164336
:101F70005FF0006110EA0102520816435FF0E06171
:101F800010EA0102120B16435FF47F0110EA01020E
:101F9000120C16431E439EE3FE1F00000000107249
:101FA000656769737465726C69746572616C2C0025
:101FB0000FB5330040CF1B02FF2E05D856F4005654
:101FC0001E4300F061FB0FBDFFF73EFF002E40CF28
:101FD00006D0DFF8200506431E4300F07CFB0FBD52
:101FE000F643FFF731FF002E40CF06D0DFF808059B
:101FF00006431E4300F06FFB0FBDF6430BE05E206F
:1020000000000000096D6F76776D6F76742C0FB548
:10201000330040CF1B02300040CFFFF783FF4FF665
:10202000FF7110EA014001D0FFF798FF0FBD0FB517
:102030000136300040CF0023FFF774FFFFF78EFF1B
:1020400006E00FB5013647F8046D0026FFF7B0FF34
:1020500047F8046D44F2807600F016FB0FBDC420F3
:10206000000000000563616C6C2C0FB5330000F0BC
:1020700056FE300040CF1B1A043BDFF88014194095
:10208000002906D0DFF87824914202D0BDE80F4045
:10209000D7E740CF5B08DFF86C0440F2FF711940CE
:1020A0000843DB0A40F2FF311940090408439B0A48
:1020B00013F001018906084347F8046D060000F09B
:1020C0000AFB0FBDFA2000000000086C69746572FD
:1020D000616C2C0008B547F8046D4FF6470600F018
:1020E000D3FA47F8046D46F6045600F0CDFA47F8E7
:1020F000046D0626FFF75CFF08BD1E2100000000EE
:10210000066372656174650000B500F033F842F251
:102110003B10804747F8046DBEF1010600BD662103
:102120000000200005646F65733E42F23B1080475B
:1021300047F8046DBEF10106704747F8046DBEF123
:10214000010600F0AFF8F04A1368310040CF0220DA
:10215000084000D0023102311160FFF768FF1360C0
:1021600000F0E5F900BDA82100000000073C627501
:10217000696C647300B500F089FB00F0D0FD0220AB
:10218000064040CF04D047F8046D362600F07CFAB4
:1021900047F8046D4BF2005600F076FA47F8046DEC
:1021A0000A2600F0DBFA00BDB42100005000035BFA
:1021B000275D03E0CA2100000000012700B501F0FF
:1021C00077F800F047FD40CF00BD1022000010005E
:1021D00008706F7374706F6E650000B501F068F879
:1021E00000F038FD300040CF102101400DD12021FA
:1021F000014005D0FFF76EFF47F8046DC34E04E0C1
:10220000FFF768FF47F8046DC14EFFF72EFF00BDD2
:1022100066220000000007696E6C696E652C00B5CF
:102220004BF200514BF6005244F2707330888842F2
:1022300008D0904208D0984206D047F8046D0600B6
:1022400000F022FA0236F1E740CF00BD0EB44BF6A3
:10225000005244F2707301880230914201D09942D9
:10226000F9D10EBC70477C22000000000472657436
:102270002C0047F8046D4BF6005605E28A22000058
:102280003000046578697400F3E7C0220000300074
:10229000077265637572736500B500F003F8FFF7A8
:1022A000E4FE00BD0FB59B4800680630017801319F
:1022B00001220A408918401847F8046D06000FBD36
:1022C000D8220000810005737461746547F8046DBD
:1022D000914E704700000000EA2200000000015DFE
:1022E0008D480021C94301607047FA2200001000A8
:1022F000015B894800210160704722230000000033
:10230000013A00B58548076000F0C0FA47F8046D4F
:102310004BF2005600F0B8F97F480021C943016034
:1023200000BD6A2300003000013B00B57B48016816
:10233000B9420ED0FFF740FC1520537461636B2047
:102340006E6F742062616C616E6365642E0A01F0C9
:1023500023BB47F8046D4BF6005600F095F900F0EA
:10236000E6F86D480021016000BD802300000000F8
:102370000765786563757465300040CF0130874626
:1023800098230000100009696D6D656469617465CA
:1023900047F8046D1026F9E0AE230000100006692E
:1023A0006E6C696E650047F8046D2026EEE0C82368
:1023B000000010000B636F6D70696C656F6E6C7957
:1023C00047F8046D3026E1E0E223000010000A30F7
:1023D0002D666F6C6461626C650047F8046D402681
:1023E000D4E0FC23000010000A312D666F6C64619C
:1023F000626C650047F8046D4126C7E016240000B2
:1024000010000A322D666F6C6461626C650047F8DB
:10241000046D4226BAE03024000010000A332D6615
:102420006F6C6461626C650047F8046D4326ADE033
:102430004A24000010000A342D666F6C6461626CDF
:10244000650047F8046D4426A0E0642400001000F5
:102450000A352D666F6C6461626C650047F8046D27
:10246000452693E07E24000010000A362D666F6C2E
:102470006461626C650047F8046D462686E0982426
:10248000000010000A372D666F6C6461626C650095
:1024900047F8046D472679E0C8240000000008636F
:1024A0006F6E7374616E740000B500F0EFF9FFF7A2
:1024B00011FE47F8046D44F2707600F0E5F8FFF77E
:1024C0008CFF00F034F800BD202500000000093228
:1024D000636F6E7374616E7400B500F0D7F939687C
:1024E0003E600E46FFF7F6FDE1E70000000040F217
:1024F0000000C0F200005FF000007FF00100C0FFAC
:102500000000C0FF00F800F0000000201E220000C4
:102510006A20000004000020D8FF022010000020E4
:102520007C250000000006736D756467650000B5CA
:1025300023480168224A91421AD202390A88214B63
:102540009A4204D147F8046D1F4E00F09DF800F048
:102550006EF81E48006847F8046D06001C490968BB
:102560000431174A1368116000F08EF8136000BD43
:1025700000F05DF847F8046D002608E0D42500005F
:10258000000008736574666C6167730000B50C48E1
:1025900001680B4A914205D20C4801683143016041
:1025A00040CF00BD320040CF0948006804300188A8
:1025B000044B99420CBF11461143018000BD00003D
:1025C00000000020FFFF0000000000001C000020B1
:1025D00004000020E2250000000005616C69676EC0
:1025E00025E0FE250000410007616C69676E6564A7
:1025F000012030403618022030403618704720261F
:102600000000000006616C69676E2C009548016847
:102610000120014003D047F8046D00261AE07047FE
:102620004A260000000007616C69676E342C00B513
:10263000FFF7ECFF8B4801680220014004D047F807
:10264000046D002600F020F800BD7E26000000008A
:1026500002632C0000B583480168824A914205D28A
:1026600047F8046D0E00FEF72BFD02E0320040CF6C
:102670000A7047F8046D012600F070F800BDB2261C
:102680000000000002682C000FB576480168754A0A
:10269000914205D247F8046D0E00FEF7BCFC02E043
:1026A000320040CF0A8047F8046D022600F056F849
:1026B0000FBDCC2600000000012C00B547F8046DCA
:1026C000FFF7E2FF360CFFF7DFFF00BDE826000052
:1026D0000000033E3C2C00B547F8046D360CFFF7B4
:1026E000D3FFFFF7D1FF00BD5027000000000773A4
:1026F0007472696E672C07B5FF21314040CF3000FE
:1027000040CF002905D147F8046D0026FFF7BCFF34
:1027100007BD47F8046D067836020E43FFF7B4FF95
:102720000130013902290AD347F8046D4678360290
:1027300002781643FFF7A8FF02300239F2E70029BA
:1027400000D107BD47F8046D0678FFF79DFF07BD70
:10275000AA270000000005616C6C6F744148016895
:10276000404A91420FD2320040CF89183E4A9142EE
:1027700019D3FFF721FA0B466C6173682066756CFC
:102780006C0A01F009B9320040CF8918374A126843
:10279000914208D3FFF710FA0952616D2066756CFB
:1027A0006C0A01F0F9B801607047D2270000000000
:1027B0000D636F6D70696C65746F72616D3F47F882
:1027C000046D0026274800682649884248D3F6430E
:1027D0007047F227000000000C636F6D70696C6534
:1027E000746F72616D001F4800681E49884211D3E2
:1027F00070477C28000000000E636F6D70696C6587
:10280000746F666C617368001648006815498842E9
:1028100000D270471648174902680B680A600360C7
:102820001048154902680B680A6003600F48006889
:10283000834215D300B5FFF7BFF9232056617269B3
:1028400061626C657320636F6C6C69646520776985
:1028500074682064696374696F6E6172790A00BD7F
:102860007047000000000020000020002000002031
:10287000040000201800002014000020622900003D
:1028800000000828637265617465290000B500F0D6
:102890000FFD002E0ED1FFF78FF9152043726561F1
:1028A0007465206E65656473206E616D6520210A14
:1028B00001F072B8386847F8046D043F386000F0E2
:1028C0009AF940CF002E40CF11D0386847F8046DF8
:1028D000043F3860FFF770F9095265646566696EF8
:1028E0006520FFF7C5F9FFF767F9022E0A00FFF729
:1028F0008DFEFFF79CFE00F012FA8C4800688B49B1
:1029000088421CD28A480021016047F8046D0626DF
:10291000FFF724FFFEF776F8FFF7EDFE8548016824
:102920000A68854B9A4207D1804A1368116047F8BC
:10293000046DFFF7C2FE1360066040CF00BD7D4806
:1029400047F8046D0668FFF7B8FE47F8046D7B4E44
:10295000FFF79AFE7748310040CF0160FFF7CBFECA
:1029600000BD7A2900000000087661726961626C1E
:10297000650047F8046D012613E09229000000006D
:1029800009327661726961626C6547F8046D0226EE
:1029900007E06C2A00000000096E766172696162CE
:1029A0006C6500B5FFF772FF604801685F4A9142AD
:1029B00034D20F200640B20061480168891A614A8A
:1029C00091420BD2FFF7F8F80F4E6F7420656E6FCF
:1029D0007567682052414D0A00F0DEBF016047F87C
:1029E000046D0E00FFF776FB47F8046D44F2707635
:1029F000FFF74AFE300040CF0200002805D00E60ED
:102A00000431FFF75AFE0138F9D147F8046D8026EA
:102A10001643FFF7BBFDFFF78AFD00BD00F07FF90D
:102A20000220064040CF04D147F8046D3626FFF758
:102A30002BFE47F8046D444EFFF74DFE47F8046D3A
:102A4000424EFFF748FE47F8046D44F27076FFF7F8
:102A50001BFE300040CF002803D0FFF72EFE0138C8
:102A6000FBD1FFF7BAFCFFF762FD00BD502B000061
:102A70000000076275666665723A00B5FFF706FFEB
:102A800001203040361802203040361827480168AF
:102A9000264A914228D22A480168891B294A914234
:102AA0000BD2FFF789F80F4E6F7420656E6F756754
:102AB000682052414D0A00F06FBF016047F8046D75
:102AC0000E00FFF707FB47F8046D44F27076FFF73E
:102AD000DBFDFFF7F2FD47F8046D40F24016FFF70B
:102AE00055FDFFF724FD00BD00F019F90220064056
:102AF00040CF04D147F8046D3626FFF7C5FD47F8EF
:102B0000046D114EFFF7E7FD47F8046D0F4EFFF718
:102B1000E2FD47F8046D44F27076FFF7B5FDFFF76C
:102B20001DFEFFF75AFCFFF702FD00BD000000206C
:102B30001C00002004000020FFFFFFFFFFFF00003B
:102B4000200000202C0300203E60043F02367E4619
:102B50007E2B000000000F64696374696F6E617200
:102B600079737461727441480068404947F8046D94
:102B7000884201D23E4E70473E4E36687047B82BB1
:102B8000000000000E64696374696F6E6172796E93
:102B90006578740003B531683748814207D0887979
:102BA000FF2804D00E0047F8046D002603BD47F847
:102BB000046D0026F64303BDEA2B000000000A73F3
:102BC0006B6970737472696E67003178013101222C
:102BD0000A4089187618704706B40178013101223D
:102BE0000A408918401806BC7047802C000000007D
:102BF0000466696E64003FB500220023350040CFB3
:102C0000340040CFFFF7AFFF1C48B188884217D08F
:102C100047F8046D0636FFF70BF847F8046D2600F9
:102C200047F8046D2E00FEF73AFF002E40CF07D084
:102C3000B01DFFF7D1FF02000B000C48824204D206
:102C4000FFF7A8FF300040CFDED0160047F8046D34
:102C50001E003FBD00B531003868FFF7CCFF3A6871
:102C6000002A01D100F06AFD00BD00000000002034
:102C7000AC01000004000020FFFFFFFFFFFF000089
:102C8000DA2C0000000006636A756D702C003200BB
:102C900040CF310040CF8B1B043BA3491940002992
:102CA0000DD0A24881420AD0FEF786FF0D4A756D0D
:102CB0007020746F6F206661720A00F06DBE5B1049
:102CC000FF210B40134330001E0000B5984A1368E3
:102CD0001060FFF7D9FC136000BD122D000000004A
:102CE000056A756D702C310040CF300040CF0B1A53
:102CF000043B90491940002902D08F4A9142D3D118
:102D00005B108E4A134053F4604347F8046D1E0075
:102D1000DBE7282D0000000004686572650047F8B5
:102D2000046D834E36687047242E000000000D6647
:102D30006C6173687661722D6865726547F8046D21
:102D40007F4E3668704700B547F8046D42F600665E
:102D5000FFF79AFC47F8046D4CF64076FFF794FCB9
:102D600000BDDCE700B500F03AF839683E600E4679
:102D700047F8046D4DF20016FFF789FF00BD00B55E
:102D800000F02DF839683E600E4647F8046D4DF2AC
:102D90000076FFF77CFF00BD00B5FFF7D4FF00F021
:102DA0001EF839683E600E4647F8046D4DF2000685
:102DB000FFF76DFF00BD00B500F011F839683E6007
:102DC0000E46FFF790FF00BD00B5FFF7BCFFFFF711
:102DD000A6FF47F8046D0226FFF7C0FC00BD00B552
:102DE000FFF79DFF47F8046D0226FFF7B7FC00BD13
:102DF00000B5FFF794FFFFF776FF00BD00B5FFF7C2
:102E00008EFF47F8046D4DF20006FFF740FF00BD4E
:102E100000B5FFF784FF47F8046D4DF20016FFF789
:102E200036FF00BD602E00003000047468656E003F
:102E3000052E01D140CFDBE7022E01D140CFDDE7E7
:102E4000FEF7BAFE1753747275637475726573205A
:102E5000646F6E2774206D617463680A00F09CBD16
:102E60008A2E0000300004656C73650000B5022EE8
:102E7000E6D140CFFFF7B3FF39683E600E46FFF75B
:102E8000BDFF47F8046D052600BDA22E00003000EE
:102E90000269660000B5FFF797FF47F8046D022648
:102EA00000BDC82E000030000672657065617400B8
:102EB000042EC5D140CF39683E600E4600B5FFF7FD
:102EC0007AFFFFF79BFF00BDE42E0000300005777E
:102ED00068696C65012EB3D140CF00B5FFF7DAFF0A
:102EE000023600BDF82E0000300005756E74696C66
:102EF000012EA5D140CF4FE70C2F00003000056117
:102F00006761696E012E9BD140CF54E7442F0000CA
:102F1000300005626567696E00B5FFF722FF47F86C
:102F2000046D012600BD000001FFFFFF00FFFFFF51
:102F30000000002001F8FFFF00F8FFFFFF0700007E
:102F400020000020542F00002000016B47F8046D82
:102F5000029E7047642F00002000016A47F8046D4C
:102F6000009E7047742F00002000016947F8046D2F
:102F700026007047B42F00003000056C656176654F
:102F800000B5684801683B00043F1A68043B1A60BA
:102F9000043304338B42F8D103B4FFF720FF03BCA2
:102FA000330040CF04390B60016004390A680132F4
:102FB0000A6000BDC62F0000200006756E6C6F6FA2
:102FC000700030BC7047FE2F00003000052B6C6F86
:102FD0006F70032E00D033E740CF00B547F8046D83
:102FE000514EFFF71CF9FFF7CAFE1AE014F1004436
:102FF000641BA41940CF2C44A4F100447047403016
:1030000000003000046C6F6F7000032E00D017E7D3
:1030100040CF00B547F8046D444EFFF700F9FFF7C5
:10302000A1FE00F023F93F48310040CF016047F88E
:10303000046D3F4EFFF7F3F800BD0134AC4270471A
:1030400088300000780002646F0000B547F8046D16
:10305000384EFFF7E4F83348016847F8046D0E0076
:1030600047F8046D00260760FFF77BFE47F8046D04
:10307000032600BD00B500F02FF8ECE730B43400B3
:1030800040CF350040CF7047383100007800033F13
:10309000646F00B547F8046D264EFFF7C0F847F897
:1030A000046D44F2AC26FFF7EFFA1E48016847F8BA
:1030B000046D0E00FFF793FE013647F8046D0126FC
:1030C00018480760FFF74DFE47F8046D032600BD62
:1030D00000B500F001F8E2E700B547F8046D4BF2E7
:1030E0003046FFF7D1FA47F8046D0426FEF760FF7B
:1030F000013B08D047F8046D0526FEF759FF013B58
:1031000000F023FC00BD47F8046D3526FFF7BCFA3C
:1031100047F8046D4CF64076FFF7B6FA00F015FC60
:1031200000BD00000C000020EC2F00003A30000031
:10313000C22F00007C3000005231000030000463D8
:103140006173650047F8046D002647F8046D082692
:103150007047683100003000033F6F664D4809E05A
:10316000013EB64140CF70470C3200007800026F3C
:1031700066004948082E00D062E640CF00B547F807
:10318000046D0600FFF74BF8FFF729FE39683E6033
:103190000E46013647F8046D092647F8046D4CF6D3
:1031A0004076FFF771FA00BD00B5300040CF013B1B
:1031B00001B400F0CAFB01BC082E00D040E640CFAD
:1031C00047F8046D0600FF213140B14204D1334974
:1031D0000E43FFF759FAD7E7FEF736FE002E40CF31
:1031E00004D02F480643FFF776FACDE747F8046D81
:1031F0000026FEF7DDFE47F8046D44F2B026FFF727
:1032000043FAC1E7300040CFB0427047423200007D
:10321000300005656E646F66092E00D010E640CF61
:1032200000B540B440CFFFF7DAFD39683E600E4686
:10323000FFF7EEFD47F8046D40BC47F8046D082623
:1032400000BDA4320000300007656E6463617365E1
:10325000082E00D0F4E540CF00B547F8046D4CF6D9
:103260004076FFF711FA00F001F800BD00B530001C
:1032700040CF00280DD003B401213140002903D0F4
:10328000013EFFF7BBFD01E0FFF7B2FD03BC0138D3
:10329000EFE700BD6031000004320000002E0000A6
:1032A000000FB6F1B8320000000005746F6B656E58
:1032B00047F8046D202605E0143300000000057077
:1032C0006172736510B5FEF7BEFB310040CF300070
:1032D00040CF0F4A12688418202E07D191420FD098
:1032E000835CB34202D101328418F7E7914207D0E0
:1032F000835C0132B342F9D18618361B013E01E0EE
:103300008618361B043F3C600148026010BD000077
:10331000E4FF02205233000000000564696769740D
:10332000CE4B1B68303E0BD30A2E0BD3073E0A2E22
:1033300006D3242E06D3203E0A2E01D3242E01D3F9
:10334000002670479E42FBD247F8046D0026F643E4
:1033500070475C3400000000066E756D6265720097
:103360003FB5310040CF701E0126012204B4BB4B93
:103370001B680024002500293CD001300139027867
:103380002D2A04D101B00022D24304B4F3E7232A4A
:1033900001D10A23EFE7242A01D11023EBE7252AE4
:1033A00001D10223E7E72E2A01D10226E3E72C2AE6
:1033B00036D047F8046D1600FFF7B4FF002E40CF5B
:1033C0002BD047F8046D260047F8046D2E0047F80F
:1033D000046D1E0047F8046D00260FB4FDF71FF8BA
:1033E0000FBC350040CF340040CF0022A419554116
:1033F00040CFC0E704BC002A04D50022E443ED43DB
:103400000134554133002600012B02D047F8046DEA
:103410002E0047F8046D1E003FBD01B000263FBDE1
:103420002500002402260029E4D0425C01392E2A1E
:10343000F9D047F8046D1600FFF774FF002E40CF57
:10344000EBD0043F3C6047F8046D1E000FB4FDF75D
:1034500095F80FBC340040CF40CFE4E77C34000047
:103460000000062E6469676974000A2E3CBF30367E
:1034700003E0242E34BF373623267047B2340000D1
:10348000000004686F6C6400330040CF744801781A
:103490003F290DD2013101704018012907D00138B0
:1034A000027801300270013801390129F7D1037027
:1034B0007047D2340000000005686F6C643C330034
:1034C00040CF674801783F2902D20131017043544F
:1034D0007047EA3400000000047369676E00002E34
:1034E00001D440CF70472D26CEE7FE340000000007
:1034F00002233E005A48067801303860704716357E
:10350000000000000366235310B5202400F008F8E3
:10351000013CFBD110BD38350000000002662300DD
:1035200000B547F8046D4D4E3668FCF764FFFFF7B1
:103530009CFFFFF7C4FF00BD5435000000000223CC
:10354000530000B500F00AF8002EFBD138680028BF
:10355000F8D100BD803500000000012300B547F818
:10356000046D3E4E366847F8046D0026FDF766F898
:10357000FCF74AFE40CFFFF778FFFFF785FF00BD5D
:10358000923500000000023C230035480021017004
:103590007047A4350000000002662E0047F8046D55
:1035A000202604E0F2350000000003662E6E00B510
:1035B00010B4340040CFFDF70FFAFCF7D8FE47F8FF
:1035C000046D0026FFF7E1FFFFF7BBFF40CF2C267D
:1035D000FFF775FF002C03D0FFF7A2FF013CFBD1E2
:1035E00010BC40CFFFF77BFF47F8046D47F8046D30
:1035F0001CE00836000000000375642E00B5FFF7DC
:10360000C4FFFFF79EFF11E03A360000000002649D
:103610002E0000B5FDF7E0F9FCF7A9FEFFF7B5FFB6
:10362000FFF78FFFFDF7E2F9FFF759FFFFF762FFA2
:10363000FEF71EFBFEF76CFA00BD4C3600000000E2
:1036400002752E0047F8046D0026D7E764360000A7
:103650000000012E47F8046DF617DAE7FCFF0220A0
:1036600024000020AC3600000000086576616C750F
:103670006174650000B5FEF7E6F901CF01B440B40E
:1036800040CFD448016802B400210160FEF7CEF9B2
:1036900000F014F8CF4802BC016047F8046D40BC4C
:1036A00001BC043F3860FEF7C1F900BD703900006D
:1036B000000009696E7465727072657430B5C64831
:1036C00087420BD9FEF778FA10537461636B20754B
:1036D0006E646572666C6F770A005DE1BF48874271
:1036E0000AD2FEF769FA0F537461636B206F766537
:1036F00072666C6F770A4FE1B94C2568002D01D1D5
:103700003D002560FFF7D4FD002E02D1043740CFE5
:1037100030BD386847F8046D043F3860FFF76BFA36
:10372000310040CF320040CF002A13D13868310039
:10373000FFF716FE320040CF002AC0D1FEF79CFAF8
:10374000FEF73AFA0C206E6F7420666F756E642E69
:103750000A0021E1A34B1B68002B1DD10025256029
:1037600030230B40302B0ED1FEF782FAFEF724FAFD
:103770001220697320636F6D70696C652D6F6E6CBC
:10378000792E0A0008E1043740CF47F8046D16008F
:10379000FEF7F2FDFFF793FF043740CF802008408B
:1037A0000ED1EB1B9B08402008400FD0082008409A
:1037B00002D0002B00D01DE00F200840834205D32B
:1037C00047F8046D1600FEF7D7FD78E700F0BDF866
:1037D00047F8046D160010220A4002D0FEF7CCFD17
:1037E0006DE720220A4002D0FEF719FD67E7FEF7D9
:1037F0003CFC64E7072001401000FEF727FD01298B
:103800001FD1012BDCD1FF213140B14204D14088CE
:103810000643FEF739FF52E7FEF716FB002E40CFB6
:1038200004D040680643FEF756FF48E747F8046DAA
:103830000026FEF7BDFB47F8046D0688FEF724FF5F
:103840003DE7022902D1012BBAD1EFE7032926D1A6
:10385000012BB5D1FF213140B1420AD162490E435B
:10386000FEF712FF043247F8046D1600FEF7D7FC8E
:1038700025E7FEF7E9FA002E40CF04D05B490E435E
:10388000FEF729FFEEE747F8046D0026FEF790FBF0
:10389000023247F8046D1600FEF7C1FC0FE7042959
:1038A00018D1012B8CD1330040CF002B00D106E77B
:1038B0001F221A409A4205D047F8046D4688FEF749
:1038C000E3FEFCE647F8046D06889B011E43FEF705
:1038D000DBFEF4E6052924D1012B10D147F8046D55
:1038E0000026FEF765FB47F8046D0600FEF797FC1F
:1038F00047F8046D4CF64076FEF7C6FEDFE647F863
:10390000046D0026FEF754FB47F8046D0126FEF710
:103910004FFBFEF79BFC47F8046D0600FEF77FFCAB
:10392000CDE606290ED1012B7FF44AAFFEF78CFAC3
:10393000002E40CF3FF47AAFD0F802000643FEF7E6
:10394000CAFEBCE601308047B9E600B5002B0CD0BA
:10395000013B47F8046D1E0057F82660FEF7BAFBDE
:10396000002BF5D1043D2F0040CF0025256000BD80
:103970008C390000810009686F6F6B2D7175697457
:1039800047F8046D1A4E7047C0390000043A000031
:103990000000047175697400DFF858D00E4F1648A6
:1039A0000A2101600F48002101600D4801600948AB
:1039B000016012480160124941600D480068874665
:1039C000FEF74FF8FFF77AFEFEF7F6F805206F6B6B
:1039D0002E0AF5E7E4FF02202C0200202C01002033
:1039E00008000020D8FF0220003E00000006B6F1CB
:1039F000D4FF02202C030020FCFF0220DCFF022069
:103A000064000020143A000020000465696E740010
:103A100062B67047243A000020000464696E7400A6
:103A200072B670473A3A0000200004697073720061
:103A300047F8046DEFF305867047463A0000000032
:103A4000036E6F707047883A0000000009756E6859
:103A5000616E646C656400B5FEF7AEF814556E686F
:103A6000616E646C656420496E7465727275707401
:103A7000200047F8046DEFF30586FEF710F9FEF716
:103A80009BF802210A0000BDB23A000081000B69D8
:103A900072712D7379737469636B47F8046DBD4E51
:103AA0007047563A00004FF6D070C2F2020000682C
:103AB0008746DA3A00008100096972712D666175E6
:103AC0006C7447F8046DB44E7047563A00004FF6D8
:103AD000CC70C2F2020000688746083B00008100FB
:103AE0000E6972712D636F6C6C656374696F6E0023
:103AF00047F8046DA94E7047563A00004FF6C8705B
:103B0000C2F2020000688746303B0000810009696C
:103B100072712D657874693047F8046DA04E704756
:103B2000563A00004FF6C470C2F2020000688746A1
:103B3000583B00008100096972712D657874693104
:103B400047F8046D974E7047563A00004FF6C07024
:103B5000C2F2020000688746803B000081000969CC
:103B600072712D657874693247F8046D8E4E704716
:103B7000563A00004FF6BC70C2F202000068874659
:103B8000A83B00008100096972712D657874693362
:103B900047F8046D854E7047563A00004FF6B870EE
:103BA000C2F2020000688746D03B0000810009692C
:103BB00072712D657874693447F8046D7C4E7047D6
:103BC000563A00004FF6B470C2F202000068874611
:103BD000F63B00008100076972712D61646347F84C
:103BE000046D744E7047563A00004FF6B070C2F242
:103BF0000200006887461E3C00008100086972715F
:103C00002D74696D320047F8046D6B4E7047563A5B
:103C100000004FF6AC70C2F2020000688746463CD6
:103C200000008100086972712D74696D330047F8D6
:103C3000046D624E7047563A00004FF6A870C2F20B
:103C40000200006887466E3C0000810008697271BE
:103C50002D74696D340047F8046D594E7047563A1B
:103C600000004FF6A470C2F20200006887460040D0
:103C70000000FFFF182D2D2D20466C617368204435
:103C8000696374696F6E617279202D2D2D00FDF7C7
:103C900026FE4C4885464C4F2A264C48494901602F
:103CA0004B484C49016047F8046D4A4E4A4DB18873
:103CB0004A4B994224D04A4B0B400AD0B01DFEF724
:103CC0008BFFFEF7C3FA0388408800040343ED1A14
:103CD00016E080230B4013D00F23194089006D1A82
:103CE000B01DFEF779FFFEF7B1FA47F8046D060044
:103CF00047F8046D2E0047F8046D0E00FCF7FCFF3A
:103D0000FEF748FF300040CFD1D03648066040CFA4
:103D10003548056035483649304A884204D0023873
:103D200003889342F9D0023032490860FDF744FF1E
:103D3000374D6563726973702D5374656C6C617275
:103D4000697320322E302E3220666F722053544D0C
:103D5000333246343239206279204D617474686997
:103D60006173204B6F63680A23480021016047F8A4
:103D7000046D224E47F8046D0426FEF73CFF40CF49
:103D8000002E02D0FEF7F8FA17E640CF04E6696E7F
:103D900069740000D0FF0220CCFF0220C8FF02207F
:103DA000C4FF0220C0FF0220BCFF0220B8FF022097
:103DB000B4FF0220B0FF0220ACFF0220A8FF0220C7
:103DC000A4FF02202C0300202C0200200000002071
:103DD00004000020AC01000000000320FFFF0000F1
:103DE000000100001800002020000020000020003A
:103DF0000040000014000020080000208E3D00005C
:0400000508000000EF
:00000001FF
