S02200006D6563726973702D7374656C6C617269732D6B6C32357A3132382E737265638F
S11300002CF3FF1F213D0000513C0000513C000037
S113001000000000000000000000000000000000DC
S1130020000000000000000000000000513C00003F
S11300300000000000000000513C00002F3C0000C4
S1130040513C0000513C0000513C0000513C000078
S1130050513C0000513C0000513C0000513C000068
S1130060513C0000513C0000513C0000513C000058
S1130070513C0000513C0000513C0000733C000026
S1130080933C0000513C0000513C0000513C0000F6
S1130090513C0000513C0000513C0000513C000028
S11300A0513C0000B33C0000513C0000513C0000B6
S11300B0513C0000513C0000D53C0000F93C0000DC
S11300C0FFFFFFFFFFFFFFFFFFFFFFFFFFFFFFFF3C
S11300D0FFFFFFFFFFFFFFFFFFFFFFFFFFFFFFFF2C
S11300E0FFFFFFFFFFFFFFFFFFFFFFFFFFFFFFFF1C
S11300F0FFFFFFFFFFFFFFFFFFFFFFFFFFFFFFFF0C
S113041000B501F01BFD16556E68616E646C656471
S113042020496E7465727275707420210A0000BDD3
S113043058040000FFFF1E2D2D2D204D65637269A9
S113044073702D5374656C6C6172697320436F72A1
S113045065202D2D2D00C04670040000420004329A
S1130460647570003868043F3E60043F386070472C
S1130470840400006200053264726F70043740CF58
S11304807047C046A40400004400053273776170CD
S113049007CF043F3860043F3E60043F3A600E00DB
S11304A07047C046B8040000620004326E697000F0
S11304B007CF043F38607047D4040000440005327D
S11304C06F766572B868043F3E60043F3860FE682A
S11304D07047C046F8040000440005327475636B2D
S11304E007CF043F3860043F3E60043F3A60043F56
S11304F03960043F386070471C0500004600043230
S1130500726F74003868B9683A69B86039613A60E2
S113051079687E60FE68F9607047C0464005000057
S1130520460005322D726F743868B9683A693861CB
S11305303960BA60F968FE607E6879607047C046C9
S113054054050000200003323E7201CF01B440B4D0
S113055040CF70476C05000020000332723E043F18
S11305603E6040BC01BC043F386070478405000015
S1130570200003327240043F3E60019E043F3E600F
S1130580009E704798050000200006327264726F66
S1130590700002B07047C046B0050000420003641A
S11305A0322F3868F10776104008084338607047E6
S11305B0C405000062000364322A386800187641DA
S11305C038607047E00500004200046473687200FC
S11305D03868F10776084008084338607047C04619
S11305E0F80500006200046473686C003868001841
S11305F0764138607047C0460C060000420004642F
S113060061627300002E16D47047C04628060000AD
S11306104300083F646E656761746500300040CF35
S1130620002808D47047C04648060000420007640A
S11306306E656761746538680021C043F643013014
S11306404E4138607047C046600600006400026492
S11306502D0007CF121AB1410E00043F3A607047D3
S113066078060000640002642B0007CF12184E4184
S1130670043F3A607047C0468C0600006100037373
S11306803E64043F3E60F6177047C046B80600005B
S1130690420003756D2A3868030073433B60010C04
S11306A0320C0B005343B6B280B24E43504336185B
S11306B0360CF6187047C046E80600004200026D8A
S11306C02A003868C11705D040423860F01704D0BA
S11306D07642E0E7F017DED0764200B5FFF7DBFFA5
S11306E0FFF7A9FF00BDC0462807000044000375BA
S11306F0642A07CF564341437618010C130C59431F
S11307007618010C80B292B2514343435043002205
S1130710C91852411204B6180A04090C80184E4133
S1130720043F38607047C046BC07000044000475AD
S1130730646D2A0010B50024043F3E607E68043FC7
S11307403E603E69FFF7A7FF310040CF300040CF45
S1130750043F3E603E68043F3E60FE6803B4FFF71A
S11307609AFF03BC330040CF320040CF043F3E60C9
S11307703E68043F3E603E690FB4FFF78CFF0FBC38
S11307809219634140CF89196241634140CF043FCC
S11307903E607E68043F3E60FE680FB4FFF77BFF57
S11307A00FBC9219634140CF89196241634140CF24
S11307B01E003A607960B86010BDC046E0070000D2
S11307C04300022A2F0000B540B440CFFFF779FF61
S11307D0043F3E6040BC00F065F8043700BDC046ED
S11307E0040800004300052A2F6D6F6400B540B46F
S11307F040CFFFF766FF043F3E6040BC00F052F874
S113080000BDC04628080000430003752A2F00B528
S113081040B440CFFFF73FFF043F3E6040BC00F0D0
S11308201CF8043700BDC0464C08000043000675A0
S11308302A2F6D6F640000B540B440CFFFF72BFF43
S1130840043F3E6040BC00F008F800BD980800007A
S1130850430006756D2F6D6F640010B478683968B5
S1130860002200242023640000184941524196428A
S113087001D8921B0134013BF5D1202364004918AF
S11308805241964201D8921B0134013BF6D1043700
S11308903A60260010BC70470C0900004300056D47
S11308A02F6D6F6400B5F01718D0764200F024FA6B
S11308B0F0170DD0FFF7BFFE00F011FAFFF7CDFFE0
S11308C039683E600E46764239683E600E4600BD89
S11308D000F005FAFFF7C1FF764200BD00F00CFA04
S11308E0F0170ED0FFF7A7FE00F0F9F9FFF7B5FFF8
S11308F0764239683E600E46764239683E600E465E
S113090000BD00F0ECF9FFF7A8FF00BD6809000086
S113091044000675642F6D6F640030B43C68B86899
S113092079680022002520236D00001849415241B6
S1130930944201D8121B0135013BF5D120B40025A6
S113094020206D00491852415B419E4204D89442D4
S113095002D8121BB34101350138F2D13D60BA60AF
S11309607B6040BC30BC7047E00900004400056473
S11309702F6D6F6400B5F01719D0FFF75CFEFFF719
S113098087FDF0170CD0FFF756FEFFF781FDFFF748
S1130990C4FFFFF77DFDFFF74EFEFFF779FD00BDB5
S11309A0FFF776FDFFF7B9FFFFF745FE00BDFFF740
S11309B06FFDF0170ED0FFF73EFEFFF769FDFFF75E
S11309C0ACFFFFF738FEFFF763FDFFF734FEFFF7D8
S11309D05FFD00BDFFF75CFDFFF79FFF00BDC04654
S11309E0F8090000440002642F0000B5FFF7C2FFBD
S11309F0FFF75EFD00BDC046900A00004400026699
S1130A002A0000B5F0170DD0FFF715FEFFF740FDE3
S1130A10F0170DD0FFF70FFEFFF78CFE40CF01CF8C
S1130A20386000BDFFF734FDF017F5D0FFF703FE83
S1130A30FFF780FE40CF01CF3860FFF7FCFD00BD1B
S1130A4030B43C68B9687A680023002520206D0022
S1130A50491852415B419E4204D8944202D8121B69
S1130A60B34101350138F2D1290020206D009218DC
S1130A705B419E4204D8944202D8121BB341013513
S1130A800138F3D13D60BA607B600E0030BC704722
S1130A90DC0A0000440002662F0000B5F0170ED0F7
S1130AA0FFF7C9FDFFF7F4FCF0170ED0FFF7C3FD05
S1130AB0FFF7EEFCFFF7C4FFFFF7FAFC00BDFFF7FA
S1130AC0E7FCF017F4D0FFF7B6FDFFF7E1FCFFF702
S1130AD0B7FFFFF7B0FDFFF7EBFC00BDF00A000025
S1130AE020000232210006CF3160726040CF70478F
S1130AF0040B0000200002324000043F706838609C
S1130B0036687047240B000044000364753C07CF2B
S1130B108E4204D801D1904201D8002670470026A5
S1130B20F6437047440B000044000364753E07CF4E
S1130B30B14204D801D1824201D800267047002670
S1130B40F6437047640B0000440002643C0007CF86
S1130B508E4204DC01D1904201DC0026704700265D
S1130B60F6437047840B0000440002643E0007CF44
S1130B70B14204DC01D1824201DC00267047002628
S1130B80F6437047940B000062000364303C043762
S1130B90F6177047B00B000042000364303D01CFEC
S1130BA0002801D000267047013EB6417047C04678
S1130BB0CC0B0000440003643C3E07CF904201D1BB
S1130BC0761A01D00026F6437047C046E80B0000B1
S1130BD0440002643D0007CF904201D000267047D4
S1130BE0761A013EB6417047FC0B000020000373E7
S1130BF07040043F3E603E007047C0460C0C00004D
S1130C00200003737021370040CF7047200C000090
S1130C10200003727040043F3E606E467047C04639
S1130C20300C0000200003727021B54640CF70479D
S1130C304C0C00000000056465707468F549C91B1C
S1130C408908043F3E600E007047C0465C0C0000FB
S1130C50610003647570043F3E6070476C0C0000D3
S1130C6061000464726F700040CF7047840C000010
S1130C706100043F64757000002E01D0043F3E60A3
S1130C807047C046980C00006200047377617000DE
S1130C9039683E600E007047A80C00006200036EC5
S1130CA0697004377047C046BC0C00006200046FD2
S1130CB076657200043F3E607E687047D40C000085
S1130CC06200047475636B0001CF083F7E60386076
S1130CD07047C046EC0C0000630003726F7403CFCE
S1130CE0083F78603E600E007047C046040D000067
S1130CF06300042D726F740003CF083F7E60396077
S1130D0006007047180D00002000047069636B0032
S1130D10B0003E587047C046280D00002000023E37
S1130D20720040B440CF70473C0D000020000272B6
S1130D303E00043F3E6040BC7047C046500D00007A
S1130D40200002724000043F3E60009E7047C0468F
S1130D50600D00002000057264726F7001B070476E
S1130D60780D00006000047472756500043F3E60F5
S1130D700026F6437047C0468C0D000060000566EF
S1130D80616C7365043F3E6000267047A00D00004F
S1130D906A0003616E6401CF064070470640C04696
S1130DA0B40D00006A000362696301CFB04306001A
S1130DB070478643C80D00006A00026F720001CFBD
S1130DC0064370470643C046DC0D00006A00037802
S1130DD06F7201CF464070474640C046EC0D00009C
S1130DE06100036E6F74F6437047C0460C0E00003A
S1130DF0410003636C7A300006D00026400002D024
S1130E0001D20136FAE77047202670471C0E000015
S1130E1061000373687276087047C0462C0E0000A8
S1130E2061000373686C76007047C0463C0E000096
S1130E30610003726F720120C6417047500E0000BA
S1130E40610003726F6C0020B61946417047C046BA
S1130E506C0E00006C00067273686966740001CF42
S1130E60F0400600704736080026C046880E000091
S1130E706C00076172736869667401CF30410600C3
S1130E8070473610F617C046A40E00006C00066CBE
S1130E9073686966740001CFB0400600704736007D
S1130EA00026C046B40E0000610002303D00013E41
S1130EB0B6417047C80E0000610003303C3E013E5D
S1130EC0B641F6437047C046D80E000061000230B8
S1130ED03C00F6177047C046F40E00004200023E84
S1130EE03D0001CFB04201DA002670470026F643E8
S1130EF07047C046100F00004200023C3D0001CF85
S1130F00B04201DD002670470026F6437047C04614
S1130F10280F00004200013C01CFB04202DA002653
S1130F20F643704700267047400F00004200013E20
S1130F3001CFB04202DD0026F64370470026704719
S1130F40540F0000620003753E3D01CF861BB6417D
S1130F50F6437047680F0000620003753C3D01CF03
S1130F60361AB641F64370477C0F000062000275E2
S1130F703C0001CF861BB6417047C046900F00006D
S1130F80620002753E0001CF361AB6417047C04672
S1130F90A80F00006B00023C3E0001CF361A01D0BE
S1130FA00026F6437047C046BC0F00006B00013DAD
S1130FB001CF361A013EB6417047C046D00F00003B
S1130FC06200036D696E01CFB04200DA060070471B
S1130FD0E40F00006200036D617801CFB04200DBD2
S1130FE006007047FC0F0000620004756D61780014
S1130FF001CFB04200D306007047C046181000006D
S1131000620004756D696E0001CFB04200D806001D
S1131010704700002CF2FF1F581000000000046D00
S11310206F76650007B5310040CF320040CF00290C
S11310300FD0B2420DD006D3013E013A705C505439
S11310400139FBD105E030781070013601320139E5
S1131050F9D140CF07BDC0467C10000000000466F3
S1131060696C6C00300040CF310040CF002902D0C1
S113107001397054FCD140CF7047C046881000003D
S11310802000014036687047A01000006D00012167
S113109003CF30600E0070470660704701607047F0
S11310A0C81000006D00022B210003CF3268121813
S11310B032600E007047026892190260704702683D
S11310C0521802607047C046D81000002000026821
S11310D0400036887047C046F41000006D00026876
S11310E0210003CF30800E007047068070470180D6
S11310F07047C0461C1100006D0003682B2103CF0C
S11311003288121832800E007047028892190280C9
S113111070470288521802807047C0462C110000A4
S113112020000263400036787047C0464811000032
S11311306D000263210003CF30700E00704706700B
S1131140704701707047C046701100006D00036362
S11311502B2103CF3278121832700E0070470278B8
S11311609219027070470278521802707047C04694
S1131170981100006D0004626973210003CF326886
S1131180024332600E0070470268324302607047C7
S113119002680A4302607047C01100006D000462D7
S11311A06963210003CF3268824332600E007047C6
S11311B00268B2430260704702688A430260704763
S11311C0E81100006D0004786F72210003CF3268CB
S11311D0424032600E0070470268724002607047FD
S11311E002684A4002607047041200002000046252
S11311F06974400001CF3668064001D00026F643EA
S11312007047C0462C1200006D00056862697321A6
S113121003CF3288024332800E0070470288324383
S11312200280704702880A4302807047541200000B
S11312306D0005686269632103CF3288824332807E
S11312400E0070470288B2430280704702888A43C6
S1131250028070477C1200006D000568786F72216F
S113126003CF3288424032800E00704702887240B9
S11312700280704702884A4002807047981200003A
S1131280200005686269744001CF3688064001D0A9
S11312900026F6437047C046C01200006D00056387
S11312A06269732103CF3278024332700E007047B3
S11312B0027832430270704702780A430270704722
S11312C0E81200006D0005636269632103CF327880
S11312D0824332700E0070470278B2430270704746
S11312E002788A4302707047101300006D00056392
S11312F0786F722103CF3278424032700E0070470B
S1131300027872400270704702784A400270704757
S11313102C130000200005636269744001CF367805
S1131320064001D00026F6437047C0463C13000037
S113133061000563656C6C2B043670474C13000028
S113134061000563656C6C73B60070475C14000043
S1131350000006666C6173682100300040CF3100E4
S113136040CF854B984268D3844B99422ED00322B8
S113137002402CD102689A4246D1814A13788022D5
S11313801A40FAD030221A4002D07D4A302313701A
S11313907C4A062313707C4A1070000A7B4A107042
S11313A0000A7B4A10707B4A1170090A7A4A11704C
S11313B0090A7A4A1170090A794A1170704A80231D
S11313C013706F4A137880221A40FAD0704700F0E5
S11313D03DFD3041646472657373206861732074E9
S11313E06F20626520342D616C69676E65642066C8
S11313F06F722077726974696E6720666C617368B6
S113140020210A0002F0B6FB00F020FD29466C61A1
S11314107368206C6F636174696F6E2063616E6EB4
S11314206F74206265207772697474656E207477B6
S113143069636520210A02F09DFB00F007FD194352
S1131440616E6E6F7420777269746520696E746F53
S113145020636F726520210A02F08CFBE014000007
S113146000000E666C617368706167656572617314
S113147065000FB5300040CF3F4B984220D3032383
S113148098433F4A137880221A40FAD030221A40F7
S113149002D03B4A302313703A4A092313703A4A64
S11314A01070000A394A1070000A394A1070344A20
S11314B080231370324A137880221A40FAD00FBD69
S11314C000F0C4FC1443616E6E6F74206572617326
S11314D06520636F726520210A0002F04BFBC04651
S11314E05C15000000000A6572617365666C6173C7
S11314F06800214872B62B492B4A036893421CD0DA
S1131500043F3E600600043F3E6000F09FFC10452F
S11315107261736520626C6F636B206174202000BC
S113152000F00CFD00F092FC0C2066726F6D2046FA
S11315306C6173680A00FFF79CFF04308842DCD1B9
S113154000F084FC1246696E69736865642E20524B
S11315506573657420210A0002F0E7FB6016000041
S113156000000E6572617365666C61736866726F04
S11315706D00300040CFBDE700400000FFFFFFFFDB
S1131580000002400700024004000240050002403F
S11315900600024008000240090002400A0002401E
S11315A00B00024000000200FFFFFFFF62486021C1
S11315B00022028002300139FBD170475E4860216D
S11315C00288002A18D000F041FC28556E70616929
S11315D07265642031362D62697420466C617368CB
S11315E0207772697465206C65667420616C6F6E17
S11315F0652E0A0002F0BEFA02300139E0D17047CC
S11316004D482021028843881B041A43B24225D046
S113161006300139F6D100F019FC3C446573697257
S11316206564206C6F636174696F6E206E6F7420E3
S1131630666F756E6420696E20466C6173682077EE
S11316407269746520636F6C6C656374696F6E2076
S11316507461626C652E0A0002F08CFA8688704709
S11316603C17000000000768666C6173682130B5A0
S1131670320040CF0120104013D000F0E7FB1E6879
S1131680666C61736821206E656564732065766598
S11316906E206164647265737365732E0A0002F0D0
S11316A069FA0223534024482021048845882D04E4
S11316B02C439C422BD006300139F6D11E48202100
S11316C0048845882D042C43002C1AD00630013997
S11316D0F6D100F0BBFB27546F6F206D616E79204B
S11316E0756E7061697265642031362D626974208B
S11316F0466C617368207772697465732E0A02F010
S113170039FA0280120C4280868040CF30BD02211B
S1131710114003D0023A8188360401E0818809042B
S11317200E43043F3E601600002101804180818009
S1131730FFF713FE30BD00002CF3FF1F501700000D
S11317406900012B01CF3618704736180036C046A1
S1131750641700006900012D01CF861B7047361AFB
S1131760003EC04674170000610002312D00013EA6
S11317707047C04684170000610002312B00013617
S11317807047C04694170000610002322D00023EEB
S11317907047C046A4170000610002322B000236D5
S11317A07047C046B81700006100066E6567617433
S11317B0650076427047C046CC17000061000361A3
S11317C06273002E00D576427047C046141800009C
S11317D0420005752F6D6F64310040CF002903D19D
S11317E0043F3E6000267047012200238E4206D942
S11317F0003104D45200490001D48E42FAD88E42FA
S113180001D3761A134349085208F8D1043F3E60C5
S11318101E007047841800004200042F6D6F64009E
S113182000B5300040CF002E1CDA764200280CDAD6
S11318304042043F3E600600FFF7CEFF300040CF39
S11318407642043F3E60060000BD043F3E60060051
S1131850FFF7C2FF300040CF40427642043F3E6073
S1131860060000BD002807DA4042043F3E6006003F
S1131870FFF7B2FF764200BD043F3E600600FFF76B
S1131880ABFF00BD981800004200036D6F6400B503
S1131890FFF7C6FF40CF00BDAC1800004200012F87
S11318A000B5FFF7BDFF043700BDC046BC180000FB
S11318B06A00012A01CF464370474643CC18000012
S11318C0610002322A0076007047C046DC1800002E
S11318D0610002322F0076107047C046F0180000F5
S11318E06100046576656E0001203040361870474B
S11318F0081900008100046261736500043F3E60C2
S1131900124E70470A000000201900000000066211
S1131910696E617279000D48022101607047C0460A
S113192038190000000007646563696D616C07483D
S11319300A2101607047C04698190000000003683E
S1131940657802481021016070470000FC2F0020D8
S113195083498448016084498448016084498548F6
S113196001608549854801608548016000218548FA
S11319700170854801708548017085480170062111
S1131980844801700021844801701A218348017041
S11319900C217C4801707047B4190000810009686B
S11319A06F6F6B2D656D6974043F3E607C4E7047AC
S11319B0B61A0000D0190000810008686F6F6B2D03
S11319C06B657900043F3E60764E7047DE1A000076
S11319D0F019000081000A686F6F6B2D656D6974E2
S11319E03F00043F3E60704E70470C1B0000C04631
S11319F00C1A0000810009686F6F6B2D6B65793FCD
S1131A00043F3E60694E70473E1B00002C1A0000E4
S1131A1081000A686F6F6B2D706175736500043FF8
S1131A203E60634E70470E3C0000C046441A0000FE
S1131A30000004656D6974000FB5594800F02FF873
S1131A400FBDC046581A00000000036B65790FB53E
S1131A50544800F024F80FBD701A0000000005651A
S1131A606D69743F00B5504800F019F800BDC046D8
S1131A70881A00000000046B65793F0000B54B48EC
S1131A8000F00DF800BDC046A41A00000000057067
S1131A906175736500B5464800F001F800BD006843
S1131AA08746C046CC1A000000000B73657269615A
S1131AB06C2D656D697400B500F028F8002E40CFD8
S1131AC0FAD03C48067040CF00BDC046F81A00006A
S1131AD000000A73657269616C2D6B65790000B54D
S1131AE000F02DF8002E40CFFAD03248043F3E607B
S1131AF00678F6B200BDC0462C1B000000000C7333
S1131B00657269616C2D656D69743F0000B5FFF7FE
S1131B10C1FF294808210170043F3E600026264881
S1131B2080220178114000D0F64300BDBC1B0000A8
S1131B3000000B73657269616C2D6B65793F00B5AC
S1131B40FFF7A8FF1C4808210170043F3E600026EF
S1131B50194820220178114000D0F64300BD00004E
S1131B60803F000038800440300400F0348004409A
S1131B7000000004048004400002000004900440BB
S1131B800890044003A0064002A0064006A00640B8
S1131B9005A006400AA0064000A0064001A0064099
S1131BA0F82F0020F42F0020F02F0020EC2F00202D
S1131BB0E82F002007A0064004A00640E01B000018
S1131BC00000076365787065637400B5386801B414
S1131BD00130386000F00BF801BC067040CF00BD46
S1131BE0541C00000000066163636570740000B556
S1131BF002CF01390022FFF72AFF300040CF20280E
S1131C0019D2092816D00A281FD00D281DD008285B
S1131C10F1D1002AEFD000F019F903082008002AB6
S1131C20E9D0885C013A80230340E4D04023034098
S1131C30F5D0E0E72020B242DDD2043F3E6006004A
S1131C40FFF7FAFE01328854D5E7160000F0A8F831
S1131C5000BDC046681C0000400003746962043F74
S1131C603E602B4E7047C046801C00008100033E3E
S1131C70696E043F3E60274E704700000000C04676
S1131C80A81C000082000E63757272656E742D7359
S1131C906F7572636500043F3E601F4E704700001D
S1131CA0000064F0FF1FC046C41C0000000009735C
S1131CB06574736F75726365174802CF066041607F
S1131CC040CF7047E41C0000000006736F75726318
S1131CD06500043F3E60104E043F7068386036680B
S1131CE07047C0461C1D00000000057175657279BF
S1131CF00FB5084800210160FFF7B1FF043F3E60C3
S1131D00043F3E60C826FFF772FFFFF7D5FF0FBD03
S1131D1064F0FF1FE42F0020DC2F00206C1D000066
S1131D20000007636F6D706172650FB5310040CFBD
S1131D3001CF884202D040CF00260FBD02CF002839
S1131D4010D001380A5C335C412A02D35B2A00D2EA
S1131D502032412B02D35B2B00D220339A42EED0A7
S1131D6000260FBD0026F6430FBDC046801D0000AF
S1131D7000000263720000B500F068F8010A00BDBB
S1131D80941D0000000002626C00043F3E602026A7
S1131D907047C046A81D00000000057370616365AC
S1131DA0043F3E60202647E6D01D00000000067375
S1131DB070616365730000B5002E06DD043F3E606C
S1131DC02026FFF739FE013EF8D140CF00BDC046C2
S1131DD0E01D00005000065B636861725D0005E071
S1131DE0F81D0000000004636861720000B501F092
S1131DF063FB40CF367800BD081E00005000012868
S1131E00043F3E60292606E0241E00005000015CC9
S1131E10043F3E60002600B501F058FB043740CF74
S1131E2000BDC0466C1E00001000022E2200B848FF
S1131E3000B5043F3E60060000F010FA043F3E6027
S1131E40222601F043FB00F072FD00BD0AB4043FFA
S1131E503E607646013E33780121013319405B1818
S1131E607146C9188E460ABC3CE0C046941E000068
S1131E70100002632200A748DAE7043F3E6076467A
S1131E80013E33780121013319405B187146C918AA
S1131E908E467047C01E00001000027322009E4848
S1131EA0C6E7043F3E607646043F3E60013E367816
S1131EB00121731C19405B187146C9188E4670477E
S1131EC0D81E0000000005636F756E740136043F70
S1131ED03E60013E36787047001F00000000056335
S1131EE07479706501B53078002807D00136043F55
S1131EF03E603678FFF7A0FD0138F7D140CF01BD31
S1131F00301F00000000047479706500310040CF78
S1131F10300040CF00B5002908D00022043F3E60C5
S1131F20865CFFF789FD01329142F7D100BDC046BE
S1131F306C1F00000000046865782E0007B53100AE
S1131F4040CF20200F220438043F3E600E00C640DC
S1131F501640092E01D9373600E03036FFF76CFD04
S1131F600028F0D1FFF71CFF07BDC0467C1F00000E
S1131F70000003682E731FB5684C0EE08C1F000030
S1131F80000003752E731FB5654C06E00C2000009D
S1131F900000022E73001FB5624C6349C91B8908F7
S1131FA0624A106803B40A201060FFF74FFF085319
S1131FB07461636B3A205B00043F3E600E0001F0E5
S1131FC059FCFFF743FF025D200003BC574A106031
S1131FD000290AD0564A106806B4043F3E60060041
S1131FE0A04706BC043A0139F5D1FFF72FFF0620BC
S1131FF0544F533A2000043F3E603600A047FFF799
S113200025FF04202A3E0A001FBDC0465C200000B4
S113201000000464756D700000B5300040CF2021CD
S1132020FFF714FF072064756D703E0A043F3E609D
S11320300600FFF783FFFFF709FF023A200002883A
S1132040043F3E601600FFF779FFFFF7FFFE032011
S11320503E0A02300139E9D100BDC04634210000F6
S1132060000005776F72647300B5FFF7EFFE067723
S11320706F7264730A0000F08EFE300040CF8179E5
S1132080FF2944D0FFF7E2FE09416464726573736B
S11320903A20043F3E600600FFF750FFFFF7D6FEEC
S11320A0064C696E6B3A200002680430043F3E60BF
S11320B01600FFF743FF01880230FFF7C7FE07460B
S11320C06C6167733A20043F3E600E00FFF736FFF1
S11320D0043F3E60060000F07BFEFFF7B7FE0643B8
S11320E06F64653A2000043F3E600600FFF726FF58
S11320F0FFF7ACFE064E616D653A2000FFF7F2FE75
S1132100FFF7A4FE010A501C01D01000B7E700BD80
S11321104C1E00007A1E0000A21E00003D1F00009D
S113212063380000753800002CF2FF1FFC2F0020DC
S113213028F2FF1F502200000000107265676973C7
S11321407465726C69746572616C2C003FB53500FE
S113215040CF2900C90029432D029F480543FF238E
S113216000223000D040984301D00132F9E730001A
S1132170D04018402843043F3E60060000F09FFB17
S11321809648054318009040864310D00024300040
S1132190E040984301D00134F9E7101B043F3E604E
S11321A00E008001064300F08AFB2200DFE7002ACC
S11321B006D0043F3E600E009201164300F07FFB00
S11321C040CF3FBD1FB5310040CF854C0C43C90003
S11321D00C434901300040CF020EFF231A407E4BCE
S11321E00B431343043F3E601E0000F068FB043FB2
S11321F03E60260000F063FB020CFF231A40794B7B
S11322000B431343043F3E601E0000F058FB043FA1
S11322103E60260000F053FB020AFF231A40714B74
S11322200B431343043F3E601E0000F048FB043F91
S11322303E60260000F043FB0200FF231A40694B76
S11322400B431343043F3E601E0000F038FB1FBDE8
S1132250C022000000000563616C6C2C0FB53300D4
S113226000F05CFE300040CF1B1A043B5E4919406D
S113227000290ED05D4A91420BD00136043F3E60E6
S11322800026FFF763FF043F3E60594E00F017FB42
S11322900FBD40CF5B085748574919400843DB0A34
S11322A056491940090408439B0A0121194089062B
S11322B00843043F3E60060000F029FB0FBDC04602
S11322C0142300000000086C69746572616C2C00B2
S11322D008B5043F3E604A4E00F0F1FA043F3E6008
S11322E0484E00F0ECFA484B3000184098420BD1AD
S11322F0F643043F3E600626FFF728FF043F3E6096
S1132300424E00F0DCFA08BD043F3E600626FFF7AB
S11323101DFF08BD3C230000000006637265617464
S1132320650000B500F03FF8232000025B308047D1
S1132330043F3E607646013E00BDC046982300003F
S1132340200005646F65733E232000025B308047E4
S1132350043F3E607646013E7047043F3E60764649
S1132360013E00F0D6F82A4A1368310040CF02201B
S1132370084000D10231023111600136043F3E6051
S11323800026FFF71FFF043F3E60194E00F097FA46
S1132390136000F012FA00BD182400000000073C8E
S11323A06275696C647300B500F08CFB00F0B6FDD7
S11323B00220064040CF04D1043F3E60362600F0A0
S11323C07EFA043F3E60134E00F079FA043F3E600B
S11323D0102600F0DFFA00BD00200000001000000D
S11323E000020000003000000100C0FF0000C0FF38
S11323F08047000000F800F0FF070000FF03000022
S1132400043F00003E6000000000FFFFF6430000B0
S113241000F0FF1F00B50000242400005000035BFF
S1132420275D03E03C2400000000012700B501F013
S113243043F800F00FFD40CF00BDC04688240000E3
S1132440100008706F7374706F6E650000B501F052
S113245033F800F0FFFC300040CF10210140102978
S11324600ED020210140202905D1FFF731FF043F80
S11324703E60C64E04E0FFF72BFF043F3E60C44EAF
S1132480FFF7ECFE00BDC046D4240000000007693D
S11324906E6C696E652C00B5BE49BF4ABF4B30886F
S11324A0884208D0904208D0984206D0043F3E604B
S11324B0060000F004FA0236F1E740CF00BD0EB486
S11324C0B54AB64B01880230914201D09942F9D104
S11324D00EBC7047E82400000000047265742C00F0
S11324E0043F3E60AC4EEAE1F8240000300004658D
S11324F078697400F4E7C04648250000300007728C
S113250065637572736500B500F003F8FFF7A6FE06
S113251000BD0FB5A248006806300178FF2909D133
S1132520043F3E60060001B4FFF76AF801BCFF21D6
S1132530314040CF013101220A4089184018043F3C
S11325403E6006000FBDC046602500008100057393
S113255074617465043F3E60924E70470000000051
S1132560742500000000015D8E480021C94301600C
S11325707047C046842500001000015B8948002193
S113258001607047AC2500000000013A00B58648A0
S1132590076000F097FA043F3E607E4E00F08FF92A
S11325A080480021C943016000BDC046F4250000F5
S11325B03000013B00B57C480168B9420ED0FFF7FA
S11325C045FC1520537461636B206E6F7420626147
S11325D06C616E6365642E0A01F0CCFA043F3E60C0
S11325E06D4E00F06CF900F0E8F86E4800210160CF
S11325F000BDC0460C2600000000076578656375C1
S11326007465300040CF01308746C0462426000060
S1132610100009696D6D656469617465043F3E600D
S11326201026FBE03C260000100006696E6C696E03
S11326306500043F3E602026F0E0C04658260000B6
S113264010000B636F6D70696C656F6E6C79043F7D
S11326503E603026E2E0C0467426000010000A30D6
S11326602D666F6C6461626C6500043F3E604026B9
S1132670D4E0C0469026000010000A312D666F6C2D
S11326806461626C6500043F3E604126C6E0C0465A
S1132690AC26000010000A322D666F6C6461626C17
S11326A06500043F3E604226B8E0C046C8260000EC
S11326B010000A332D666F6C6461626C6500043F20
S11326C03E604326AAE0C046E426000010000A3417
S11326D02D666F6C6461626C6500043F3E60442645
S11326E09CE0C0460027000010000A352D666F6C80
S11326F06461626C6500043F3E6045268EE0C0461E
S11327001C27000010000A362D666F6C6461626C31
S11327106500043F3E60462680E0C046382700003E
S113272010000A372D666F6C6461626C6500043FAB
S11327303E60472672E0C046682700000000086338
S11327406F6E7374616E740000B500F0BBF9FFF72F
S1132750BFFD043F3E60114E00F0B1F8FFF785FF66
S113276000F02BF800BDC046AC2700000000093281
S1132770636F6E7374616E7400B500F0A3F9396809
S11327803E600E46FFF7A4FDE1E70000962400003A
S11327905C22000000B5000000BD0000704700008E
S11327A004F0FF1FD82F002010F0FF1F0C2800009A
S11327B0000006736D756467650000B52448016800
S11327C0234A91421CD202390A88224B9A4204D1EC
S11327D0043F3E60002600F072F800F05EF81E48E8
S11327E00068043F3E6006001C4909680431184A29
S11327F01368116000F063F81360FEF7DFFE00BD9C
S113280000F04BF8043F3E60002608E0602800001A
S1132810000008736574666C6167730000B50C484A
S113282001680B4A914205D20B48016831430160AB
S113283040CF00BD320040CF084800680430018812
S1132840044B994201D1110000E01143018000BD05
S113285000F0FF1FFFFF00001CF0FF1F04F0FF1F2C
S113286070280000000005616C69676E15E0C046C1
S11328708C280000410007616C69676E6564012063
S1132880304036180220304036187047B428000013
S1132890000007616C69676E342C00B57F480168DD
S11328A00220014004D0043F3E60002600F007F8F7
S11328B000BDC046E8280000000002682C000FB5E7
S11328C076480168754A914205D2043F3E600E0085
S11328D0FEF7CDFE02E0320040CF0A80043F3E60A6
S11328E0022600F057F80FBD042900000000012C57
S11328F000B5043F3E60FFF7E2FF360CFFF7DFFF51
S113290000BDC046202900000000033E3C2C00B559
S1132910043F3E60360CFFF7D2FFFFF7D0FF00BD47
S113292088290000000007737472696E672C07B56C
S1132930FF21314040CF300040CF002905D1043F72
S11329403E600026FFF7BBFF07BD043F3E600678EC
S113295036020E43FFF7B3FF0130013902290AD3CF
S1132960043F3E604678360202781643FFF7A7FF1D
S113297002300239F2E7002900D107BD043F3E606E
S11329800678FFF79CFF07BDE429000000000561FD
S11329906C6C6F7441480168404A91420FD2320016
S11329A040CF89183E4A914219D3FFF74FFA0B469C
S11329B06C6173682066756C6C0A01F0DBF8320098
S11329C040CF8918374A1268914208D3FFF73EFA7C
S11329D00952616D2066756C6C0A01F0CBF80160D8
S11329E07047C0460C2A000000000D636F6D7069CB
S11329F06C65746F72616D3F043F3E60002627482A
S1132A0000682649884248D3F64370472C2A0000C0
S1132A1000000C636F6D70696C65746F72616D009A
S1132A201E4800681D49884211D37047B42A00002B
S1132A3000000E636F6D70696C65746F666C617312
S1132A406800164800681549884200D27047164845
S1132A50164902680B680A6003601048144902684A
S1132A600B680A6003600F480068834215D300B501
S1132A70FFF7ECF923205661726961626C6573207B
S1132A80636F6C6C6964652077697468206469633A
S1132A9074696F6E6172790A00BD704700F0FF1FA0
S1132AA00000020020F0FF1F04F0FF1F18F0FF1FBA
S1132AB014F0FF1F982B0000000008286372656162
S1132AC07465290000B500F0F7FC002E0ED1FFF765
S1132AD0BDF91520437265617465206E6565647384
S1132AE0206E616D6520210A01F044F83868043FC6
S1132AF03E60043F386000F07BF940CF002E40CFA9
S1132B0011D03868043F3E60043F3860FFF79EF9F7
S1132B10095265646566696E6520FFF7F7F9FFF78A
S1132B2095F9022E0A00FFF7B8FE00F0F7F98B487A
S1132B3000688A4988421BD2894800210160043F09
S1132B403E600626FFF726FFFEF7D6F8FFF7EFFEF6
S1132B50844801680A68531C07D1804A13681160CD
S1132B60043F3E60FFF7C4FE1360066040CF00BD23
S1132B707C48043F3E600668FFF7BAFE043F3E60AF
S1132B800026F643FFF79BFE7648310040CF0160F4
S1132B90FFF7CDFE00BDC046B02B00000000087654
S1132BA061726961626C6500043F3E60012613E056
S1132BB0C82B0000000009327661726961626C659D
S1132BC0043F3E60022607E0A02C00000000096ECE
S1132BD07661726961626C6500B5FFF773FF5F48E7
S1132BE001685E4A914233D20F200640B2005E482B
S1132BF00168891A5D4A91420BD2FFF727F90F4EFB
S1132C006F7420656E6F7567682052414D0A00F03D
S1132C10B1FF0160043F3E600E00FFF759FB043F23
S1132C203E60534EFFF74BFE300040CF02000028B9
S1132C3005D00E600431FFF75BFE0138F9D1043F83
S1132C403E6080261643FFF7E9FDFFF7B6FD00BDA1
S1132C5000F064F90220064040CF04D1043F3E60F6
S1132C603626FFF72CFE043F3E60424EFFF74FFE30
S1132C70043F3E60404EFFF74AFE043F3E603C4E38
S1132C80FFF71DFE300040CF002803D0FFF730FED1
S1132C900138FBD1FFF7E9FCFFF78FFD00BDC0460B
S1132CA0802D00000000076275666665723A00B503
S1132CB0FFF708FF01203040361802203040361854
S1132CC026480168254A914226D227480168891B73
S1132CD0264A91420BD2FFF7B9F80F4E6F74206564
S1132CE06E6F7567682052414D0A00F043FF016022
S1132CF0043F3E600E00FFF7EBFA043F3E601C4EBB
S1132D00FFF7DDFDFFF7F4FD043F3E601B4EFFF7C8
S1132D1085FDFFF752FD00BD00F000F902200640DA
S1132D2040CF04D1043F3E603626FFF7C8FD043F80
S1132D303E60104EFFF7EBFD043F3E600E4EFFF782
S1132D40E6FD043F3E600A4EFFF7B9FDFFF722FEA1
S1132D50FFF78BFCFFF731FD00BD000000F0FF1F03
S1132D601CF0FF1F04F0FF1F20F0FF1FECF3FF1FF8
S1132D70704700003E60043F02367E46400100007A
S1132D80B02D000000000F44696374696F6E6172B6
S1132D9079737461727435480068354B1B68334924
S1132DA0043F3E60884201D2324E70471E00704795
S1132DB0E42D000000000A736B6970737472696E0D
S1132DC067003178013101220A408918761870476A
S1132DD006B40178013101220A408918401806BC62
S1132DE07047C0467C2E000000000466696E6400D3
S1132DF03FB5350040CF3400FFF7CDFF300040CF62
S1132E00002600238179FF2920D081881A4A914223
S1132E10026817D00630043F3E600600FFF756F8FC
S1132E20043F3E602600043F3E602E00FEF77DFF17
S1132E30002E40CF06D0FFF7CBFF06000B000B4857
S1132E40864203D2501C01D01000DBE7043F3E60F1
S1132E501E003FBD00B531003868FFF7C9FF3A686E
S1132E60002A01D100F07AFD00BD000000F0FF1F30
S1132E7004F0FF1F30040000FFFF0000D82E000004
S1132E80000006636A756D702C00320040CF31007B
S1132E9040CF8B1B043BA249194000290DD0A14807
S1132EA081420AD0FEF7D2FF0D4A756D7020746F0F
S1132EB06F206661720A00F05DFE5B10FF210B401B
S1132EC0134330001E0000B5974A13681060FFF7E3
S1132ED0F6FC136000BDC046102F00000000056A18
S1132EE0756D702C310040CF300040CF0B1A043B7D
S1132EF08E491940002902D08D4A9142D2D15B10EB
S1132F008C4A13408C4A1343043F3E601E00DAE7A8
S1132F10282F00000000046865726500043F3E60CD
S1132F20814E36687047C0461830000000000D66B8
S1132F306C6173687661722D68657265043F3E60EA
S1132F407E4E3668704700B5043F3E607C4EFFF706
S1132F50B6FC043F3E607B4EFFF7B1FC00BDDDE7ED
S1132F6000B500F037F839683E600E46043F3E6015
S1132F70754EFFF78AFF00BD00B500F02BF83968E5
S1132F803E600E46043F3E60704EFFF77EFF00BD7C
S1132F9000B5FFF7D8FF00F01DF839683E600E4613
S1132FA0043F3E606A4EFFF770FF00BD00B500F0BD
S1132FB011F839683E600E46FFF794FF00BD00B576
S1132FC0FFF7C1FFFFF7AAFF043F3E600226FFF7A9
S1132FD0E1FC00BD00B5FFF7A1FF043F3E600226FF
S1132FE0FFF7D8FC00BD00B5FFF798FFFFF77AFFA5
S1132FF000BD00B5FFF792FF043F3E60544EFFF75B
S113300044FF00BD00B5FFF789FF043F3E604E4E0C
S1133010FFF73BFF00BDC04654300000300004748D
S113302068656E00052E01D140CFDCE7022E01D188
S113303040CFDEE7FEF70AFF1753747275637475A9
S113304072657320646F6E2774206D617463680AFF
S113305000F090FD80300000300004656C73650062
S113306000B5022EE6D140CFFFF7B4FF39683E60C9
S11330700E46FFF7BEFF043F3E60052600BDC04676
S11330809830000030000269660000B5FFF797FF32
S1133090043F3E60022600BDC030000030000672CE
S11330A0657065617400042EC4D140CF39683E60F8
S11330B00E4600B5FFF77AFFFFF79BFF00BDC04641
S11330C0DC3000003000057768696C65012EB1D1F1
S11330D040CF00B5FFF7D9FF023600BDF030000045
S11330E0300005756E74696C012EA3D140CF4FE793
S11330F004310000300005616761696E012E99D1C9
S113310040CF53E754310000300005626567696EB3
S113311000B5FFF724FF043F3E60012600BD000018
S113312001FFFFFF00FFFFFF00F0FF1F01F8FFFF9B
S113313000F8FFFFFF07000000E0000020F0FF1F81
S1133140002E000040CF000000D1000000D7000096
S113315000D00000643100002000016B043F3E6099
S1133160029E7047743100002000016A043F3E60F3
S1133170009E70478431000020000169043F3E60D6
S113318026007047C43100003000056C6561766527
S113319000B5674801683B00043F1A68043B1A60A5
S11331A0043304338B42F8D103B4FFF713FF03BC99
S11331B0330040CF04390B60016004390A680132DE
S11331C00A6000BDD8310000200006756E6C6F6F78
S11331D0700030BC7047C046103200003000052B30
S11331E06C6F6F70032E00D024E740CF00B5043F0E
S11331F03E60504EFFF74FF9FFF7BEFE1AE0802005
S113320000060019A419401B801940CF7047C0461E
S1133210543200003000046C6F6F7000032E00D035
S113322008E740CF00B5043F3E60434EFFF733F953
S1133230FFF796FE00F01CF93D48310040CF0160D5
S1133240043F3E603D4EFFF726F900BD0134AC4219
S11332507047C0469C320000780002646F0000B5DD
S1133260043F3E60364EFFF716F931480168043FCB
S11332703E600E00043F3E6000260760FFF76FFECD
S1133280043F3E60032600BD00B500F02EF8ECE7D5
S113329030B4340040CF350040CF70475033000085
S11332A07800033F646F00B5043F3E60244EFFF78F
S11332B0F2F8043F3E60234EFFF701FB1C4801680F
S11332C0043F3E600E00FFF785FE0136043F3E607A
S11332D0012617480760FFF742FE043F3E600326BD
S11332E000BD00B500F001F8E3E700B5043F3E601F
S11332F0154EFFF7E4FA043F3E600426FEF726FF6E
S1133300013B08D0043F3E600526FEF71FFF013B4A
S113331000F00AFC00BD043F3E603526FFF7CFFAFB
S1133320043F3E60094EFFF7CAFA00F0FDFB00BD02
S11333300CF0FF1FFE3100004C320000D2310000BF
S113334090320000AC42000030B4000040CF0000D6
S11333506C3300003000046361736500043F3E6019
S11333600026043F3E6008267047C04684330000B0
S11333703000033F6F6648480AE0013EB64140CF43
S11333807047C046103400007800026F660043485E
S1133390082E00D04EE640CF00B5043F3E60060044
S11333A0FFF779F8FFF716FE39683E600E460136DE
S11333B0043F3E600926043F3E60394EFFF77FFA22
S11333C000BD00B5300040CF013B01B400F0ACFBC0
S11333D001BC082E00D02DE640CF043F3E6006001D
S11333E0FF213140B14204D12E490E43FFF767FA61
S11333F0D8E7043F3E600026FEF7A8FE043F3E6087
S1133400294EFFF75CFACDE7300040CFB042704759
S113341048340000300005656E646F66092E00D0E4
S113342008E640CF00B540B440CFFFF7D3FD39687C
S11334303E600E46FFF7E6FD043F3E6040BC043F9D
S11334403E60082600BDC046AC340000300007656D
S11334506E6463617365082E00D0EBE540CF00B560
S1133460043F3E600E4EFFF72AFA00F001F800BD5B
S113347000B5300040CF00280DD003B40121314005
S1133480002903D0013EFFF7B4FD01E0FFF7ABFDD7
S113349003BC0138EFE700BD7A33000008340000B4
S11334A040CF0000002E0000B0420000C0340000F5
S11334B0000005746F6B656E043F3E60202605E0D6
S11334C01C350000000005706172736510B5FEF7CD
S11334D000FC310040CF300040CF0F4A12688418FE
S11334E0202E07D191420FD0835CB34202D1013226
S11334F08418F7E7914207D0835C0132B342F9D1D3
S11335008618361B013E01E08618361B043F3C60DA
S11335100148026010BD0000E42F00205C3500006B
S11335200000056469676974D44B1B68303E0BD393
S11335300A2E0BD3073E0A2E06D3242E06D3203E92
S11335400A2E01D3242E01D3002670479E42FBD2BB
S1133550043F3E600026F6437047C04668360000CC
S11335600000066E756D626572003FB5310040CF94
S1133570701E0126012204B4C04B1B6800240025E0
S113358000293CD00130013902782D2A04D101B040
S11335900022D24304B4F3E7232A01D10A23EFE73C
S11335A0242A01D11023EBE7252A01D10223E7E7DE
S11335B02E2A01D10226E3E72C2A36D0043F3E60AE
S11335C01600FFF7B3FF002E40CF2BD0043F3E6020
S11335D02600043F3E602E00043F3E601E00043F70
S11335E03E6000260FB4FDF784F80FBC350040CFD1
S11335F0340040CF0022A419554140CFC0E704BC99
S1133600002A04D50022E443ED430134554133003C
S11336102600012B02D0043F3E602E00043F3E6092
S11336201E003FBD01B000263FBD25000024022638
S11336300029E4D0425C01392E2AF9D0043F3E60CF
S11336401600FFF773FF002E40CFEBD0043F3C6021
S1133650043F3E601E000FB4FDF7FFF80FBC3400BA
S113366040CF40CFE4E7C0468C3600000000062E71
S11336706469676974000A2E01D2303604E0242E8E
S113368001D2373600E023267047C046C436000016
S1133690000004686F6C6400330040CF7848017800
S11336A03F290DD2013101704018012907D001389A
S11336B0027801300270013801390129F7D1037011
S11336C07047C046E4360000000005686F6C643C37
S11336D0330040CF6A4801783F2902D2013101709A
S11336E043547047FC3600000000047369676E00A1
S11336F0002E01D440CF70472D26CDE710370000AF
S1133700000002233E005E480678013038607047AE
S11337102837000000000366235310B5202400F06E
S113372008F8013CFBD110BD4C37000000000266D4
S1133730230000B5043F3E60504E3668FCF7ABFFF3
S1133740FFF799FFFFF7C4FF00BDC04668370000CC
S113375000000223530000B500F00AF8002EFBD14C
S113376038680028F8D100BD943700000000012318
S113377000B5043F3E60414E3668043F3E6000267B
S1133780FDF7CBF8FCF784FE40CFFFF774FFFFF79B
S113379083FF00BDA83700000000023C2300384826
S11337A0002101707047C046BC370000000002666B
S11337B02E00043F3E60202605E0C0460C38000081
S11337C0000003662E6E00B510B4340040CFFDF740
S11337D07BFAFCF717FF043F3E600026FFF7DFFF8C
S11337E0FFF7B9FF40CF2C26FFF772FF002C03D060
S11337F0FFF79FFF013CFBD110BC40CFFFF778FFE0
S1133800043F3E60043F3E601EE0C0462438000092
S113381000000375642E00B5FFF7C1FFFFF79BFF9F
S113382012E0C04658380000000002642E0000B5C3
S1133830FDF74AFAFCF7E6FEFFF7B1FFFFF78BFF4F
S1133840FDF74DFAFFF754FFFFF75DFFFEF75EFB50
S1133850FEF7A6FA00BDC0466C38000000000275F1
S11338602E00043F3E600026D5E7C04684380000A1
S11338700000012E043F3E60F617D8E7FC2F00201D
S113388024F0FF1FCC3800000000086576616C75D9
S11338906174650000B5FEF71CFA01CF01B440B4B1
S11338A040CFC448016802B400210160FEF704FA65
S11338B000F014F8BF4802BC0160043F3E6040BC05
S11338C001BC043F3860FEF7F7F900BD4C3B000033
S11338D0000009696E7465727072657430B5B6481B
S11338E087420BD9FEF7B2FA10537461636B2075EB
S11338F06E646572666C6F770A003BE1AF4887427D
S11339000AD2FEF7A3FA0F537461636B206F7665D6
S113391072666C6F770A2DE1A94C2568002D01D1E0
S11339203D002560FFF7C8FD002E02D1043740CFCB
S113393030BD3868043F3E60043F3860FFF758FAF2
S1133940310040CF320040CF002A13D13868310013
S1133950FFF70BFE320040CF002AC0D1FEF7DAFA9F
S1133960FEF774FA0C206E6F7420666F756E642E09
S11339700A00FFE0934B1B68002B1DD10025256036
S113398030230B40302B0ED1FEF7C0FAFEF75EFA5F
S11339901220697320636F6D70696C652D6F6E6C96
S11339A0792E0A00E6E0043740CF043F3E6016005B
S11339B0FEF727FEFFF793FF043740CF802008402F
S11339C0802810D0EB1B9B0840200840402810D1D1
S11339D008200840082802D1002B00D01FE00F2047
S11339E00840834205D3043F3E601600FEF709FEFB
S11339F075E700F099F8043F3E60160010220A4073
S1133A00102A02D1FEF7FDFD69E720220A40202A90
S1133A1002D1FEF740FD62E7FEF720FC5FE70720D6
S1133A2001401000FEF74BFD012915D1012BDAD11D
S1133A30FF213140B14204D140880643FEF73FFFE5
S1133A404DE7043F3E600026FEF780FB043F3E60E6
S1133A500688FEF734FF42E7022902D1012BC2D1C6
S1133A60EFE703291CD1012BBDD1FF213140B14225
S1133A700AD155490E43FEF722FF0432043F3E604B
S1133A801600FEF708FD2AE7043F3E600026FEF715
S1133A905DFB0232043F3E601600FEF7FCFC1EE7AD
S1133AA0042918D1012B9ED1330040CF002B00D123
S1133AB015E71F221A409A4205D0043F3E6046880B
S1133AC0FEF7FDFE0BE7043F3E6006889B011E43A4
S1133AD0FEF7F5FE03E7052923D1012B0FD1043F9F
S1133AE03E600026FEF732FB043F3E600600FEF710
S1133AF0D2FC043F3E60354EFEF7E1FEEFE6043FA4
S1133B003E600026FEF722FB043F3E600126FEF7DE
S1133B101DFBFEF7D4FC043F3E600600FEF7BBFC31
S1133B20DDE601308047DAE600B5002B0BD0013B1F
S1133B30043F3E609E00BE59FEF7CAFB002BF6D13F
S1133B40043D2F0040CF0025256000BD683B0000E8
S1133B50810009686F6F6B2D71756974043F3E6055
S1133B601B4E7047A03B0000E43B000000000471C2
S1133B7075697400174885460F4FFDF717FD164801
S1133B800A2101600F48002101600D4801600948C5
S1133B90016012480160124941600D48006887467F
S1133BA0FEF7A6F8FFF79AFEFEF750F905206F6BB3
S1133BB02E0AF5E7E42F00202CF2FF1F2CF1FF1F43
S1133BC008F0FF1FD82F0020003E000040CF000067
S1133BD0D42F00202CF3FF1FFC2F0020DC2F00200B
S1133BE064F0FF1FF43B000020000465696E74005C
S1133BF062B67047043C000020000464696E7400DF
S1133C0072B67047103C00000000036E6F7070477E
S1133C10343C000081000B6972712D7379737469EF
S1133C20636B043F3E60864E70470E3C0000844840
S1133C3000688746583C00008100096972712D664E
S1133C4061756C74043F3E607E4E70471004000042
S1133C507C4800688746C046783C000081000769BC
S1133C6072712D616463043F3E60774E70470E3C71
S1133C700000754800688746983C00008100076989
S1133C8072712D636D70043F3E60704E70470E3C40
S1133C9000006E4800688746B83C00008100076950
S1133CA072712D646163043F3E60694E70470E3C3F
S1133CB00000674800688746DC3C00008100096911
S1133CC072712D706F727461043F3E60614E704773
S1133CD00E3C00005F4800688746C046003D000077
S1133CE08100096972712D706F727464043F3E60C3
S1133CF0594E70470E3C0000574800688746C0463E
S1133D0000400000FFFF182D2D2D20466C617368C4
S1133D102044696374696F6E617279202D2D2D00C2
S1133D2000214E480160FDF713FE4D4885464D4F76
S1133D302A264D484D4901604D484E4901604D4881
S1133D404D4D040002680430018802304B4B994207
S1133D5022D04B4B0B4009D0FFF73AF8FEF7AFFBEC
S1133D600388408800040343ED1A15E080230B40C8
S1133D7012D00F23194089006D1AFFF729F8FEF7B6
S1133D809EFB043F3E600600043F3E602E00043F5D
S1133D903E600E00FDF746F9501C05D010000632B7
S1133DA01278FF2A00D0CCE7364804603648056014
S1133DB036483749314A884204D00238038893424E
S1133DC0F9D0023033490860FDF7F0FBFEF73EF806
S1133DD0434D6563726973702D5374656C6C6172C5
S1133DE0697320322E302E312077697468204D306B
S1133DF020636F726520666F72204B4C32355A31E6
S1133E003238206279204D61747468696173204B83
S1133E106F63680A204800210160043F3E601F4E22
S1133E20043F3E600426FEF7E3FF40CF002E02D09D
S1133E30FEF7E7FBB1E640CF9CE6696E69740000CB
S1133E40D02F0020CC2F0020C82F0020C42F00200A
S1133E50C02F0020BC2F0020B82F00200081044078
S1133E602CF3FF1F2CF2FF1F00F0FF1FECF3FF1FCA
S1133E7004F0FF1F3004000000300020FFFF0000AA
S1133E800001000018F0FF1F20F0FF1F00000200D7
S1133E900040000014F0FF1F08F0FF1F3A3E00002E
S9030000FC
