:100000002C0300202D3B0000253700002537000081
:1000100000000000000000000000000000000000E0
:100020000000000000000000000000002537000074
:10003000000000000000000025370000033700002A
:10004000493700006D37000091370000B5370000D8
:10005000D937000000000000FF3700001F38000003
:10006000413800006538000089380000AD380000D4
:10007000D1380000F3380000133900003739000090
:1000800057390000793900009D390000C33900005C
:10009000E5390000093A00002D3A0000513A00000D
:1000A000753A0000993A00000000000000000000CE
:1000B0000000000000000000000000000000000040
:1000C00000B501F03DFC16556E68616E646C6564A8
:1000D00020496E7465727275707420210A0000BD2B
:1000E00008010000FFFF1E2D2D2D204D6563726954
:1000F00073702D5374656C6C6172697320436F72F9
:1001000065202D2D2D00C046200100004200043244
:10011000647570003868043F3E60043F3860704783
:10012000340100006200053264726F70043740CF02
:100130007047C04654010000440005327377617077
:1001400007CF043F3860043F3E60043F3A600E0032
:100150007047C04668010000620004326E6970009A
:1001600007CF043F38607047840100004400053227
:100170006F766572B868043F3E60043F3860FE6881
:100180007047C046A8010000440005327475636BD7
:1001900007CF043F3860043F3E60043F3A60043FAD
:1001A0003960043F38607047CC01000046000432DB
:1001B000726F74003868B9683A69B86039613A603A
:1001C00079687E60FE68F9607047C046F001000003
:1001D000460005322D726F743868B9683A69386123
:1001E0003960BA60F968FE607E6879607047C04621
:1001F00004020000200003323E7201CF01B440B47B
:1002000040CF70471C02000020000332723E043FC2
:100210003E6040BC01BC043F3860704734020000BF
:10022000200003327240043F3E60019E043F3E6066
:10023000009E704748020000200006327264726F10
:10024000700002B07047C0466002000042000364C4
:10025000322F3868F107761040080843386070473D
:100260007402000062000364322A38680018764184
:1002700038607047900200004200046473687200A6
:100280003868F10776084008084338607047C04670
:10029000A80200006200046473686C0038680018EB
:1002A000764138607047C046BC02000042000464DA
:1002B00061627300002E16D47047C046D802000059
:1002C0004300083F646E656761746500300040CF8D
:1002D000002808D47047C046F802000042000764B6
:1002E0006E656761746538680021C043F64301306C
:1002F0004E4138607047C04610030000640002643D
:100300002D0007CF121AB1410E00043F3A6070472A
:1003100028030000640002642B0007CF12184E412E
:10032000043F3A607047C0463C030000610003731D
:100330003E64043F3E60F6177047C0466803000005
:10034000420003756D2A3868030073433B60010C5B
:10035000320C0B005343B6B280B24E4350433618B2
:10036000360CF6187047C046980300004200026D34
:100370002A003868C11705D040423860F01704D011
:100380007642E0E7F017DED0764200B5FFF7DBFFFC
:10039000FFF7A9FF00BDC046D80300004400037565
:1003A000642A07CF564341437618010C130C594376
:1003B0007618010C80B292B251434343504300225D
:1003C000C91852411204B6180A04090C80184E418B
:1003D000043F38607047C0466C0400004400047558
:1003E000646D2A0010B50024043F3E607E68043F1F
:1003F0003E603E69FFF7A7FF310040CF300040CF9D
:10040000043F3E603E68043F3E60FE6803B4FFF771
:100410009AFF03BC330040CF320040CF043F3E6020
:100420003E68043F3E603E690FB4FFF78CFF0FBC8F
:100430009219634140CF89196241634140CF043F23
:100440003E607E68043F3E60FE680FB4FFF77BFFAE
:100450000FBC9219634140CF89196241634140CF7B
:100460001E003A607960B86010BDC046900400007C
:100470004300022A2F0000B540B440CFFFF779FFB8
:10048000043F3E6040BC00F065F8043700BDC04644
:10049000B40400004300052A2F6D6F6400B540B41A
:1004A00040CFFFF766FF043F3E6040BC00F052F8CB
:1004B00000BDC046D8040000430003752A2F00B5D4
:1004C00040B440CFFFF73FFF043F3E6040BC00F028
:1004D0001CF8043700BDC046FC040000430006754C
:1004E0002A2F6D6F640000B540B440CFFFF72BFF9B
:1004F000043F3E6040BC00F008F800BD4805000025
:10050000430006756D2F6D6F640010B4786839680C
:1005100000220024202364000018494152419642E1
:1005200001D8921B0134013BF5D120236400491806
:100530005241964201D8921B0134013BF6D1043757
:100540003A60260010BC7047BC0500004300056DF2
:100550002F6D6F6400B5F01718D0764200F024FAC2
:10056000F0170DD0FFF7BFFE00F011FAFFF7CDFF37
:1005700039683E600E46764239683E600E4600BDE0
:1005800000F005FAFFF7C1FF764200BD00F00CFA5B
:10059000F0170ED0FFF7A7FE00F0F9F9FFF7B5FF4F
:1005A000764239683E600E46764239683E600E46B5
:1005B00000BD00F0ECF9FFF7A8FF00BD1806000031
:1005C00044000675642F6D6F640030B43C68B868F1
:1005D00079680022002520236D000018494152410E
:1005E000944201D8121B0135013BF5D120B40025FE
:1005F00020206D00491852415B419E4204D894422C
:1006000002D8121BB34101350138F2D13D60BA6006
:100610007B6040BC30BC704790060000440005641D
:100620002F6D6F6400B5F01719D0FFF75CFEFFF770
:1006300087FDF0170CD0FFF756FEFFF781FDFFF79F
:10064000C4FFFFF77DFDFFF74EFEFFF779FD00BD0C
:10065000FFF776FDFFF7B9FFFFF745FE00BDFFF797
:100660006FFDF0170ED0FFF73EFEFFF769FDFFF7B5
:10067000ACFFFFF738FEFFF763FDFFF734FEFFF72F
:100680005FFD00BDFFF75CFDFFF79FFF00BDC046AB
:10069000A8060000440002642F0000B5FFF7C2FF67
:1006A000FFF75EFD00BDC046400700004400026643
:1006B0002A0000B5F0170DD0FFF715FEFFF740FD3B
:1006C000F0170DD0FFF70FFEFFF78CFE40CF01CFE4
:1006D000386000BDFFF734FDF017F5D0FFF703FEDB
:1006E000FFF780FE40CF01CF3860FFF7FCFD00BD73
:1006F00030B43C68B9687A680023002520206D007A
:10070000491852415B419E4204D8944202D8121BC0
:10071000B34101350138F2D1290020206D00921833
:100720005B419E4204D8944202D8121BB34101356A
:100730000138F3D13D60BA607B600E0030BC704779
:100740008C070000440002662F0000B5F0170ED0A1
:10075000FFF7C9FDFFF7F4FCF0170ED0FFF7C3FD5C
:10076000FFF7EEFCFFF7C4FFFFF7FAFC00BDFFF751
:10077000E7FCF017F4D0FFF7B6FDFFF7E1FCFFF759
:10078000B7FFFFF7B0FDFFF7EBFC00BDA0070000CF
:1007900020000232210006CF3160726040CF7047E6
:1007A000B4070000200002324000043F7068386047
:1007B00036687047D407000044000364753C07CFD7
:1007C0008E4204D801D1904201D8002670470026FD
:1007D000F6437047F407000044000364753E07CFFA
:1007E000B14204D801D1824201D8002670470026C8
:1007F000F643704714080000440002643C0007CF31
:100800008E4204DC01D1904201DC002670470026B4
:10081000F643704734080000440002643E0007CFEE
:10082000B14204DC01D1824201DC0026704700267F
:10083000F64370474408000062000364303C04370C
:10084000F61770476008000042000364303D01CF96
:10085000002801D000267047013EB6417047C046CF
:100860007C080000440003643C3E07CF904201D165
:10087000761A01D00026F6437047C046980800005B
:10088000440002643D0007CF904201D0002670472B
:10089000761A013EB6417047AC0800002000037391
:1008A0007040043F3E603E007047C046BC080000F8
:1008B000200003737021370040CF7047D00800003C
:1008C000200003727040043F3E606E467047C04691
:1008D000E0080000200003727021B54640CF704749
:1008E000FC0800000000056465707468F549C91BC8
:1008F0008908043F3E600E007047C0460C090000A6
:10090000610003647570043F3E6070471C0900007D
:1009100061000464726F700040CF704734090000BA
:100920006100043F64757000002E01D0043F3E60FA
:100930007047C04648090000620004737761700088
:1009400039683E600E007047580900006200036E6F
:10095000697004377047C0466C0900006200046F7C
:1009600076657200043F3E607E687047840900002F
:100970006200047475636B0001CF083F7E603860CD
:100980007047C0469C090000630003726F7403CF78
:10099000083F78603E600E007047C046B409000012
:1009A0006300042D726F740003CF083F7E603960CE
:1009B00006007047C80900002000047069636B00DE
:1009C000B0003E587047C046D80900002000023EE3
:1009D000720040B440CF7047EC0900002000027262
:1009E0003E00043F3E6040BC7047C046000A000025
:1009F000200002724000043F3E60009E7047C046E7
:100A0000100A00002000057264726F7001B0704718
:100A1000280A00006000047472756500043F3E609F
:100A20000026F6437047C0463C0A00006000056699
:100A3000616C7365043F3E6000267047500A0000F9
:100A40006A0003616E6401CF064070470640C046ED
:100A5000640A00006A000362696301CFB0430600C4
:100A600070478643780A00006A00026F720001CF67
:100A7000064370470643C0468C0A00006A000378AC
:100A80006F7201CF464070474640C0469C0A000046
:100A90006100036E6F74F6437047C046BC0A0000E5
:100AA000410003636C7A300006D00026400002D07B
:100AB00001D20136FAE7704720267047CC0A0000C1
:100AC00061000373687276087047C046DC0A000054
:100AD00061000373686C76007047C046EC0A000042
:100AE000610003726F720120C6417047000B000065
:100AF000610003726F6C0020B61946417047C04612
:100B00001C0B00006C00067273686966740001CFEC
:100B1000F0400600704736080026C046380B00003B
:100B20006C00076172736869667401CF304106001A
:100B300070473610F617C046540B00006C00066C68
:100B400073686966740001CFB040060070473600D4
:100B50000026C046640B0000610002303D00013EEB
:100B6000B6417047780B0000610003303C3E013E07
:100B7000B641F6437047C046880B00006100023062
:100B80003C00F6177047C046A40B00004200023E2E
:100B90003D0001CFB04201DA002670470026F6433F
:100BA0007047C046C00B00004200023C3D0001CF30
:100BB000B04201DD002670470026F6437047C0466C
:100BC000D80B00004200013C01CFB04202DA0026FF
:100BD000F643704700267047F00B00004200013ECC
:100BE00001CFB04202DD0026F64370470026704771
:100BF000040C0000620003753E3D01CF861BB64128
:100C0000F6437047180C0000620003753C3D01CFAD
:100C1000361AB641F64370472C0C0000620002758C
:100C20003C0001CF861BB6417047C046400C000017
:100C3000620002753E0001CF361AB6417047C046C9
:100C4000580C00006B00023C3E0001CF361A01D068
:100C50000026F6437047C0466C0C00006B00013D57
:100C600001CF361A013EB6417047C046800C0000E5
:100C70006200036D696E01CFB04200DA0600704772
:100C8000940C00006200036D617801CFB04200DB7C
:100C900006007047AC0C0000620004756D617800BE
:100CA00001CFB04200D306007047C046C80C000018
:100CB000620004756D696E0001CFB04200D8060075
:100CC000704700002C020020080D00000000046D99
:100CD0006F76650007B5310040CF320040CF002964
:100CE0000FD0B2420DD006D3013E013A705C505491
:100CF0000139FBD105E0307810700136013201393D
:100D0000F9D140CF07BDC0462C0D0000000004669D
:100D1000696C6C00300040CF310040CF002902D018
:100D200001397054FCD140CF7047C046380D0000E7
:100D30002000014036687047500D00006D00012111
:100D400003CF30600E007047066070470160704747
:100D5000780D00006D00022B210003CF32681218BD
:100D600032600E0070470268921902607047026894
:100D7000521802607047C046880D000020000268CB
:100D8000400036887047C046A40D00006D00026820
:100D9000210003CF30800E0070470680704701802D
:100DA0007047C046CC0D00006D0003682B2103CFB7
:100DB0003288121832800E00704702889219028021
:100DC00070470288521802807047C046DC0D000050
:100DD00020000263400036787047C046F80D0000DE
:100DE0006D000263210003CF30700E007047067063
:100DF000704701707047C046200E00006D0003630D
:100E00002B2103CF3278121832700E00704702780F
:100E10009219027070470278521802707047C046EB
:100E2000480E00006D0004626973210003CF326830
:100E3000024332600E00704702683243026070471E
:100E400002680A4302607047700E00006D00046281
:100E50006963210003CF3268824332600E0070471D
:100E60000268B2430260704702688A4302607047BA
:100E7000980E00006D0004786F72210003CF326875
:100E8000424032600E007047026872400260704754
:100E900002684A4002607047B40E000020000462FD
:100EA0006974400001CF3668064001D00026F64341
:100EB0007047C046DC0E00006D0005686269732152
:100EC00003CF3288024332800E00704702883243DB
:100ED0000280704702880A4302807047040F0000B6
:100EE0006D0005686269632103CF328882433280D6
:100EF0000E0070470288B2430280704702888A431E
:100F0000028070472C0F00006D000568786F722119
:100F100003CF3288424032800E0070470288724010
:100F20000280704702884A4002807047480F0000E4
:100F3000200005686269744001CF3688064001D000
:100F40000026F6437047C046700F00006D00056331
:100F50006269732103CF3278024332700E0070470A
:100F6000027832430270704702780A430270704779
:100F7000980F00006D0005636269632103CF32782A
:100F8000824332700E0070470278B243027070479D
:100F900002788A4302707047C00F00006D0005633D
:100FA000786F722103CF3278424032700E00704762
:100FB000027872400270704702784A4002707047AF
:100FC000DC0F0000200005636269744001CF3678B1
:100FD000064001D00026F6437047C046EC0F0000E3
:100FE00061000563656C6C2B04367047FC0F0000D4
:100FF00061000563656C6C73B60070479810000063
:1010000000000768666C61736821300040CF3100D2
:1010100040CF574B984224D3564B984221D2564B3F
:10102000194099421CD001220240002A19D102889D
:101030009A4216D1514A012313600223034004D07F
:10104000584003880904194301E04D4B19430160DE
:101050004C4A136801201840FBD0484A0023136013
:10106000704700F06DFC2A57726F6E6720616464F0
:1010700072657373206F72206461746120666F7291
:101080002077726974696E6720666C6173682021CD
:101090000A0002F0DBFAC046D810000000000E661D
:1010A0006C617368706167656572617365000FB527
:1010B000300040CF2E4B98420CD3304A02231360AD
:1010C000314A10602F4A136801201840FBD02B4A88
:1010D000002313600FBDC0465411000000000A65D4
:1010E00072617365666C61736800214872B621494C
:1010F000214A038893421CD0043F3E600600043F0F
:101100003E6000F01DFC10457261736520626C6FDB
:10111000636B20617420200000F08AFC00F010FC5A
:101120000C2066726F6D20466C6173680A00FFF7D1
:10113000BEFF02308842DCD100F002FC1246696E2C
:1011400069736865642E20526573657420210A00F6
:1011500002F0EEFC8C11000000000E6572617365F8
:10116000666C61736866726F6D00300040CFBDE7DA
:101170000040000000000400FFFF000004E5014003
:101180000000FFFF00E4014008E50140A01100005D
:101190006900012B01CF3618704736180036C0465B
:1011A000B41100006900012D01CF861B7047361A6B
:1011B000003EC046C4110000610002312D00013E16
:1011C0007047C046D4110000610002312B00013687
:1011D0007047C046E4110000610002322D00023E5B
:1011E0007047C046F4110000610002322B00023645
:1011F0007047C046081200006100066E65676174A2
:10120000650076427047C0461C1200006100036111
:101210006273002E00D576427047C046641200000B
:10122000420005752F6D6F64310040CF002903D156
:10123000043F3E6000267047012200238E4206D9FB
:10124000003104D45200490001D48E42FAD88E42B3
:1012500001D3761A134349085208F8D1043F3E607F
:101260001E007047D41200004200042F6D6F64000E
:1012700000B5300040CF002E1CDA764200280CDA90
:101280004042043F3E600600FFF7CEFF300040CFF3
:101290007642043F3E60060000BD043F3E6006000B
:1012A000FFF7C2FF300040CF40427642043F3E602D
:1012B000060000BD002807DA4042043F3E600600F9
:1012C000FFF7B2FF764200BD043F3E600600FFF725
:1012D000ABFF00BDE81200004200036D6F6400B573
:1012E000FFF7C6FF40CF00BDFC1200004200012FF7
:1012F00000B5FFF7BDFF043700BDC0460C1300006A
:101300006A00012A01CF4643704746431C13000080
:10131000610002322A0076007047C0462C1300009C
:10132000610002322F0076107047C0464013000063
:101330006100046576656E00012030403618704704
:10134000581300008100046261736500043F3E6031
:10135000124E70470A000000701300000000066281
:10136000696E617279000D48022101607047C046C4
:1013700088130000000007646563696D616C0748AD
:101380000A2101607047C046641400000000036831
:10139000657802481021016070470000FC3F002082
:1013A000A148A2490160A248A24901607047A24831
:1013B0000068A249084001281DD1A1480068A14940
:1013C000084018D1A0480068A049084013D1A0489F
:1013D00000689E49084000D1E2E79D4800689B49AB
:1013E0000840102800D1DBE7994800689749084079
:1013F000302800D1D4E7704700B5FFF7D8FF9548F3
:10140000026803210A43026093490020086093495F
:101410000120086090490B6801201840FBD09049DA
:101420009048086090490120086090490C200860AD
:101430008F49112008608F49102008608E498F481D
:1014400008608F49042008608E49012008608E4999
:10145000012008608D49002008608D491420086033
:1014600000BDC04680140000810009686F6F6B2DBD
:10147000656D6974043F3E60864E704782150000BA
:101480009C140000810008686F6F6B2D6B657900FC
:10149000043F3E60804E7047AE150000BC14000053
:1014A00081000A686F6F6B2D656D69743F00043FA2
:1014B0003E607A4E7047E0150000C046D814000028
:1014C000810009686F6F6B2D6B65793F043F3E604B
:1014D000734E70470E160000F814000081000A6871
:1014E0006F6F6B2D706175736500043F3E606D4ECC
:1014F0007047E2360000C046101500000000046589
:101500006D6974000FB5634800F02FF80FBDC04639
:10151000241500000000036B65790FB55E4800F0EC
:1015200024F80FBD3C150000000005656D69743F8F
:1015300000B55A4800F019F800BDC0465415000027
:101540000000046B65793F0000B5554800F00DF8C8
:1015500000BDC04670150000000005706175736520
:1015600000B5504800F001F800BD00688746C0464D
:101570009C15000000000B73657269616C2D656D30
:10158000697400B500F02CF8002E40CFFAD0464A1E
:10159000002010603E4A167040CF00BDCC15000000
:1015A00000000A73657269616C2D6B65790000B586
:1015B00000F02DF8002E40CFFAD0344A0020106001
:1015C000043F3E60394A167800BDC046FC15000055
:1015D00000000C73657269616C2D656D69743F0064
:1015E00000B5FFF7BDFF043F3E6000262E4A11689C
:1015F0000120014000D0F64300BDC046B0160000F7
:1016000000000B73657269616C2D6B65793F00B5E5
:10161000FFF7A6FF043F3E6000261C4A1168012028
:10162000014000D0F64300BD04050040DFFF07C0C5
:10163000186C004000800000E00F00F0FF00000088
:10164000E40F00F00F000000EC0F00F0F0000000CD
:10165000E80F00F0240500400001004000000040B9
:1016600008050050000002004407005040070050E9
:101670000C250040142500402425004000E0D7013F
:1016800000250040082000400020004008210040C4
:101690001C250040F83F0020F43F0020F03F0020D0
:1016A000EC3F0020E83F00201C21004018250040AE
:1016B000D41600000000076365787065637400B598
:1016C000386801B40130386000F00BF801BC0670D6
:1016D00040CF00BD481700000000066163636570DD
:1016E000740000B502CF01390022FFF716FF300069
:1016F00040CF202819D2092816D00A281FD00D283B
:101700001DD00828F1D1002AEFD000F019F9030804
:101710002008002AE9D0885C013A80230340E4D005
:1017200040230340F5D0E0E72020B242DDD2043F61
:101730003E600600FFF7E6FE01328854D5E716004A
:1017400000F0A8F800BDC0465C170000400003741C
:101750006962043F3E602B4E7047C046741700001C
:101760008100033E696E043F3E60274E70470000D3
:101770000000C0469C17000082000E6375727265FF
:101780006E742D736F7572636500043F3E601F4E6B
:1017900070470000000064000020C046B817000039
:1017A000000009736574736F75726365174802CF23
:1017B0000660416040CF7047D817000000000673F4
:1017C0006F7572636500043F3E60104E043F7068A1
:1017D000386036687047C046101800000000057178
:1017E000756572790FB5084800210160FFF7B1FFF8
:1017F000043F3E60043F3E60C826FFF772FFFFF7DC
:10180000D5FF0FBD64000020E43F0020DC3F002036
:1018100060180000000007636F6D706172650FB59E
:10182000310040CF01CF884202D040CF00260FBD0B
:1018300002CF002810D001380A5C335C412A02D361
:101840005B2A00D22032412B02D35B2B00D2203303
:101850009A42EED000260FBD0026F6430FBDC046CB
:101860007418000000000263720000B500F068F810
:10187000010A00BD88180000000002626C00043FED
:101880003E6020267047C0469C180000000005738B
:1018900070616365043F3E60202633E6C418000093
:1018A0000000067370616365730000B5002E06DDED
:1018B000043F3E602026FFF725FE013EF8D140CFD1
:1018C00000BDC046D41800005000065B636861721A
:1018D0005D0005E0EC180000000004636861720020
:1018E00000B501F055FB40CF367800BDFC18000074
:1018F00050000128043F3E60292606E01819000028
:101900005000015C043F3E60002600B501F04AFB38
:10191000043740CF00BDC046601900001000022E01
:101920002200B84800B5043F3E60060000F010FAFF
:10193000043F3E60222601F035FB00F064FD00BD4F
:101940000AB4043F3E607646013E337801210133FC
:1019500019405B187146C9188E460ABC3CE0C04667
:1019600088190000100002632200A748DAE7043F4C
:101970003E607646013E33780121013319405B1801
:101980007146C9188E467047B419000010000273E2
:1019900022009E48C6E7043F3E607646043F3E6014
:1019A000013E36780121731C19405B187146C91835
:1019B0008E467047CC190000000005636F756E7489
:1019C0000136043F3E60013E36787047F41900004E
:1019D000000005637479706501B53078002807D080
:1019E0000136043F3E603678FFF78CFD0138F7D1B1
:1019F00040CF01BD241A0000000004747970650016
:101A0000310040CF300040CF00B5002908D000227F
:101A1000043F3E60865CFFF775FD01329142F7D1CD
:101A200000BDC046601A00000000046865782E0002
:101A300007B5310040CF20200F220438043F3E601C
:101A40000E00C6401640092E01D9373600E0303668
:101A5000FFF758FD0028F0D1FFF71CFF07BDC04677
:101A6000701A0000000003682E731FB5684C0EE06A
:101A7000801A0000000003752E731FB5654C06E048
:101A8000001B00000000022E73001FB5624C63496A
:101A9000C91B8908624A106803B40A201060FFF766
:101AA0004FFF08537461636B3A205B00043F3E6054
:101AB0000E0001F04BFCFFF743FF025D200003BC6A
:101AC000574A106000290AD0564A106806B4043FED
:101AD0003E600600A04706BC043A0139F5D1FFF785
:101AE0002FFF0620544F533A2000043F3E6036003B
:101AF000A047FFF725FF04202A3E0A001FBDC0466D
:101B0000501B000000000464756D700000B53000CB
:101B100040CF2021FFF714FF072064756D703E0A47
:101B2000043F3E600600FFF783FFFFF709FF023A1C
:101B300020000288043F3E601600FFF779FFFFF7A0
:101B4000FFFE03203E0A02300139E9D100BDC04644
:101B5000281C0000000005776F72647300B5FFF762
:101B6000EFFE06776F7264730A0000F080FE3000AB
:101B700040CF8179FF2944D0FFF7E2FE0941646438
:101B8000726573733A20043F3E600600FFF750FF12
:101B9000FFF7D6FE064C696E6B3A200002680430EF
:101BA000043F3E601600FFF743FF01880230FFF755
:101BB000C7FE07466C6167733A20043F3E600E0023
:101BC000FFF736FF043F3E60060000F06DFEFFF7B2
:101BD000B7FE06436F64653A2000043F3E6006008E
:101BE000FFF726FFFFF7ACFE064E616D653A200059
:101BF000FFF7F2FEFFF7A4FE010A501C01D010000F
:101C0000B7E700BD401900006E19000096190000EA
:101C1000311A00003B3300004D3300002C0200203D
:101C2000FC3F002028020020441D0000000010722C
:101C3000656769737465726C69746572616C2C0098
:101C40003FB5350040CF2900C90029432D029F48E8
:101C50000543FF2300223000D040984301D00132D9
:101C6000F9E73000D04018402843043F3E600600AA
:101C700000F091FB9648054318009040864310D031
:101C800000243000E040984301D00134F9E7101BF4
:101C9000043F3E600E008001064300F07CFB220002
:101CA000DFE7002A06D0043F3E600E009201164393
:101CB00000F071FB40CF3FBD1FB5310040CF854CD8
:101CC0000C43C9000C434901300040CF020EFF23F2
:101CD0001A407E4B0B431343043F3E601E0000F04E
:101CE0005AFB043F3E60260000F055FB020CFF2328
:101CF0001A40794B0B431343043F3E601E0000F033
:101D00004AFB043F3E60260000F045FB020AFF2329
:101D10001A40714B0B431343043F3E601E0000F01A
:101D20003AFB043F3E60260000F035FB0200FF2333
:101D30001A40694B0B431343043F3E601E0000F002
:101D40002AFB1FBDB41D000000000563616C6C2CF4
:101D50000FB5330000F04EFE300040CF1B1A043B9D
:101D60005E49194000290ED05D4A91420BD00136E0
:101D7000043F3E600026FFF763FF043F3E60594E7C
:101D800000F009FB0FBD40CF5B0857485749194089
:101D90000843DB0A56491940090408439B0A0121FC
:101DA000194089060843043F3E60060000F01BFB13
:101DB0000FBDC046081E00000000086C6974657203
:101DC000616C2C0008B5043F3E604A4E00F0E3FA17
:101DD000043F3E60484E00F0DEFA484B30001840A9
:101DE00098420BD1F643043F3E600626FFF728FFDA
:101DF000043F3E60424E00F0CEFA08BD043F3E6014
:101E00000626FFF71DFF08BD301E00000000066318
:101E100072656174650000B500F03FF81E20000295
:101E20004F308047043F3E607646013E00BDC046CD
:101E30008C1E0000200005646F65733E1E200002AA
:101E40004F308047043F3E607646013E7047043F76
:101E50003E607646013E00F0D6F82A4A136831000B
:101E600040CF0220084000D102310231116001361A
:101E7000043F3E600026FFF71FFF043F3E60194EFF
:101E800000F089FA136000F006FA00BD0C1F000094
:101E90000000073C6275696C647300B500F07EFB5E
:101EA00000F0A8FD0220064040CF04D1043F3E6070
:101EB000362600F070FA043F3E60134E00F06BFAD5
:101EC000043F3E60102600F0D1FA00BD0020000063
:101ED0000010000000020000003000000100C0FF00
:101EE0000000C0FF8047000000F800F0FF0700007E
:101EF000FF030000043F00003E6000000000FFFF01
:101F0000F64300000000002000B50000181F00008C
:101F10005000035B275D03E0301F00000000012735
:101F200000B501F035F800F001FD40CF00BDC0461E
:101F30007C1F0000100008706F7374706F6E650076
:101F400000B501F025F800F0F1FC300040CF102181
:101F5000014010290ED020210140202905D1FFF792
:101F600031FF043F3E60C04E04E0FFF72BFF043F0B
:101F70003E60BE4EFFF7ECFE00BDC046C81F00002D
:101F8000000007696E6C696E652C00B5B849B94AE6
:101F9000B94B3088884208D0904208D0984206D089
:101FA000043F3E60060000F0F6F90236F1E740CF4C
:101FB00000BD0EB4AF4AB04B01880230914201D04F
:101FC0009942F9D10EBC7047DC1F0000000004727A
:101FD00065742C00043F3E60A64EDCE1EC1F00005F
:101FE0003000046578697400F4E7C04624200000DE
:101FF0003000077265637572736500B500F003F811
:10200000FFF7A6FE00BD0FB59C48006806300178BA
:10201000013101220A4089184018043F3E60060041
:102020000FBDC0463C2000008100057374617465DB
:10203000043F3E60924E70470000000050200000B8
:102040000000015D8E480021C94301607047C04611
:10205000602000001000015B89480021016070478A
:10206000882000000000013A00B58648076000F0B3
:1020700095FA043F3E607E4E00F08DF980480021C5
:10208000C943016000BDC046D02000003000013BC4
:1020900000B57C480168B9420ED0FFF751FC15200D
:1020A000537461636B206E6F742062616C616E6348
:1020B00065642E0A01F0CAFA043F3E606D4E00F0DE
:1020C0006AF900F0E8F86E480021016000BDC046E2
:1020D000E8200000000007657865637574653000CE
:1020E00040CF01308746C04600210000100009693A
:1020F0006D6D656469617465043F3E601026F9E0AA
:1021000018210000100006696E6C696E6500043FBE
:102110003E602026EEE0C0463421000010000B6334
:102120006F6D70696C656F6E6C79043F3E60302630
:10213000E0E0C0465021000010000A302D666F6CB0
:102140006461626C6500043F3E604026D2E0C04698
:102150006C21000010000A312D666F6C6461626CA6
:102160006500043F3E604126C4E0C046882100006F
:1021700010000A322D666F6C6461626C6500043F6A
:102180003E604226B6E0C046A421000010000A339B
:102190002D666F6C6461626C6500043F3E6043268F
:1021A000A8E0C046C021000010000A342D666F6C04
:1021B0006461626C6500043F3E6044269AE0C0465C
:1021C000DC21000010000A352D666F6C6461626CC2
:1021D0006500043F3E6045268CE0C046F8210000C3
:1021E00010000A362D666F6C6461626C6500043FF6
:1021F0003E6046267EE0C0461422000010000A37EA
:102200002D666F6C6461626C6500043F3E6047261A
:1022100070E0C04644220000000008636F6E7374D3
:10222000616E740000B500F0B9F9FFF7CBFD043F13
:102230003E60114E00F0AFF8FFF785FF00F02BF87D
:1022400000BDC0468822000000000932636F6E7333
:1022500074616E7400B500F0A1F939683E600E46F5
:10226000FFF7B0FDE1E700008A1F0000501D0000ED
:1022700000B5000000BD0000704700000400002011
:10228000D83F002010000020E42200000000067368
:102290006D756467650000B523480168224A914264
:1022A0001AD202390A88214B9A4204D1043F3E6077
:1022B000002600F070F800F05CF81D480068043F4C
:1022C0003E6006001B4909680431174A1368116013
:1022D00000F061F8136000BD00F04BF8043F3E6071
:1022E000002608E038230000000008736574666C5F
:1022F0006167730000B50C4801680B4A914205D232
:102300000B4801683143016040CF00BD320040CF2F
:102310000848006804300188044B994201D111003B
:1023200000E01143018000BD00000020FFFF00001D
:102330001C0000200400002048230000000005616C
:102340006C69676E15E0C0466423000041000761B8
:102350006C69676E65640120304036180220304099
:10236000361870478C230000000007616C69676EA7
:10237000342C00B57F4801680220014004D0043F9E
:102380003E60002600F007F800BDC046C0230000F4
:10239000000002682C000FB576480168754A91422A
:1023A00005D2043F3E600E00FEF72FFE02E0320031
:1023B00040CF0A80043F3E60022600F057F80FBD70
:1023C000DC2300000000012C00B5043F3E60FFF755
:1023D000E2FF360CFFF7DFFF00BDC046F823000028
:1023E0000000033E3C2C00B5043F3E60360CFFF776
:1023F000D2FFFFF7D0FF00BD60240000000007738C
:102400007472696E672C07B5FF21314040CF3000F0
:1024100040CF002905D1043F3E600026FFF7BBFFF7
:1024200007BD043F3E60067836020E43FFF7B3FF58
:102430000130013902290AD3043F3E604678360252
:1024400002781643FFF7A7FF02300239F2E70029AE
:1024500000D107BD043F3E600678FFF79CFF07BD33
:10246000BC240000000005616C6C6F744148016879
:10247000404A91420FD2320040CF89183E4A9142E1
:1024800019D3FFF75DFA0B466C6173682066756CB3
:102490006C0A01F0DBF8320040CF8918374A126825
:1024A000914208D3FFF74CFA0952616D2066756CB2
:1024B0006C0A01F0CBF801607047C046E4240000CC
:1024C00000000D636F6D70696C65746F72616D3FB4
:1024D000043F3E600026274800682649884248D3CA
:1024E000F64370470425000000000C636F6D7069AF
:1024F0006C65746F72616D001E4800681D498842EA
:1025000011D370478C25000000000E636F6D706959
:102510006C65746F666C61736800164800681549D5
:10252000884200D270471648164902680B680A6054
:1025300003601048144902680B680A6003600F4882
:102540000068834215D300B5FFF7FAF923205661DE
:10255000726961626C657320636F6C6C696465207D
:10256000776974682064696374696F6E6172790A4F
:1025700000BD704700000020000004002000002083
:102580000400002018000020140000207026000025
:1025900000000828637265617465290000B500F0C9
:1025A000F7FC002E0ED1FFF7CBF9152043726561C1
:1025B0007465206E65656473206E616D6520210A07
:1025C00001F044F83868043F3E60043F386000F092
:1025D0007BF940CF002E40CF11D03868043F3E60D9
:1025E000043F3860FFF7ACF9095265646566696EAF
:1025F0006520FFF705FAFFF7A3F9022E0A00FFF79F
:10260000B8FE00F0F7F98B4800688A4988421BD26F
:10261000894800210160043F3E600626FFF726FF3F
:10262000FEF7C2F9FFF7EFFE844801680A68531C01
:1026300007D1804A13681160043F3E60FFF7C4FE73
:102640001360066040CF00BD7C48043F3E600668D2
:10265000FFF7BAFE043F3E600026F643FFF79BFEFD
:102660007648310040CF0160FFF7CDFE00BDC04687
:10267000882600000000087661726961626C65005E
:10268000043F3E60012613E0A0260000000009324E
:102690007661726961626C65043F3E60022607E004
:1026A000782700000000096E7661726961626C65CE
:1026B00000B5FFF773FF5F4801685E4A914233D26D
:1026C0000F200640B2005E480168891A5D4A9142B7
:1026D0000BD2FFF735F90F4E6F7420656E6F75677B
:1026E000682052414D0A00F0B1FF0160043F3E6096
:1026F0000E00FFF767FB043F3E60534EFFF74BFEB3
:10270000300040CF0200002805D00E600431FFF7F2
:102710005BFE0138F9D1043F3E6080261643FFF787
:10272000E9FDFFF7B8FD00BD00F064F902200640A6
:1027300040CF04D1043F3E603626FFF72CFE043F15
:102740003E60424EFFF74FFE043F3E60404EFFF7B3
:102750004AFE043F3E603C4EFFF71DFE300040CF76
:10276000002803D0FFF730FE0138FBD1FFF7EBFC68
:10277000FFF791FD00BDC046582800000000076229
:1027800075666665723A00B5FFF708FF01203040B4
:10279000361802203040361826480168254A9142F2
:1027A00026D227480168891B264A91420BD2FFF79F
:1027B000C7F80F4E6F7420656E6F756768205241C1
:1027C0004D0A00F043FF0160043F3E600E00FFF73A
:1027D000F9FA043F3E601C4EFFF7DDFDFFF7F4FD04
:1027E000043F3E601B4EFFF785FDFFF754FD00BD23
:1027F00000F000F90220064040CF04D1043F3E60C3
:102800003626FFF7C8FD043F3E60104EFFF7EBFD94
:10281000043F3E600E4EFFF7E6FD043F3E600A4E69
:10282000FFF7B9FDFFF722FEFFF78DFCFFF733FD41
:1028300000BD0000000000201C000020040000205B
:10284000200000202C030020704700003E60043F61
:1028500002367E46400100008828000000000F4438
:10286000696374696F6E61727973746172743548EB
:102870000068354B1B683349043F3E60884201D2F3
:10288000324E70471E007047BC28000000000A73DB
:102890006B6970737472696E67003178013101225F
:1028A0000A4089187618704706B401780131012270
:1028B0000A408918401806BC7047C04654290000D9
:1028C00000000466696E64003FB5350040CF3400F7
:1028D000FFF7CDFF300040CF002600238179FF298C
:1028E00020D081881A4A9142026817D00630043FEE
:1028F0003E600600FFF764F8043F3E602600043F98
:102900003E602E00FEF78BFF002E40CF06D0FFF773
:10291000CBFF06000B000B48864203D2501C01D0AF
:102920001000DBE7043F3E601E003FBD00B53100F4
:102930003868FFF7C9FF3A68002A01D100F07AFD34
:1029400000BD00000000002004000020E0000000A6
:10295000FFFF0000B0290000000006636A756D707B
:102960002C00320040CF310040CF8B1B043BA249EA
:10297000194000290DD0A14881420AD0FEF7E0FF9E
:102980000D4A756D7020746F6F206661720A00F0D9
:102990005DFE5B10FF210B40134330001E0000B5AD
:1029A000974A13681060FFF7F6FC136000BDC0463D
:1029B000E82900000000056A756D702C310040CFD9
:1029C000300040CF0B1A043B8E491940002902D039
:1029D0008D4A9142D2D15B108C4A13408C4A1343EA
:1029E000043F3E601E00DAE7002A00000000046891
:1029F00065726500043F3E60814E36687047C04690
:102A0000F02A000000000D666C6173687661722D1B
:102A100068657265043F3E607E4E3668704700B55B
:102A2000043F3E607C4EFFF7B6FC043F3E607B4EA9
:102A3000FFF7B1FC00BDDDE700B500F037F83968FD
:102A40003E600E46043F3E60754EFFF78AFF00BDB4
:102A500000B500F02BF839683E600E46043F3E603A
:102A6000704EFFF77EFF00BD00B5FFF7D8FF00F006
:102A70001DF839683E600E46043F3E606A4EFFF71F
:102A800070FF00BD00B500F011F839683E600E46D9
:102A9000FFF794FF00BD00B5FFF7C1FFFFF7AAFFE6
:102AA000043F3E600226FFF7E1FC00BD00B5FFF7E2
:102AB000A1FF043F3E600226FFF7D8FC00BD00B531
:102AC000FFF798FFFFF77AFF00BD00B5FFF792FF11
:102AD000043F3E60544EFFF744FF00BD00B5FFF7D2
:102AE00089FF043F3E604E4EFFF73BFF00BDC046EE
:102AF0002C2B00003000047468656E00052E01D197
:102B000040CFDCE7022E01D140CFDEE7FEF718FF11
:102B1000175374727563747572657320646F6E27D2
:102B200074206D617463680A00F090FD582B0000FA
:102B3000300004656C73650000B5022EE6D140CF0D
:102B4000FFF7B4FF39683E600E46FFF7BEFF043F53
:102B50003E60052600BDC046702B000030000269B3
:102B6000660000B5FFF797FF043F3E60022600BDF8
:102B7000982B000030000672657065617400042EA9
:102B8000C4D140CF39683E600E4600B5FFF77AFFEA
:102B9000FFF79BFF00BDC046B42B00003000057757
:102BA00068696C65012EB1D140CF00B5FFF7D9FF40
:102BB000023600BDC82B0000300005756E74696CCC
:102BC000012EA3D140CF4FE7DC2B00003000056180
:102BD0006761696E012E99D140CF53E72C2C00001C
:102BE000300005626567696E00B5FFF724FF043F9A
:102BF0003E60012600BD000001FFFFFF00FFFFFF58
:102C00000000002001F8FFFF00F8FFFFFF070000B1
:102C100000E0000020000020002E000040CF000057
:102C200000D1000000D7000000D000003C2C0000C4
:102C30002000016B043F3E60029E70474C2C000058
:102C40002000016A043F3E60009E70475C2C00003B
:102C500020000169043F3E60260070479C2C000064
:102C60003000056C6561766500B5674801683B001A
:102C7000043F1A68043B1A60043304338B42F8D1D2
:102C800003B4FFF713FF03BC330040CF04390B60DC
:102C9000016004390A6801320A6000BDB02C0000EE
:102CA000200006756E6C6F6F700030BC7047C046B8
:102CB000E82C00003000052B6C6F6F70032E00D0E5
:102CC00024E740CF00B5043F3E60504EFFF75DF96A
:102CD000FFF7BEFE1AE0802000060019A419401B71
:102CE000801940CF7047C0462C2D00003000046C86
:102CF0006F6F7000032E00D008E740CF00B5043F8F
:102D00003E60434EFFF741F9FFF796FE00F01CF9D5
:102D10003D48310040CF0160043F3E603D4EFFF72B
:102D200034F900BD0134AC427047C046742D000038
:102D3000780002646F0000B5043F3E60364EFFF736
:102D400024F931480168043F3E600E00043F3E60B4
:102D500000260760FFF76FFE043F3E60032600BDBC
:102D600000B500F02EF8ECE730B4340040CF350069
:102D700040CF7047282E00007800033F646F00B5F5
:102D8000043F3E60244EFFF700F9043F3E60234EAF
:102D9000FFF701FB1C480168043F3E600E00FFF78F
:102DA00085FE0136043F3E60012617480760FFF7A5
:102DB00042FE043F3E60032600BD00B500F001F86E
:102DC000E3E700B5043F3E60154EFFF7E4FA043F29
:102DD0003E600426FEF734FF013B08D0043F3E600E
:102DE0000526FEF72DFF013B00F00AFC00BD043F65
:102DF0003E603526FFF7CFFA043F3E60094EFFF7ED
:102E0000CAFA00F0FDFB00BD0C000020D62C00002B
:102E1000242D0000AA2C0000682D0000AC42000008
:102E200030B4000040CF0000442E000030000463A6
:102E300061736500043F3E600026043F3E60082643
:102E40007047C0465C2E00003000033F6F66484864
:102E50000AE0013EB64140CF7047C046E82E000070
:102E60007800026F66004348082E00D04EE640CF3F
:102E700000B5043F3E600600FFF787F8FFF716FE37
:102E800039683E600E460136043F3E600926043F25
:102E90003E60394EFFF77FFA00BD00B5300040CFED
:102EA000013B01B400F0ACFB01BC082E00D02DE6C4
:102EB00040CF043F3E600600FF213140B14204D1C3
:102EC0002E490E43FFF767FAD8E7043F3E6000261D
:102ED000FEF7B6FE043F3E60294EFFF75CFACDE7F1
:102EE000300040CFB0427047202F00003000056511
:102EF0006E646F66092E00D008E640CF00B540B47E
:102F000040CFFFF7D3FD39683E600E46FFF7E6FD80
:102F1000043F3E6040BC043F3E60082600BDC04602
:102F2000842F0000300007656E6463617365082EAE
:102F300000D0EBE540CF00B5043F3E600E4EFFF7FA
:102F40002AFA00F001F800BD00B5300040CF00289B
:102F50000DD003B401213140002903D0013EFFF719
:102F6000B4FD01E0FFF7ABFD03BC0138EFE700BDA6
:102F7000522E0000E02E000040CF0000002E000086
:102F8000B0420000982F0000000005746F6B656E62
:102F9000043F3E60202605E0F42F0000000005708D
:102FA0006172736510B5FEF70EFC310040CF300042
:102FB00040CF0F4A12688418202E07D191420FD0BB
:102FC000835CB34202D101328418F7E7914207D003
:102FD000835C0132B342F9D18618361B013E01E011
:102FE0008618361B043F3C600148026010BD00009B
:102FF000E43F002034300000000005646967697414
:10300000D44B1B68303E0BD30A2E0BD3073E0A2E3F
:1030100006D3242E06D3203E0A2E01D3242E01D31C
:10302000002670479E42FBD2043F3E600026F643D6
:103030007047C046403100000000066E756D626545
:1030400072003FB5310040CF701E0126012204B44A
:10305000C04B1B680024002500293CD001300139F9
:1030600002782D2A04D101B00022D24304B4F3E740
:10307000232A01D10A23EFE7242A01D11023EBE709
:10308000252A01D10223E7E72E2A01D10226E3E710
:103090002C2A36D0043F3E601600FFF7B3FF002E07
:1030A00040CF2BD0043F3E602600043F3E602E0000
:1030B000043F3E601E00043F3E6000260FB4FDF753
:1030C00070F90FBC350040CF340040CF0022A41966
:1030D000554140CFC0E704BC002A04D50022E44398
:1030E000ED430134554133002600012B02D0043F4B
:1030F0003E602E00043F3E601E003FBD01B0002632
:103100003FBD2500002402260029E4D0425C01399D
:103110002E2AF9D0043F3E601600FFF773FF002E01
:1031200040CFEBD0043F3C60043F3E601E000FB434
:10313000FDF7EBF90FBC340040CF40CFE4E7C046C9
:10314000643100000000062E6469676974000A2E6D
:1031500001D2303604E0242E01D2373600E0232697
:103160007047C0469C310000000004686F6C64002A
:10317000330040CF784801783F290DD201310170EA
:103180004018012907D00138027801300270013857
:1031900001390129F7D103707047C046BC310000E6
:1031A000000005686F6C643C330040CF6A480178CA
:1031B0003F2902D20131017043547047D4310000DD
:1031C0000000047369676E00002E01D440CF704781
:1031D0002D26CDE7E8310000000002233E005E48C6
:1031E0000678013038607047003200000000036646
:1031F000235310B5202400F008F8013CFBD110BD8A
:103200002432000000000266230000B5043F3E6047
:10321000504E3668FDF797F8FFF799FFFFF7C4FFA8
:1032200000BDC0464032000000000223530000B53C
:1032300000F00AF8002EFBD138680028F8D100BD54
:103240006C3200000000012300B5043F3E60414E97
:103250003668043F3E600026FDF7B7F9FCF770FFC3
:1032600040CFFFF774FFFFF783FF00BD80320000FF
:103270000000023C23003848002101707047C0461E
:1032800094320000000002662E00043F3E602026BB
:1032900005E0C046E4320000000003662E6E00B573
:1032A00010B4340040CFFDF767FBFDF703F8043F8F
:1032B0003E600026FFF7DFFFFFF7B9FF40CF2C2667
:1032C000FFF772FF002C03D0FFF79FFF013CFBD1FB
:1032D00010BC40CFFFF778FF043F3E60043F3E60E4
:1032E0001EE0C046FC32000000000375642E00B5ED
:1032F000FFF7C1FFFFF79BFF12E0C046303300002D
:10330000000002642E0000B5FDF736FBFCF7D2FF8B
:10331000FFF7B1FFFFF78BFFFDF739FBFFF754FF16
:10332000FFF75DFFFEF76CFBFEF7B4FA00BDC04689
:1033300044330000000002752E00043F3E6000266A
:10334000D5E7C0465C3300000000012E043F3E601C
:10335000F617D8E7FC3F002024000020A43300002B
:103360000000086576616C756174650000B5FEF754
:103370002AFA01CF01B440B440CFC348016802B477
:1033800000210160FEF712FA00F014F8BE4802BCFA
:103390000160043F3E6040BC01BC043F3860FEF762
:1033A00005FA00BD24360000000009696E746572DC
:1033B0007072657430B5B54887420BD9FEF7C0FA14
:1033C00010537461636B20756E646572666C6F7701
:1033D0000A003BE1AE4887420AD2FEF7B1FA0F532A
:1033E0007461636B206F766572666C6F770A2DE18E
:1033F000A84C2568002D01D13D002560FFF7C8FDD0
:10340000002E02D1043740CF30BD3868043F3E6003
:10341000043F3860FFF758FA310040CF320040CF08
:10342000002A13D138683100FFF70BFE320040CF7D
:10343000002AC0D1FEF7E8FAFEF782FA0C206E6F80
:103440007420666F756E642E0A00FFE0924B1B6855
:10345000002B1DD10025256030230B40302B0ED1D1
:10346000FEF7CEFAFEF76CFA1220697320636F6DD7
:1034700070696C652D6F6E6C792E0A00E6E004377A
:1034800040CF043F3E601600FEF729FEFFF793FF92
:10349000043740CF80200840802810D0EB1B9B08C9
:1034A00040200840402810D108200840082802D1B8
:1034B000002B00D01FE00F200840834205D3043FBB
:1034C0003E601600FEF70BFE75E700F099F8043F2A
:1034D0003E60160010220A40102A02D1FEF7FFFDBE
:1034E00069E720220A40202A02D1FEF74EFD62E75A
:1034F000FEF72EFC5FE7072001401000FEF759FDA4
:10350000012915D1012BDAD1FF213140B14204D17B
:1035100040880643FEF73FFF4DE7043F3E6000262C
:10352000FEF78EFB043F3E600688FEF734FF42E75D
:10353000022902D1012BC2D1EFE703291CD1012BB3
:10354000BDD1FF213140B1420AD154490E43FEF7AB
:1035500022FF0432043F3E601600FEF716FD2AE704
:10356000043F3E600026FEF76BFB0232043F3E60E4
:103570001600FEF70AFD1EE7042918D1012B9ED183
:10358000330040CF002B00D115E71F221A409A428A
:1035900005D0043F3E604688FEF7FDFE0BE7043F82
:1035A0003E6006889B011E43FEF7F5FE03E70529F2
:1035B00023D1012B0FD1043F3E600026FEF740FBD4
:1035C000043F3E600600FEF7E0FC043F3E60344EE0
:1035D000FEF7E1FEEFE6043F3E600026FEF730FB1B
:1035E000043F3E600126FEF72BFBFEF7E2FC043FA2
:1035F0003E600600FEF7C9FCDDE601308047DAE6F2
:1036000000B5002B0BD0013B043F3E609E00BE592D
:10361000FEF7D8FB002BF6D1043D2F0040CF00254C
:10362000256000BD40360000810009686F6F6B2D7A
:1036300071756974043F3E601A4E7047743600001D
:10364000B83600000000047175697400164885469C
:103650000E4F16480A2101600F48002101600D48F5
:1036600001600948016012480160124941600D483B
:1036700000688746FEF7B6F8FFF79CFEFEF760F994
:1036800005206F6B2E0AF5E7E43F00202C02002096
:103690002C01002008000020D83F0020003E000040
:1036A00040CF0000D43F00202C030020FC3F00202E
:1036B000DC3F002064000020C836000020000465C4
:1036C000696E740062B67047D8360000200004644A
:1036D000696E740072B67047E43600000000036E35
:1036E0006F7070470837000081000B6972712D738D
:1036F00079737469636B043F3E60E94E7047E2364C
:103700000000E748006887462C37000081000969FF
:1037100072712D6661756C74043F3E60E14E7047B6
:10372000C0000000DF4800688746C04650370000F0
:103730008100096972712D706F776572043F3E6078
:10374000D94E7047E2360000D74800688746C04629
:10375000743700008100096972712D726164696FAC
:10376000043F3E60D14E7047E2360000CF4800680B
:103770008746C046983700008100086972712D7530
:1037800061727400043F3E60C94E7047E23600002B
:10379000C74800688746C046BC37000081000869FA
:1037A00072712D7370693000043F3E60C14E7047E6
:1037B000E2360000BF4800688746C046E037000098
:1037C0008100086972712D7370693100043F3E6099
:1037D000B94E7047E2360000B74800688746C046D9
:1037E0000438000081000A6972712D6770696F7476
:1037F0006500043F3E60B14E7047E2360000AF48BE
:1038000000688746243800008100076972712D61C5
:103810006463043F3E60AA4E7047E2360000A84849
:1038200000688746483800008100086972712D746D
:10383000696D3000043F3E60A24E7047E2360000E2
:10384000A04800688746C0466C38000081000869BF
:1038500072712D74696D3100043F3E609A4E70475D
:10386000E2360000984800688746C046903800005D
:103870008100086972712D74696D3200043F3E60E9
:10388000924E7047E2360000904800688746C04676
:10389000B43800008100086972712D7274633000C1
:1038A000043F3E608A4E7047E23600008848006858
:1038B0008746C046D83800008100086972712D74AF
:1038C000656D7000043F3E60824E7047E236000036
:1038D000804800688746C046F838000081000769C4
:1038E00072712D726E67043F3E607B4E7047E23608
:1038F0000000794800688746183900008100076990
:1039000072712D656362043F3E60744E7047E2360B
:1039100000007248006887463C39000081000B694E
:1039200072712D63636D5F616172043F3E606C4E26
:103930007047E23600006A48006887465C3900003C
:103940008100076972712D776474043F3E60654E93
:103950007047E236000063480068874680390000FF
:103960008100086972712D7274633100043F3E60FA
:103970005D4E7047E23600005B4800688746C046EF
:10398000A43900008100086972712D7164656300BB
:10399000043F3E60554E7047E236000053480068D1
:1039A0008746C046C839000081000A6972712D6CD3
:1039B00070636F6D7000043F3E604D4E7047E2369D
:1039C00000004B4800688746EC3900008100086918
:1039D00072712D7377693000043F3E60454E704729
:1039E000E2360000434800688746C046103A0000AF
:1039F0008100086972712D7377693100043F3E6060
:103A00003D4E7047E23600003B4800688746C0469E
:103A1000343A00008100086972712D7377693200B1
:103A2000043F3E60354E7047E23600003348006880
:103A30008746C046583A00008100086972712D73AC
:103A400077693300043F3E602D4E7047E236000038
:103A50002B4800688746C0467C3A00008100086910
:103A600072712D7377693400043F3E60254E7047B4
:103A7000E2360000234800688746C0460C3B000041
:103A80008100086972712D7377693500043F3E60CB
:103A90001D4E7047E23600001B4800688746000054
:103AA000D03F0020CC3F0020C83F0020C43F002072
:103AB000C03F0020BC3F0020B83F0020B43F0020A2
:103AC000B03F0020AC3F0020A83F0020A43F0020D2
:103AD000A03F00209C3F0020983F0020943F002002
:103AE000903F00208C3F0020883F0020843F002032
:103AF000803F00207C3F0020783F0020743F002062
:103B0000703F00206C3F0020683F00200040000014
:103B1000FFFF182D2D2D20466C61736820446963CA
:103B200074696F6E617279202D2D2D00FDF764FC94
:103B30004D4885464D4F2A264D484B4901604D481A
:103B40004D4901604C484D4D040002680430018825
:103B500002304B4B994222D04A4B0B4009D0FEF722
:103B6000A3FEFEF726FA0388408800040343ED1AFB
:103B700015E080230B4012D00F23194089006D1AE5
:103B8000FEF792FEFEF715FA043F3E600600043F82
:103B90003E602E00043F3E600E00FDF79BF8501C77
:103BA00005D0100006321278FF2A00D0CCE7364844
:103BB00004603648056036483649314A884204D0A8
:103BC000023803889342F9D0023033490860FDF788
:103BD000B7FE364D6563726973702D5374656C6CF6
:103BE0006172697320322E302E312077697468201B
:103BF0004D3020636F7265206279204D6174746866
:103C0000696173204B6F63680A00FDF799FE2C4DC4
:103C10006F64696669656420666F72206E5246350E
:103C200031383232206279204A6F686E20487562DE
:103C30006572747320284A4942290A0017480021F6
:103C40000160043F3E60164E043F3E600426FEF7CE
:103C50003BFE40CF002E02D0FEF741FA07E540CFF1
:103C6000F4E4696E697400002C0300202C0200202B
:103C70000000002004000020E000000000400020C0
:103C8000FFFF0000000100001800002020000020BD
:103C90000000040000400000140000200800002084
:043CA000623C000082
:00000001FF
