:020000040800F2
:100000002C0300206D3B0000DB390000DB390000D1
:10001000DB390000DB390000DB39000000000000A4
:10002000000000000000000000000000DB390000BC
:10003000DB39000000000000DB390000B3390000AC
:10004000DB390000DB390000DB390000DB39000060
:10005000DB390000DB390000033A00002B3A0000D6
:10006000533A00007B3A0000A33A0000DB3900005D
:10007000DB390000DB390000DB390000DB39000030
:10008000DB390000DB390000C93A0000DB39000031
:10009000DB390000DB390000DB390000DB39000010
:1000A000DB390000DB390000DB390000DB39000000
:1000B000F13A0000193B0000413B000000B501F09F
:1000C00013FD16556E68616E646C656420496E742C
:1000D00065727275707420210A0000BD0201000073
:1000E000FFFF1E2D2D2D204D6563726973702D53FA
:1000F00074656C6C6172697320436F7265202D2D7D
:100100002D001A0100004200043264757000386846
:1001100047F8046D043F386070472C01000062000E
:10012000053264726F70043740CF70474A01000097
:10013000440005327377617007CF043F386047F899
:10014000046D043F3A600E0070475E0100006200DB
:1001500004326E69700007CF043F38607047780141
:100160000000440005326F766572B86847F8046D88
:10017000043F3860FE6870479C010000440005326F
:100180007475636B07CF043F386047F8046D043F14
:100190003A60043F3960043F38607047BE01000098
:1001A00046000432726F74003868B9683A69B86002
:1001B00039613A6079687E60FE68F9607047E001F5
:1001C0000000460005322D726F743868B9683A69CC
:1001D00038613960BA60F968FE607E68796070479E
:1001E000F4010000200003323E7201CF01B440B49C
:1001F00040CF70470C02000020000332723E47F8E7
:10020000046D40BC01BC043F38607047240200000C
:1002100020000332724047F8046D019E47F8046DD8
:10022000009E704736020000200006327264726F32
:10023000700002B070474E02000042000364322F8B
:100240003868F1077610400808433860704762024A
:10025000000062000364322A386800187641386072
:1002600070477C02000042000464736872003868C2
:10027000F107760840080843386070479202000092
:100280006200046473686C00386800187641386056
:100290007047A40200004200046461627300002EF3
:1002A00014D47047BE0200004300083F646E6567C7
:1002B00061746500300040CF002807D47047DC022D
:1002C0000000420007646E6567617465386800214C
:1002D000C043F64301304E4138607047F4020000DD
:1002E000640002642D0007CF121AB1410E00043FD2
:1002F0003A6070470A030000640002642B0007CFD5
:1003000012184E41043F3A6070471C030000610020
:1003100003733E6447F8046DF6177047300300001E
:10032000620003756D2A3868A0FB060638607047C6
:10033000440300006200026D2A00386880FB060654
:10034000386070478203000044000375642A07CFB9
:10035000564341437618010C130C59437618010C8F
:1003600080B292B25143434350430022C9185241D4
:100370001204B6180A04090C80184E41043F386074
:1003800070471404000044000475646D2A0010B521
:10039000002447F8046D7E6847F8046D3E69FFF756
:1003A000C2FF310040CF300040CF47F8046D3E68B7
:1003B00047F8046DFE6803B4FFF7B5FF03BC3300D4
:1003C00040CF320040CF47F8046D3E6847F8046DD7
:1003D0003E690FB4FFF7A7FF0FBC9219634140CFEE
:1003E00089196241634140CF47F8046D7E6847F840
:1003F000046DFE680FB4FFF796FF0FBC92196341BE
:1004000040CF89196241634140CF1E003A60796054
:10041000B86010BD360400004300022A2F0000B56A
:1004200040B440CFFFF789FF47F8046D40BC00F0AF
:1004300062F8043700BD580400004300052A2F6D00
:100440006F6400B540B440CFFFF777FF47F8046D05
:1004500040BC00F050F800BD7A0400004300037572
:100460002A2F00B540B440CFFFF75DFF47F8046D79
:1004700040BC00F01BF8043700BD9E0400004300A0
:1004800006752A2F6D6F640000B540B440CFFFF7AA
:100490004AFF47F8046D40BC00F008F800BDEA04CC
:1004A0000000430006756D2F6D6F640010B478680E
:1004B0003968002200242023640000184941524179
:1004C000964201D8921B0134013BF5D120236400F0
:1004D00049185241964201D8921B0134013BF6D192
:1004E00004373A60260010BC70475E0500004300E8
:1004F000056D2F6D6F6400B5F01718D0764200F0CF
:1005000019FAF0170DD0FFF7E1FE00F007FAFFF738
:10051000CDFF39683E600E46764239683E600E4631
:1005200000BD00F0FBF9FFF7C1FF764200BD00F00F
:1005300001FAF0170ED0FFF7C9FE00F0EFF9FFF750
:10054000B5FF764239683E600E46764239683E60B5
:100550000E4600BD00F0E2F9FFF7A8FF00BDBA05A6
:10056000000044000675642F6D6F640030B43C6871
:10057000B86879680022002520236D0000184941E1
:100580005241944201D8121B0135013BF5D120B4F0
:10059000002520206D00491852415B419E4204D83D
:1005A000944202D8121BB34101350138F2D13D60AB
:1005B000BA607B6040BC30BC70473006000044002D
:1005C00005642F6D6F6400B5F01719D0FFF77EFE3C
:1005D000FFF7B2FDF0170CD0FFF778FEFFF7ACFD88
:1005E000FFF7C4FFFFF7A8FDFFF770FEFFF7A4FDBC
:1005F00000BDFFF7A1FDFFF7B9FFFFF767FE00BDE4
:10060000FFF79AFDF0170ED0FFF760FEFFF794FD9D
:10061000FFF7ACFFFFF75AFEFFF78EFDFFF756FE20
:10062000FFF78AFD00BDFFF787FDFFF79FFF00BDC5
:1006300046060000440002642F0000B5FFF7C3FF28
:10064000FFF789FD00BDDE060000440002662A00B7
:1006500000B5F0170DD0FFF739FEFFF76DFDF0176D
:100660000DD0FFF733FEFFF792FE40CF01CF386089
:1006700000BDFFF761FDF017F5D0FFF727FEFFF78C
:1006800086FE40CF01CF3860FFF720FE00BD30B4BA
:100690003C68B9687A680023002520206D0049185D
:1006A00052415B419E4204D8944202D8121BB3418E
:1006B00001350138F2D1290020206D0092185B41EC
:1006C0009E4204D8944202D8121BB341013501382E
:1006D000F3D13D60BA607B600E0030BC70472A07E2
:1006E0000000440002662F0000B5F0170ED0FFF79F
:1006F000EDFDFFF721FDF0170ED0FFF7E7FDFFF747
:100700001BFDFFF7C4FFFFF726FD00BDFFF714FD3B
:10071000F017F4D0FFF7DAFDFFF70EFDFFF7B7FF94
:10072000FFF7D4FDFFF717FD00BD3E0700002000D6
:100730000232210006CF3160726040CF704752070D
:100740000000200002324000043F706838603668C4
:1007500070477207000044000364753C07CF8E4267
:1007600004D801D1904201D8002670470026F643F4
:1007700070479207000044000364753E07CFB14202
:1007800004D801D1824201D8002670470026F643E2
:100790007047B2070000440002643C0007CF8E425D
:1007A00004DC01D1904201DC002670470026F643AC
:1007B0007047D2070000440002643E0007CFB142F8
:1007C00004DC01D1824201DC002670470026F6439A
:1007D0007047E207000062000364303C0437F617FC
:1007E0007047FC07000042000364303D01CF002841
:1007F00001D000267047013EB64170471608000040
:10080000440003643C3E07CF904201D1761A01D0E8
:100810000026F643704732080000440002643D00A1
:1008200007CF904201D000267047761A013EB641AC
:1008300070474408000020000373704047F8046DBF
:100840003E007047540800002000037370213700F9
:1008500040CF70476608000020000372704047F8E0
:10086000046D6E4670477608000020000372702108
:10087000B54640CF704790080000000005646570E1
:100880007468E549C91B890847F8046D0E00704774
:10089000A008000061000364757047F8046D70479C
:1008A000B008000061000464726F700040CF7047B0
:1008B000C60800006100043F64757000002E01D07E
:1008C00047F8046D7047DA0800006200047377612E
:1008D000700039683E600E007047E8080000620052
:1008E000036E697004377047FC0800006200046FF3
:1008F0007665720047F8046D7E6870471209000043
:100900006200047475636B0001CF083F7E6038603D
:10091000704728090000630003726F7403CF083F1B
:1009200078603E600E007047400900006300042DAF
:10093000726F740003CF083F7E6039600600704715
:10094000520900002000047069636B0057F82660AC
:100950007047620900002000023E720040B440CFA0
:10096000704774090000200002723E0047F8046DD1
:1009700040BC70478609000020000272400047F822
:10098000046D009E70479609000020000572647295
:100990006F7001B07047AC0900006000047472759C
:1009A000650047F8046D0026F6437047C009000053
:1009B00060000566616C736547F8046D002670473A
:1009C000D60900006E0003616E6401CF06407047D7
:1009D0000640000616F0EE0900006E00036269632F
:1009E00001CFB043060070478643000636F0040A84
:1009F00000006E00026F720001CF0643704706438D
:100A0000000656F01A0A00006E0003786F7201CFDC
:100A1000464070474640000696F0280A00006100F4
:100A2000036E6F74F6437047380A00006100036379
:100A30006C7AB6FA86F67047460A000061000373C6
:100A4000687276087047540A000061000373686C8E
:100A500076007047640A0000610003726F725FEAFB
:100A600076067047760A0000610003726F6CB61953
:100A700056F100067047900A00006C000672736819
:100A80006966740001CFF040060070473608002602
:100A9000AA0A00006C00076172736869667401CF6E
:100AA0003041060070473610F617C40A00006C008B
:100AB000066C73686966740001CFB0400600704729
:100AC00036000026D40A0000610002303D00013EDD
:100AD000B6417047E60A0000610003303C3E013E2B
:100AE000B641F6437047F40A0000610002303C0052
:100AF000F61770470C0B00004200023E3D0001CF8C
:100B0000B042B4BF00264FF0FF367047240B000000
:100B10004200023C3D0001CFB042CCBF00264FF066
:100B2000FF3670473A0B00004200013C01CFB04253
:100B3000B4BF4FF0FF3600267047500B0000420054
:100B4000013E01CFB042CCBF4FF0FF3600267047C8
:100B5000640B0000620003753E3D01CF861BB64169
:100B6000F6437047780B0000620003753C3D01CFEF
:100B7000361AB641F64370478A0B000062000275D0
:100B80003C0001CF861BB64170479C0B0000620001
:100B900002753E0001CF361AB6417047B20B000015
:100BA0006B00023C3E0001CF361A18BF4FF0FF36F3
:100BB0007047C40B00006B00013D01CF361A013EA7
:100BC000B6417047D80B00006200036D696E01CF1B
:100BD000B042B8BF06467047EC0B00006200036DE0
:100BE000617801CFB042C8BF06467047020C0000D2
:100BF000620004756D61780001CFB04288BF06467F
:100C000070471C0C0000620004756D696E0001CF16
:100C1000B04238BF064670472C0200205A0C000034
:100C20000000046D6F76650007B5310040CF3200DB
:100C300040CF00290FD0B2420DD006D3013E013A79
:100C4000705C50540139FBD105E0307810700136EA
:100C500001320139F9D140CF07BD7C0C0000000002
:100C60000466696C6C00300040CF310040CF002931
:100C700002D001397054FCD140CF7047880C00007D
:100C80002000014036687047A00C00006D00012173
:100C900003CF30600E0070470660704701607047F8
:100CA000C60C00006D00022B210003CF3268121821
:100CB00032600E0070470268921902607047026845
:100CC000521802607047D40C0000200002684000F7
:100CD00036887047EE0C00006D000268210003CFDB
:100CE00030800E0070470680704701807047140DF9
:100CF00000006D0003682B2103CF32881218328068
:100D00000E007047028892190280704702885218BC
:100D100002807047220D00002000026340003678F8
:100D200070473C0D00006D000263210003CF30705E
:100D30000E0070470670704701707047620D00002A
:100D40006D0003632B2103CF3278121832700E002E
:100D50007047027892190270704702785218027038
:100D600070478A0D00006D0004626973210003CF93
:100D70003268024332600E007047026832430260FC
:100D8000704702680A4302607047B20D00006D00B0
:100D900004626963210003CF3268824332600E002F
:100DA00070470268B2430260704702688A4302607B
:100DB0007047DA0D00006D0004786F72210003CFD8
:100DC0003268424032600E00704702687240026032
:100DD000704702684A4002607047F40D000020002E
:100DE00004626974400001CF3668064018BF4FF0B6
:100DF000FF3670471C0E00006D00056862697321A4
:100E000003CF3288024332800E007047028832439B
:100E10000280704702880A4302807047440E000037
:100E20006D0005686269632103CF32888243328096
:100E30000E0070470288B2430280704702888A43DE
:100E4000028070476C0E00006D000568786F72219B
:100E500003CF3288424032800E00704702887240D1
:100E60000280704702884A4002807047860E000068
:100E7000200005686269744001CF3688064018BFBB
:100E80004FF0FF367047AE0E00006D0005636269DB
:100E9000732103CF3278024332700E00704702781C
:100EA00032430270704702780A4302707047D60ED0
:100EB00000006D0005636269632103CF32788243CD
:100EC00032700E0070470278B243027070470278A9
:100ED0008A4302707047FE0E00006D000563786F54
:100EE000722103CF3278424032700E007047027890
:100EF00072400270704702784A4002707047180FC3
:100F00000000200005636269744001CF3678064016
:100F100018BF4FF0FF367047280F000061000563CF
:100F2000656C6C2B04367047380F00006100056358
:100F3000656C6C73B6007047E20F00000000076834
:100F4000666C61736821300040CF310040CFDFF81C
:100F50005C3498422BD3DFF85834984227D2DFF81C
:100F600054341940994221D010F00102002A1ED1B8
:100F700002889A421BD110F10060DFF83C24DFF8B0
:100F80003C341360DFF838341360DFF83824DFF8BE
:100F9000383413600180DFF83424136813F480338D
:100FA000FBD1DFF82024DFF828341360704700F00D
:100FB0009BFD2A57726F6E6720616464726573735C
:100FC000206F72206461746120666F72207772698D
:100FD00074696E6720666C61736820210A0002F0F4
:100FE0008CBC3A10000000000763666C61736821D6
:100FF000300040CF310040CFEC4B9842D7D3EC4B80
:101000009842D4D211F0FF01FF2915D00278FF2AAF
:10101000CDD110F10060E84AE84B1360E84B136053
:10102000E84AEC4B13600170E84A136813F480330C
:10103000FBD1E44AE64B13607047C010000000008B
:10104000106572617365666C617368736563746F54
:10105000720000B5012E31D31C2E2FD20C2E2DD0B4
:101060000D2E2BD00E2E29D00F2E27D0D24AD34BA7
:101070001360D34B136000F037FD0D45726173654B
:1010800020736563746F722047F8046D02F086FA6E
:10109000CC4AD14BF60033431360CC4A136813F4A7
:1010A0008033FBD1C74ACA4B136000F01DFD0C66AC
:1010B000726F6D20466C6173682E0A0040CF00BDD0
:1010C0009414000000000A6572617365666C6173B8
:1010D000680072B600B5C148C1490268B2F1FF3F6D
:1010E00005D047F8046D0126FFF7B3FF02E0043096
:1010F0008842F2D3BB48BC490268B2F1FF3F05D039
:1011000047F8046D0226FFF7A4FF02E0043088428E
:10111000F2D3B648B6490268B2F1FF3F05D047F8AE
:10112000046D0326FFF795FF02E004308842F2D3F6
:10113000B048B1490268B2F1FF3F05D047F8046DED
:101140000426FFF786FF02E004308842F2D3AB4862
:10115000AB490268B2F1FF3F05D047F8046D0526A0
:10116000FFF777FF02E004308842F2D3A548A64992
:101170000268B2F1FF3F05D047F8046D0626FFF77D
:1011800068FF02E004308842F2D3A048A049026818
:10119000B2F1FF3F05D047F8046D0726FFF759FF6E
:1011A00002E004308842F2D39A489B490268B2F1C7
:1011B000FF3F05D047F8046D0826FFF74AFF02E01D
:1011C00004308842F2D3954895490268B2F1FF3F56
:1011D00005D047F8046D0926FFF73BFF02E0043015
:1011E0008842F2D38F4890490268B2F1FF3F05D0A0
:1011F00047F8046D0A26FFF72CFF02E0043088420E
:10120000F2D38A488A490268B2F1FF3F05D047F815
:10121000046D0B26FFF71DFF02E004308842F2D375
:10122000844885490268B2F1FF3F05D047F8046D54
:101230001026FFF70EFF02E004308842F2D37F4809
:101240007F490268B2F1FF3F05D047F8046D1126CF
:10125000FFF7FFFE02E004308842F2D379487A4972
:101260000268B2F1FF3F05D047F8046D1226FFF780
:10127000F0FE02E004308842F2D3744874490268F8
:10128000B2F1FF3F05D047F8046D1326FFF7E1FEEA
:1012900002E004308842F2D36E486F490268B2F12E
:1012A000FF3F05D047F8046D1426FFF7D2FE02E099
:1012B00004308842F2D3694869490268B2F1FF3FBD
:1012C00005D047F8046D1526FFF7C3FE02E0043091
:1012D0008842F2D3634864490268B2F1FF3F05D007
:1012E00047F8046D1626FFF7B4FE02E0043088428A
:1012F000F2D35E485E490268B2F1FF3F05D047F87D
:10130000046D1726FFF7A5FE02E004308842F2D3F1
:10131000584859490268B2F1FF3F05D047F8046DBB
:101320001826FFF796FE02E004308842F2D35348B5
:1013300053490268B2F1FF3F05D047F8046D192602
:10134000FFF787FE02E004308842F2D34D484E4951
:101350000268B2F1FF3F05D047F8046D1A26FFF787
:1013600078FE02E004308842F2D3484848490268D7
:10137000B2F1FF3F05D047F8046D1B26FFF769FE69
:1013800002E004308842F2D300F0AEFB1246696EF0
:1013900069736865642E20526573657420210A00A4
:1013A0005DF804EB62B602F0E3BB00000040000011
:1013B00000002000FFFF0000043C024023016745BD
:1013C000AB89EFCD103C0240010100000C3C024013
:1013D0000000008001000000020001000040000841
:1013E000FF7F000800800008FFBF000800C0000861
:1013F000FFFF000800000108FFFF010800000208CD
:10140000FFFF030800000408FFFF050800000608AE
:10141000FFFF070800000808FFFF090800000A088E
:10142000FFFF0B0800000C08FFFF0D0800000E086E
:10143000FFFF0F0800001008FF3F100800401008D1
:10144000FF7F100800801008FFBF100800C01008C0
:10145000FFFF100800001108FFFF1108000012082C
:10146000FFFF130800001408FFFF1508000016080E
:10147000FFFF170800001808FFFF190800001A08EE
:10148000FFFF1B0800001C08FFFF1D0800001E08CE
:10149000FFFF1F08AA1400006900012B01CF3618B6
:1014A000704736180036000616F1C01400006900B7
:1014B000012D01CF861B7047361A003E0006B6F19B
:1014C000CE140000610002312D00013E7047DC1493
:1014D0000000610002312B0001367047EA14000061
:1014E000610002322D00023E7047F81400006100D6
:1014F00002322B00023670470A1500006100066EAA
:10150000656761746500764270471E1500006100D2
:1015100003616273002E48BFD6F1000670473C1588
:101520000000420005752F6D6F6401CF3100B0FBE4
:10153000F6F67143401A043F386070475A150000B0
:101540004200042F6D6F640001CF310090FBF6F66E
:101550007143401A043F386070476E150000420026
:10156000036D6F6400B5FFF7EFFF40CF00BD7E1540
:1015700000006200012F01CF90FBF6F670478E1538
:1015800000006A00012A01CF4643704746439C157C
:101590000000610002322A0076007047AA150000A0
:1015A000610002322F0076107047BE150000610006
:1015B000046576656E000120304036187047D615F8
:1015C0000000810004626173650047F8046D114EEC
:1015D00070470A000000EC15000000000662696E0A
:1015E000617279000B480221016070470216000009
:1015F000000007646563696D616C06480A2101603B
:101600007047181600000000036865780148102133
:1016100001607047FCFF0220341600008100096859
:101620006F6F6B2D656D697447F8046D7B4E704765
:101630002A17000050160000810008686F6F6B2D9C
:101640006B65790047F8046D754E704750170000C0
:101650006E16000081000A686F6F6B2D656D6974EE
:101660003F0047F8046D6F4E70477A1700008A16E6
:101670000000810009686F6F6B2D6B65793F47F83B
:10168000046D694E7047A6170000A816000081007F
:101690000A686F6F6B2D70617573650047F8046D94
:1016A000624E704792390000BE16000000000465CB
:1016B0006D6974000FB5594800F02CF80FBDD216B3
:1016C00000000000036B65790FB5554800F022F863
:1016D0000FBDE8160000000005656D69743F00B598
:1016E000504800F017F800BDFE1600000000046B23
:1016F00065793F0000B54C4800F00CF800BD1817A4
:101700000000000005706175736500B5474800F082
:1017100001F800BD006887463E17000000000B730B
:10172000657269616C2D656D697400B500F025F80E
:10173000002E40CFFAD03E4A167040CF00BD66174B
:10174000000000000A73657269616C2D6B65790099
:1017500000B500F028F8002E40CFFAD047F8046D0D
:10176000334A167800BD9417000000000C736572B0
:1017700069616C2D656D69743F0000B5FFF7C5FFA9
:1017800047F8046D00262B4801688020014000D0F6
:10179000F64300BD6818000000000B7365726961B4
:1017A0006C2D6B65793F00B5FFF7AFFF47F8046D0F
:1017B0000026204801682020014000D0F64300BDEB
:1017C0001D494FF480300860086800F40030FBD0F9
:1017D0001A494FF0010008601749086820F001001D
:1017E000086070471649174808601749086840F4B0
:1017F0002010086015491648086016491648086008
:10180000164946200860164916480860704700B51A
:10181000FFF7D6FFFFF7E6FF00BD0000F8FF02204C
:10182000F4FF0220F0FF0220ECFF0220E8FF02207C
:101830000410014000100140003802400838024006
:1018400030380240FF071000000002402400024030
:1018500070070000443802401000000008100140EA
:101860000C1001400C2000008C18000000000763E1
:1018700065787065637400B5386801B4013038600C
:1018800000F00BF801BC067040CF00BDFE18000050
:101890000000066163636570740000B502CF013912
:1018A0000022FFF711FF300040CF202819D209286D
:1018B00016D00A281FD00D281DD00828F1D1002AE3
:1018C000EFD000F011F903082008002AE9D0885C65
:1018D000013A80230340E4D040230340F5D0E0E701
:1018E0002020B242DDD247F8046D0600FFF7E2FE89
:1018F00001328854D5E7160000F0A2F800BD101997
:10190000000040000374696247F8046D294E704777
:10191000261900008100033E696E47F8046D264ECB
:101920007047000000004C19000082000E637572C1
:1019300072656E742D736F757263650047F8046D80
:101940001E4E70470000000064000020681900006F
:10195000000009736574736F75726365174802CF71
:101960000660416040CF7047861900000000067392
:101970006F757263650047F8046D104E043F706820
:10198000386036687047C019000000000571756541
:1019900072790FB5084800210160FFF7B5FF47F8DD
:1019A000046D47F8046DC826FFF777FFFFF7D6FFF1
:1019B0000FBD000064000020E4FF0220DCFF0220D5
:1019C0000E1A0000000007636F6D706172650FB53D
:1019D000310040CF01CF884202D040CF00260FBD5A
:1019E00002CF002810D001380A5C335C412A02D3B0
:1019F0005B2A38BF2032412B02D35B2B38BF203308
:101A00009A42EED000260FBD0026F6430FBD221AE3
:101A1000000000000263720000B500F065F8010AE2
:101A200000BD341A0000000002626C0047F8046D2B
:101A300020267047481A0000000005737061636536
:101A400047F8046D202635E66E1A00000000067384
:101A500070616365730000B5002E06DD47F8046D04
:101A60002026FFF727FE013EF8D140CF00BD7E1AA9
:101A700000005000065B636861725D0005E0961A25
:101A80000000000004636861720000B501F0BCFB57
:101A900040CF367800BDA61A00005000012847F854
:101AA000046D292606E0C01A00005000015C47F8CA
:101AB000046D002600B501F0B1FB043740CF00BD36
:101AC000041B00001000022E2200B44800B547F8A5
:101AD000046D060000F08FFA47F8046D222601F02D
:101AE0009DFB00F0D1FD00BD0AB447F8046D7646B9
:101AF000013E33780121013319405B181EEB030EC0
:101B00000ABC39E02A1B0000100002632200A4482E
:101B1000DCE747F8046D7646013E33780121013356
:101B200019405B181EEB030E7047541B0000100099
:101B3000027322009B48C9E747F8046D764647F8D0
:101B4000046D013E36780121731C19405B181EEBB1
:101B5000030E70476C1B0000000005636F756E7408
:101B6000013647F8046D013E36787047941B00003B
:101B7000000005637479706501B53078002807D0DE
:101B8000013647F8046D3678FFF794FD0138F7D138
:101B900040CF01BDC21B00000000047479706500D5
:101BA000310040CF300040CF00B5002908D00022DE
:101BB00047F8046D865CFFF77DFD01329142F7D155
:101BC00000BDFA1B00000000046865782E0003B514
:101BD000310040CF2020043847F8046D31FA00F678
:101BE00016F00F06092E8CBF37363036FFF762FD30
:101BF0000028F0D1FFF724FF03BD0A1C00000000FD
:101C000003682E731FB5684C0EE01A1C000000001C
:101C100003752E731FB5654C06E0981C000000008C
:101C2000022E73001FB5624C6249C91B8908624AC3
:101C3000106803B40A201060FFF756FF0853746160
:101C4000636B3A205B0047F8046D0E0001F0AEFCB8
:101C5000FFF74AFF025D200003BC574A10600029CD
:101C60000AD0564A106806B447F8046D0600A0472B
:101C700006BC043A0139F5D1FFF736FF0620544F70
:101C8000533A200047F8046D3600A047FFF72CFFB9
:101C900004202A3E0A001FBDE61C00000000046468
:101CA000756D700000B5300040CF2021FFF71CFF9C
:101CB000072064756D703E0A47F8046D0600FFF753
:101CC00086FFFFF711FF023A2000028847F8046DF3
:101CD0001600FFF77CFFFFF707FF03203E0A0230E4
:101CE0000139E9D100BDC01D0000000005776F7209
:101CF000647300B5FFF7F8FE06776F7264730A002D
:101D000000F0F9FE300040CF8179FF2944D0FFF781
:101D1000EBFE09416464726573733A2047F8046D01
:101D20000600FFF754FFFFF7DFFE064C696E6B3AC3
:101D300020000268043047F8046D1600FFF747FFE3
:101D400001880230FFF7D0FE07466C6167733A20C6
:101D500047F8046D0E00FFF73AFF47F8046D0600E0
:101D600000F0E6FEFFF7C0FE06436F64653A200010
:101D700047F8046D0600FFF72AFFFFF7B5FE064E91
:101D8000616D653A2000FFF7F7FEFFF7ADFE010A2F
:101D9000501C01D01000B7E700BD0000E81A000099
:101DA000121B0000381B0000CF1B00009D350000F7
:101DB000AD3500002C020020FCFF0220280200208C
:101DC000241F000000000D3132626974656E636F7C
:101DD00064696E670FB5FF2E04D847F8046D5FF095
:101DE000FF360FBD16F0FF10B0420ED14FF6FF7157
:101DF0000840310C814208D116F0FF0656F4805697
:101E000047F8046D5FF0FF360FBD16F0FF20B042BB
:101E10000FD14FF6FF710840310C814209D1360ACB
:101E200016F0FF0656F4005647F8046D5FF0FF36D3
:101E30000FBDFF2231001140300A1040884210D1FE
:101E4000300C104088420CD1300E1040884208D12E
:101E500016F0FF0656F4405647F8046D5FF0FF3663
:101E60000FBD300000210131001850F100007FF05B
:101E70007F020240802A05D01F29F4D347F8046D61
:101E800000260FBD0829F9D3060036F0800611F0B0
:101E90000100C001064311F00E00C002064311F01C
:101EA00010008005064347F8046D5FF0FF360FBD54
:101EB00047F8046DDFF8C4655FF4704110EA010271
:101EC000120116435FF4006110EA0102D2031643C7
:101ED0005FF4E06110EA010212011643FF2110EAEB
:101EE000010216431E43BFE347F8046DDFF8906517
:101EF0005FF0704110EA0102120B16435FF00061BF
:101F000010EA0102520816435FF0E06110EA010294
:101F1000120B16435FF47F0110EA0102120C164304
:101F20001E43A1E38A1F00000000107265676973F9
:101F30007465726C69746572616C2C000FB5330046
:101F400040CF1B02FF2E05D856F400561E4300F06A
:101F500063FB0FBDFFF73EFF002E40CF06D0DFF83A
:101F6000240506431E4300F07FFB0FBDF643FFF739
:101F700031FF002E40CF06D0DFF80C0506431E438C
:101F800000F072FB0FBDF6430BE0EA1F00000000FB
:101F9000096D6F76776D6F76742C0FB5330040CF77
:101FA0001B02300040CFFFF783FF4FF6FF7110EAAE
:101FB000014001D0FFF798FF0FBD0FB5013630008B
:101FC00040CF0023FFF774FFFFF78EFF06E00FB549
:101FD000013647F8046D0026FFF7B0FF47F8046D9F
:101FE00044F2807600F018FB0FBD50200000000086
:101FF0000563616C6C2C0FB5330000F03CFE3000C3
:1020000040CF1B1A043BDFF884141940002906D086
:10201000DFF87C24914202D0BDE80F40D7E740CFE3
:102020005B08DFF8700440F2FF7119400843DB0AD7
:1020300040F2FF311940090408439B0A13F00101E3
:102040008906084347F8046D060000F00DFB0FBD3C
:10205000862000000000086C69746572616C2C00B9
:1020600008B547F8046D4FF6470600F0D5FA47F873
:10207000046D46F6045600F0CFFA47F8046D0626C4
:10208000FFF75CFF08BDAA20000000000663726530
:102090006174650000B500F033F842F2C700804774
:1020A00047F8046DBEF1010600BDF22000002000DB
:1020B00005646F65733E42F2C700804747F8046DC0
:1020C000BEF10106704747F8046DBEF1010600F04D
:1020D000B1F8F14A1368310040CF0220084000D027
:1020E000023102311160FFF768FF136000F0E7F979
:1020F00000BD342100000000073C6275696C647308
:1021000000B500F08BFB00F0B6FD0220064040CF8A
:1021100004D047F8046D362600F07EFA47F8046DC7
:102120004BF2005600F078FA47F8046D0A2600F0EA
:10213000DEFA00BD402100005000035B275D03E094
:10214000562100000000012700B501F05DF800F005
:1021500030FD40CF00BDA0210000100008706F735B
:1021600074706F6E650000B501F04EF800F021FD4F
:10217000300040CF1021014010290ED02021014015
:10218000202905D1FFF76CFF47F8046DC34E04E02A
:10219000FFF766FF47F8046DC14EFFF72CFF00BD47
:1021A000F6210000000007696E6C696E652C00B5B1
:1021B0004BF200514BF6005244F270733088884263
:1021C00008D0904208D0984206D047F8046D060027
:1021D00000F022FA0236F1E740CF00BD0EB44BF614
:1021E000005244F2707301880230914201D099424A
:1021F000F9D10EBC70470C22000000000472657417
:102200002C0047F8046D4BF6005605E21A22000038
:102210003000046578697400F3E750220000300054
:10222000077265637572736500B500F003F8FFF718
:10223000E2FE00BD0FB59B48006806300178013111
:1022400001220A408918401847F8046D06000FBDA6
:1022500068220000810005737461746547F8046D9D
:10226000914E7047000000007A2200000000015DDE
:102270008D480021C943016070478A220000100088
:10228000015B8948002101607047B2220000000014
:10229000013A00B58548076000F0C0FA47F8046DC0
:1022A0004BF2005600F0B8F97F480021C9430160A5
:1022B00000BDFA2200003000013B00B57B480168F8
:1022C000B9420ED0FFF710FC1520537461636B20E8
:1022D0006E6F742062616C616E6365642E0A01F03A
:1022E0000CBB47F8046D4BF6005600F095F900F072
:1022F000E6F86D480021016000BD102300000000D9
:102300000765786563757465300040CF0130874696
:1023100028230000100009696D6D656469617465AA
:1023200047F8046D1026FAE03E230000100006690D
:102330006E6C696E650047F8046D2026EFE0582347
:10234000000010000B636F6D70696C656F6E6C79C7
:1023500047F8046D3026E2E07223000010000A30D6
:102360002D666F6C6461626C650047F8046D4026F1
:10237000D5E08C23000010000A312D666F6C64617B
:10238000626C650047F8046D4126C8E0A623000092
:1023900010000A322D666F6C6461626C650047F84C
:1023A000046D4226BBE0C023000010000A332D66F6
:1023B0006F6C6461626C650047F8046D4326AEE0A3
:1023C000DA23000010000A342D666F6C6461626CC1
:1023D000650047F8046D4426A1E0F42300001000D6
:1023E0000A352D666F6C6461626C650047F8046D98
:1023F000452694E00E24000010000A362D666F6C0E
:102400006461626C650047F8046D462687E0282405
:10241000000010000A372D666F6C6461626C650005
:1024200047F8046D47267AE058240000000008634E
:102430006F6E7374616E740000B500F0EFF9FFF712
:102440000FFE47F8046D44F2707600F0E5F8FFF7F0
:102450008CFF00F034F800BDB02400000000093209
:10246000636F6E7374616E7400B500F0D7F93968EC
:102470003E600E46FFF7F4FDE1E70000000040F289
:102480000000C0F200005FF000007FF00100C0FF1C
:102490000000C0FF00F800F000000020AE210000A6
:1024A000F61F000004000020D8FF022010000020CA
:1024B0000E250000000006736D756467650000B5A9
:1024C00024480168234A914280F01B8002390A881F
:1024D000214B9A4204D147F8046D002600F09CF885
:1024E00000F06DF81D48006847F8046D06001C49AF
:1024F00009680431174A1368116000F08DF8136001
:1025000000BD00F05CF847F8046D002608E0642583
:102510000000000008736574666C6167730000B5A5
:102520000C4801680B4A914280F006800B48016814
:102530003143016040CF00BD320040CF0848006801
:1025400004300188044B99420CBF114611430180AD
:1025500000BD000000000020FFFF00001C00002064
:102560000400002072250000000005616C69676EA0
:1025700025E08E250000410007616C69676E656487
:102580000120304036180220304036187047B02500
:102590000000000006616C69676E2C0095480168B8
:1025A0000120014003D047F8046D00261AE070476F
:1025B000DA250000000007616C69676E342C00B5F5
:1025C000FFF7ECFF8B4801680220014004D047F878
:1025D000046D002600F020F800BD0E26000000006B
:1025E00002632C0000B583480168824A914205D2FB
:1025F00047F8046D0E00FEF7FBFC02E0320040CF0E
:102600000A7047F8046D012600F071F800BD4426F9
:102610000000000002682C000FB576480168754A7A
:10262000914280F0068047F8046D0E00FEF78BFCA7
:1026300002E0320040CF0A8047F8046D022600F025
:1026400056F80FBD5E2600000000012C00B547F8CB
:10265000046DFFF7E1FF360CFFF7DEFF00BD7A26C1
:1026600000000000033E3C2C00B547F8046D360C1A
:10267000FFF7D2FFFFF7D0FF00BDE2260000000009
:1026800007737472696E672C07B5FF21314040CF24
:10269000300040CF002905D147F8046D0026FFF730
:1026A000BBFF07BD47F8046D067836020E43FFF7FF
:1026B000B3FF0130013902290AD347F8046D467887
:1026C000360202781643FFF7A7FF02300239F2E71D
:1026D000002900D107BD47F8046D0678FFF79CFF7D
:1026E00007BD3C270000000005616C6C6F74414819
:1026F0000168404A91420FD2320040CF89183E4AC9
:10270000914219D3FFF7F0F90B466C6173682066AC
:10271000756C6C0A01F0F1B8320040CF8918374A65
:102720001268914208D3FFF7DFF90952616D206604
:10273000756C6C0A01F0E1B8016070476427000015
:1027400000000D636F6D70696C65746F72616D3F31
:1027500047F8046D0026274800682649884248D378
:10276000F64370478427000000000C636F6D7069AA
:102770006C65746F72616D001E4800681D49884267
:1027800011D370470C28000000000E636F6D706954
:102790006C65746F666C6173680016480068154953
:1027A000884200D270471648164902680B680A60D2
:1027B00003601048144902680B680A6003600F4800
:1027C0000068834215D300B5FFF78EF923205661C8
:1027D000726961626C657320636F6C6C69646520FB
:1027E000776974682064696374696F6E6172790ACD
:1027F00000BD7047000000200000200020000020E5
:10280000040000201800002014000020F42800001C
:1028100000000828637265617465290000B500F046
:10282000F3FC002E0ED1FFF75FF9152043726561AE
:102830007465206E65656473206E616D6520210A84
:1028400001F05BB8386847F8046D043F386000F069
:102850007EF940CF002E40CF11D0386847F8046D84
:10286000043F3860FFF740F9095265646566696E98
:102870006520FFF795F9FFF737F9022E0A00FFF7F9
:102880008DFEFFF79CFE00F0F6F98E4800688D493A
:10289000884280F01C808C480021016047F8046D5C
:1028A0000626FFF724FFFEF745F8FFF7EDFE874801
:1028B00001680A68531C07D1824A1368116047F8FF
:1028C000046DFFF7C3FE1360066040CF00BD7F4874
:1028D00047F8046D0668FFF7B9FE47F8046D002657
:1028E000F643FFF799FE7948310040CF0160FFF7CA
:1028F000CBFE00BD0C290000000008766172696102
:10290000626C650047F8046D012613E0242900007D
:10291000000009327661726961626C6547F8046D86
:10292000022607E0002A00000000096E7661726945
:1029300061626C6500B5FFF771FF62480168614A2A
:10294000914280F035800F200640B2006048016857
:10295000891A604A91420BD2FFF7C6F80F4E6F7486
:1029600020656E6F7567682052414D0A00F0C5BF43
:10297000016047F8046D0E00FFF772FB47F8046D25
:1029800044F27076FFF748FE300040CF0200002886
:1029900005D00E600431FFF759FE0138F9D147F830
:1029A000046D80261643FFF7BAFDFFF788FD00BDD2
:1029B00000F061F90220064040CF04D147F8046DD1
:1029C0003626FFF729FE47F8046D434EFFF74CFE0D
:1029D00047F8046D414EFFF747FE47F8046D44F297
:1029E0007076FFF719FE300040CF002803D0FFF7C4
:1029F0002DFE0138FBD1FFF7B8FCFFF760FD00BDED
:102A0000E02A00000000076275666665723A00B54C
:102A1000FFF704FF012030403618022030403618FE
:102A200028480168274A914280F029802848016897
:102A3000891B284A91420BD2FFF756F80F4E6F744C
:102A400020656E6F7567682052414D0A00F055BFD2
:102A5000016047F8046D0E00FFF702FB47F8046DB4
:102A600044F27076FFF7D8FDFFF7F0FD47F8046DEC
:102A700040F24016FFF753FDFFF721FD00BD00F0C7
:102A8000FAF80220064040CF04D147F8046D3626FC
:102A9000FFF7C2FD47F8046D0F4EFFF7E5FD47F85D
:102AA000046D0E4EFFF7E0FD47F8046D44F27076BA
:102AB000FFF7B2FDFFF71BFEFFF757FCFFF7FFFC28
:102AC00000BD0000000000201C00002004000020C9
:102AD000200000202C0300203E60043F02367E468A
:102AE000102B000000000F44696374696F6E6172FF
:102AF00079737461727434480068344B1B683249CE
:102B000047F8046D884201D2314E70471E0070476D
:102B1000422B000000000A736B6970737472696E57
:102B200067003178013101220A4089187618704710
:102B300006B40178013101220A408918401806BC08
:102B40007047D82B000000000466696E64003FB532
:102B5000350040CF3400FFF7CEFF300040CF0026D5
:102B600000238179FF2920D081881A4A9142026886
:102B700017D0063047F8046D0600FEF7F1FF47F85E
:102B8000046D260047F8046D2E00FEF720FF002E8E
:102B900040CF06D0FFF7CCFF06000B000A48864264
:102BA00003D2501C01D01000DBE747F8046D1E0073
:102BB0003FBD00B531003868FFF7C9FF3A68002A09
:102BC00001D100F067FD00BD0000002004000020DE
:102BD000DC000000FFFF0000322C00000000066354
:102BE0006A756D702C00320040CF310040CF8B1BD6
:102BF000043BA349194000290DD0A24881420AD0C4
:102C0000FEF772FF0D4A756D7020746F6F2066615C
:102C1000720A00F072BE5B10FF210B4013433000BC
:102C20001E0000B5984A13681060FFF7F5FC1360AA
:102C300000BD6A2C00000000056A756D702C310023
:102C400040CF300040CF0B1A043B90491940002977
:102C500002D08F4A9142D3D15B108E4A134053F475
:102C6000604347F8046D1E00DBE7802C0000000085
:102C700004686572650047F8046D834E36687047D6
:102C80007C2D000000000D666C6173687661722D0A
:102C90006865726547F8046D7F4E3668704700B509
:102CA00047F8046D42F60066FFF7B6FC47F8046D7E
:102CB0004CF64076FFF7B0FC00BDDCE700B500F055
:102CC0003AF839683E600E4647F8046D4DF200163A
:102CD000FFF789FF00BD00B500F02DF839683E60B0
:102CE0000E4647F8046D4DF20076FFF77CFF00BDFD
:102CF00000B5FFF7D4FF00F01EF839683E600E46BD
:102D000047F8046D4DF20006FFF76DFF00BD00B5FA
:102D100000F011F839683E600E46FFF790FF00BDE5
:102D200000B5FFF7BCFFFFF7A6FF47F8046D0226CA
:102D3000FFF7DDFC00BD00B5FFF79DFF47F8046D10
:102D40000226FFF7D4FC00BD00B5FFF794FFFFF7A4
:102D500076FF00BD00B5FFF78EFF47F8046D4DF21A
:102D60000006FFF740FF00BD00B5FFF784FF47F8FE
:102D7000046D4DF20016FFF736FF00BDB82D0000C0
:102D80003000047468656E00052E01D140CFDBE78A
:102D9000022E01D140CFDDE7FEF7A6FE1753747275
:102DA0007563747572657320646F6E2774206D612E
:102DB0007463680A00F0A1BDE42D000030000465D2
:102DC0006C73650000B5022E7FF4E6AF40CFFFF7CD
:102DD000B2FF39683E600E46FFF7BCFF47F8046D4E
:102DE000052600BDFC2D000030000269660000B51C
:102DF000FFF796FF47F8046D022600BD222E000063
:102E000030000672657065617400042EC4D140CF35
:102E100039683E600E4600B5FFF779FFFFF79AFF6D
:102E200000BD3E2E00003000057768696C65012EFC
:102E3000B2D140CF00B5FFF7DAFF023600BD522E07
:102E40000000300005756E74696C012EA4D140CF6E
:102E50004EE7662E0000300005616761696E012E45
:102E60009AD140CF53E79C2E000030000562656781
:102E7000696E00B5FFF721FF47F8046D012600BD1C
:102E800001FFFFFF00FFFFFF0000002001F8FFFF30
:102E900000F8FFFFFF07000020000020AC2E00001C
:102EA0002000016B47F8046D029E7047BC2E0000A5
:102EB0002000016A47F8046D009E7047CC2E000088
:102EC0002000016947F8046D260070470C2F0000B0
:102ED0003000056C6561766500B5684801683B00A7
:102EE000043F1A68043B1A60043304338B42F8D160
:102EF00003B4FFF720FF03BC330040CF04390B605D
:102F0000016004390A6801320A6000BD1E2F00000A
:102F1000200006756E6C6F6F700030BC7047562FC6
:102F200000003000052B6C6F6F70032E00D033E76C
:102F300040CF00B547F8046D514EFFF738F9FFF761
:102F4000CAFE1AE014F10044641BA41940CF2C44BB
:102F5000A4F100447047982F00003000046C6F6F9C
:102F60007000032E00D017E740CF00B547F8046D7E
:102F7000444EFFF71CF9FFF7A1FE00F023F93F488C
:102F8000310040CF016047F8046D3F4EFFF70FF965
:102F900000BD0134AC427047E02F000078000264AD
:102FA0006F0000B547F8046D384EFFF700F933485D
:102FB000016847F8046D0E0047F8046D00260760AD
:102FC000FFF77BFE47F8046D032600BD00B500F057
:102FD0002FF8ECE730B4340040CF350040CF7047D5
:102FE000903000007800033F646F00B547F8046D2F
:102FF000264EFFF7DCF847F8046D44F2AC26FFF7E5
:103000000BFB1E48016847F8046D0E00FFF793FEA6
:10301000013647F8046D012618480760FFF74DFE9A
:1030200047F8046D032600BD00B500F001F8E2E7A3
:1030300000B547F8046D4BF23046FFF7EDFA47F85C
:10304000046D0426FEF77AFF013B08D047F8046DB3
:103050000526FEF773FF013B00F028FC00BD47F892
:10306000046D3526FFF7D8FA47F8046D4CF6407624
:10307000FFF7D2FA00F01AFC00BD00000C0000209F
:10308000442F0000922F00001A2F0000D42F0000C0
:10309000AA300000300004636173650047F8046DD6
:1030A000002647F8046D08267047C0300000300045
:1030B000033F6F664D4809E0013EB64140CF70477F
:1030C000643100007800026F66004948082E00D085
:1030D00062E640CF00B547F8046D0600FFF767F8D9
:1030E000FFF729FE39683E600E46013647F8046D49
:1030F000092647F8046D4CF64076FFF78DFA00BDBF
:1031000000B5300040CF013B01B400F0CFFB01BC63
:10311000082E00D040E640CF47F8046D0600FF219E
:103120003140B14204D133490E43FFF775FAD7E776
:10313000FEF750FE002E40CF04D02F480643FFF785
:1031400093FACDE747F8046D0026FEF7F7FE47F83F
:10315000046D44F2B026FFF75FFAC1E7300040CFBC
:10316000B04270479A310000300005656E646F66AA
:10317000092E00D010E640CF00B540B440CFFFF795
:10318000DAFD39683E600E46FFF7EEFD47F8046D44
:1031900040BC47F8046D082600BDFC31000030003B
:1031A00007656E6463617365082E00D0F4E540CF57
:1031B00000B547F8046D4CF64076FFF72DFA00F0A5
:1031C00001F800BD00B5300040CF00280DD003B499
:1031D00001213140002903D0013EFFF7BBFD01E092
:1031E000FFF7B2FD03BC0138EFE700BDB8300000C7
:1031F0005C310000002E0000000FB6F1103200001C
:10320000000005746F6B656E47F8046D202605E0BD
:103210006C320000000005706172736510B5FEF736
:10322000AAFB310040CF300040CF0F4A126884180B
:10323000202E07D191420FD0835CB34202D10132DC
:103240008418F7E7914207D0835C0132B342F9D189
:103250008618361B013E01E08618361B043F3C6091
:103260000148026010BD0000E4FF0220AA32000005
:103270000000056469676974CE4B1B68303E0BD350
:103280000A2E0BD3073E0A2E06D3242E06D3203E49
:103290000A2E01D3242E01D3002670479E42FBD272
:1032A00047F8046D0026F6437047B4330000000071
:1032B000066E756D626572003FB5310040CF701EBD
:1032C0000126012204B4BB4B1B6800240025002901
:1032D0003CD00130013902782D2A04D101B00022FE
:1032E000D24304B4F3E7232A01D10A23EFE7242AC7
:1032F00001D11023EBE7252A01D10223E7E72E2A8B
:1033000001D10226E3E72C2A36D047F8046D1600D7
:10331000FFF7B4FF002E40CF2BD047F8046D2600F6
:1033200047F8046D2E0047F8046D1E0047F8046D41
:1033300000260FB4FDF70BF80FBC350040CF34006A
:1033400040CF0022A419554140CFC0E704BC002A59
:1033500004D50022E443ED430134554133002600F7
:10336000012B02D047F8046D2E0047F8046D1E00B3
:103370003FBD01B000263FBD2500002402260029E4
:10338000E4D0425C01392E2AF9D047F8046D1600CA
:10339000FFF774FF002E40CFEBD0043F3C6047F8AE
:1033A000046D1E000FB4FDF781F80FBC340040CF50
:1033B00040CFE4E7D43300000000062E646967695B
:1033C00074000A2E3CBF303603E0242E34BF37365B
:1033D000232670470A340000000004686F6C640004
:1033E000330040CF744801783F290DD2013101707C
:1033F0004018012907D001380278013002700138E5
:1034000001390129F7D1037070472A340000000008
:1034100005686F6C643C330040CF674801783F29F2
:1034200002D2013101704354704742340000000061
:10343000047369676E00002E01D440CF70472D26BB
:10344000CEE756340000000002233E005A480678BA
:103450000130386070476E3400000000036623536B
:1034600010B5202400F008F8013CFBD110BD9034C9
:10347000000000000266230000B547F8046D4D4EC1
:103480003668FCF750FFFFF79CFFFFF7C4FF00BD55
:10349000AC34000000000223530000B500F00AF82D
:1034A000002EFBD138680028F8D100BDD8340000C8
:1034B0000000012300B547F8046D3E4E366847F81A
:1034C000046D0026FDF752F8FCF736FE40CFFFF7FB
:1034D00078FFFFF785FF00BDEA3400000000023CE2
:1034E00023003548002101707047FC3400000000C3
:1034F00002662E0047F8046D202604E04A350000DD
:10350000000003662E6E00B510B4340040CFFDF706
:10351000FBF9FCF7C4FE47F8046D0026FFF7E1FF56
:10352000FFF7BBFF40CF2C26FFF775FF002C03D021
:10353000FFF7A2FF013CFBD110BC40CFFFF77BFFA0
:1035400047F8046D47F8046D1CE06035000000008A
:103550000375642E00B5FFF7C4FFFFF79EFF11E06F
:1035600092350000000002642E0000B5FDF7CCF992
:10357000FCF795FEFFF7B5FFFFF78FFFFDF7CEF9DC
:10358000FFF759FFFFF762FFFEF70AFBFEF758FA55
:1035900000BDA4350000000002752E0047F8046D40
:1035A0000026D7E7BC3500000000012E47F8046D67
:1035B000F617DAE7FCFF02202400002004360000A2
:1035C0000000086576616C756174650000B5FEF7F2
:1035D000D2F901CF01B440B440CFD748016802B45A
:1035E00000210160FEF7BAF900F014F8D24802BCDD
:1035F000016047F8046D40BC01BC043F3860FEF731
:10360000ADF900BDD2380000000009696E74657222
:103610007072657430B5C94887420BD9FEF764FAF9
:1036200010537461636B20756E646572666C6F779E
:103630000A0062E1C24887420AD2FEF755FA0F53E8
:103640007461636B206F766572666C6F770A54E104
:10365000BC4C2568002D01D13D002560FFF7D4FD4D
:10366000002E02D1043740CF30BD386847F8046DD2
:10367000043F3860FFF76BFA310040CF320040CF93
:10368000002A13D138683100FFF716FE320040CF10
:10369000002AC0D1FEF788FAFEF726FA0C206E6FDA
:1036A0007420666F756E642E0A0026E1A64B1B68B7
:1036B000002B1DD10025256030230B40302B0ED16F
:1036C000FEF76EFAFEF710FA1220697320636F6D31
:1036D00070696C652D6F6E6C792E0A000DE10437F0
:1036E00040CF47F8046D1600FEF70EFEFFF793FF7C
:1036F000043740CF80200840802810D0EB1B9B0867
:1037000040200840402810D108200840082802D155
:10371000002B00D01FE00F200840834205D347F85C
:10372000046D1600FEF7F0FD75E700F0BFF847F8EE
:10373000046D160010220A40102A02D1FEF7E4FDA3
:1037400069E720220A40202A02D1FEF730FD62E715
:10375000FEF751FC5FE7072001401000FEF73EFD39
:1037600001291FD1012BDAD1FF213140B14204D10F
:1037700040880643FEF750FF4DE7FEF72BFB002E77
:1037800040CF04D040680643FEF76EFF43E747F89A
:10379000046D0026FEF7D2FB47F8046D0688FEF79D
:1037A0003BFF38E7022902D1012BB8D1EFE703290B
:1037B00026D1012BB3D1FF213140B1420AD1634957
:1037C0000E43FEF729FF043247F8046D1600FEF79A
:1037D000EEFC20E7FEF7FEFA002E40CF04D05C4955
:1037E0000E43FEF741FFEEE747F8046D0026FEF7B3
:1037F000A5FB023247F8046D1600FEF7D8FC0AE775
:10380000042918D1012B8AD1330040CF002B00D1DD
:1038100001E71F221A409A4205D047F8046D4688F6
:10382000FEF7FAFEF7E647F8046D06889B011E4393
:10383000FEF7F2FEEFE6052924D1012B10D147F85F
:10384000046D0026FEF77AFB47F8046D0600FEF7CC
:10385000AEFC47F8046D4CF64076FEF7DDFEDAE686
:1038600047F8046D0026FEF769FB47F8046D012652
:10387000FEF764FBFEF7B2FC47F8046D0600FEF7A6
:1038800096FCC8E606290ED1012B7FF448AFFEF75F
:10389000A1FA002E40CF3FF47AAFD0F802000643E1
:1038A000FEF7E2FEB7E601308047B4E600B5002B34
:1038B0000CD0013B47F8046D1E0057F82660FEF758
:1038C000CFFB002BF5D1043D2F0040CF0025256014
:1038D00000BDEE380000810009686F6F6B2D7175B7
:1038E000697447F8046D1B4E70472239000068392F
:1038F00000000000047175697400DFF85CD00F4FA0
:1039000016480A2101601048002101600D4801603D
:103910000948016012480160124941600D48006881
:103920008746FEF736F8FFF775FEFEF7DDF805204F
:103930006F6B2E0AF5E70000E4FF02202C02002046
:103940002C01002008000020D8FF0220003E0000CB
:103950000006B6F1D4FF02202C030020FCFF022059
:10396000DCFF02206400002078390000200004659C
:10397000696E740062B670478839000020000464E4
:10398000696E740072B67047943900000000036ECF
:103990006F707047BE39000081000B6972712D7322
:1039A00079737469636B47F8046DB34E704792394D
:1039B00000004FF6D070C2F2020000688746E63978
:1039C00000008100096972712D6661756C7447F899
:1039D000046DAA4E7047BC0000004FF6CC70C2F2D6
:1039E0000200006887460E3A000081000969727182
:1039F0002D657874693047F8046DA14E704792398F
:103A000000004FF6C870C2F2020000688746363ADE
:103A100000008100096972712D657874693147F879
:103A2000046D984E7047923900004FF6C470C2F290
:103A30000200006887465E3A0000810009697271E1
:103A40002D657874693247F8046D8F4E704792394E
:103A500000004FF6C070C2F2020000688746863A46
:103A600000008100096972712D657874693347F827
:103A7000046D864E7047923900004FF6BC70C2F25A
:103A8000020000688746AE3A000081000969727141
:103A90002D657874693447F8046D7D4E704792390E
:103AA00000004FF6B870C2F2020000688746D43AB0
:103AB00000008100076972712D61646347F8046D2D
:103AC000744E7047923900004FF6B470C2F2020093
:103AD00000688746FC3A00008100086972712D7405
:103AE000696D320047F8046D6B4E704792390000E3
:103AF0004FF6B070C2F2020000688746243B000017
:103B00008100086972712D74696D330047F8046D86
:103B1000624E7047923900004FF6AC70C2F202005C
:103B2000006887464C3B00008100086972712D7463
:103B3000696D340047F8046D594E704792390000A2
:103B40004FF6A870C2F202000068874600400000ED
:103B5000FFFF182D2D2D20466C617368204469638A
:103B600074696F6E617279202D2D2D00FDF74FFE67
:103B70004C4885464C4F2A264C484A4901604C48DF
:103B80004C4901604B484C4D0400026804300188E8
:103B900002304FF6FF73994222D0484B0B4009D0B8
:103BA000FEF7C6FFFEF71AFB0388408800040343B4
:103BB000ED1A15E080230B4012D00F231940890025
:103BC0006D1AFEF7B5FFFEF709FB47F8046D060016
:103BD00047F8046D2E0047F8046D0E00FDF724F839
:103BE000501C05D0100006321278FF2A00D0CBE717
:103BF000334804603348056033483449344A8842C6
:103C000004D0023803889342F9D002303149086069
:103C1000FDF76AFF374D6563726973702D537465E4
:103C20006C6C6172697320322E302E3120666F7297
:103C30002053544D333246343239206279204D615D
:103C4000747468696173204B6F63680A22480021AD
:103C5000016047F8046D214E47F8046D0426FEF715
:103C600076FF40CF002E02D0FEF74EFB56E640CF47
:103C700043E6696E69740000D0FF0220CCFF022089
:103C8000C8FF0220C4FF0220C0FF0220BCFF0220A8
:103C9000B8FF0220B4FF0220B0FF0220ACFF0220D8
:103CA000A8FF02202C0300202C020020000000208E
:103CB00004000020DC0000000000032000010000E0
:103CC000180000202000002000002000004000001C
:103CD000FFFF00001400002008000020723C0000DC
:0400000508000000EF
:00000001FF
