:100000002C83FF1F0B3E0000A73B0000A73B000016
:10001000A73B0000A73B0000A73B0000000000003A
:10002000000000000000000000000000D53B0000C0
:10003000D53B000000000000D53B00007F3B0000E6
:10004000D53B0000D53B0000D53B0000D53B000070
:10005000D53B0000D53B0000D53B0000D53B000060
:10006000D53B0000D53B0000D53B0000D53B000050
:10007000D53B0000D53B0000D53B0000D53B000040
:10008000D53B000000000000D53B0000D53B000040
:10009000D53B0000D53B0000D53B00000000000030
:1000A000D53B0000D53B0000D53B0000D53B000010
:1000B00000000000D53B0000D53B0000D53B000010
:1000C000D53B0000D53B0000D53B0000D53B0000F0
:1000D000D53B000000000000000000000000000010
:1000E0000000000000000000000000000000000010
:1000F000D53B0000B53D0000DF3D0000D53B0000D2
:10010000D53B0000D53B0000D53B000000000000BF
:1001100000000000000000000000000000000000DF
:1001200000000000FD3B0000253C00004D3C0000AD
:10013000753C00009D3C0000D53B0000D53B000015
:10014000D53B0000D53B0000D53B0000D53B00006F
:10015000D53B0000D53B0000D53B0000D53B00005F
:10016000D53B0000D53B0000D53B0000000000005F
:10017000000000000000000000000000000000007F
:1001800000000000C33C000000000000D53B000060
:10019000D53B0000D53B0000D53B0000EB3C000008
:1001A000133D00003B3D0000633D00008B3D00001F
:1001B0000000000000000000D53B0000FFFFFFFF33
:1001C000FFFFFFFFFFFFFFFFFFFFFFFFFFFFFFFF3F
:1001D000FFFFFFFFFFFFFFFFFFFFFFFFFFFFFFFF2F
:1001E000FFFFFFFFFFFFFFFFFFFFFFFFFFFFFFFF1F
:1001F000FFFFFFFFFFFFFFFFFFFFFFFFFFFFFFFF0F
:10040000FFFFFFFFFFFFFFFFFFFFFFFF00000000F8
:1004100036040000FFFF1E2D2D2D204D65637269EF
:1004200073702D5374656C6C6172697320436F72C5
:1004300065202D2D2D004E0400004200043264750D
:100440007000386847F8046D043F386070476004F6
:1004500000006200053264726F70043740CF70474D
:100460007E040000440005327377617007CF043FBB
:10047000386047F8046D043F3A600E0070479204FC
:100480000000620004326E69700007CF043F3860DC
:100490007047AC040000440005326F766572B8689E
:1004A00047F8046D043F3860FE687047D0040000D0
:1004B000440005327475636B07CF043F386047F81A
:1004C000046D043F3A60043F3960043F3860704770
:1004D000F204000046000432726F74003868B96894
:1004E0003A69B86039613A6079687E60FE68F9609F
:1004F000704714050000460005322D726F7438688D
:10050000B9683A6938613960BA60F968FE607E6836
:100510007960704728050000200003323E7201CF49
:1005200001B440B440CF70474005000020000332C2
:10053000723E47F8046D40BC01BC043F3860704710
:100540005805000020000332724047F8046D019EF8
:1005500047F8046D009E70476A05000020000632CF
:100560007264726F700002B0704782050000420032
:100570000364322F3868F10776104008084338606A
:1005800070479605000062000364322A386800183C
:10059000764138607047B00500004200046473681B
:1005A00072003868F10776084008084338607047E1
:1005B000C60500006200046473686C0038680018A7
:1005C000764138607047D8050000420004646162DB
:1005D0007300002E14D47047F20500004300083F5A
:1005E000646E656761746500300040CF002807D4F1
:1005F000704710060000420007646E65676174650D
:1006000038680021C043F64301304E4138607047DE
:1006100028060000640002642D0007CF121AB141C1
:100620000E00043F3A6070473E060000640002641A
:100630002B0007CF12184E41043F3A607047500616
:100640000000610003733E6447F8046DF6177047BD
:1006500064060000620003756D2A3868A0FB060678
:1006600038607047780600006200026D2A00386822
:1006700080FB060638607047B6060000440003752C
:10068000642A07CF564341437618010C130C594393
:100690007618010C80B292B251434343504300227A
:1006A000C91852411204B6180A04090C80184E41A8
:1006B000043F386070474807000044000475646DCB
:1006C0002A0010B5002447F8046D7E6847F8046DD1
:1006D0003E69FFF7C2FF310040CF300040CF47F8FE
:1006E000046D3E6847F8046DFE6803B4FFF7B5FF7C
:1006F00003BC330040CF320040CF47F8046D3E6862
:1007000047F8046D3E690FB4FFF7A7FF0FBC9219BD
:10071000634140CF89196241634140CF47F8046D7E
:100720007E6847F8046DFE680FB4FFF796FF0FBCB4
:100730009219634140CF89196241634140CF1E0045
:100740003A607960B86010BD6A0700004300022A71
:100750002F0000B540B440CFFFF789FF47F8046D84
:1007600040BC00F062F8043700BD8C070000430075
:10077000052A2F6D6F6400B540B440CFFFF777FFB7
:1007800047F8046D40BC00F050F800BDAE07000013
:10079000430003752A2F00B540B440CFFFF75DFF3B
:1007A00047F8046D40BC00F01BF8043700BDD207C9
:1007B0000000430006752A2F6D6F640000B540B439
:1007C00040CFFFF74AFF47F8046D40BC00F008F83F
:1007D00000BD1E080000430006756D2F6D6F64009C
:1007E00010B47868396800220024202364000018BF
:1007F00049415241964201D8921B0134013BF5D147
:100800002023640049185241964201D8921B0134BA
:10081000013BF6D104373A60260010BC70479208BD
:1008200000004300056D2F6D6F6400B5F01718D000
:10083000764200F019FAF0170DD0FFF7E1FE00F054
:1008400007FAFFF7CDFF39683E600E4676423968F9
:100850003E600E4600BD00F0FBF9FFF7C1FF764297
:1008600000BD00F001FAF0170ED0FFF7C9FE00F04E
:10087000EFF9FFF7B5FF764239683E600E467642E3
:1008800039683E600E4600BD00F0E2F9FFF7A8FFB0
:1008900000BDEE08000044000675642F6D6F640013
:1008A00030B43C68B86879680022002520236D00C8
:1008B000001849415241944201D8121B0135013BB5
:1008C000F5D120B4002520206D00491852415B412C
:1008D0009E4204D8944202D8121BB341013501381C
:1008E000F2D13D60BA607B6040BC30BC70476409A7
:1008F0000000440005642F6D6F6400B5F01719D037
:10090000FFF77EFEFFF7B2FDF0170CD0FFF778FE81
:10091000FFF7ACFDFFF7C4FFFFF7A8FDFFF770FE80
:10092000FFF7A4FD00BDFFF7A1FDFFF7B9FFFFF73B
:1009300067FE00BDFFF79AFDF0170ED0FFF760FECF
:10094000FFF794FDFFF7ACFFFFF75AFEFFF78EFDB0
:10095000FFF756FEFFF78AFD00BDFFF787FDFFF7A3
:100960009FFF00BD7A090000440002642F0000B51B
:10097000FFF7C3FFFFF789FD00BD120A0000440026
:1009800002662A0000B5F0170DD0FFF739FEFFF719
:100990006DFDF0170DD0FFF733FEFFF792FE40CF4D
:1009A00001CF386000BDFFF761FDF017F5D0FFF70C
:1009B00027FEFFF786FE40CF01CF3860FFF720FE0D
:1009C00000BD30B43C68B9687A6800230025202057
:1009D0006D00491852415B419E4204D8944202D8AE
:1009E000121BB34101350138F2D1290020206D00DE
:1009F00092185B419E4204D8944202D8121BB34124
:100A000001350138F3D13D60BA607B600E0030BC27
:100A100070475E0A0000440002662F0000B5F01720
:100A20000ED0FFF7EDFDFFF721FDF0170ED0FFF719
:100A3000E7FDFFF71BFDFFF7C4FFFFF726FD00BD35
:100A4000FFF714FDF017F4D0FFF7DAFDFFF70EFD06
:100A5000FFF7B7FFFFF7D4FDFFF717FD00BD720AE0
:100A6000000020000232210006CF3160726040CFCA
:100A70007047860A0000200002324000043F706880
:100A8000386036687047A60A000044000364753C6D
:100A900007CF8E4204D801D1904201D8002670477A
:100AA0000026F6437047C60A000044000364753E02
:100AB00007CFB14204D801D1824201D80026704745
:100AC0000026F6437047E60A0000440002643C003A
:100AD00007CF8E4204DC01D1904201DC0026704732
:100AE0000026F6437047060B0000440002643E00F7
:100AF00007CFB14204DC01D1824201DC00267047FD
:100B00000026F6437047160B000062000364303C79
:100B10000437F6177047300B000042000364303D85
:100B200001CF002801D000267047013EB641704732
:100B30004A0B0000440003643C3E07CF904201D1C1
:100B4000761A01D00026F6437047660B0000440079
:100B500002643D0007CF904201D000267047761A0C
:100B6000013EB6417047780B0000200003737040CF
:100B700047F8046D3E007047880B000020000373A7
:100B80007021370040CF70479A0B0000200003729D
:100B9000704047F8046D6E467047AA0B00002000B5
:100BA00003727021B54640CF7047C40B00000000AF
:100BB000056465707468E549C91B890847F8046DC8
:100BC0000E007047D40B000061000364757047F895
:100BD000046D7047E40B000061000464726F7000E4
:100BE00040CF7047FA0B00006100043F647570004D
:100BF000002E01D047F8046D70470E0C0000620013
:100C000004737761700039683E600E0070471C0CF9
:100C100000006200036E697004377047300C0000FA
:100C20006200046F7665720047F8046D7E68704755
:100C3000460C00006200047475636B0001CF083F2E
:100C40007E60386070475C0C0000630003726F7454
:100C500003CF083F78603E600E007047740C0000C0
:100C60006300042D726F740003CF083F7E6039600B
:100C700006007047860C00002000047069636B005A
:100C800057F826607047960C00002000023E720064
:100C900040B440CF7047A80C0000200002723E0014
:100CA00047F8046D40BC7047BA0C00002000027287
:100CB000400047F8046D009E7047CA0C00002000F9
:100CC000057264726F7001B07047E00C0000600044
:100CD00004747275650047F8046D0026F64370478A
:100CE000F40C000060000566616C736547F8046DE4
:100CF000002670470A0D00006E0003616E6401CF8C
:100D0000064070470640000616F0220D00006E00F7
:100D10000362696301CFB043060070478643000653
:100D200036F0380D00006E00026F720001CF0643EE
:100D300070470643000656F04E0D00006E00037823
:100D40006F7201CF464070474640000696F05C0D3A
:100D500000006100036E6F74F64370476C0D000075
:100D6000610003636C7AB6FA86F670477A0D00006C
:100D700061000373687276087047880D0000610097
:100D80000373686C76007047980D00006100037271
:100D90006F725FEA76067047AA0D00006100037269
:100DA0006F6CB61956F100067047C40D00006C0058
:100DB000067273686966740001CFF04006007047E0
:100DC00036080026DE0D00006C000761727368694A
:100DD000667401CF3041060070473610F617F80DE3
:100DE00000006C00066C73686966740001CFB04047
:100DF0000600704736000026080E00006100023031
:100E00003D00013EB64170471A0E000061000330FC
:100E10003C3E013EB641F6437047280E000061009B
:100E200002303C00F6177047400E00004200023EC0
:100E30003D0001CFB042B4BF00264FF0FF367047EF
:100E4000580E00004200023C3D0001CFB042CCBF32
:100E500000264FF0FF3670476E0E00004200013C46
:100E600001CFB042B4BF4FF0FF3600267047840E6A
:100E700000004200013E01CFB042CCBF4FF0FF3630
:100E800000267047980E0000620003753E3D01CFBA
:100E9000861BB641F6437047AC0E00006200037536
:100EA0003C3D01CF361AB641F6437047BE0E0000F6
:100EB000620002753C0001CF861BB6417047D00E20
:100EC0000000620002753E0001CF361AB64170473D
:100ED000E60E00006B00023C3E0001CF361A18BF40
:100EE0004FF0FF367047F80E00006B00013D01CF58
:100EF000361A013EB64170470C0F00006200036DC8
:100F0000696E01CFB042B8BF06467047200F00009F
:100F10006200036D617801CFB042C8BF06467047DA
:100F2000360F0000620004756D61780001CFB04299
:100F300088BF06467047500F0000620004756D6957
:100F40006E0001CFB04238BF064670472C82FF1FAB
:100F50008E0F00000000046D6F76650007B531004C
:100F600040CF320040CF00290FD0B2420DD006D37F
:100F7000013E013A705C50540139FBD105E03078F4
:100F80001070013601320139F9D140CF07BDB00FE1
:100F9000000000000466696C6C00300040CF310036
:100FA00040CF002902D001397054FCD140CF7047A6
:100FB000BC0F00002000014036687047D40F0000CD
:100FC0006D00012103CF30600E007047066070474E
:100FD00001607047FA0F00006D00022B210003CF63
:100FE0003268121832600E0070470268921902606F
:100FF0007047026852180260704708100000200015
:101000000268400036887047221000006D000268B8
:10101000210003CF30800E007047068070470180AA
:101020007047481000006D0003682B2103CF328801
:10103000121832800E0070470288921902807047A1
:101040000288521802807047561000002000026388
:10105000400036787047701000006D000263210078
:1010600003CF30700E0070470670704701707047F4
:10107000961000006D0003632B2103CF3278121805
:1010800032700E0070470278921902707047027831
:10109000521802707047BE1000006D000462697340
:1010A000210003CF3268024332600E0070470268AD
:1010B00032430260704702680A4302607047E610DC
:1010C00000006D0004626963210003CF326882432F
:1010D00032600E0070470268B243026070470268D7
:1010E0008A43026070470E1100006D0004786F7231
:1010F000210003CF3268424032600E007047026820
:1011000072400260704702684A40026070472811CE
:101110000000200004626974400001CF3668064078
:1011200018BF4FF0FF367047501100006D00056882
:101130006269732103CF3288024332800E00704708
:10114000028832430280704702880A430280704757
:10115000781100006D0005686269632103CF328851
:10116000824332800E0070470288B243028070478B
:1011700002888A4302807047A01100006D00056854
:10118000786F722103CF3288424032800E00704760
:10119000028872400280704702884A40028070478D
:1011A000BA110000200005686269744001CF3688DA
:1011B000064018BF4FF0FF367047E21100006D0087
:1011C00005636269732103CF3278024332700E00E7
:1011D0007047027832430270704702780A43027007
:1011E00070470A1200006D0005636269632103CF36
:1011F0003278824332700E0070470278B243027038
:10120000704702788A4302707047321200006D0006
:101210000563786F722103CF3278424032700E003E
:101220007047027872400270704702784A4002703C
:1012300070474C120000200005636269744001CFC2
:101240003678064018BF4FF0FF3670475C1200003A
:1012500061000563656C6C2B043670476C120000EE
:1012600061000563656C6C73B60070477C13000009
:10127000000006666C6173682100300040CF3100C9
:1012800040CF854B984268D3844B99422ED003229D
:1012900002402CD102689A4246D1814A13788022BA
:1012A0001A40FAD030221A4002D07D4A30231370FF
:1012B0007C4A062313707C4A1070000A7B4A107027
:1012C000000A7B4A10707B4A1170090A7A4A117031
:1012D000090A7A4A1170090A794A1170704A802302
:1012E00013706F4A137880221A40FAD0704700F0CA
:1012F000EFFC30416464726573732068617320741D
:101300006F20626520342D616C69676E65642066AC
:101310006F722077726974696E6720666C6173689A
:1013200020210A0002F0A2BB00F0D2FC29466C6129
:101330007368206C6F636174696F6E2063616E6E99
:101340006F74206265207772697474656E2074779B
:1013500069636520210A02F089BB00F0B9FC1943DA
:10136000616E6E6F7420777269746520696E746F38
:1013700020636F726520210A02F078BBFE13000023
:1013800000000E666C6173687061676565726173F9
:1013900065000FB5300040CF3F4B984220D3032368
:1013A00098433F4A137880221A40FAD030221A40DC
:1013B00002D03B4A302313703A4A092313703A4A49
:1013C0001070000A394A1070000A394A1070344A05
:1013D00080231370324A137880221A40FAD00FBD4E
:1013E00000F076FC1443616E6E6F74206572617359
:1013F0006520636F726520210A0002F037BB7A1402
:10140000000000000A6572617365666C61736800B4
:10141000214872B62B492C4A036893421CD047F8E6
:10142000046D060047F8046D00F052FC104572612F
:10143000736520626C6F636B20617420200000F084
:10144000BAFC00F045FC0C2066726F6D20466C61A2
:1014500073680A00FFF79DFF04308842DCD100F07A
:1014600037FC1246696E69736865642E2052657395
:10147000657420210A0002F0D6FC6C150000000003
:101480000E6572617365666C61736866726F6D007C
:10149000300040CFBDE7000000400000FFFFFFFF2D
:1014A0000000024007000240040002400500024024
:1014B0000600024008000240090002400A00024003
:1014C0000B00024000000400FFFFFFFF5D486021A9
:1014D0000022028002300139FBD170475948602157
:1014E0000288002A12D000F0F3FB1D556E7061696E
:1014F0007265642031362D62697420466C617368B0
:101500002077726974652E0A02F0B0BA0230013990
:10151000E6D170474B482021028843881B041A43B8
:10152000B24221D006300139F6D100F0D1FB344C63
:101530006F636174696F6E206E6F7420666F756E75
:101540006420696E20466C617368207772697465E7
:1015500020636F6C6C656374696F6E207461626C7C
:10156000652E0A0002F082BA86887047481600008D
:1015700000000768666C6173682130B5320040CFA7
:101580000120104013D000F0A3FB1E68666C61734D
:101590006821206E65656473206576656E206164E0
:1015A000647265737365732E0A0002F05FBA0223DA
:1015B000534024482021048845882D042C439C4214
:1015C0002BD006300139F6D11E48202104884588E9
:1015D0002D042C43002C1AD006300139F6D100F02E
:1015E00077FB27546F6F206D616E7920756E706187
:1015F000697265642031362D62697420466C6173AE
:1016000068207772697465732E0A02F02FBA02801F
:10161000120C4280868040CF30BD0221114003D0A1
:10162000023A8188360401E0818809040E4347F8B4
:10163000046D16000021018041808180FFF71DFEAE
:1016400030BD00002C83FF1F5E1600006900012BD7
:1016500001CF3618704736180036000616F174169A
:1016600000006900012D01CF861B7047361A003E2D
:101670000006B6F182160000610002312D00013E25
:10168000704790160000610002312B000136704750
:101690009E160000610002322D00023E7047AC161B
:1016A0000000610002322B0002367047BE160000B7
:1016B0006100066E65676174650076427047D216F8
:1016C0000000610003616273002E48BFD6F100067E
:1016D0007047F0160000420005752F6D6F6401CF52
:1016E0003100B0FBF6F67143401A043F3860704792
:1016F0000E1700004200042F6D6F640001CF31000F
:1017000090FBF6F67143401A043F38607047221789
:1017100000004200036D6F6400B5FFF7EFFF40CF9C
:1017200000BD321700006200012F01CF90FBF6F6DA
:101730007047421700006A00012A01CF46437047F4
:10174000464350170000610002322A0076007047BD
:101750005E170000610002322F007610704772178A
:1017600000006100046576656E0001203040361887
:1017700070478A170000810004626173650047F8B2
:10178000046D114E70470A000000A0170000000011
:101790000662696E617279000B4802210160704730
:1017A000B6170000000007646563696D616C064848
:1017B0000A21016070473618000000000368657850
:1017C0000148102101607047FC7F00208549864850
:1017D00001608649864801608649874801608749DB
:1017E0008748016441648160C160002185480170BF
:1017F0008548017085480170854801700C21854835
:1018000001700021844801700B2184480170C021BF
:10181000834801708821834801430170C0218048BA
:1018200001708148012101708048082101700C215C
:1018300074480170704752180000810009686F6F8A
:101840006B2D656D697447F8046D794E70474819C2
:1018500000006E180000810008686F6F6B2D6B65CB
:10186000790047F8046D734E70476E1900008C18AC
:10187000000081000A686F6F6B2D656D69743F0011
:1018800047F8046D6C4E70479E190000A8180000C0
:10189000810009686F6F6B2D6B65793F47F8046DA8
:1018A000664E7047CA190000C618000081000A6819
:1018B0006F6F6B2D70617573650047F8046D604E36
:1018C00070471C3B0000DC180000000004656D69D7
:1018D00074000FB5564800F02CF80FBDF01800004A
:1018E0000000036B65790FB5524800F022F80FBD78
:1018F00006190000000005656D69743F00B54E488B
:1019000000F017F800BD1C1900000000046B657999
:101910003F0000B5494800F00CF800BD3619000042
:10192000000005706175736500B5454800F001F869
:1019300000BD006887465C19000000000B736572EB
:1019400069616C2D656D697400B500F028F8002E92
:1019500040CFFAD03B48067040CF00BD8A19000046
:1019600000000A73657269616C2D6B65790000B5C2
:1019700000F02BF8002E40CFFAD0334800783148E1
:1019800047F8046D0678F6B200BDB81900000000F3
:101990000C73657269616C2D656D69743F0000B5EB
:1019A000FFF7C2FF47F8046D002627488022017820
:1019B000114000D0F64300BD501A000000000B7328
:1019C000657269616C2D6B65793F00B5FFF7ACFFFF
:1019D00047F8046D00261D4840220178114000D1CF
:1019E000F64300BD003E00003880044000040000C3
:1019F0003480044000000000108004400003000018
:101A000000A0044003A0064002A0064006A0064035
:101A100005A006400AA0064000A0064001A006401E
:101A200011A0064010A0064015A006400DA00640DB
:101A3000F87F0020F47F0020F07F0020EC7F002062
:101A4000E87F002007A0064004A0064012A0064040
:101A5000741A00000000076365787065637400B550
:101A6000386801B40130386000F00BF801BC067032
:101A700040CF00BDE61A0000000006616363657098
:101A8000740000B502CF01390022FFF72CFF3000AF
:101A900040CF202819D2092816D00A281FD00D2897
:101AA0001DD00828F1D1002AEFD000F011F9030869
:101AB0002008002AE9D0885C013A80230340E4D062
:101AC00040230340F5D0E0E72020B242DDD247F8C2
:101AD000046D0600FFF7FDFE01328854D5E71600BD
:101AE00000F0A2F800BDF81A00004000037469621B
:101AF00047F8046D294E70470E1B00008100033E1D
:101B0000696E47F8046D264E704700000000341BD4
:101B1000000082000E63757272656E742D736F75AE
:101B20007263650047F8046D1E4E704700000000A8
:101B30006480FF1F501B0000000009736574736F01
:101B400075726365174802CF0660416040CF7047E9
:101B50006E1B0000000006736F757263650047F826
:101B6000046D104E043F7068386036687047A81BDB
:101B7000000000000571756572790FB508480021F5
:101B80000160FFF7B5FF47F8046D47F8046DC826FC
:101B9000FFF777FFFFF7D6FF0FBD00006480FF1F40
:101BA000E47F0020DC7F0020F61B000000000763BC
:101BB0006F6D706172650FB5310040CF01CF884203
:101BC00002D040CF00260FBD02CF002810D0013830
:101BD0000A5C335C412A02D35B2A38BF2032412B96
:101BE00002D35B2B38BF20339A42EED000260FBDC4
:101BF0000026F6430FBD0A1C0000000002637200BD
:101C000000B500F065F8010A00BD1C1C00000000D2
:101C100002626C0047F8046D20267047301C0000FB
:101C2000000005737061636547F8046D202650E677
:101C3000561C00000000067370616365730000B5F8
:101C4000002E06DD47F8046D2026FFF742FE013E18
:101C5000F8D140CF00BD661C00005000065B6368F1
:101C600061725D0005E07E1C000000000463686195
:101C7000720000B501F086FB40CF367800BD8E1CA7
:101C800000005000012847F8046D292606E0A81C32
:101C900000005000015C47F8046D002600B501F01B
:101CA0007BFB043740CF00BDEC1C00001000022E6F
:101CB00022009D4800B547F8046D060000F061FA67
:101CC00047F8046D222601F067FB00F081FD00BD9E
:101CD0000AB447F8046D7646013E3378012101339A
:101CE00019405B181EEB030E0ABC39E0121D000000
:101CF0001000026322008D48DCE747F8046D764649
:101D0000013E33780121013319405B181EEB030EAD
:101D100070473C1D00001000027322008448C9E790
:101D200047F8046D764647F8046D013E3678012188
:101D3000731C19405B181EEB030E7047541D000006
:101D4000000005636F756E74013647F8046D013E3F
:101D5000367870477C1D000000000563747970655B
:101D600001B53078002807D0013647F8046D367881
:101D7000FFF7AFFD0138F7D140CF01BDAA1D00002C
:101D80000000047479706500310040CF300040CF0E
:101D900000B5002908D0002247F8046D865CFFF7E3
:101DA00098FD01329142F7D100BDE21D0000000014
:101DB000046865782E0003B5310040CF2020043838
:101DC00047F8046D31FA00F616F00F06092E8CBFA5
:101DD00037363036FFF77DFD0028F0D1FFF724FFBE
:101DE00003BDF21D0000000003682E731FB5514CA7
:101DF0000EE0021E0000000003752E731FB54E4C4E
:101E000006E0801E00000000022E73001FB54B4C40
:101E10004B49C91B89084B4A106803B40A2010605B
:101E2000FFF756FF08537461636B3A205B0047F875
:101E3000046D0E0001F078FCFFF74AFF025D200000
:101E400003BC404A106000290AD03F4A106806B41B
:101E500047F8046D0600A04706BC043A0139F5D1E5
:101E6000FFF736FF0620544F533A200047F8046D21
:101E70003600A047FFF72CFF04202A3E0A001FBDB2
:101E80004C1F0000000005776F72647300B5FFF708
:101E90001FFF06776F7264730A0000F0CEFEFFF733
:101EA00017FF09416464726573733A2047F8046D43
:101EB000FFF781FFFFF70CFF064C696E6B3A2000BD
:101EC00047F8046D3668FFF776FFFFF701FF074616
:101ED0006C6167733A2047F8046DB688FFF76BFFB3
:101EE000FFF7F6FE06436F64653A2000B01D00F070
:101EF000DDFE47F8046D0600FFF75DFFFFF7E8FE23
:101F0000064E616D653A200047F8046D0636FFF70E
:101F100027FFFFF7DDFE010A00F0A6FE300040CFEC
:101F2000BDD040CF00BD0000D01C0000FA1C000056
:101F3000201D0000B71D00001937000029370000E0
:101F40002C82FF1FFC7F00202882FF1FB020000092
:101F500000000D3132626974656E636F64696E678B
:101F60000FB5FF2E04D847F8046D5FF0FF360FBDA4
:101F700016F0FF10B0420ED14FF6FF710840310C41
:101F8000814208D116F0FF0656F4805647F8046DDA
:101F90005FF0FF360FBD16F0FF20B0420FD14FF6B5
:101FA000FF710840310C814209D1360A16F0FF0654
:101FB00056F4005647F8046D5FF0FF360FBDFF2260
:101FC00031001140300A1040884210D1300C1040CE
:101FD00088420CD1300E1040884208D116F0FF061E
:101FE00056F4405647F8046D5FF0FF360FBD3000E1
:101FF00000210131001850F100007FF07F02024003
:10200000802A05D01F29F4D347F8046D00260FBDA0
:102010000829F9D3060036F0800611F00100C0014E
:10202000064311F00E00C002064311F010008005B7
:10203000064347F8046D5FF0FF360FBD47F8046DA7
:10204000DFF8D8655FF4704110EA0102120116430F
:102050005FF4006110EA0102D20316435FF4E0610D
:1020600010EA010212011643FF2110EA0102164391
:102070001E439DE347F8046DDFF8A4655FF07041EF
:1020800010EA0102120B16435FF0006110EA010230
:10209000520816435FF0E06110EA0102120B16438A
:1020A0005FF47F0110EA0102120C16431E437FE326
:1020B0001621000000001072656769737465726C08
:1020C00069746572616C2C000FB5330040CF1B0240
:1020D000FF2E05D856F400561E4300F042FB0FBDFC
:1020E000FFF73EFF002E40CF06D0DFF8380506434D
:1020F0001E4300F05DFB0FBDF643FFF731FF002EDE
:1021000040CF06D0DFF8200506431E4300F050FB09
:102110000FBDF6430BE0762100000000096D6F76DD
:10212000776D6F76742C0FB5330040CF1B023000F3
:1021300040CFFFF783FF4FF6FF7110EA014001D057
:10214000FFF798FF0FBD0FB50136300040CF0023D9
:10215000FFF774FFFFF78EFF06E00FB5013647F873
:10216000046D0026FFF7B0FF47F8046D44F2807657
:1021700000F0F7FA0FBDDC21000000000563616C80
:102180006C2C0FB5330000F034FE300040CF1B1A2A
:10219000043BDFF898141940002906D0DFF890249A
:1021A000914202D0BDE80F40D7E740CF5B08DFF88F
:1021B000840440F2FF7119400843DB0A40F2FF310A
:1021C0001940090408439B0A13F0010189060843DA
:1021D00047F8046D060000F0EBFA0FBD1222000074
:1021E0000000086C69746572616C2C0008B547F8D2
:1021F000046D4FF6470600F0B4FA47F8046D46F652
:10220000045600F0AEFA47F8046D0626FFF75CFFAF
:1022100008BD362200000000066372656174650027
:1022200000B500F033F842F25320804747F8046DC0
:10223000BEF1010600BD7E220000200005646F652E
:10224000733E42F25320804747F8046DBEF1010609
:10225000704747F8046DBEF1010600F0AFF8F64A8A
:102260001368310040CF0220084000D00231023113
:102270001160FFF768FF136000F0F1F900BDC022A4
:1022800000000000073C6275696C647300B500F0E3
:1022900069FB00F0AEFD0220064040CF04D047F8B5
:1022A000046D362600F05DFA47F8046D4BF20056D7
:1022B00000F057FA47F8046D0A2600F0BCFA00BD9A
:1022C000CC2200005000035B275D03E0E222000007
:1022D0000000012700B501F055F800F025FD40CFC2
:1022E00000BD28230000100008706F7374706F6EBB
:1022F000650000B501F046F800F016FD300040CF53
:10230000102101400DD12021014005D0FFF76EFFC3
:1023100047F8046DC94E04E0FFF768FF47F8046D05
:10232000C74EFFF72EFF00BD7E23000000000769A7
:102330006E6C696E652C00B54BF200514BF6005285
:1023400044F270733088884208D0904208D0984296
:1023500006D047F8046D060000F003FA0236F1E7F4
:1023600040CF00BD0EB44BF6005244F270730188AA
:102370000230914201D09942F9D10EBC70479423AA
:1023800000000000047265742C0047F8046D4BF6E1
:102390000056E6E1A223000030000465786974006D
:1023A000F3E7F02300003000077265637572736510
:1023B00000B500F003F8FFF7E4FE00BD0FB5A1483B
:1023C000006806300178FF2909D147F8046D06003E
:1023D00001B4FFF79FF801BCFF21314040CF01312C
:1023E00001220A408918401847F8046D06000FBD05
:1023F00008240000810005737461746547F8046D5A
:10240000914E7047000000001A2400000000015D9A
:102410008D480021C943016070472A240000100044
:10242000015B8948002101607047522400000000D0
:10243000013A00B58548076000F094FA47F8046D4A
:102440004BF2005600F08DF97F480021C94301602E
:1024500000BD9A2400003000013B00B57B480168B4
:10246000B9420ED0FFF734FC1520537461636B2022
:102470006E6F742062616C616E6365642E0A01F098
:10248000F5BA47F8046D4BF6005600F06AF900F013
:10249000E6F86D480021016000BDB0240000000096
:1024A0000765786563757465300040CF01308746F5
:1024B000C8240000100009696D6D65646961746568
:1024C00047F8046D1026FBE0DE24000010000669CA
:1024D0006E6C696E650047F8046D2026F0E0F82404
:1024E000000010000B636F6D70696C656F6E6C7926
:1024F00047F8046D3026E3E01225000010000A3092
:102500002D666F6C6461626C650047F8046D40264F
:10251000D6E02C25000010000A312D666F6C646136
:10252000626C650047F8046D4126C9E0462500004D
:1025300010000A322D666F6C6461626C650047F8AA
:10254000046D4226BCE06025000010000A332D66B1
:102550006F6C6461626C650047F8046D4326AFE000
:102560007A25000010000A342D666F6C6461626C7D
:10257000650047F8046D4426A2E094250000100091
:102580000A352D666F6C6461626C650047F8046DF6
:10259000452695E0AE25000010000A362D666F6CCA
:1025A0006461626C650047F8046D462688E0C825C2
:1025B000000010000A372D666F6C6461626C650064
:1025C00047F8046D47267BE0F8250000000008630B
:1025D0006F6E7374616E740000B500F0C3F9FFF79D
:1025E00005FE47F8046D44F2707600F0BAF8FFF784
:1025F0008CFF00F034F800BD5026000000000932C6
:10260000636F6E7374616E7400B500F0ABF9396876
:102610003E600E46FFF7EAFDE1E70000000040F2F1
:102620000000C0F200005FF000007FF00100C0FF7A
:102630000000C0FF00F800F00080FF1F36230000FC
:10264000822100000480FF1FD87F00201080FF1F20
:10265000B0260000000006736D756467650000B564
:1026600024480168234A91421CD202390A88224B2D
:102670009A4204D147F8046D204E00F072F800F041
:102680005FF81F48006847F8046D06001D49096897
:102690000431184A1368116000F063F81360FEF704
:1026A0001DFF00BD00F04CF847F8046D002608E05F
:1026B00008270000000008736574666C616773008A
:1026C00000B50C4801680B4A914205D20C480168DC
:1026D0003143016040CF00BD320040CF094800685F
:1026E00004300188044B99420CBF1146114301800C
:1026F00000BD00000080FF1FFFFF00000000000081
:102700001C80FF1F0480FF1F1627000000000561CA
:102710006C69676E14E032270000410007616C6944
:10272000676E65640120304036180220304036184C
:10273000704758270000000007616C69676E342CF1
:1027400000B57E4801680220014004D047F8046DBE
:10275000002600F006F800BD8C270000000002688B
:102760002C000FB575480168744A914205D247F8AC
:10277000046D0E00FEF701FF02E0320040CF0A8038
:1027800047F8046D022600F056F80FBDA62700009A
:102790000000012C00B547F8046DFFF7E2FF360C8E
:1027A000FFF7DFFF00BDC22700000000033E3C2C06
:1027B00000B547F8046D360CFFF7D3FFFFF7D1FFE4
:1027C00000BD2A280000000007737472696E672C30
:1027D00007B5FF21314040CF300040CF002905D15F
:1027E00047F8046D0026FFF7BCFF07BD47F8046DEE
:1027F000067836020E43FFF7B4FF01300139022993
:102800000AD347F8046D4678360202781643FFF77C
:10281000A8FF02300239F2E7002900D107BD47F8CE
:10282000046D0678FFF79DFF07BD842800000000B7
:1028300005616C6C6F7441480168404A91420FD247
:10284000320040CF89183E4A914219D3FFF740FA2F
:102850000B466C6173682066756C6C0A01F006B9F2
:10286000320040CF8918374A1268914208D3FFF7E7
:102870002FFA0952616D2066756C6C0A01F0F6B88A
:1028800001607047AC28000000000D636F6D706937
:102890006C65746F72616D3F47F8046D00262748C0
:1028A00000682649884248D3F6437047CC28000088
:1028B00000000C636F6D70696C65746F72616D0000
:1028C0001E4800681D49884211D3704754290000F2
:1028D00000000E636F6D70696C65746F666C617378
:1028E0006800164800681549884200D270471648AB
:1028F000164902680B680A600360104814490268B0
:102900000B680A6003600F480068834215D300B566
:10291000FFF7DEF923205661726961626C657320EE
:10292000636F6C6C6964652077697468206469639F
:1029300074696F6E6172790A00BD70470080FF1F75
:10294000000004002080FF1F0480FF1F1880FF1F6D
:102950001480FF1F362A000000000828637265619A
:102960007465290000B500F00DFD002E0ED1FFF7B3
:10297000AFF91520437265617465206E65656473F7
:10298000206E616D6520210A01F070B8386847F843
:10299000046D043F386000F098F940CF002E40CF1E
:1029A00011D0386847F8046D043F3860FFF790F99C
:1029B000095265646566696E6520FFF7E5F9FFF702
:1029C00087F9022E0A00FFF7BBFE00F012FA8C48CE
:1029D00000688B4988421CD28A480021016047F870
:1029E000046D0626FFF727FFFEF73EF9FFF7F0FE1E
:1029F000854801680A68854B9A4207D1804A136866
:102A0000116047F8046DFFF7C5FE1360066040CF04
:102A100000BD7D4847F8046D0668FFF7BBFE47F828
:102A2000046D7B4EFFF79DFE7748310040CF01607B
:102A3000FFF7CEFE00BD4E2A00000000087661724E
:102A40006961626C650047F8046D012613E0662A2F
:102A50000000000009327661726961626C6547F8B6
:102A6000046D022607E0402B00000000096E76612D
:102A7000726961626C6500B5FFF774FF60480168B8
:102A80005F4A914234D20F200640B200614801688B
:102A9000891A614A91420BD2FFF71AF90F4E6F74EF
:102AA00020656E6F7567682052414D0A00F0DEBFE9
:102AB000016047F8046D0E00FFF798FB47F8046DBE
:102AC00044F27076FFF74DFE300040CF0200002840
:102AD00005D00E600431FFF75DFE0138F9D147F8EB
:102AE000046D80261643FFF7EBFDFFF7B8FD00BD30
:102AF00000F07FF90220064040CF04D147F8046D72
:102B00003626FFF72EFE47F8046D444EFFF750FEC1
:102B100047F8046D424EFFF74BFE47F8046D44F250
:102B20007076FFF71EFE300040CF002803D0FFF77D
:102B300031FE0138FBD1FFF7E8FCFFF790FD00BD47
:102B4000242C00000000076275666665723A00B5C5
:102B5000FFF708FF012030403618022030403618B9
:102B600027480168264A914228D22A480168891BD1
:102B7000294A91420BD2FFF7ABF80F4E6F742065D4
:102B80006E6F7567682052414D0A00F06FBF01609B
:102B900047F8046D0E00FFF729FB47F8046D44F277
:102BA0007076FFF7DEFDFFF7F5FD47F8046D40F2A4
:102BB0004016FFF785FDFFF752FD00BD00F019F943
:102BC0000220064040CF04D147F8046D3626FFF7B7
:102BD000C8FD47F8046D114EFFF7EAFD47F8046D94
:102BE0000F4EFFF7E5FD47F8046D44F27076FFF7EE
:102BF000B8FDFFF720FEFFF788FCFFF730FD00BDB2
:102C00000080FF1F1C80FF1F0480FF1FFFFFFFFFCE
:102C1000FFFF00002080FF1FEC83FF1F3E60043F8A
:102C200002367E46522C000000000F64696374690E
:102C30006F6E6172797374617274414800684049C3
:102C400047F8046D884201D23E4E70473E4E3668CA
:102C500070478C2C000000000E64696374696F6E0D
:102C60006172796E6578740003B5316837488142C6
:102C700007D08879FF2804D00E0047F8046D00269D
:102C800003BD47F8046D0026F64303BDBE2C0000CB
:102C900000000A736B6970737472696E6700317833
:102CA000013101220A4089187618704706B401786C
:102CB000013101220A408918401806BC7047542D82
:102CC000000000000466696E64003FB50022002326
:102CD000350040CF340040CFFFF7AFFF1C48B1882C
:102CE000884217D047F8046D0636FFF72DF847F8ED
:102CF000046D260047F8046D2E00FEF75CFF002EE1
:102D000040CF07D0B01DFFF7D1FF02000B000C48E9
:102D1000824204D2FFF7A8FF300040CFDED0160079
:102D200047F8046D1E003FBD00B531003868FFF75D
:102D3000CCFF3A68002A01D100F06AFD00BD000016
:102D40000080FF1F100400000480FF1FFFFFFFFF33
:102D5000FFFF0000AE2D0000000006636A756D7075
:102D60002C00320040CF310040CF8B1B043BA349E5
:102D7000194000290DD0A24881420AD0FEF7A8FFD1
:102D80000D4A756D7020746F6F206661720A00F0D5
:102D90006DBE5B10FF210B40134330001E0000B5D9
:102DA000984A13681060FFF7DCFC136000BDE62D45
:102DB00000000000056A756D702C310040CF3000B6
:102DC00040CF0B1A043B90491940002902D08F4A8A
:102DD0009142D3D15B108E4A134053F4604347F8BD
:102DE000046D1E00DBE7FC2D000000000468657226
:102DF000650047F8046D834E36687047F82E000072
:102E000000000D666C6173687661722D686572658D
:102E100047F8046D7F4E3668704700B547F8046D7B
:102E200042F60066FFF79DFC47F8046D4CF64076CD
:102E3000FFF797FC00BDDCE700B500F03AF8396811
:102E40003E600E4647F8046D4DF20016FFF789FF0D
:102E500000BD00B500F02DF839683E600E4647F819
:102E6000046D4DF20076FFF77CFF00BD00B5FFF763
:102E7000D4FF00F01EF839683E600E4647F8046D36
:102E80004DF20006FFF76DFF00BD00B500F011F830
:102E900039683E600E46FFF790FF00BD00B5FFF7B2
:102EA000BCFFFFF7A6FF47F8046D0226FFF7C3FC3F
:102EB00000BD00B5FFF79DFF47F8046D0226FFF740
:102EC000BAFC00BD00B5FFF794FFFFF776FF00BD29
:102ED00000B5FFF78EFF47F8046D4DF20006FFF7CF
:102EE00040FF00BD00B5FFF784FF47F8046D4DF2C9
:102EF0000016FFF736FF00BD342F000030000474C9
:102F000068656E00052E01D140CFDBE7022E01D1AE
:102F100040CFDDE7FEF7DCFE1753747275637475FE
:102F200072657320646F6E2774206D617463680A24
:102F300000F09CBD5E2F0000300004656C736500DE
:102F400000B5022EE6D140CFFFF7B3FF39683E60EF
:102F50000E46FFF7BDFF47F8046D052600BD762F2E
:102F6000000030000269660000B5FFF797FF47F8E0
:102F7000046D022600BD9C2F0000300006726570B3
:102F800065617400042EC5D140CF39683E600E469D
:102F900000B5FFF77AFFFFF79BFF00BDB82F0000D9
:102FA0003000057768696C65012EB3D140CF00B55C
:102FB000FFF7DAFF023600BDCC2F000030000575A8
:102FC0006E74696C012EA5D140CF4FE7E02F000051
:102FD000300005616761696E012E9BD140CF54E7D7
:102FE00018300000300005626567696E00B5FFF7B4
:102FF00022FF47F8046D012600BD000001FFFFFF1E
:1030000000FFFFFF0080FF1F01F8FFFF00F8FFFF38
:10301000FF0700002080FF1F283000002000016B08
:1030200047F8046D029E7047383000002000016AA6
:1030300047F8046D009E7047483000002000016989
:1030400047F8046D26007047883000003000056C9A
:103050006561766500B5684801683B00043F1A6801
:10306000043B1A60043304338B42F8D103B4FFF7F6
:1030700020FF03BC330040CF04390B6001600439EA
:103080000A6801320A6000BD9A300000200006750F
:103090006E6C6F6F700030BC7047D2300000300033
:1030A000052B6C6F6F70032E00D033E740CF00B557
:1030B00047F8046D514EFFF73EF9FFF7CAFE1AE0DC
:1030C00014F10044641BA41940CF2C44A4F1004423
:1030D0007047143100003000046C6F6F7000032ED5
:1030E00000D017E740CF00B547F8046D444EFFF716
:1030F00022F9FFF7A1FE00F023F93F48310040CF4D
:10310000016047F8046D3F4EFFF715F900BD01342B
:10311000AC4270475C310000780002646F0000B57B
:1031200047F8046D384EFFF706F93348016847F851
:10313000046D0E0047F8046D00260760FFF77BFE64
:1031400047F8046D032600BD00B500F02FF8ECE74A
:1031500030B4340040CF350040CF70470C3200000F
:103160007800033F646F00B547F8046D264EFFF703
:10317000E2F847F8046D44F2AC26FFF7F2FA1E4875
:10318000016847F8046D0E00FFF793FE013647F81B
:10319000046D012618480760FFF74DFE47F8046DDF
:1031A000032600BD00B500F001F8E2E700B547F8DE
:1031B000046D4BF23046FFF7D4FA47F8046D04264D
:1031C000FEF782FF013B08D047F8046D0526FEF7A5
:1031D0007BFF013B00F023FC00BD47F8046D352662
:1031E000FFF7BFFA47F8046D4CF64076FFF7B9FADF
:1031F00000F015FC00BD00000C80FF1FC030000077
:103200000E310000963000005031000026320000E0
:10321000300004636173650047F8046D002647F8C9
:10322000046D082670473C3200003000033F6F6693
:103230004D4809E0013EB64140CF7047E032000002
:103240007800026F66004948082E00D062E640CF41
:1032500000B547F8046D0600FFF76DF8FFF729FE8B
:1032600039683E600E46013647F8046D092647F876
:10327000046D4CF64076FFF774FA00BD00B53000DF
:1032800040CF013B01B400F0CAFB01BC082E00D0C6
:1032900040E640CF47F8046D0600FF213140B142BF
:1032A00004D133490E43FFF75CFAD7E7FEF758FE27
:1032B000002E40CF04D02F480643FFF779FACDE720
:1032C00047F8046D0026FEF7FFFE47F8046D44F250
:1032D000B026FFF746FAC1E7300040CFB042704752
:1032E00016330000300005656E646F66092E00D04D
:1032F00010E640CF00B540B440CFFFF7DAFD3968A3
:103300003E600E46FFF7EEFD47F8046D40BC47F8FF
:10331000046D082600BD78330000300007656E6438
:1033200063617365082E00D0F4E540CF00B547F81F
:10333000046D4CF64076FFF714FA00F001F800BD7A
:1033400000B5300040CF00280DD003B4012131403A
:10335000002903D0013EFFF7BBFD01E0FFF7B2FDFE
:1033600003BC0138EFE700BD34320000D832000062
:10337000002E0000000FB6F18C3300000000057431
:103380006F6B656E47F8046D202605E0E83300009A
:10339000000005706172736510B5FEF7E0FB310047
:1033A00040CF300040CF0F4A12688418202E07D13A
:1033B00091420FD0835CB34202D101328418F7E707
:1033C000914207D0835C0132B342F9D18618361B93
:1033D000013E01E08618361B043F3C600148026054
:1033E00010BD0000E47F00202634000000000564CA
:1033F00069676974CE4B1B68303E0BD30A2E0BD322
:10340000073E0A2E06D3242E06D3203E0A2E01D3D1
:10341000242E01D3002670479E42FBD247F8046D4C
:103420000026F6437047303500000000066E756DCB
:10343000626572003FB5310040CF701E0126012247
:1034400004B4BB4B1B680024002500293CD001308C
:10345000013902782D2A04D101B00022D24304B4EC
:10346000F3E7232A01D10A23EFE7242A01D110230D
:10347000EBE7252A01D10223E7E72E2A01D1022614
:10348000E3E72C2A36D047F8046D1600FFF7B4FFA7
:10349000002E40CF2BD047F8046D260047F8046D6E
:1034A0002E0047F8046D1E0047F8046D00260FB487
:1034B000FDF7E7F80FBC350040CF340040CF0022C5
:1034C000A419554140CFC0E704BC002A04D500220E
:1034D000E443ED430134554133002600012B02D073
:1034E00047F8046D2E0047F8046D1E003FBD01B083
:1034F00000263FBD2500002402260029E4D0425CBE
:1035000001392E2AF9D047F8046D1600FFF774FF31
:10351000002E40CFEBD0043F3C6047F8046D1E0006
:103520000FB4FDF75DF90FBC340040CF40CFE4E7A6
:10353000503500000000062E6469676974000A2E89
:103540003CBF303603E0242E34BF37362326704785
:1035500086350000000004686F6C6400330040CFC3
:10356000744801783F290DD20131017040180129BA
:1035700007D0013802780130027001380139012981
:10358000F7D103707047A6350000000005686F6C26
:10359000643C330040CF674801783F2902D20131B3
:1035A000017043547047BE35000000000473696722
:1035B0006E00002E01D440CF70472D26CEE7D235C5
:1035C0000000000002233E005A48067801303860AF
:1035D0007047EA35000000000366235310B520242D
:1035E00000F008F8013CFBD110BD0C3600000000D3
:1035F0000266230000B547F8046D4D4E3668FDF7AE
:103600002CF8FFF79CFFFFF7C4FF00BD2836000031
:1036100000000223530000B500F00AF8002EFBD191
:1036200038680028F8D100BD54360000000001239E
:1036300000B547F8046D3E4E366847F8046D002625
:10364000FDF72EF9FCF712FF40CFFFF778FFFFF7E9
:1036500085FF00BD663600000000023C23003548AF
:1036600000210170704778360000000002662E00CD
:1036700047F8046D202604E0C6360000000003660B
:103680002E6E00B510B4340040CFFDF7D7FAFCF72A
:10369000A0FF47F8046D0026FFF7E1FFFFF7BBFF2F
:1036A00040CF2C26FFF775FF002C03D0FFF7A2FFB9
:1036B000013CFBD110BC40CFFFF77BFF47F8046D06
:1036C00047F8046D1CE0DC36000000000375642E32
:1036D00000B5FFF7C4FFFFF79EFF11E00E370000B3
:1036E000000002642E0000B5FDF7A8FAFCF771FF98
:1036F000FFF7B5FFFFF78FFFFDF7AAFAFFF759FFB6
:10370000FFF762FFFEF740FBFEF78EFA00BD2037A1
:103710000000000002752E0047F8046D0026D7E770
:10372000383700000000012E47F8046DF617DAE77D
:10373000FC7F00202480FF1F803700000000086508
:1037400076616C756174650000B5FEF708FA01CF0B
:1037500001B440B440CFD548016802B400210160F3
:10376000FEF7F0F900F014F8D04802BC016047F809
:10377000046D40BC01BC043F3860FEF7E3F900BDB6
:10378000443A0000000009696E74657270726574D5
:1037900030B5C74887420BD9FEF79AFA10537461C7
:1037A000636B20756E646572666C6F770A005DE10D
:1037B000C04887420AD2FEF78BFA0F537461636BDD
:1037C000206F766572666C6F770A4FE1BA4C256898
:1037D000002D01D13D002560FFF7D4FD002E02D160
:1037E000043740CF30BD386847F8046D043F386077
:1037F000FFF76BFA310040CF320040CF002A13D1DF
:1038000038683100FFF716FE320040CF002AC0D1E1
:10381000FEF7BEFAFEF75CFA0C206E6F7420666F3E
:10382000756E642E0A0021E1A44B1B68002B1DD18C
:103830000025256030230B40302B0ED1FEF7A4FA73
:10384000FEF746FA1220697320636F6D70696C652C
:103850002D6F6E6C792E0A0008E1043740CF47F8CF
:10386000046D1600FEF720FEFFF793FF043740CFEC
:10387000802008400ED1EB1B9B08402008400FD051
:103880000820084002D0002B00D01DE00F20084087
:10389000834205D347F8046D1600FEF705FE78E76E
:1038A00000F0BDF847F8046D160010220A4002D05F
:1038B000FEF7FAFD6DE720220A4002D0FEF73BFD3D
:1038C00067E7FEF75EFC64E7072001401000FEF7A3
:1038D00049FD01291FD1012BDCD1FF213140B1422B
:1038E00004D140880643FEF73CFF52E7FEF738FB61
:1038F000002E40CF04D040680643FEF759FF48E74A
:1039000047F8046D0026FEF7DFFB47F8046D0688D4
:10391000FEF727FF3DE7022902D1012BBAD1EFE7DD
:10392000032926D1012BB5D1FF213140B1420AD163
:1039300063490E43FEF715FF043247F8046D160085
:10394000FEF7F9FC25E7FEF70BFB002E40CF04D075
:103950005C490E43FEF72CFFEEE747F8046D0026A6
:10396000FEF7B2FB023247F8046D1600FEF7E3FCE7
:103970000FE7042918D1012B8CD1330040CF002B45
:1039800000D106E71F221A409A4205D047F8046D7D
:103990004688FEF7E6FEFCE647F8046D06889B01C4
:1039A0001E43FEF7DEFEF4E6052924D1012B10D1DB
:1039B00047F8046D0026FEF787FB47F8046D060004
:1039C000FEF7B9FC47F8046D4CF64076FEF7C9FEE9
:1039D000DFE647F8046D0026FEF776FB47F8046D36
:1039E0000126FEF771FBFEF7BDFC47F8046D0600EB
:1039F000FEF7A1FCCDE606290ED1012B7FF44AAFDC
:103A0000FEF7AEFA002E40CF3FF47AAFD0F80200B6
:103A10000643FEF7CDFEBCE601308047B9E600B5AF
:103A2000002B0CD0013B47F8046D1E0057F82660B0
:103A3000FEF7DCFB002BF5D1043D2F0040CF002525
:103A4000256000BD603A0000810009686F6F6B2D32
:103A50007175697447F8046D1B4E7047983A000001
:103A6000DC3A00000000047175697400DFF85CD076
:103A70000F4FFDF72BFD16480A2101600F4800216A
:103A800001600D4801600948016012480160124957
:103A900041600D4800688746FEF76FF8FFF778FE33
:103AA000FEF716F905206F6B2E0AF5E7E47F00207C
:103AB0002C82FF1F2C81FF1F0880FF1FD87F002052
:103AC000003E00000006B6F1D47F00202C83FF1FCB
:103AD000FC7F0020DC7F00206480FF1FEC3A0000A8
:103AE00020000465696E740062B67047FC3A0000FD
:103AF00020000464696E740072B67047123B0000C7
:103B0000200004697073720047F8046DEFF30586B6
:103B100070471E3B00000000036E6F707047603BF3
:103B20000000000009756E68616E646C656400B524
:103B3000FEF7CEF814556E68616E646C65642049BA
:103B40006E74657272757074200047F8046DEFF33F
:103B50000586FEF730F9FEF7BBF802210A0000BD2A
:103B60008A3B000081000B6972712D73797374694F
:103B7000636B47F8046DF94E70472E3B000047F623
:103B8000D070C2F2000000688746B23B000081009E
:103B9000096972712D6661756C7447F8046DF04E99
:103BA00070472E3B000047F6CC70C2F20000006860
:103BB0008746E03B000081000E6972712D636F6CD7
:103BC0006C656374696F6E0047F8046DE54E70476D
:103BD0002E3B000047F6C870C2F20000006887461E
:103BE000083C00008100086972712D616463300037
:103BF00047F8046DDC4E70472E3B000047F6C4705A
:103C0000C2F2000000688746303C0000810008696D
:103C100072712D616463310047F8046DD34E7047B3
:103C20002E3B000047F6C070C2F2000000688746D5
:103C3000583C00008100086972712D636D7030007E
:103C400047F8046DCA4E70472E3B000047F6BC7023
:103C5000C2F2000000688746803C000081000869CD
:103C600072712D636D70310047F8046DC14E70475D
:103C70002E3B000047F6B870C2F20000006887468D
:103C8000A83C00008100086972712D636D703200DC
:103C900047F8046DB84E70472E3B000047F6B470ED
:103CA000C2F2000000688746CE3C00008100076930
:103CB00072712D64616347F8046DB04E70472E3BFE
:103CC000000047F6B070C2F2000000688746F63C7C
:103CD00000008100096972712D706F72746147F87C
:103CE000046DA74E70472E3B000047F6AC70C2F241
:103CF0000000006887461E3D00008100096972715E
:103D00002D706F72746247F8046D9E4E70472E3BA3
:103D1000000047F6A870C2F2000000688746463DE2
:103D200000008100096972712D706F72746347F829
:103D3000046D954E70472E3B000047F6A470C2F20A
:103D40000000006887466E3D0000810009697271BD
:103D50002D706F72746447F8046D8C4E70472E3B63
:103D6000000047F6A070C2F2000000688746963D4A
:103D700000008100096972712D706F72746547F8D7
:103D8000046D834E70472E3B000047F69C70C2F2D4
:103D9000000000688746C03D000081000A6972711A
:103DA0002D5541525430530047F8046D794E7047F9
:103DB0002E3B000047F69870C2F20000006887466C
:103DC000EA3D000081000A6972712D55415254305C
:103DD000450047F8046D704E70472E3B000047F6D3
:103DE0009470C2F200000068874600400000FFFFA8
:103DF000182D2D2D20466C61736820446963746909
:103E00006F6E617279202D2D2D00002163484CF2D8
:103E10002052C2814DF62812C281028822F001028E
:103E20000280FDF7D3FC5E4885465E4F2A265E4839
:103E30005E4901605E485F49016047F8046D5D4E70
:103E40005D4DB1885D4B994224D05D4B0B400AD04B
:103E5000B01DFEF72BFFFEF785FA038840880004AB
:103E60000343ED1A16E080230B4013D00F231940B3
:103E700089006D1AB01DFEF719FFFEF773FA47F8B7
:103E8000046D060047F8046D2E0047F8046D0E001F
:103E9000FDF764F8FEF7E8FE300040CFD1D0494886
:103EA000066040CF4848056048484949434A88422F
:103EB00004D0023803889342F9D0023045490860A3
:103EC000FDF704FBFDF704FF294D6563726973700C
:103ED0002D5374656C6C6172697320322E302E32F2
:103EE000206279204D61747468696173204B6F633F
:103EF000680AFDF7EDFE38436F6E6669677572619B
:103F000074696F6E20666F72205465656E737920D8
:103F1000332E3120706C6174666F726D206279206F
:103F20004D61726B205363687765697A65720A0028
:103F300029480021016047F8046D284E47F8046DB8
:103F40000426FEF7C2FE40CF002E02D0FEF7ACFAE8
:103F50009FE540CF8AE5696E69740000D07F00203C
:103F6000CC7F0020C87F0020C47F0020C07F0020BD
:103F7000BC7F0020B87F0020B47F0020B07F0020ED
:103F8000AC7F0020A87F0020A47F0020A07F00201D
:103F90009C7F0020987F0020947F00200020054017
:103FA0002C83FF1F2C82FF1F0080FF1FEC83FF1F4D
:103FB0000480FF1F1004000000800020FFFF0000AD
:103FC000000100001880FF1F2080FF1F0000040078
:103FD000004000001480FF1F0880FF1F563F0000B4
:00000001FF
