:020000040800F2
:100000002C030020213A00003B3800003B38000060
:100010003B3800003B3800003B3800000000000087
:10002000000000000000000000000000693800002F
:100030006938000000000000693800001338000033
:10004000693800006938000069380000693800002C
:10005000693800006938000091380000B9380000A4
:10006000E13800000939000031390000693800002A
:1000700069380000693800006938000069380000FC
:1000800069380000693800005739000069380000FD
:10009000693800007D3900006938000069380000C7
:1000A00069380000693800006938000069380000CC
:1000B00069380000A5390000CD390000F53900008D
:1000C00069380000693800006938000069380000AC
:1000D000693800006938000069380000693800009C
:1000E000693800006938000069380000693800008C
:1000F000693800006938000069380000693800007C
:10010000693800006938000069380000693800006B
:10011000693800006938000069380000693800005B
:1001200069380000693800004E01000000001E2DF3
:100130002D2D204D6563726973702D5374656C6C41
:100140006172697320436F7265202D2D2D00660149
:1001500000004280043264757000386847F8046D0E
:10016000043F386070477801000062800532647295
:100170006F70043740CF704796010000448005320D
:100180007377617007CF043F386047F8046D043F10
:100190003A600E007047AA010000628004326E6966
:1001A000700007CF043F38607047C40100004480EE
:1001B00005326F766572B86847F8046D043F3860A1
:1001C000FE687047E8010000448005327475636B77
:1001D00007CF043F386047F8046D043F3A60043F9E
:1001E0003960043F386070470A02000046800432DC
:1001F000726F74003868B9683A69B86039613A60FA
:1002000079687E60FE68F96070472C0200004680C5
:1002100005322D726F743868B9683A69386139608F
:10022000BA60F968FE607E6879607047400200003D
:10023000208003323E7201CF01B440B440CF7047FA
:100240005802000020800332723E47F8046D40BC23
:1002500001BC043F38607047700200002080033208
:10026000724047F8046D019E47F8046D009E704788
:1002700082020000208006327264726F700002B049
:1002800070479A02000042800364322F3868F107F9
:1002900076104008084338607047AE020000628064
:1002A0000364322A38680018764138607047C80203
:1002B000000042800464736872003868F1077608B1
:1002C0004008084338607047DE0200006280046422
:1002D00073686C0038680018764138607047F00227
:1002E00000004280046461627300002E14D47047E1
:1002F0000A0300004380083F646E6567617465000F
:10030000300040CF002807D4704728030000428007
:1003100007646E656761746538680021C043F64301
:1003200001304E4138607047400300006480026431
:100330002D0007CF121AB1410E00043F3A607047FA
:1003400056030000648002642B0007CF12184E4150
:10035000043F3A60704768030000618003733E64A5
:1003600047F8046DF61770477C0300006280037540
:100370006D2A3868A0FB06063860704790030000BD
:100380006280026D2A00386880FB0606386070477C
:10039000CE03000044800375642A07CF56434143CF
:1003A0007618010C130C59437618010C80B292B2E6
:1003B0005143434350430022C91852411204B61816
:1003C0000A04090C80184E41043F386070476004ED
:1003D000000044800475646D2A0010B5002447F8BD
:1003E000046D7E6847F8046D3E69FFF7C2FF310077
:1003F00040CF300040CF47F8046D3E6847F8046DA9
:10040000FE6803B4FFF7B5FF03BC330040CF3200F2
:1004100040CF47F8046D3E6847F8046D3E690FB45D
:10042000FFF7A7FF0FBC9219634140CF89196241C2
:10043000634140CF47F8046D7E6847F8046DFE685D
:100440000FB4FFF796FF0FBC9219634140CF891993
:100450006241634140CF1E003A607960B86010BDD0
:10046000820400004380022A2F0000B540B440CF30
:10047000FFF789FF47F8046D40BC00F062F80437CD
:1004800000BDA40400004380052A2F6D6F6400B5F1
:1004900040B440CFFFF777FF47F8046D40BC00F051
:1004A00050F800BDC6040000438003752A2F00B534
:1004B00040B440CFFFF75DFF47F8046D40BC00F04B
:1004C0001BF8043700BDEA040000438006752A2F9C
:1004D0006D6F640000B540B440CFFFF74AFF47F8A6
:1004E000046D40BC00F008F800BD360500004380F4
:1004F00006756D2F6D6F640010B47868396800223E
:10050000002420236400001849415241964201D83A
:10051000921B0134013BF5D120236400491852415C
:10052000964201D8921B0134013BF6D104373A6060
:10053000260010BC7047AA0500004380056D2F6D92
:100540006F6400B5F01718D0764200F019FAF01772
:100550000DD0FFF7E1FE00F007FAFFF7CDFF396895
:100560003E600E46764239683E600E4600BD00F0A1
:10057000FBF9FFF7C1FF764200BD00F001FAF0176A
:100580000ED0FFF7C9FE00F0EFF9FFF7B5FF764296
:1005900039683E600E46764239683E600E4600BDC0
:1005A00000F0E2F9FFF7A8FF00BD06060000448056
:1005B0000675642F6D6F640030B43C68B868796864
:1005C0000022002520236D00001849415241944229
:1005D00001D8121B0135013BF5D120B400252020A4
:1005E0006D00491852415B419E4204D8944202D8A2
:1005F000121BB34101350138F2D13D60BA607B6016
:1006000040BC30BC70477C060000448005642F6D00
:100610006F6400B5F01719D0FFF77EFEFFF7B2FD4B
:10062000F0170CD0FFF778FEFFF7ACFDFFF7C4FF23
:10063000FFF7A8FDFFF770FEFFF7A4FD00BDFFF771
:10064000A1FDFFF7B9FFFFF767FE00BDFFF79AFDB9
:10065000F0170ED0FFF760FEFFF794FDFFF7ACFF39
:10066000FFF75AFEFFF78EFDFFF756FEFFF78AFDF4
:1006700000BDFFF787FDFFF79FFF00BD920600005A
:10068000448002642F0000B5FFF7C3FFFFF789FD28
:1006900000BD2A070000448002662A0000B5F0175A
:1006A0000DD0FFF739FEFFF76DFDF0170DD0FFF706
:1006B00033FEFFF792FE40CF01CF386000BDFFF759
:1006C00061FDF017F5D0FFF727FEFFF786FE40CF5C
:1006D00001CF3860FFF720FE00BD30B43C68B96838
:1006E0007A680023002520206D00491852415B41A3
:1006F0009E4204D8944202D8121BB34101350138FE
:10070000F2D1290020206D0092185B419E4204D84E
:10071000944202D8121BB34101350138F3D13D6038
:10072000BA607B600E0030BC7047760700004480E2
:1007300002662F0000B5F0170ED0FFF7EDFDFFF7B2
:1007400021FDF0170ED0FFF7E7FDFFF71BFDFFF7C8
:10075000C4FFFFF726FD00BDFFF714FDF017F4D02E
:10076000FFF7DAFDFFF70EFDFFF7B7FFFFF7D4FD48
:10077000FFF717FD00BD8A0700002080023221002C
:1007800006CF3160726040CF70479E070000208026
:1007900002324000043F7068386036687047BE0718
:1007A000000044800364753C07CF8E4204D801D119
:1007B000904201D8002670470026F6437047DE07B6
:1007C000000044800364753E07CFB14204D801D1D4
:1007D000824201D8002670470026F6437047FE0784
:1007E0000000448002643C0007CF8E4204DC01D14B
:1007F000904201DC002670470026F64370471E0831
:100800000000448002643E0007CFB14204DC01D105
:10081000824201DC002670470026F64370472E080E
:10082000000062800364303C0437F61770474808C4
:10083000000042800364303D01CF002801D0002633
:100840007047013EB641704762080000448003646F
:100850003C3E07CF904201D1761A01D00026F643E4
:1008600070477E080000448002643D0007CF90423C
:1008700001D000267047761A013EB64170479008B5
:10088000000020800373704047F8046D3E007047FD
:10089000A0080000208003737021370040CF70470C
:1008A000B208000020800372704047F8046D6E4665
:1008B0007047C2080000208003727021B54640CF07
:1008C0007047DC0800000080056465707468E549C5
:1008D000C91B890847F8046D0E007047EC0800003A
:1008E00061800364757047F8046D7047FC08000070
:1008F00061800464726F700040CF7047120900007D
:100900006180043F64757000002E01D047F8046DCB
:1009100070472609000062800473776170003968AF
:100920003E600E007047340900006280036E6970FB
:1009300004377047480900006280046F76657200D2
:1009400047F8046D7E6870475E0900006280047499
:1009500075636B0001CF083F7E6038607047740993
:100960000000638003726F7403CF083F78603E60BD
:100970000E0070478C0900006380042D726F7400B4
:1009800003CF083F7E603960060070479E09000073
:100990002080047069636B0057F826607047AE09C9
:1009A00000002080023E720040B440CF7047C00972
:1009B0000000208002723E0047F8046D40BC704782
:1009C000D209000020800272400047F8046D009EAA
:1009D0007047E20900002080057264726F7001B0F8
:1009E0007047F8090000608004747275650047F86C
:1009F000046D0026F64370470C0A0000608005660F
:100A0000616C736547F8046D00267047220A000088
:100A10006E8003616E6401CF064070470640000699
:100A200016F03A0A00006E800362696301CFB0439A
:100A3000060070478643000636F0500A00006E80BC
:100A4000026F720001CF064370470643000656F05E
:100A5000660A00006E8003786F7201CF46407047CF
:100A60004640000696F0740A00006180036E6F74C1
:100A7000F6437047840A0000618003636C7AB6FA1B
:100A800086F67047920A00006180037368727608E8
:100A90007047A00A000061800373686C760070479D
:100AA000B00A0000618003726F725FEA76067047D9
:100AB000C20A0000618003726F6CB61956F100061D
:100AC0007047DC0A00006C80067273686966740007
:100AD00001CFF0400600704736080026F60A0000F5
:100AE0006C80076172736869667401CF30410600DB
:100AF00070473610F617100B00006C80066C736898
:100B00006966740001CFB0400600704736000026C9
:100B1000200B0000618002303D00013EB64170476D
:100B2000320B0000618003303C3E013EB641F6438B
:100B30007047400B0000618002303C00F6177047A0
:100B4000580B00004280023E3D0001CFB042B4BFCE
:100B500000264FF0FF367047700B00004280023CC9
:100B60003D0001CFB042CCBF00264FF0FF367047AA
:100B7000860B00004280013C01CFB042B4BF4FF071
:100B8000FF36002670479C0B00004280013E01CFDB
:100B9000B042CCBF4FF0FF3600267047B00B0000CC
:100BA000628003753E3D01CF861BB641F643704718
:100BB000C40B0000628003753C3D01CF361AB6417C
:100BC000F6437047D60B0000628002753C0001CFEF
:100BD000861BB6417047E80B0000628002753E003C
:100BE00001CF361AB6417047FE0B00006B80023C05
:100BF0003E0001CF361A18BF4FF0FF367047100C79
:100C000000006B80013D01CF361A013EB6417047AE
:100C1000240C00006280036D696E01CFB042B8BF42
:100C200006467047380C00006280036D617801CF82
:100C3000B042C8BF064670474E0C00006280047583
:100C40006D61780001CFB04288BF06467047680CDE
:100C50000000628004756D696E0001CFB04238BF3C
:100C6000064670472C020020A60C00000080046D90
:100C70006F76650007B5310040CF320040CF0029C4
:100C80000FD0B2420DD006D3013E013A705C5054F1
:100C90000139FBD105E0307810700136013201399D
:100CA000F9D140CF07BDC80C000000800466696C14
:100CB0006C00300040CF310040CF002902D0013914
:100CC0007054FCD140CF7047D40C0000208001400C
:100CD00036687047EC0C00006D80012103CF306056
:100CE0000E0070470660704701607047120D0000EB
:100CF0006D80022B210003CF3268121832600E0083
:100D000070470268921902607047026852180260C8
:100D10007047200D00002080026840003688704730
:100D20003A0D00006D800268210003CF30800E0074
:100D300070470680704701807047600D00006D802D
:100D400003682B2103CF3288121832800E007047BF
:100D500002889219028070470288521802807047F8
:100D60006E0D000020800263400036787047880DC9
:100D700000006D800263210003CF30700E007047C9
:100D80000670704701707047AE0D00006D80036300
:100D90002B2103CF3278121832700E007047027880
:100DA0009219027070470278521802707047D60D7F
:100DB00000006D8004626973210003CF3268024332
:100DC00032600E007047026832430260704702686A
:100DD0000A4302607047FE0D00006D800462696383
:100DE000210003CF3268824332600E0070470268F0
:100DF000B2430260704702688A4302607047260E61
:100E000000006D8004786F72210003CF3268424089
:100E100032600E00704702687240026070470268DC
:100E20004A4002607047400E0000208004626974EE
:100E3000400001CF3668064018BF4FF0FF367047BC
:100E4000680E00006D8005686269732103CF3288E7
:100E5000024332800E00704702883243028070479E
:100E600002880A4302807047900E00006D8005687A
:100E70006269632103CF3288824332800E0070475B
:100E80000288B2430280704702888A43028070471A
:100E9000B80E00006D800568786F722103CF32882C
:100EA000424032800E0070470288724002807047D4
:100EB00002884A4002807047D20E000020800568F8
:100EC0006269744001CF3688064018BF4FF0FF3684
:100ED0007047FA0E00006D8005636269732103CFCD
:100EE0003278024332700E0070470278324302704B
:100EF000704702780A4302707047220F00006D802D
:100F000005636269632103CF3278824332700E0039
:100F100070470278B2430270704702788A430270C9
:100F200070474A0F00006D800563786F722103CF10
:100F30003278424032700E00704702787240027080
:100F4000704702784A4002707047640F00002080AA
:100F500005636269744001CF3678064018BF4FF0D0
:100F6000FF367047740F000061800563656C6C2B61
:100F700004367047840F000061800563656C6C73F4
:100F8000B60070476A100000008006666C617368E6
:100F90002100300040CF310040CF784B984253D3EE
:100FA000032202401AD1002917D00268002A32D148
:100FB00010F10060724A734B1360734B1360734AF5
:100FC000734B1360734B13600160734A136813F023
:100FD0000103FBD1714A07231360704700F0C2FC84
:100FE00030416464726573732068617320746F208C
:100FF000626520342D616C69676E656420666F726E
:101000002077726974696E6720666C61736820214D
:101010000A0002F075BB00F0A5FC29466C617368FC
:10102000206C6F636174696F6E2063616E6E6F74A4
:10103000206265207772697474656E2074776963C5
:101040006520210A02F05CBB00F08CFC1943616E44
:101050006E6F7420777269746520696E746F206397
:101060006F726520210A02F04BBBE4100000008083
:101070000E666C61736870616765657261736500A7
:101080000FB5300040CF3D4B98421CD310F10060AB
:101090003B4A3C4B13603C4B13603C4A3C4B136057
:1010A0003C4B13603D4A5FF40273136030F0FF0065
:1010B00000220260384A136813F00103FBD1374A5B
:1010C000072313600FBD00F04DFC1443616E6E6F7B
:1010D0007420657261736520636F726520210A0058
:1010E00002F00EBB5E11000000800A65726173653C
:1010F000666C61736800214872B629490388002B29
:101100001CD047F8046D060047F8046D00F02AFC77
:1011100010457261736520626C6F636B206174208F
:10112000200000F092FC00F01DFC0C2066726F6D38
:1011300020466C6173680A00FFF7A2FF0230884204
:10114000DCD100F00FFC1246696E69736865642E8D
:1011500020526573657420210A0002F063BC4412BA
:10116000000000800E6572617365666C617368666D
:10117000726F6D00300040CFBEE7000000400000FD
:101180000C3C0240EFCDAB8905040302103C024049
:10119000BFAE9D8C16151413183C0240043C02404F
:1011A000000008005D486021002202800230013901
:1011B000FBD17047594860210288002A12D000F004
:1011C000D1FB1D556E7061697265642031362D62E8
:1011D000697420466C6173682077726974652E0AA1
:1011E00002F08EBA02300139E6D170474B48202117
:1011F000028843881B041A43B24221D006300139C9
:10120000F6D100F0AFFB344C6F636174696F6E20F0
:101210006E6F7420666F756E6420696E20466C6117
:10122000736820777269746520636F6C6C65637492
:10123000696F6E207461626C652E0A0002F060BAFC
:10124000868870472013000000800768666C617311
:10125000682130B5320040CF0120104013D000F09B
:1012600081FB1E68666C61736821206E656564731E
:10127000206576656E206164647265737365732E94
:101280000A0002F03DBA022353402448202104887A
:1012900045882D042C439C422BD006300139F6D1D1
:1012A0001E482021048845882D042C43002C1AD088
:1012B00006300139F6D100F055FB27546F6F206DD1
:1012C000616E7920756E7061697265642031362DAA
:1012D00062697420466C6173682077726974657303
:1012E0002E0A02F00DBA0280120C4280868040CF96
:1012F00030BD0221114003D0023A8188360401E05A
:10130000818809040E4347F8046D1600002101800E
:1013100041808180FFF73DFE30BD00002C0300209E
:10132000361300006980012B01CF3618704736183C
:101330000036000616F14C1300006980012D01CF24
:10134000861B7047361A003E0006B6F15A1300009D
:10135000618002312D00013E7047681300006180FA
:1013600002312B0001367047761300006180023293
:101370002D00023E704784130000618002322B0072
:1013800002367047961300006180066E65676174CF
:10139000650076427047AA130000618003616273A2
:1013A000002E48BFD6F100067047C81300004280E7
:1013B00005752F6D6F6401CF3100B0FBF6F67143F8
:1013C000401A043F38607047E61300004280042F43
:1013D0006D6F640001CF310090FBF6F67143401A47
:1013E000043F38607047FA1300004280036D6F6459
:1013F00000B5FFF7EFFF40CF00BD0A140000628088
:10140000012F01CF90FBF6F670471A1400006A8096
:10141000012A01CF464370474643281400006180EB
:1014200002322A00760070473614000061800232D2
:101430002F00761070474A140000618004657665BD
:101440006E00012030403618704762140000818021
:1014500004626173650047F8046D114E70470A001D
:1014600000007814000000800662696E61727900E5
:101470000B480221016070478E1400000080076451
:101480006563696D616C06480A2101607047A414A8
:1014900000000080036865780148102101607047F2
:1014A000FC3F0120C0140000818009686F6F6B2D24
:1014B000656D697447F8046D764E7047B615000087
:1014C000DC140000818008686F6F6B2D6B657900FC
:1014D00047F8046D704E7047DC150000FA140000E8
:1014E00081800A686F6F6B2D656D69743F0047F8E6
:1014F000046D6A4E704706160000161500008180C4
:1015000009686F6F6B2D6B65793F47F8046D644E0A
:101510007047321600003415000081800A686F6F32
:101520006B2D70617573650047F8046D5D4E7047F3
:10153000B03700004A150000008004656D69740032
:101540000FB5544800F02CF80FBD5E150000008068
:10155000036B65790FB5504800F022F80FBD741584
:101560000000008005656D69743F00B54B4800F0D0
:1015700017F800BD8A1500000080046B65793F00F4
:1015800000B5474800F00CF800BDA415000000802D
:1015900005706175736500B5424800F001F800BD43
:1015A00000688746CA15000000800B736572696188
:1015B0006C2D656D697400B500F025F8002E40CFE4
:1015C000FAD0394A167040CF00BDF21500000080F5
:1015D0000A73657269616C2D6B65790000B500F066
:1015E00028F8002E40CFFAD047F8046D2E4A16781E
:1015F00000BD2016000000800C73657269616C2DBF
:10160000656D69743F0000B5FFF7C5FF47F8046DCD
:101610000026264801688020014000D0F64300BD26
:10162000E416000000800B73657269616C2D6B65B8
:10163000793F00B5FFF7AFFF47F8046D00261B4860
:1016400001682020014000D0F64300BD18495FF436
:1016500000600860174901200860086810F0020067
:10166000FBD0154901200860144915480860154948
:10167000154808601549086850F0A0000860144932
:101680001448086014498B20086014491448086005
:1016900070470000F83F0120F43F0120F03F012097
:1016A000EC3F0120E83F012004440040004400409A
:1016B0000070004000380240083802401C380240E8
:1016C000FF800000243802400000020000000240B9
:1016D0002000024000770000084400400C44004015
:1016E0000C20000008170000008007636578706513
:1016F000637400B5386801B40130386000F00BF84D
:1017000001BC067040CF00BD7A1700000080066162
:1017100063636570740000B502CF01390022FFF7E2
:1017200019FF300040CF202819D2092816D00A28E6
:101730001FD00D281DD00828F1D1002AEFD000F0CD
:1017400011F903082008002AE9D0885C013A8023B7
:101750000340E4D040230340F5D0E0E72020B2422C
:10176000DDD247F8046D0600FFF7EAFE0132885427
:10177000D5E7160000F0A2F800BD8C1700004080ED
:101780000374696247F8046D294E7047A217000080
:101790008180033E696E47F8046D264E7047000055
:1017A0000000C817000082800E63757272656E7447
:1017B0002D736F757263650047F8046D1E4E704798
:1017C0000000000064000020E4170000008009739E
:1017D0006574736F75726365174802CF0660416068
:1017E00040CF704702180000008006736F75726367
:1017F000650047F8046D104E043F70683860366825
:1018000070473C18000000800571756572790FB54E
:10181000084800210160FFF7B5FF47F8046D47F85D
:10182000046DC826FFF777FFFFF7D6FF0FBD000056
:1018300064000020E43F0120DC3F01208A18000002
:10184000008007636F6D706172650FB5310040CF26
:1018500001CF884202D040CF00260FBD02CF002822
:1018600010D001380A5C335C412A02D35B2A38BFAE
:101870002032412B02D35B2B38BF20339A42EED06B
:1018800000260FBD0026F6430FBD9E180000008005
:101890000263720000B500F065F8010A00BDB018DF
:1018A0000000008002626C0047F8046D202670473B
:1018B000C4180000008005737061636547F8046D0B
:1018C00020263DE6EA18000000800673706163651B
:1018D000730000B5002E06DD47F8046D2026FFF7E3
:1018E0002FFE013EF8D140CF00BDFA180000508015
:1018F000065B636861725D0005E0121900000080FC
:1019000004636861720000B501F086FB40CF367851
:1019100000BD221900005080012847F8046D2926D7
:1019200006E03C1900005080015C47F8046D002679
:1019300000B501F07BFB043740CF00BD80190000EB
:101940001080022E22009D4800B547F8046D060065
:1019500000F061FA47F8046D222601F067FB00F001
:1019600082FD00BD0AB447F8046D7646013E337827
:101970000121013319405B181EEB030E0ABC39E04C
:10198000A61900001080026322008D48DCE747F8AA
:10199000046D7646013E33780121013319405B180E
:1019A0001EEB030E7047D019000010800273220056
:1019B0008448C9E747F8046D764647F8046D013E50
:1019C00036780121731C19405B181EEB030E70471B
:1019D000E8190000008005636F756E74013647F8E2
:1019E000046D013E36787047101A000000800563D0
:1019F0007479706501B53078002807D0013647F852
:101A0000046D3678FFF79CFD0138F7D140CF01BD5A
:101A10003E1A00000080047479706500310040CFE8
:101A2000300040CF00B5002908D0002247F8046DEF
:101A3000865CFFF785FD01329142F7D100BD761A31
:101A400000000080046865782E0003B5310040CFA7
:101A50002020043847F8046D31FA00F616F00F061E
:101A6000092E8CBF37363036FFF76AFD0028F0D1DB
:101A7000FFF724FF03BD861A0000008003682E7361
:101A80001FB5514C0EE0961A0000008003752E73AE
:101A90001FB54E4C06E0141B00000080022E7300A0
:101AA0001FB54B4C4B49C91B89084B4A106803B4FE
:101AB0000A201060FFF756FF08537461636B3A20E9
:101AC0005B0047F8046D0E0001F078FCFFF74AFF59
:101AD000025D200003BC404A106000290AD03F4A42
:101AE000106806B447F8046D0600A04706BC043A27
:101AF0000139F5D1FFF736FF0620544F533A200045
:101B000047F8046D3600A047FFF72CFF04202A3E5B
:101B10000A001FBDE01B0000008005776F72647330
:101B200000B5FFF71FFF06776F7264730A0000F0BD
:101B3000D0FEFFF717FF09416464726573733A20A2
:101B400047F8046DFFF781FFFFF70CFF064C696E45
:101B50006B3A200047F8046D3668FFF776FFFFF711
:101B600001FF07466C6167733A2047F8046DB68839
:101B7000FFF76BFFFFF7F6FE06436F64653A200040
:101B8000B01D00F0DFFE47F8046D0600FFF75DFFB3
:101B9000FFF7E8FE064E616D653A200047F8046DD8
:101BA0000636FFF727FFFFF7DDFE010A00F0A8FE6B
:101BB000300040CFBDD040CF00BD00006419000010
:101BC0008E190000B41900004B1A0000AD3300005C
:101BD000BD3300002C020020FC3F01202802002021
:101BE000441D000000800D3132626974656E636FC0
:101BF00064696E670FB5FF2E04D847F8046D5FF077
:101C0000FF360FBD16F0FF10B0420ED14FF6FF7138
:101C10000840310C814208D116F0FF0656F4805678
:101C200047F8046D5FF0FF360FBD16F0FF20B0429D
:101C30000FD14FF6FF710840310C814209D1360AAD
:101C400016F0FF0656F4005647F8046D5FF0FF36B5
:101C50000FBDFF2231001140300A1040884210D1E0
:101C6000300C104088420CD1300E1040884208D110
:101C700016F0FF0656F4405647F8046D5FF0FF3645
:101C80000FBD300000210131001850F100007FF03D
:101C90007F020240802A05D01F29F4D347F8046D43
:101CA00000260FBD0829F9D3060036F0800611F092
:101CB0000100C001064311F00E00C002064311F0FE
:101CC00010008005064347F8046D5FF0FF360FBD36
:101CD00047F8046DDFF8D8655FF4704110EA01023F
:101CE000120116435FF4006110EA0102D2031643A9
:101CF0005FF4E06110EA010212011643FF2110EACD
:101D0000010216431E439EE347F8046DDFF8A46505
:101D10005FF0704110EA0102120B16435FF00061A0
:101D200010EA0102520816435FF0E06110EA010276
:101D3000120B16435FF47F0110EA0102120C1643E6
:101D40001E4380E3AA1D000000801072656769735E
:101D50007465726C69746572616C2C000FB5330028
:101D600040CF1B02FF2E05D856F400561E4300F04C
:101D700043FB0FBDFFF73EFF002E40CF06D0DFF83C
:101D8000380506431E4300F05EFB0FBDF643FFF728
:101D900031FF002E40CF06D0DFF8200506431E435A
:101DA00000F051FB0FBDF6430BE00A1E000000805F
:101DB000096D6F76776D6F76742C0FB5330040CF59
:101DC0001B02300040CFFFF783FF4FF6FF7110EA90
:101DD000014001D0FFF798FF0FBD0FB5013630006D
:101DE00040CF0023FFF774FFFFF78EFF06E00FB52B
:101DF000013647F8046D0026FFF7B0FF47F8046D81
:101E000044F2807600F0F8FA0FBD701E00000080EA
:101E10000563616C6C2C0FB5330000F034FE3000AC
:101E200040CF1B1A043BDFF898141940002906D054
:101E3000DFF89024914202D0BDE80F40D7E740CFB1
:101E40005B08DFF8840440F2FF7119400843DB0AA5
:101E500040F2FF311940090408439B0A13F00101C5
:101E60008906084347F8046D060000F0ECFA0FBD40
:101E7000A61E00000080086C69746572616C2C00FD
:101E800008B547F8046D4FF6470600F0B5FA47F875
:101E9000046D46F6045600F0AFFA47F8046D0626C6
:101EA000FFF75CFF08BDCA1E000000800663726574
:101EB0006174650000B500F033F841F6E7608047D3
:101EC00047F8046DBEF1010600BD121F000020801E
:101ED00005646F65733E41F6E760804747F8046D1F
:101EE000BEF10106704747F8046DBEF1010600F02F
:101EF000AFF8F64A1368310040CF0220084000D006
:101F0000023102311160FFF768FF136000F0F1F950
:101F100000BD541F00000080073C6275696C64734B
:101F200000B500F06BFB00F0AEFD0220064040CF94
:101F300004D047F8046D362600F05EFA47F8046DC9
:101F40004BF2005600F058FA47F8046D0A2600F0EC
:101F5000BDFA00BD601F00005080035B275D03E0F9
:101F6000761F00000080012700B501F055F800F051
:101F700027FD40CF00BDBC1F0000108008706F73AC
:101F800074706F6E650000B501F046F800F018FD42
:101F9000300040CF102101400DD12021014005D05B
:101FA000FFF76EFF47F8046DC94E04E0FFF768FFC6
:101FB00047F8046DC74EFFF72EFF00BD122000004A
:101FC000008007696E6C696E652C00B54BF200519C
:101FD0004BF6005244F270733088884208D0904229
:101FE00008D0984206D047F8046D060000F004FAC5
:101FF0000236F1E740CF00BD0EB44BF6005244F27A
:10200000707301880230914201D09942F9D10EBC1F
:102010007047282000000080047265742C0047F887
:10202000046D4BF60056E7E1362000003080046571
:1020300078697400F3E784200000308007726563DC
:102040007572736500B500F003F8FFF7E4FE00BD9C
:102050000FB5A148006806300178002909D147F87A
:10206000046D060001B4FFF7C1F801BCFF21314047
:1020700040CF013101220A408918401847F8046D09
:1020800006000FBD9C20000081800573746174659B
:1020900047F8046D914E704700000000AE2000002C
:1020A0000080015D8D480021C94301607047BE205A
:1020B00000001080015B8948002101607047E62024
:1020C00000000080013A00B58548076000F096FAEC
:1020D00047F8046D4BF2005600F08EF97F4800215E
:1020E000C943016000BD2E2100003080013B00B5D6
:1020F0007B480168B9420ED0FFF734FC15205374B9
:1021000061636B206E6F742062616C616E636564E5
:102110002E0A01F0F5BA47F8046D4BF6005600F0B0
:102120006BF900F0E6F86D480021016000BD442124
:10213000000000800765786563757465300040CFE6
:10214000013087465C210000108009696D6D65646F
:102150006961746547F8046D1026FCE07221000087
:10216000108006696E6C696E650047F8046D202664
:10217000F1E08C21000010800B636F6D70696C655D
:102180006F6E6C7947F8046D3026E4E0A6210000FC
:1021900010800A302D666F6C6461626C650047F8D0
:1021A000046D4026D7E0C021000010800A312D6662
:1021B0006F6C6461626C650047F8046D4126CAE08B
:1021C000DA21000010800A322D666F6C6461626C47
:1021D000650047F8046D4226BDE0F4210000108040
:1021E0000A332D666F6C6461626C650047F8046D9C
:1021F0004326B0E00E22000010800A342D666F6C7A
:102200006461626C650047F8046D4426A3E02822EF
:10221000000010800A352D666F6C6461626C650089
:1022200047F8046D452696E04222000010800A36E9
:102230002D666F6C6461626C650047F8046D46261C
:1022400089E05C22000010800A372D666F6C6461A3
:10225000626C650047F8046D47267CE08C22000024
:10226000008008636F6E7374616E740000B500F0D7
:10227000C5F9FFF705FE47F8046D44F2707600F0EB
:10228000BBF8FFF78CFF00F034F800BDE42200003B
:1022900000800932636F6E7374616E7400B500F074
:1022A000ADF939683E600E46FFF7EAFDE1E7000050
:1022B000000040F20000C0F200005FF000007FF07C
:1022C0000100C0FF0000C0FF00F800F00000002087
:1022D000CA1F0000161E000004000020D83F012085
:1022E0001000002046230000008006736D756467AF
:1022F000650000B524480168234A91421CD2023986
:102300000A88224B9A4204D147F8046D204E00F00F
:1023100073F800F05FF81F48006847F8046D060086
:102320001D4909680431184A1368116000F064F807
:102330001360FEF73FFF00BD00F04CF847F8046D56
:102340005FF4004608E09C23000000800873657479
:10235000666C6167730000B50B4801680A4A9142D8
:1023600005D20C4801683143016040CF00BD320006
:1023700040CF0948006804300188054B99420CBFE2
:1023800011461143018000BD000000200000000044
:10239000FFFF00001C00002004000020AA23000012
:1023A000008005616C69676E14E0C62300004180FF
:1023B00007616C69676E6564012030403618022041
:1023C000304036187047EE230000008007616C69CA
:1023D000676E342C00B57F4801680220014005D0AB
:1023E00047F8046D4FF6FF7600F006F800BD222492
:1023F0000000008002682C000FB576480168754A1D
:10240000914205D247F8046D0E00FEF722FF02E06C
:10241000320040CF0A8047F8046D022600F056F8DB
:102420000FBD3C2400000080012C00B547F8046D6E
:10243000FFF7E2FF360CFFF7DFFF00BD5824000076
:102440000080033E3C2C00B547F8046D360CFFF7C6
:10245000D3FFFFF7D1FF00BDC02400000080077349
:102460007472696E672C07B5FF21314040CF300090
:1024700040CF002905D147F8046D0026FFF7BCFFC7
:1024800007BD47F8046D067836020E43FFF7B4FF28
:102490000130013902290AD347F8046D4678360223
:1024A00002781643FFF7A8FF02300239F2E700294D
:1024B00000D107BD47F8046D0678FFF79DFF07BD03
:1024C0001A250000008005616C6C6F74414801683A
:1024D000404A91420FD2320040CF89183E4A914281
:1024E00019D3FFF73FFA0B466C6173682066756C71
:1024F0006C0A01F005B9320040CF8918374A1268DA
:10250000914208D3FFF72EFA0952616D2066756C6F
:102510006C0A01F0F5B801607047422500000080A8
:102520000D636F6D70696C65746F72616D3F47F814
:10253000046D0026274800682649884248D3F643A0
:1025400070476225000000800C636F6D70696C65D8
:10255000746F72616D001F4800681E49884211D374
:102560007047EC25000000800E636F6D70696C652C
:10257000746F666C6173680016480068154988427C
:1025800000D270471648174902680B680A6003605A
:102590001048154902680B680A6003600F4800681C
:1025A000834215D300B5FFF7DDF923205661726928
:1025B00061626C657320636F6C6C69646520776918
:1025C00074682064696374696F6E6172790A00BD12
:1025D00070470000000000200000080020000020DC
:1025E000040000201800002014000020D026000065
:1025F00000800828637265617465290000B500F0E9
:102600000BFD002E0ED1FFF7ADF915204372656169
:102610007465206E65656473206E616D6520210AA6
:1026200001F06EB8386847F8046D043F386000F078
:1026300098F940CF002E40CF11D0386847F8046D8C
:10264000043F3860FFF78EF9095265646566696E6C
:102650006520FFF7E3F9FFF785F9022E0A00FFF77F
:10266000B9FE00F010FA8D4800688C4988421DD2EE
:102670008B485FF40041016047F8046D0626FFF7C0
:1026800025FFFEF77DF9FFF7EEFE864801680A6830
:10269000854B9A4207D1814A1368116047F8046D4F
:1026A000FFF7C3FE1360066040CF00BD7D4847F8CA
:1026B000046D0668FFF7B9FE47F8046D7A4EFFF720
:1026C0009BFE7848310040CF0160FFF7CCFE00BD93
:1026D000E82600000080087661726961626C65001E
:1026E00047F8046D012613E000270000008009323E
:1026F0007661726961626C6547F8046D022607E0D5
:10270000DA2700000080096E7661726961626C658B
:1027100000B5FFF773FF61480168604A914234D207
:102720000F200640B20061480168891A604A914250
:102730000BD2FFF717F90F4E6F7420656E6F756738
:10274000682052414D0A00F0DBBF016047F8046D7C
:102750000E00FFF795FB47F8046D44F27076FFF723
:102760004BFE300040CF0200002805D00E6004313F
:10277000FFF75BFE0138F9D147F8046D8026164358
:10278000FFF7E9FDFFF7B5FD00BD00F07CF9022081
:10279000064040CF04D147F8046D3626FFF72CFEE3
:1027A00047F8046D434EFFF74EFE47F8046D424E66
:1027B000FFF749FE47F8046D44F27076FFF71CFE00
:1027C000300040CF002803D0FFF72FFE0138FBD1A7
:1027D000FFF7E5FCFFF78DFD00BDBC280000008081
:1027E000076275666665723A00B5FFF707FF01205C
:1027F0003040361802203040361828480168274AF1
:10280000914228D229480168891B294A91420BD25A
:10281000FFF7A8F80F4E6F7420656E6F756768201C
:1028200052414D0A00F06CBF016047F8046D0E0084
:10283000FFF726FB47F8046D44F27076FFF7DCFDE6
:10284000FFF7F3FD47F8046D48F24016FFF783FDEC
:10285000FFF74FFD00BD00F016F90220064040CF03
:1028600004D147F8046D3626FFF7C6FD47F8046D1E
:10287000104EFFF7E8FD47F8046D0F4EFFF7E3FD3C
:1028800047F8046D44F27076FFF7B6FDFFF71EFEC1
:10289000FFF785FCFFF72DFD00BD000000000020C4
:1028A0001C00002004000020000000002000002088
:1028B000EC0300203E60043F02367E46EA2800001A
:1028C00000800F64696374696F6E617279737461FB
:1028D000727441480068404947F8046D884201D24B
:1028E0003E4E70473E4E36687047242900000080F7
:1028F0000E64696374696F6E6172796E65787400D5
:1029000003B531683748814207D08879002804D060
:102910000E0047F8046D002603BD47F8046D00263D
:10292000F64303BD5629000000800A736B6970737B
:102930007472696E67003178013101220A4089188A
:102940007618704706B40178013101220A408918CF
:10295000401806BC7047E829000000800466696ED4
:1029600064003FB500220023350040CF340040CF43
:10297000FFF7AFFF1B48B188884217D047F8046DB6
:102980000636FFF72BF847F8046D260047F8046D6C
:102990002E00FEF75AFF002E40CF07D0B01DFFF7E4
:1029A000D1FF02000B000C48824204D2FFF7A8FFBF
:1029B000300040CFDED0160047F8046D1E003FBD4A
:1029C00000B531003868FFF7CCFF3A68002A01D122
:1029D00000F068FD00BD000000000020280100009C
:1029E0000400002000000000422A0000008006636E
:1029F0006A756D702C00320040CF310040CF8B1BC8
:102A0000043BA349194000290DD0A24881420AD0B5
:102A1000FEF7A8FF0D4A756D7020746F6F20666118
:102A2000720A00F06DBE5B10FF210B4013433000B3
:102A30001E0000B5984A13681060FFF7DDFC1360B4
:102A400000BD7A2A00000080056A756D702C310087
:102A500040CF300040CF0B1A043B90491940002969
:102A600002D08F4A9142D3D15B108E4A134053F467
:102A7000604347F8046D1E00DBE7902A00000080E9
:102A800004686572650047F8046D834E36687047C8
:102A90008C2B000000800D666C6173687661722D6E
:102AA0006865726547F8046D7F4E3668704700B5FB
:102AB00047F8046D42F60066FFF79EFC47F8046D88
:102AC0004CF64076FFF798FC00BDDCE700B500F05F
:102AD0003AF839683E600E4647F8046D4DF200162C
:102AE000FFF789FF00BD00B500F02DF839683E60A2
:102AF0000E4647F8046D4DF20076FFF77CFF00BDEF
:102B000000B5FFF7D4FF00F01EF839683E600E46AE
:102B100047F8046D4DF20006FFF76DFF00BD00B5EC
:102B200000F011F839683E600E46FFF790FF00BDD7
:102B300000B5FFF7BCFFFFF7A6FF47F8046D0226BC
:102B4000FFF7C4FC00BD00B5FFF79DFF47F8046D1B
:102B50000226FFF7BBFC00BD00B5FFF794FFFFF7AF
:102B600076FF00BD00B5FFF78EFF47F8046D4DF20C
:102B70000006FFF740FF00BD00B5FFF784FF47F8F0
:102B8000046D4DF20016FFF736FF00BDC82B0000A4
:102B90003080047468656E00052E01D140CFDBE7FC
:102BA000022E01D140CFDDE7FEF7DCFE1753747231
:102BB0007563747572657320646F6E2774206D6120
:102BC0007463680A00F09CBDF22B0000308004653D
:102BD0006C73650000B5022EE6D140CFFFF7B3FF5E
:102BE00039683E600E46FFF7BDFF47F8046D0526C5
:102BF00000BD0A2C000030800269660000B5FFF7B6
:102C000097FF47F8046D022600BD302C000030808D
:102C10000672657065617400042EC5D140CF3968B5
:102C20003E600E4600B5FFF77AFFFFF79BFF00BD41
:102C30004C2C00003080057768696C65012EB3D19B
:102C400040CF00B5FFF7DAFF023600BD602C000070
:102C5000308005756E74696C012EA5D140CF4FE7A9
:102C6000742C0000308005616761696E012E9BD174
:102C700040CF54E7AC2C0000308005626567696E78
:102C800000B5FFF722FF47F8046D012600BD0000E4
:102C900001FFFFFF00FFFFFF0000002001F8FFFF22
:102CA00000F8FFFFFF07000020000020BC2C000000
:102CB0002080016B47F8046D029E7047CC2C000009
:102CC0002080016A47F8046D009E7047DC2C0000EC
:102CD0002080016947F8046D260070471C2D000014
:102CE0003080056C6561766500B5684801683B0019
:102CF000043F1A68043B1A60043304338B42F8D152
:102D000003B4FFF720FF03BC330040CF04390B604E
:102D1000016004390A6801320A6000BD2E2D0000EE
:102D2000208006756E6C6F6F700030BC7047662D2A
:102D300000003080052B6C6F6F70032E00D033E7DE
:102D400040CF00B547F8046D514EFFF73EF9FFF74D
:102D5000CAFE1AE014F10044641BA41940CF2C44AD
:102D6000A4F100447047A82D00003080046C6F6F00
:102D70007000032E00D017E740CF00B547F8046D70
:102D8000444EFFF722F9FFF7A1FE00F023F93F4878
:102D9000310040CF016047F8046D3F4EFFF715F951
:102DA00000BD0134AC427047F02D00007880026411
:102DB0006F0000B547F8046D384EFFF706F9334849
:102DC000016847F8046D0E0047F8046D002607609F
:102DD000FFF77BFE47F8046D032600BD00B500F049
:102DE0002FF8ECE730B4340040CF350040CF7047C7
:102DF000A02E00007880033F646F00B547F8046D93
:102E0000264EFFF7E2F847F8046D44F2AC26FFF7D0
:102E1000F3FA1E48016847F8046D0E00FFF793FEB1
:102E2000013647F8046D012618480760FFF74DFE8C
:102E300047F8046D032600BD00B500F001F8E2E795
:102E400000B547F8046D4BF23046FFF7D5FA47F866
:102E5000046D0426FEF782FF013B08D047F8046D9D
:102E60000526FEF77BFF013B00F023FC00BD47F881
:102E7000046D3526FFF7C0FA47F8046D4CF640762E
:102E8000FFF7BAFA00F015FC00BD00000C000020AE
:102E9000542D0000A22D00002A2D0000E42D00007A
:102EA000BA2E0000308004636173650047F8046D3A
:102EB000002647F8046D08267047D02E00003080A9
:102EC000033F6F664D4809E0013EB64140CF704771
:102ED000742F00007880026F66004948082E00D0E9
:102EE00062E640CF00B547F8046D0600FFF76DF8C5
:102EF000FFF729FE39683E600E46013647F8046D3B
:102F0000092647F8046D4CF64076FFF775FA00BDC8
:102F100000B5300040CF013B01B400F0CAFB01BC5A
:102F2000082E00D040E640CF47F8046D0600FF2190
:102F30003140B14204D133490E43FFF75DFAD7E780
:102F4000FEF758FE002E40CF04D02F480643FFF76F
:102F50007AFACDE747F8046D0026FEF7FFFE47F842
:102F6000046D44F2B026FFF747FAC1E7300040CFC6
:102F7000B0427047AA2F0000308005656E646F660E
:102F8000092E00D010E640CF00B540B440CFFFF787
:102F9000DAFD39683E600E46FFF7EEFD47F8046D36
:102FA00040BC47F8046D082600BD0C30000030809E
:102FB00007656E6463617365082E00D0F4E540CF49
:102FC00000B547F8046D4CF64076FFF715FA00F0AF
:102FD00001F800BD00B5300040CF00280DD003B48B
:102FE00001213140002903D0013EFFF7BBFD01E084
:102FF000FFF7B2FD03BC0138EFE700BDC82E0000AB
:103000006C2F0000002E0000000FB6F120300000F1
:10301000008005746F6B656E47F8046D202605E02F
:103020007C300000008005706172736510B5FEF79A
:10303000E0FB310040CF300040CF0F4A12688418C7
:10304000202E07D191420FD0835CB34202D10132CE
:103050008418F7E7914207D0835C0132B342F9D17B
:103060008618361B013E01E08618361B043F3C6083
:103070000148026010BD0000E43F0120BA300000AA
:103080000080056469676974CE4B1B68303E0BD3C2
:103090000A2E0BD3073E0A2E06D3242E06D3203E3B
:1030A0000A2E01D3242E01D3002670479E42FBD264
:1030B00047F8046D0026F6437047C43100000080D5
:1030C000066E756D626572003FB5310040CF701EAF
:1030D0000126012204B4BB4B1B68002400250029F3
:1030E0003CD00130013902782D2A04D101B00022F0
:1030F000D24304B4F3E7232A01D10A23EFE7242AB9
:1031000001D11023EBE7252A01D10223E7E72E2A7C
:1031100001D10226E3E72C2A36D047F8046D1600C9
:10312000FFF7B4FF002E40CF2BD047F8046D2600E8
:1031300047F8046D2E0047F8046D1E0047F8046D33
:1031400000260FB4FDF729F90FBC350040CF34003D
:1031500040CF0022A419554140CFC0E704BC002A4B
:1031600004D50022E443ED430134554133002600E9
:10317000012B02D047F8046D2E0047F8046D1E00A5
:103180003FBD01B000263FBD2500002402260029D6
:10319000E4D0425C01392E2AF9D047F8046D1600BC
:1031A000FFF774FF002E40CFEBD0043F3C6047F8A0
:1031B000046D1E000FB4FDF79FF90FBC340040CF23
:1031C00040CFE4E7E43100000080062E64696769BF
:1031D00074000A2E3CBF303603E0242E34BF37364D
:1031E000232670471A320000008004686F6C640068
:1031F000330040CF744801783F290DD2013101706E
:103200004018012907D001380278013002700138D6
:1032100001390129F7D1037070473A32000000806C
:1032200005686F6C643C330040CF674801783F29E4
:1032300002D20131017043547047523200000080C5
:10324000047369676E00002E01D440CF70472D26AD
:10325000CEE766320000008002233E005A4806781E
:103260000130386070477E320000008003662353CF
:1032700010B5202400F008F8013CFBD110BDA032AD
:10328000000000800266230000B547F8046D4D4E33
:103290003668FDF76EF8FFF79CFFFFF7C4FF00BD2F
:1032A000BC32000000800223530000B500F00AF891
:1032B000002EFBD138680028F8D100BDE8320000AC
:1032C0000080012300B547F8046D3E4E366847F88C
:1032D000046D0026FDF770F9FCF754FF40CFFFF7AF
:1032E00078FFFFF785FF00BDFA3200000080023C46
:1032F000230035480021017070470C330000008026
:1033000002662E0047F8046D202604E05A330000C0
:10331000008003662E6E00B510B4340040CFFDF778
:1033200019FBFCF7E2FF47F8046D0026FFF7E1FF09
:10333000FFF7BBFF40CF2C26FFF775FF002C03D013
:10334000FFF7A2FF013CFBD110BC40CFFFF77BFF92
:1033500047F8046D47F8046D1CE0703300000080EE
:103360000375642E00B5FFF7C4FFFFF79EFF11E061
:10337000A2330000008002642E0000B5FDF7EAFAD7
:10338000FCF7B3FFFFF7B5FFFFF78FFFFDF7ECFA90
:10339000FFF759FFFFF762FFFEF740FBFEF78EFADB
:1033A00000BDB4330000008002752E0047F8046DA4
:1033B0000026D7E7CC3300000080012E47F8046DCB
:1033C000F617DAE7FC3F0120240000201434000047
:1033D0000080086576616C756174650000B5FEF764
:1033E00008FA01CF01B440B440CFD548016802B417
:1033F00000210160FEF7F0F900F014F8D04802BC9B
:10340000016047F8046D40BC01BC043F3860FEF722
:10341000E3F900BDD8360000008009696E7465725A
:103420007072657430B5C74887420BD9FEF79AFAB7
:1034300010537461636B20756E646572666C6F7790
:103440000A005DE1C04887420AD2FEF78BFA0F53AB
:103450007461636B206F766572666C6F770A4FE1FB
:10346000BA4C2568002D01D13D002560FFF7D4FD41
:10347000002E02D1043740CF30BD386847F8046DC4
:10348000043F3860FFF76DFA310040CF320040CF83
:10349000002A13D138683100FFF716FE320040CF02
:1034A000002AC0D1FEF7BEFAFEF75CFA0C206E6F60
:1034B0007420666F756E642E0A0021E1A44B1B68B0
:1034C000002B1DD10025256030230B40302B0ED161
:1034D000FEF7A4FAFEF746FA1220697320636F6DB7
:1034E00070696C652D6F6E6C792E0A0008E10437E7
:1034F00040CF47F8046D1600FEF720FEFFF793FF5C
:10350000043740CF802008400ED1EB1B9B084020A1
:1035100008400FD00820084002D0002B00D01DE04A
:103520000F200840834205D347F8046D1600FEF7CC
:1035300005FE78E700F0BDF847F8046D160010228C
:103540000A4002D0FEF7FAFD6DE720220A4002D0C1
:10355000FEF73BFD67E7FEF75EFC64E707200140EE
:103560001000FEF749FD01291FD1012BDCD1FF21FD
:103570003140B14204D140880643FEF73DFF52E797
:10358000FEF738FB002E40CF04D040680643FEF71C
:103590005AFF48E747F8046D0026FEF7DFFB47F8BF
:1035A000046D0688FEF728FF3DE7022902D1012BB2
:1035B000BAD1EFE7032926D1012BB5D1FF21314044
:1035C000B1420AD163490E43FEF716FF043247F8B1
:1035D000046D1600FEF7F9FC25E7FEF70BFB002E45
:1035E00040CF04D05C490E43FEF72DFFEEE747F8CD
:1035F000046D0026FEF7B2FB023247F8046D160098
:10360000FEF7E3FC0FE7042918D1012B8CD133001E
:1036100040CF002B00D106E71F221A409A4205D066
:1036200047F8046D4688FEF7E7FEFCE647F8046DB0
:1036300006889B011E43FEF7DFFEF4E6052924D130
:10364000012B10D147F8046D0026FEF787FB47F8E1
:10365000046D0600FEF7B9FC47F8046D4CF64076A1
:10366000FEF7CAFEDFE647F8046D0026FEF776FB9C
:1036700047F8046D0126FEF771FBFEF7BDFC47F825
:10368000046D0600FEF7A1FCCDE606290ED1012B44
:103690007FF44AAFFEF7AEFA002E40CF3FF47AAF88
:1036A000D0F802000643FEF7CEFEBCE601308047AC
:1036B000B9E600B5002B0CD0013B47F8046D1E00A5
:1036C00057F82660FEF7DCFB002BF5D1043D2F00F8
:1036D00040CF0025256000BDF436000081800968D8
:1036E0006F6F6B2D7175697447F8046D1B4E7047D1
:1036F0002C37000070370000008004717569740079
:10370000DFF85CD00F4FFDF74DFD16480A21016030
:103710000F48002101600D4801600948016012480E
:103720000160124941600D4800688746FEF76FF856
:10373000FFF778FEFEF716F905206F6B2E0AF5E706
:10374000E43F01202C0200202C0100200800002072
:10375000D83F0120003E00000006B6F1D43F012012
:103760002C030020FC3F0120DC3F012064000020EE
:103770008037000020800465696E740062B670476F
:103780009037000020800464696E740072B6704740
:10379000A6370000208004697073720047F8046D3A
:1037A000EFF305867047B23700000080036E6F703C
:1037B0007047F4370000008009756E68616E646CB4
:1037C000656400B5FEF7CEF814556E68616E646CE2
:1037D000656420496E74657272757074200047F8D4
:1037E000046DEFF30586FEF730F9FEF7BBF8022112
:1037F0000A0000BD1E38000081800B6972712D73B4
:1038000079737469636B47F8046DC74E7047C237AC
:10381000000043F6D070C2F20100006887464638C7
:1038200000008180096972712D6661756C7447F8BA
:10383000046DBE4E7047C237000043F6CC70C2F232
:103840000100006887467438000081800E6972713B
:103850002D636F6C6C656374696F6E0047F8046D5F
:10386000B34E7047C237000043F6C870C2F2010081
:10387000006887469C3800008180096972712D6557
:103880007874693047F8046DAA4E7047C23700005B
:1038900043F6C470C2F2010000688746C4380000D5
:1038A0008180096972712D657874693147F8046DFA
:1038B000A14E7047C237000043F6C070C2F201004B
:1038C00000688746EC3800008180096972712D65B7
:1038D0007874693247F8046D984E7047C23700001B
:1038E00043F6BC70C2F2010000688746143900003C
:1038F0008180096972712D657874693347F8046DA8
:103900008F4E7047C237000043F6B870C2F2010014
:10391000006887463C3900008180096972712D6515
:103920007874693447F8046D864E7047C2370000DA
:1039300043F6B470C2F201000068874662390000A5
:103940008180076972712D61646347F8046D7E4E52
:103950007047C237000043F6B070C2F20100006841
:103960008746883900008180076972712D64616320
:1039700047F8046D754E7047C237000043F6AC70CF
:10398000C2F2010000688746B039000081800869F2
:1039900072712D74696D320047F8046D6C4E70477A
:1039A000C237000043F6A870C2F2010000688746E3
:1039B000D83900008180086972712D74696D3300F7
:1039C00047F8046D634E7047C237000043F6A47099
:1039D000C2F2010000688746003A00008180086951
:1039E00072712D74696D340047F8046D5A4E70473A
:1039F000C237000043F6A070C2F20100006887469B
:103A0000004000000000182D2D2D20466C617368C9
:103A10002044696374696F6E617279202D2D2D00C9
:103A2000FDF714FE4D4885464D4F2A264D484E4918
:103A300001604E484E49016047F8046D4C4E4D4DB3
:103A4000B1884D4B994224D04C4B0B400AD0B01D4D
:103A5000FEF778FFFEF7D0FA03884088000403439E
:103A6000ED1A16E080230B4013D00F231940890074
:103A70006D1AB01DFEF766FFFEF7BEFA47F8046D3B
:103A8000060047F8046D2E0047F8046D0E00FDF7A0
:103A9000F1F8FEF735FF300040CFD1D0384806604E
:103AA00040CF3848056038483849334A884204D006
:103AB000023803889342F9D0023035490860FDF797
:103AC00071FBFDF74FFF374D6563726973702D53BE
:103AD00074656C6C6172697320322E302E322066F0
:103AE0006F722053544D33324C313532206279207D
:103AF0004D61747468696173204B6F63680A25486F
:103B00000021016047F8046D234E47F8046D042638
:103B1000FEF727FF40CF002E02D0FEF70FFB02E694
:103B200040CFEDE5696E6974D03F0120CC3F0120A4
:103B3000C83F0120C43F0120C03F0120BC3F0120FD
:103B4000B83F0120B43F0120B03F0120AC3F01202D
:103B5000A83F0120A43F0120A03F01202C0300200A
:103B60002C02002000000020EC03002004000020B4
:103B700028010000004001200000000000010000BA
:103B80001800002020000020000008000040000075
:0C3B90001400002008000020243B00006E
:0400000508000000EF
:00000001FF
