:020000040800F2
:100000002C0300206137000019360000193600006B
:1000100000000000000000000000000000000000E0
:100020000000000000000000000000001936000081
:10003000000000000000000019360000F735000045
:100040001936000019360000193600001936000074
:10005000193600003F360000633600008936000084
:100060001936000019360000193600001936000054
:10007000AB360000CF360000F33600001537000025
:100080003937000000B501F0D5FB16556E68616E7A
:10009000646C656420496E74657272757074202199
:1000A0000A0000BDCC000000FFFF1E2D2D2D204DAD
:1000B0006563726973702D5374656C6C61726973DA
:1000C00020436F7265202D2D2D00C046E4000000F6
:1000D00042000432647570003868043F3E60043F9B
:1000E00038607047F80000006200053264726F707B
:1000F000043740CF7047C046180100004400053265
:100100007377617007CF043F3860043F3E60043F5F
:100110003A600E007047C0462C01000062000432B5
:100120006E69700007CF043F3860704748010000D7
:10013000440005326F766572B868043F3E60043F44
:100140003860FE687047C0466C010000440005320C
:100150007475636B07CF043F3860043F3E60043F13
:100160003A60043F3960043F3860704790010000F6
:1001700046000432726F74003868B9683A69B86032
:1001800039613A6079687E60FE68F9607047C04600
:10019000B4010000460005322D726F743868B968EA
:1001A0003A6938613960BA60F968FE607E687960E2
:1001B0007047C046C8010000200003323E7201CFE4
:1001C00001B440B440CF7047E0010000200003328A
:1001D000723E043F3E6040BC01BC043F3860704743
:1001E000F8010000200003327240043F3E60019E8F
:1001F000043F3E60009E70470C0200002000063263
:100200007264726F700002B07047C0462402000032
:1002100042000364322F3868F10776104008084323
:10022000386070473802000062000364322A386880
:1002300000187641386070475402000042000464A0
:10024000736872003868F107760840080843386020
:100250007047C0466C0200006200046473686C0062
:1002600038680018764138607047C0468002000048
:100270004200046461627300002E16D47047C046C9
:100280009C0200004300083F646E6567617465006E
:10029000300040CF002808D47047C046BC020000A0
:1002A000420007646E656761746538680021C04369
:1002B000F64301304E4138607047C046D40200001A
:1002C000640002642D0007CF121AB1410E00043FF2
:1002D0003A607047EC020000640002642B0007CF14
:1002E00012184E41043F3A607047C04600030000B8
:1002F000610003733E64043F3E60F6177047C046DA
:100300002C030000420003756D2A38680300734314
:100310003B60010C320C0B005343B6B280B24E432B
:1003200050433618360CF6187047C0465C03000080
:100330004200026D2A003868C11705D0404238607B
:10034000F01704D07642E0E7F017DED0764200B531
:10035000FFF7DBFFFFF7A9FF00BDC0469C030000CD
:1003600044000375642A07CF564341437618010CB5
:10037000130C59437618010C80B292B25143434397
:1003800050430022C91852411204B6180A04090C3D
:1003900080184E41043F38607047C046300400006A
:1003A00044000475646D2A0010B50024043F3E60CB
:1003B0007E68043F3E603E69FFF7A7FF310040CFF3
:1003C000300040CF043F3E603E68043F3E60FE6820
:1003D00003B4FFF79AFF03BC330040CF320040CF95
:1003E000043F3E603E68043F3E603E690FB4FFF745
:1003F0008CFF0FBC9219634140CF89196241634160
:1004000040CF043F3E607E68043F3E60FE680FB40C
:10041000FFF77BFF0FBC9219634140CF89196241FE
:10042000634140CF1E003A607960B86010BDC0469D
:10043000540400004300022A2F0000B540B440CF0E
:10044000FFF779FF043F3E6040BC00F065F80437D9
:1004500000BDC046780400004300052A2F6D6F647C
:1004600000B540B440CFFFF766FF043F3E6040BC9C
:1004700000F052F800BDC0469C0400004300037524
:100480002A2F00B540B440CFFFF73FFF043F3E6046
:1004900040BC00F01CF8043700BDC046C00400009A
:1004A000430006752A2F6D6F640000B540B440CF3D
:1004B000FFF72BFF043F3E6040BC00F008F800BD92
:1004C0000C050000430006756D2F6D6F640010B4BD
:1004D000786839680022002420236400001849410C
:1004E0005241964201D8921B0134013BF5D12023A1
:1004F000640049185241964201D8921B0134013BD5
:10050000F6D104373A60260010BC70478005000021
:100510004300056D2F6D6F6400B5F01718D076425B
:1005200000F024FAF0170DD0FFF7BFFE00F011FA2B
:10053000FFF7CDFF39683E600E46764239683E606F
:100540000E4600BD00F005FAFFF7C1FF764200BD80
:1005500000F00CFAF0170ED0FFF7A7FE00F0F9F943
:10056000FFF7B5FF764239683E600E46764239683D
:100570003E600E4600BD00F0ECF9FFF7A8FF00BD9D
:10058000DC05000044000675642F6D6F640030B414
:100590003C68B86879680022002520236D000018A7
:1005A00049415241944201D8121B0135013BF5D11A
:1005B00020B4002520206D00491852415B419E4225
:1005C00004D8944202D8121BB34101350138F2D14C
:1005D0003D60BA607B6040BC30BC70475406000090
:1005E000440005642F6D6F6400B5F01719D0FFF754
:1005F0005CFEFFF787FDF0170CD0FFF756FEFFF704
:1006000081FDFFF7C4FFFFF77DFDFFF74EFEFFF70B
:1006100079FD00BDFFF776FDFFF7B9FFFFF745FE57
:1006200000BDFFF76FFDF0170ED0FFF73EFEFFF79E
:1006300069FDFFF7ACFFFFF738FEFFF763FDFFF73B
:1006400034FEFFF75FFD00BDFFF75CFDFFF79FFF86
:1006500000BDC0466C060000440002642F0000B5D7
:10066000FFF7C2FFFFF75EFD00BDC04604070000B4
:10067000440002662A0000B5F0170DD0FFF715FE02
:10068000FFF740FDF0170DD0FFF70FFEFFF78CFED0
:1006900040CF01CF386000BDFFF734FDF017F5D033
:1006A000FFF703FEFFF780FE40CF01CF3860FFF772
:1006B000FCFD00BD30B43C68B9687A6800230025B1
:1006C00020206D00491852415B419E4204D894425B
:1006D00002D8121BB34101350138F2D12900202084
:1006E0006D0092185B419E4204D8944202D8121BBE
:1006F000B34101350138F3D13D60BA607B600E0033
:1007000030BC704750070000440002662F0000B55F
:10071000F0170ED0FFF7C9FDFFF7F4FCF0170ED06D
:10072000FFF7C3FDFFF7EEFCFFF7C4FFFFF7FAFC8E
:1007300000BDFFF7E7FCF017F4D0FFF7B6FDFFF7B9
:10074000E1FCFFF7B7FFFFF7B0FDFFF7EBFC00BDE3
:100750006407000020000232210006CF3160726081
:1007600040CF704778070000200002324000043F6D
:10077000706838603668704798070000440003646A
:10078000753C07CF8E4204D801D1904201D8002693
:1007900070470026F6437047B80700004400036422
:1007A000753E07CFB14204D801D1824201D800265C
:1007B00070470026F6437047D807000044000264E3
:1007C0003C0007CF8E4204DC01D1904201DC0026C0
:1007D00070470026F6437047F807000044000264A3
:1007E0003E0007CFB14204DC01D1824201DC002689
:1007F00070470026F6437047080800006200036453
:10080000303C0437F61770472408000042000364A8
:10081000303D01CF002801D000267047013EB6418F
:100820007047C04640080000440003643C3E07CFC8
:10083000904201D1761A01D00026F6437047C04697
:100840005C080000440002643D0007CF904201D0E4
:1008500000267047761A013EB641704770080000C6
:10086000200003737040043F3E603E007047C04666
:1008700080080000200003737021370040CF7047CC
:1008800094080000200003727040043F3E606E46F2
:100890007047C046A4080000200003727021B546CE
:1008A00040CF7047C00800000000056465707468A0
:1008B000F549C91B8908043F3E600E007047C046D9
:1008C000D0080000610003647570043F3E6070470B
:1008D000E008000061000464726F700040CF704750
:1008E000F80800006100043F64757000002E01D01C
:1008F000043F3E607047C0460C090000620004736C
:100900007761700039683E600E0070471C09000076
:100910006200036E697004377047C04630090000FA
:100920006200046F76657200043F3E607E68704727
:10093000480900006200047475636B0001CF083F32
:100940007E6038607047C046600900006300037233
:100950006F7403CF083F78603E600E007047C0465A
:10096000780900006300042D726F740003CF083F04
:100970007E603960060070478C090000200004701A
:1009800069636B00B0003E587047C0469C09000088
:100990002000023E720040B440CF7047B009000012
:1009A000200002723E00043F3E6040BC7047C046DB
:1009B000C4090000200002724000043F3E60009E17
:1009C0007047C046D40900002000057264726F7041
:1009D00001B07047EC090000600004747275650096
:1009E000043F3E600026F6437047C046000A000000
:1009F00060000566616C7365043F3E6000267047C9
:100A0000140A00006A0003616E6401CF064070475B
:100A10000640C046280A00006A000362696301CFED
:100A2000B0430600704786433C0A00006A00026F2C
:100A3000720001CF064370470643C046500A0000CB
:100A40006A0003786F7201CF464070474640C04647
:100A5000600A00006100036E6F74F6437047C04681
:100A6000800A0000410003636C7A300006D0002643
:100A7000400002D001D20136FAE7704720267047C5
:100A8000900A000061000373687276087047C046E0
:100A9000A00A000061000373686C76007047C046CE
:100AA000B00A0000610003726F720120C6417047F6
:100AB000C40A0000610003726F6C0020B619464141
:100AC0007047C046E00A00006C00067273686966F1
:100AD000740001CFF0400600704736080026C0467B
:100AE000FC0A00006C00076172736869667401CFCC
:100AF0003041060070473610F617C046180B00004C
:100B00006C00066C73686966740001CFB040060023
:100B1000704736000026C046280B000061000230F6
:100B20003D00013EB64170473C0B000061000330C0
:100B30003C3E013EB641F6437047C0464C0B0000B8
:100B4000610002303C00F6177047C046680B000099
:100B50004200023E3D0001CFB04201DA002670475C
:100B60000026F6437047C046840B00004200023C5A
:100B70003D0001CFB04201DD002670470026F6435C
:100B80007047C0469C0B00004200013C01CFB042C0
:100B900002DA0026F643704700267047B40B0000C7
:100BA0004200013E01CFB04202DD0026F64370470D
:100BB00000267047C80B0000620003753E3D01CF60
:100BC000861BB641F6437047DC0B000062000375DC
:100BD0003C3D01CF361AB641F6437047F00B00009A
:100BE000620002753C0001CF861BB6417047C046CB
:100BF000040C0000620002753E0001CF361AB641B7
:100C00007047C0461C0C00006B00023C3E0001CF48
:100C1000361A01D00026F6437047C046300C00005B
:100C20006B00013D01CF361A013EB6417047C04608
:100C3000440C00006200036D696E01CFB04200DA1F
:100C400006007047580C00006200036D617801CF08
:100C5000B04200DB06007047700C000062000475B3
:100C60006D61780001CFB04200D306007047C046E6
:100C70008C0C0000620004756D696E0001CFB042FB
:100C800000D80600704700002C020020CC0C0000A9
:100C90000000046D6F76650007B5310040CF32006B
:100CA00040CF00290FD0B2420DD006D3013E013A09
:100CB000705C50540139FBD105E03078107001367A
:100CC00001320139F9D140CF07BDC046F00C000018
:100CD00000000466696C6C00300040CF310040CFEA
:100CE000002902D001397054FCD140CF7047C04672
:100CF000FC0C00002000014036687047140D000015
:100D00006D00012103CF30600E0070470660704710
:100D1000016070473C0D00006D00022B210003CFE5
:100D20003268121832600E00704702689219026031
:100D300070470268521802607047C0464C0D0000B0
:100D400020000268400036887047C046680D0000E9
:100D50006D000268210003CF30800E0070470680CE
:100D6000704701807047C046900D00006D00036819
:100D70002B2103CF3288121832800E007047028870
:100D80009219028070470288521802807047C0464C
:100D9000A00D000020000263400036787047C04676
:100DA000BC0D00006D000263210003CF30700E0007
:100DB00070470670704701707047C046E40D000030
:100DC0006D0003632B2103CF3278121832700E00AE
:100DD00070470278921902707047027852180270B8
:100DE0007047C0460C0E00006D000462697321005C
:100DF00003CF3268024332600E007047026832430C
:100E00000260704702680A4302607047340E0000B7
:100E10006D0004626963210003CF3268824332604F
:100E20000E0070470268B2430260704702688A434E
:100E3000026070475C0E00006D0004786F72210044
:100E400003CF3268424032600E0070470268724041
:100E50000260704702684A4002607047780E0000E6
:100E6000200004626974400001CF3668064001D05A
:100E70000026F6437047C046A00E00006D000568CE
:100E80006269732103CF3288024332800E007047BB
:100E9000028832430280704702880A43028070470A
:100EA000C80E00006D0005686269632103CF3288B7
:100EB000824332800E0070470288B243028070473E
:100EC00002888A4302807047F00E00006D000568BA
:100ED000786F722103CF3288424032800E00704713
:100EE000028872400280704702884A400280704740
:100EF0000C0F0000200005686269744001CF36883D
:100F0000064001D00026F6437047C046340F00006B
:100F10006D0005636269732103CF3278024332703A
:100F20000E007047027832430270704702780A431D
:100F3000027070475C0F00006D00056362696321F9
:100F400003CF3278824332700E0070470278B2438A
:100F50000270704702788A4302707047840F000065
:100F60006D000563786F722103CF32784240327092
:100F70000E007047027872400270704702784A4053
:100F800002707047A00F0000200005636269744082
:100F900001CF3678064001D00026F6437047C046A0
:100FA000B00F000061000563656C6C2B0436704760
:100FB000C00F000061000563656C6C73B60070477C
:100FC0005410000000000768666C617368213000EF
:100FD00040CF310040CF594B984221D3584B9842D3
:100FE0001ED2584B1940994219D001220240002AC2
:100FF00016D102889A4213D1534A8018534A544B4F
:101000001360544B1360544A012313600180534A08
:10101000136801201840FBD14F4A802313607047AA
:1010200000F008FC2A57726F6E6720616464726575
:101030007373206F72206461746120666F72207711
:10104000726974696E6720666C61736820210A009A
:1010500002F076FAA410000000000E666C6173685E
:10106000706167656572617365000FB5300040CFD0
:10107000324B984214D3354A354B1360354B1360CD
:10108000354A02231360364A1060334A4223136004
:10109000324A136801201840FBD12F4A8023136085
:1010A0000FBDC0462011000000000A657261736523
:1010B000666C61736800214872B62149214A038831
:1010C00093421CD0043F3E600600043F3E6000F0A7
:1010D000B1FB10457261736520626C6F636B2061B8
:1010E0007420200000F01EFC00F0A4FB0C206672AF
:1010F0006F6D20466C6173680A00FFF7B6FF02301F
:101100008842DCD100F096FB1246696E697368650F
:10111000642E20526573657420210A0002F022FBC0
:101120006411000000000E6572617365666C617386
:101130006866726F6D00300040CFBDE70040000070
:1011400000000100FFFF0000000000080420024032
:1011500023016745AB89EFCD102002400C200240EF
:1011600014200240781100006900012B01CF3618CD
:10117000704736180036C0468C1100006900012DFA
:1011800001CF861B7047361A003EC0469C110000F6
:10119000610002312D00013E7047C046AC110000D5
:1011A000610002312B0001367047C046BC110000BF
:1011B000610002322D00023E7047C046CC11000093
:1011C000610002322B0002367047C046E011000079
:1011D0006100066E65676174650076427047C046BF
:1011E000F4110000610003616273002E00D57642A5
:1011F0007047C0463C120000420005752F6D6F64B9
:10120000310040CF002903D1043F3E6000267047E3
:10121000012200238E4206D9003104D45200490035
:1012200001D48E42FAD88E4201D3761A134349086C
:101230005208F8D1043F3E601E007047AC12000017
:101240004200042F6D6F640000B5300040CF002EC7
:101250001CDA764200280CDA4042043F3E60060069
:10126000FFF7CEFF300040CF7642043F3E600600DD
:1012700000BD043F3E600600FFF7C2FF300040CFD4
:1012800040427642043F3E60060000BD002807DA77
:101290004042043F3E600600FFF7B2FF764200BDC9
:1012A000043F3E600600FFF7ABFF00BDC012000028
:1012B0004200036D6F6400B5FFF7C6FF40CF00BD6D
:1012C000D41200004200012F00B5FFF7BDFF043724
:1012D00000BDC046E41200006A00012A01CF464367
:1012E00070474643F4120000610002322A00760083
:1012F0007047C04604130000610002322F007610D0
:101300007047C046181300006100046576656E00E2
:10131000012030403618704730130000810004620D
:1013200061736500043F3E60124E70470A00000082
:101330004813000000000662696E617279000D4872
:10134000022101607047C04660130000000007647E
:101350006563696D616C07480A2101607047C0468A
:10136000A0130000000003686578024810210160A6
:1013700070470000FC1F00207749784808607849D2
:101380007848086078497948086079497948086060
:101390007949462008607949794808607047C04615
:1013A000BC130000810009686F6F6B2D656D697457
:1013B000043F3E60734E7047BE140000D813000017
:1013C000810008686F6F6B2D6B657900043F3E608C
:1013D0006D4E7047E6140000F813000081000A68A3
:1013E0006F6F6B2D656D69743F00043F3E60674E03
:1013F000704710150000C0461414000081000968F1
:101400006F6F6B2D6B65793F043F3E60604E704798
:101410003E1500003414000081000A686F6F6B2DC8
:10142000706175736500043F3E605A4E7047D63553
:101430000000C0464C140000000004656D69740093
:101440000FB5504800F02FF80FBDC04660140000E3
:101450000000036B65790FB54B4800F024F80FBD11
:1014600078140000000005656D69743F00B54748B9
:1014700000F019F800BDC046901400000000046B95
:1014800065793F0000B5424800F00DF800BDC04648
:10149000AC140000000005706175736500B53D482F
:1014A00000F001F800BD00688746C046D414000073
:1014B00000000B73657269616C2D656D697400B510
:1014C00000F026F8002E40CFFAD0334A167040CFF5
:1014D00000BDC046FC14000000000A73657269611B
:1014E0006C2D6B65790000B500F029F8002E40CF17
:1014F000FAD0043F3E60294A167800BD2C15000042
:1015000000000C73657269616C2D656D69743F0034
:1015100000B5FFF7C3FF043F3E6000262048016886
:101520008020014000D0F64300BDC046A415000055
:1015300000000B73657269616C2D6B65793F00B5B6
:10154000FFF7ACFF043F3E600026154801682020ED
:10155000014000D0F64300BD1410024000005E00C0
:101560001810024000400000000000480000282839
:1015700024000048100100000C38014000380140F0
:101580000D000000F81F0020F41F0020F01F0020B5
:10159000EC1F0020E81F00202838014024380140BB
:1015A0001C380140C81500000000076365787065AD
:1015B000637400B5386801B40130386000F00BF88E
:1015C00001BC067040CF00BD3C1600000000066163
:1015D00063636570740000B502CF01390022FFF724
:1015E0003AFF300040CF202819D2092816D00A2807
:1015F0001FD00D281DD00828F1D1002AEFD000F00F
:1016000019F903082008002AE9D0885C013A8023F0
:101610000340E4D040230340F5D0E0E72020B2426D
:10162000DDD2043F3E600600FFF70AFF0132885416
:10163000D5E7160000F0A8F800BDC046501600001F
:10164000400003746962043F3E602B4E7047C04601
:10165000681600008100033E696E043F3E60274E1D
:10166000704700000000C0469016000082000E6324
:10167000757272656E742D736F7572636500043FC9
:101680003E601F4E70470000000064000020C0460E
:10169000AC160000000009736574736F75726365A2
:1016A000174802CF0660416040CF7047CC1600005B
:1016B000000006736F7572636500043F3E60104E54
:1016C000043F7068386036687047C04604170000F1
:1016D00000000571756572790FB508480021016039
:1016E000FFF7B1FF043F3E60043F3E60C826FFF7AE
:1016F00072FFFFF7D5FF0FBD64000020E41F00203C
:10170000DC1F002054170000000007636F6D70613C
:1017100072650FB5310040CF01CF884202D040CF73
:1017200000260FBD02CF002810D001380A5C335CC0
:10173000412A02D35B2A00D22032412B02D35B2BF9
:1017400000D220339A42EED000260FBD0026F64389
:101750000FBDC0466817000000000263720000B5AC
:1017600000F068F8010A00BD7C170000000002626A
:101770006C00043F3E6020267047C0469017000072
:101780000000057370616365043F3E60202657E6E4
:10179000B81700000000067370616365730000B540
:1017A000002E06DD043F3E602026FFF749FE013E85
:1017B000F8D140CF00BDC046C81700005000065BFE
:1017C000636861725D0005E0E017000000000463DB
:1017D0006861720000B501F055FB40CF367800BD5E
:1017E000F017000050000128043F3E60292606E063
:1017F0000C1800005000015C043F3E60002600B55C
:1018000001F04AFB043740CF00BDC0465418000029
:101810001000022E2200B84800B5043F3E600600CA
:1018200000F010FA043F3E60222601F035FB00F084
:1018300064FD00BD0AB4043F3E607646013E337845
:101840000121013319405B187146C9188E460ABC44
:101850003CE0C0467C180000100002632200A7484C
:10186000DAE7043F3E607646013E337801210133DA
:1018700019405B187146C9188E467047A8180000B9
:101880001000027322009E48C6E7043F3E60764681
:10189000043F3E60013E36780121731C19405B18FD
:1018A0007146C9188E467047C018000000000563D5
:1018B0006F756E740136043F3E60013E36787047A6
:1018C000E8180000000005637479706501B5307890
:1018D000002807D00136043F3E603678FFF7B0FDA0
:1018E0000138F7D140CF01BD181900000000047481
:1018F00079706500310040CF300040CF00B500293D
:1019000008D00022043F3E60865CFFF799FD01325B
:101910009142F7D100BDC046541900000000046890
:1019200065782E0007B5310040CF20200F22043803
:10193000043F3E600E00C6401640092E01D93736DE
:1019400000E03036FFF77CFD0028F0D1FFF71CFFE8
:1019500007BDC04664190000000003682E731FB560
:10196000684C0EE074190000000003752E731FB55B
:10197000654C06E0F41900000000022E73001FB54C
:10198000624C6349C91B8908624A106803B40A2083
:101990001060FFF74FFF08537461636B3A205B00E0
:1019A000043F3E600E0001F04BFCFFF743FF025D79
:1019B000200003BC574A106000290AD0564A10681C
:1019C00006B4043F3E600600A04706BC043A013955
:1019D000F5D1FFF72FFF0620544F533A2000043F64
:1019E0003E603600A047FFF725FF04202A3E0A008C
:1019F0001FBDC046441A000000000464756D7000ED
:101A000000B5300040CF2021FFF714FF0720647598
:101A10006D703E0A043F3E600600FFF783FFFFF74C
:101A200009FF023A20000288043F3E601600FFF7DB
:101A300079FFFFF7FFFE03203E0A02300139E9D1AA
:101A400000BDC0461C1B0000000005776F72647368
:101A500000B5FFF7EFFE06776F7264730A0000F0BF
:101A600080FE300040CF8179FF2944D0FFF7E2FEAD
:101A700009416464726573733A20043F3E60060056
:101A8000FFF750FFFFF7D6FE064C696E6B3A200059
:101A900002680430043F3E601600FFF743FF0188F0
:101AA0000230FFF7C7FE07466C6167733A20043FB8
:101AB0003E600E00FFF736FF043F3E60060000F078
:101AC0006DFEFFF7B7FE06436F64653A2000043FE2
:101AD0003E600600FFF726FFFFF7ACFE064E616D85
:101AE000653A2000FFF7F2FEFFF7A4FE010A501C42
:101AF00001D01000B7E700BD3418000062180000E4
:101B00008A180000251900002F3200004132000021
:101B10002C020020FC1F002028020020381C00009E
:101B200000001072656769737465726C6974657220
:101B3000616C2C003FB5350040CF2900C900294316
:101B40002D029F480543FF2300223000D0409843D8
:101B500001D00132F9E73000D04018402843043F5B
:101B60003E60060000F091FB964805431800904047
:101B7000864310D000243000E040984301D0013467
:101B8000F9E7101B043F3E600E008001064300F0A1
:101B90007CFB2200DFE7002A06D0043F3E600E00F7
:101BA0009201164300F071FB40CF3FBD1FB53100DD
:101BB00040CF854C0C43C9000C434901300040CF55
:101BC000020EFF231A407E4B0B431343043F3E603B
:101BD0001E0000F05AFB043F3E60260000F055FB5B
:101BE000020CFF231A40794B0B431343043F3E6022
:101BF0001E0000F04AFB043F3E60260000F045FB5B
:101C0000020AFF231A40714B0B431343043F3E600B
:101C10001E0000F03AFB043F3E60260000F035FB5A
:101C20000200FF231A40694B0B431343043F3E60FD
:101C30001E0000F02AFB1FBDA81C00000000056369
:101C4000616C6C2C0FB5330000F04EFE300040CFBD
:101C50001B1A043B5E49194000290ED05D4A91428F
:101C60000BD00136043F3E600026FFF763FF043FC0
:101C70003E60594E00F009FB0FBD40CF5B0857484E
:101C8000574919400843DB0A5649194009040843DB
:101C90009B0A0121194089060843043F3E60060063
:101CA00000F01BFB0FBDC046FC1C00000000086CD0
:101CB00069746572616C2C0008B5043F3E604A4E41
:101CC00000F0E3FA043F3E60484E00F0DEFA484B75
:101CD0003000184098420BD1F643043F3E60062680
:101CE000FFF728FF043F3E60424E00F0CEFA08BDE9
:101CF000043F3E600626FFF71DFF08BD241D0000BF
:101D00000000066372656174650000B500F03FF87D
:101D10001D20000243308047043F3E607646013E6E
:101D200000BDC046801D0000200005646F65733E45
:101D30001D20000243308047043F3E607646013E4E
:101D40007047043F3E607646013E00F0D6F82A4ACE
:101D50001368310040CF0220084000D10231023127
:101D600011600136043F3E600026FFF71FFF043F6D
:101D70003E60194E00F089FA136000F006FA00BDCB
:101D8000001E00000000073C6275696C647300B5BA
:101D900000F07EFB00F0A8FD0220064040CF04D1F9
:101DA000043F3E60362600F070FA043F3E60134E5A
:101DB00000F06BFA043F3E60102600F0D1FA00BD3F
:101DC00000200000001000000002000000300000B1
:101DD0000100C0FF0000C0FF8047000000F800F0D5
:101DE000FF070000FF030000043F00003E6000000A
:101DF0000000FFFFF64300000000002000B50000D7
:101E00000C1E00005000035B275D03E0241E000051
:101E10000000012700B501F035F800F001FD40CFCA
:101E200000BDC046701E0000100008706F73747013
:101E30006F6E650000B501F025F800F0F1FC300090
:101E400040CF1021014010290ED02021014020292F
:101E500005D1FFF731FF043F3E60C04E04E0FFF7BD
:101E60002BFF043F3E60BE4EFFF7ECFE00BDC046B8
:101E7000BC1E0000000007696E6C696E652C00B521
:101E8000B849B94AB94B3088884208D0904208D046
:101E9000984206D0043F3E60060000F0F6F9023694
:101EA000F1E740CF00BD0EB4AF4AB04B018802301D
:101EB000914201D09942F9D10EBC7047D01E00006A
:101EC0000000047265742C00043F3E60A64EDCE105
:101ED000E01E00003000046578697400F4E7C04635
:101EE000181F00003000077265637572736500B5D6
:101EF00000F003F8FFF7A6FE00BD0FB59C48006890
:101F000006300178013101220A4089184018043F47
:101F10003E6006000FBDC046301F00008100057303
:101F200074617465043F3E60924E7047000000008B
:101F3000441F00000000015D8E480021C94301607C
:101F40007047C046541F00001000015B8948002103
:101F5000016070477C1F00000000013A00B5864810
:101F6000076000F095FA043F3E607E4E00F08DF968
:101F700080480021C943016000BDC046C41F000065
:101F80003000013B00B57C480168B9420ED0FFF734
:101F900051FC1520537461636B206E6F7420626175
:101FA0006C616E6365642E0A01F0CAFA043F3E60FC
:101FB0006D4E00F06AF900F0E8F86E48002101600B
:101FC00000BDC046DC1F0000000007657865637532
:101FD0007465300040CF01308746C046F41F0000D2
:101FE000100009696D6D656469617465043F3E6048
:101FF0001026F9E00C200000100006696E6C696E76
:102000006500043F3E602026EEE0C0462820000028
:1020100010000B636F6D70696C656F6E6C79043FB7
:102020003E603026E0E0C0464420000010000A3048
:102030002D666F6C6461626C6500043F3E604026F3
:10204000D2E0C0466020000010000A312D666F6C9F
:102050006461626C6500043F3E604126C4E0C04696
:102060007C20000010000A322D666F6C6461626C87
:102070006500043F3E604226B6E0C046982000005E
:1020800010000A332D666F6C6461626C6500043F5A
:102090003E604326A8E0C046B420000010000A3489
:1020A0002D666F6C6461626C6500043F3E6044267F
:1020B0009AE0C046D020000010000A352D666F6CF3
:1020C0006461626C6500043F3E6045268CE0C0465A
:1020D000EC20000010000A362D666F6C6461626CA3
:1020E0006500043F3E6046267EE0C04608210000B1
:1020F00010000A372D666F6C6461626C6500043FE6
:102100003E60472670E0C0463821000000000863AA
:102110006F6E7374616E740000B500F0B9F9FFF76B
:10212000CBFD043F3E60114E00F0AFF8FFF785FF96
:1021300000F02BF800BDC0467C21000000000932F1
:10214000636F6E7374616E7400B500F0A1F9396845
:102150003E600E46FFF7B0FDE1E700007E1E000086
:10216000441C000000B5000000BD000070470000E6
:1021700004000020D81F002010000020D8210000FB
:10218000000006736D756467650000B5234801683B
:10219000224A91421AD202390A88214B9A4204D12A
:1021A000043F3E60002600F070F800F05CF81D4827
:1021B0000068043F3E6006001B4909680431174A65
:1021C0001368116000F061F8136000BD00F04BF877
:1021D000043F3E60002608E02C2200000000087347
:1021E0006574666C6167730000B50C4801680B4A42
:1021F000914205D20B4801683143016040CF00BDD8
:10220000320040CF0848006804300188044B9942EE
:1022100001D1110000E01143018000BD0000002049
:10222000FFFF00001C000020040000203C220000F2
:10223000000005616C69676E15E0C0465822000019
:10224000410007616C69676E656401203040361893
:1022500002203040361870478022000000000761DD
:102260006C69676E342C00B57F480168022001401C
:1022700004D0043F3E60002600F007F800BDC046D1
:10228000B4220000000002682C000FB576480168F7
:10229000754A914205D2043F3E600E00FEF797FE5C
:1022A00002E0320040CF0A80043F3E60022600F088
:1022B00057F80FBDD02200000000012C00B5043FEC
:1022C0003E60FFF7E2FF360CFFF7DFFF00BDC046C0
:1022D000EC2200000000033E3C2C00B5043F3E60B1
:1022E000360CFFF7D2FFFFF7D0FF00BD54230000EC
:1022F000000007737472696E672C07B5FF213140C7
:1023000040CF300040CF002905D1043F3E60002679
:10231000FFF7BBFF07BD043F3E60067836020E4361
:10232000FFF7B3FF0130013902290AD3043F3E60B1
:102330004678360202781643FFF7A7FF02300239CB
:10234000F2E7002900D107BD043F3E600678FFF7A1
:102350009CFF07BDB0230000000005616C6C6F742A
:1023600041480168404A91420FD2320040CF89185B
:102370003E4A914219D3FFF75DFA0B466C617368D0
:102380002066756C6C0A01F0DBF8320040CF8918CA
:10239000374A1268914208D3FFF74CFA0952616D2F
:1023A0002066756C6C0A01F0CBF801607047C0467E
:1023B000D823000000000D636F6D70696C65746F49
:1023C00072616D3F043F3E60002627480068264941
:1023D000884248D3F6437047F823000000000C639E
:1023E0006F6D70696C65746F72616D001E48006876
:1023F0001D49884211D370478024000000000E63FD
:102400006F6D70696C65746F666C617368001648F7
:1024100000681549884200D270471648164902687C
:102420000B680A6003601048144902680B680A6070
:1024300003600F480068834215D300B5FFF7FAF92F
:1024400023205661726961626C657320636F6C6CE6
:1024500069646520776974682064696374696F6E64
:102460006172790A00BD7047000000200000010081
:10247000200000200400002018000020140000208C
:1024800064250000000008286372656174652900F6
:1024900000B500F0F7FC002E0ED1FFF7CBF91520A8
:1024A000437265617465206E65656473206E616D4D
:1024B0006520210A01F044F83868043F3E60043F7B
:1024C000386000F07BF940CF002E40CF11D0386843
:1024D000043F3E60043F3860FFF7ACF90952656481
:1024E0006566696E6520FFF705FAFFF7A3F9022E0E
:1024F0000A00FFF7B8FE00F0F7F98B4800688A4938
:1025000088421BD2894800210160043F3E600626B4
:10251000FFF726FFFEF72AFAFFF7EFFE844801686F
:102520000A68531C07D1804A13681160043F3E605B
:10253000FFF7C4FE1360066040CF00BD7C48043F37
:102540003E600668FFF7BAFE043F3E600026F64391
:10255000FFF79BFE7648310040CF0160FFF7CDFECC
:1025600000BDC0467C2500000000087661726961EC
:10257000626C6500043F3E60012613E09425000074
:10258000000009327661726961626C65043F3E60E9
:10259000022607E06C2600000000096E7661726971
:1025A00061626C6500B5FFF773FF5F4801685E4AC2
:1025B000914233D20F200640B2005E480168891A6A
:1025C0005D4A91420BD2FFF735F90F4E6F742065CB
:1025D0006E6F7567682052414D0A00F0B1FF0160CF
:1025E000043F3E600E00FFF767FB043F3E60534E22
:1025F000FFF74BFE300040CF0200002805D00E60F0
:102600000431FFF75BFE0138F9D1043F3E608026BC
:102610001643FFF7E9FDFFF7B8FD00BD00F064F9D0
:102620000220064040CF04D1043F3E603626FFF72B
:102630002CFE043F3E60424EFFF74FFE043F3E60DB
:10264000404EFFF74AFE043F3E603C4EFFF71DFE42
:10265000300040CF002803D0FFF730FE0138FBD117
:10266000FFF7EBFCFFF791FD00BDC0464C270000D3
:102670000000076275666665723A00B5FFF708FFED
:1026800001203040361802203040361826480168B4
:10269000254A914226D227480168891B264A914241
:1026A0000BD2FFF7C7F80F4E6F7420656E6F75671A
:1026B000682052414D0A00F043FF0160043F3E6034
:1026C0000E00FFF7F9FA043F3E601C4EFFF7DDFDF8
:1026D000FFF7F4FD043F3E601B4EFFF785FDFFF75B
:1026E00054FD00BD00F000F90220064040CF04D1A7
:1026F000043F3E603626FFF7C8FD043F3E60104EA3
:10270000FFF7EBFD043F3E600E4EFFF7E6FD043F92
:102710003E600A4EFFF7B9FDFFF722FEFFF78DFC82
:10272000FFF733FD00BD0000000000201C0000206A
:1027300004000020200000202C030020704700002F
:102740003E60043F02367E46400100007C270000C8
:1027500000000F44696374696F6E6172797374610C
:10276000727435480068354B1B683349043F3E603E
:10277000884201D2324E70471E007047B0270000D9
:1027800000000A736B6970737472696E6700317848
:10279000013101220A4089187618704706B4017881
:1027A000013101220A408918401806BC7047C04612
:1027B0004828000000000466696E64003FB53500DB
:1027C00040CF3400FFF7CDFF300040CF002600237C
:1027D0008179FF2920D081881A4A9142026817D056
:1027E0000630043F3E600600FFF764F8043F3E6099
:1027F0002600043F3E602E00FEF78BFF002E40CFE8
:1028000006D0FFF7CBFF06000B000B48864203D231
:10281000501C01D01000DBE7043F3E601E003FBDAE
:1028200000B531003868FFF7C9FF3A68002A01D1C6
:1028300000F07AFD00BD0000000000200400002030
:10284000A4000000FFFF0000A428000000000663B1
:102850006A756D702C00320040CF310040CF8B1B69
:10286000043BA249194000290DD0A14881420AD059
:10287000FEF7E0FF0D4A756D7020746F6F20666182
:10288000720A00F05DFE5B10FF210B401343300025
:102890001E0000B5974A13681060FFF7F6FC13603E
:1028A00000BDC046DC2800000000056A756D702C74
:1028B000310040CF300040CF0B1A043B8E49194005
:1028C000002902D08D4A9142D2D15B108C4A13402C
:1028D0008C4A1343043F3E601E00DAE7F4280000F0
:1028E0000000046865726500043F3E60814E3668F2
:1028F0007047C046E429000000000D666C617368F3
:102900007661722D68657265043F3E607E4E366862
:10291000704700B5043F3E607C4EFFF7B6FC043FB5
:102920003E607B4EFFF7B1FC00BDDDE700B500F077
:1029300037F839683E600E46043F3E60754EFFF73B
:102940008AFF00BD00B500F02BF839683E600E46E6
:10295000043F3E60704EFFF77EFF00BD00B5FFF7FD
:10296000D8FF00F01DF839683E600E46043F3E6017
:102970006A4EFFF770FF00BD00B500F011F839682E
:102980003E600E46FFF794FF00BD00B5FFF7C1FFA4
:10299000FFF7AAFF043F3E600226FFF7E1FC00BDFF
:1029A00000B5FFF7A1FF043F3E600226FFF7D8FC09
:1029B00000BD00B5FFF798FFFFF77AFF00BD00B537
:1029C000FFF792FF043F3E60544EFFF744FF00BD07
:1029D00000B5FFF789FF043F3E604E4EFFF73BFF17
:1029E00000BDC046202A00003000047468656E00F7
:1029F000052E01D140CFDCE7022E01D140CFDEE72A
:102A0000FEF718FF1753747275637475726573203F
:102A1000646F6E2774206D617463680A00F090FD26
:102A20004C2A0000300004656C73650000B5022E6E
:102A3000E6D140CFFFF7B4FF39683E600E46FFF79E
:102A4000BEFF043F3E60052600BDC046642A00006C
:102A500030000269660000B5FFF797FF043F3E6053
:102A6000022600BD8C2A0000300006726570656188
:102A70007400042EC4D140CF39683E600E4600B5C4
:102A8000FFF77AFFFFF79BFF00BDC046A82A0000B2
:102A90003000057768696C65012EB1D140CF00B573
:102AA000FFF7D9FF023600BDBC2A000030000575D3
:102AB0006E74696C012EA3D140CF4FE7D02A00007D
:102AC000300005616761696E012E99D140CF53E7EF
:102AD000202B0000300005626567696E00B5FFF7C6
:102AE00024FF043F3E60012600BD000001FFFFFF00
:102AF00000FFFFFF0000002001F8FFFF00F8FFFFCC
:102B0000FF07000000E0000020000020002E000071
:102B100040CF000000D1000000D7000000D000002E
:102B2000302B00002000016B043F3E60029E704786
:102B3000402B00002000016A043F3E60009E704769
:102B4000502B000020000169043F3E6026007047C2
:102B5000902B00003000056C6561766500B5674814
:102B600001683B00043F1A68043B1A6004330433D5
:102B70008B42F8D103B4FFF713FF03BC330040CFFF
:102B800004390B60016004390A6801320A6000BD33
:102B9000A42B0000200006756E6C6F6F700030BCB7
:102BA0007047C046DC2B00003000052B6C6F6F7047
:102BB000032E00D024E740CF00B5043F3E60504EC6
:102BC000FFF75DF9FFF7BEFE1AE08020000600194E
:102BD000A419401B801940CF7047C046202C00002C
:102BE0003000046C6F6F7000032E00D008E740CFF8
:102BF00000B5043F3E60434EFFF741F9FFF796FEF4
:102C000000F01CF93D48310040CF0160043F3E60B8
:102C10003D4EFFF734F900BD0134AC427047C04669
:102C2000682C0000780002646F0000B5043F3E602D
:102C3000364EFFF724F931480168043F3E600E002C
:102C4000043F3E6000260760FFF76FFE043F3E60D2
:102C5000032600BD00B500F02EF8ECE730B43400D8
:102C600040CF350040CF70471C2D00007800033F57
:102C7000646F00B5043F3E60244EFFF700F9043F47
:102C80003E60234EFFF701FB1C480168043F3E6095
:102C90000E00FFF785FE0136043F3E60012617480F
:102CA0000760FFF742FE043F3E60032600BD00B50B
:102CB00000F001F8E3E700B5043F3E60154EFFF772
:102CC000E4FA043F3E600426FEF734FF013B08D0DF
:102CD000043F3E600526FEF72DFF013B00F00AFC95
:102CE00000BD043F3E603526FFF7CFFA043F3E604B
:102CF000094EFFF7CAFA00F0FDFB00BD0C000020F2
:102D0000CA2B0000182C00009E2B00005C2C000039
:102D1000AC42000030B4000040CF0000382D00006D
:102D20003000046361736500043F3E600026043F89
:102D30003E6008267047C046502D00003000033F1B
:102D40006F6648480AE0013EB64140CF7047C04632
:102D5000DC2D00007800026F66004348082E00D08A
:102D60004EE640CF00B5043F3E600600FFF787F80F
:102D7000FFF716FE39683E600E460136043F3E609E
:102D80000926043F3E60394EFFF77FFA00BD00B5CB
:102D9000300040CF013B01B400F0ACFB01BC082E79
:102DA00000D02DE640CF043F3E600600FF213140B9
:102DB000B14204D12E490E43FFF767FAD8E7043F2A
:102DC0003E600026FEF7B6FE043F3E60294EFFF748
:102DD0005CFACDE7300040CFB0427047142E0000BF
:102DE000300005656E646F66092E00D008E640CF9E
:102DF00000B540B440CFFFF7D3FD39683E600E46C2
:102E0000FFF7E6FD043F3E6040BC043F3E600826FD
:102E100000BDC046782E0000300007656E64636117
:102E20007365082E00D0EBE540CF00B5043F3E604F
:102E30000E4EFFF72AFA00F001F800BD00B5300091
:102E400040CF00280DD003B401213140002903D028
:102E5000013EFFF7B4FD01E0FFF7ABFD03BC013815
:102E6000EFE700BD462D0000D42D000040CF00004C
:102E7000002E0000B04200008C2E000000000574FF
:102E80006F6B656E043F3E60202605E0E82E000073
:102E9000000005706172736510B5FEF70EFC31001D
:102EA00040CF300040CF0F4A12688418202E07D13F
:102EB00091420FD0835CB34202D101328418F7E70C
:102EC000914207D0835C0132B342F9D18618361B98
:102ED000013E01E08618361B043F3C600148026059
:102EE00010BD0000E41F0020282F00000000056432
:102EF00069676974D44B1B68303E0BD30A2E0BD321
:102F0000073E0A2E06D3242E06D3203E0A2E01D3D6
:102F1000242E01D3002670479E42FBD2043F3E6020
:102F20000026F6437047C046343000000000066EAD
:102F3000756D626572003FB5310040CF701E01268D
:102F4000012204B4C04B1B680024002500293CD09A
:102F50000130013902782D2A04D101B00022D24378
:102F600004B4F3E7232A01D10A23EFE7242A01D18D
:102F70001023EBE7252A01D10223E7E72E2A01D10E
:102F80000226E3E72C2A36D0043F3E601600FFF706
:102F9000B3FF002E40CF2BD0043F3E602600043FFD
:102FA0003E602E00043F3E601E00043F3E6000264F
:102FB0000FB4FDF7D8F90FBC350040CF340040CF37
:102FC0000022A419554140CFC0E704BC002A04D513
:102FD0000022E443ED430134554133002600012B28
:102FE00002D0043F3E602E00043F3E601E003FBD05
:102FF00001B000263FBD2500002402260029E4D0B0
:10300000425C01392E2AF9D0043F3E601600FFF7DA
:1030100073FF002E40CFEBD0043F3C60043F3E6086
:103020001E000FB4FDF753FA0FBC340040CF40CF61
:10303000E4E7C046583000000000062E6469676966
:1030400074000A2E01D2303604E0242E01D2373625
:1030500000E023267047C04690300000000004685E
:103060006F6C6400330040CF784801783F290DD25F
:10307000013101704018012907D001380278013070
:103080000270013801390129F7D103707047C04639
:10309000B0300000000005686F6C643C330040CF26
:1030A0006A4801783F2902D20131017043547047C8
:1030B000C83000000000047369676E00002E01D460
:1030C00040CF70472D26CDE7DC3000000000022302
:1030D0003E005E480678013038607047F4300000EA
:1030E00000000366235310B5202400F008F8013CCB
:1030F000FBD110BD1831000000000266230000B5AE
:10310000043F3E60504E3668FDF7FFF8FFF799FF29
:10311000FFF7C4FF00BDC0463431000000000223A9
:10312000530000B500F00AF8002EFBD138680028E3
:10313000F8D100BD603100000000012300B5043F5C
:103140003E60414E3668043F3E600026FDF71FFAA0
:10315000FCF7D8FF40CFFFF774FFFFF783FF00BDF8
:10316000743100000000023C230038480021017047
:103170007047C04688310000000002662E00043F00
:103180003E60202605E0C046D831000000000366FE
:103190002E6E00B510B4340040CFFDF7CFFBFDF725
:1031A0006BF8043F3E600026FFF7DFFFFFF7B9FF33
:1031B00040CF2C26FFF772FF002C03D0FFF79FFFB4
:1031C000013CFBD110BC40CFFFF778FF043F3E60CD
:1031D000043F3E601EE0C046F03100000000037571
:1031E000642E00B5FFF7C1FFFFF79BFF12E0C0465A
:1031F00024320000000002642E0000B5FDF79EFBA3
:10320000FDF73AF8FFF7B1FFFFF78BFFFDF7A1FBE2
:10321000FFF754FFFFF75DFFFEF76CFBFEF7B4FA14
:1032200000BDC04638320000000002752E00043F89
:103230003E600026D5E7C046503200000000012E57
:10324000043F3E60F617D8E7FC1F00202400002052
:10325000983200000000086576616C756174650045
:1032600000B5FEF72AFA01CF01B440B440CFC348FD
:10327000016802B400210160FEF712FA00F014F8B0
:10328000BE4802BC0160043F3E6040BC01BC043F3C
:103290003860FEF705FA00BD183500000000096926
:1032A0006E7465727072657430B5B54887420BD91B
:1032B000FEF7C0FA10537461636B20756E6465721B
:1032C000666C6F770A003BE1AE4887420AD2FEF790
:1032D000B1FA0F537461636B206F766572666C6F21
:1032E000770A2DE1A84C2568002D01D13D0025600D
:1032F000FFF7C8FD002E02D1043740CF30BD38683B
:10330000043F3E60043F3860FFF758FA310040CF79
:10331000320040CF002A13D138683100FFF70BFE8E
:10332000320040CF002AC0D1FEF7E8FAFEF782FA59
:103330000C206E6F7420666F756E642E0A00FFE0BD
:10334000924B1B68002B1DD10025256030230B40BC
:10335000302B0ED1FEF7CEFAFEF76CFA122069730D
:1033600020636F6D70696C652D6F6E6C792E0A002D
:10337000E6E0043740CF043F3E601600FEF729FE2A
:10338000FFF793FF043740CF80200840802810D0FB
:10339000EB1B9B0840200840402810D10820084023
:1033A000082802D1002B00D01FE00F2008408342E4
:1033B00005D3043F3E601600FEF70BFE75E700F0F4
:1033C00099F8043F3E60160010220A40102A02D1EC
:1033D000FEF7FFFD69E720220A40202A02D1FEF70E
:1033E0004EFD62E7FEF72EFC5FE70720014010006C
:1033F000FEF759FD012915D1012BDAD1FF2131400A
:10340000B14204D140880643FEF73FFF4DE7043F39
:103410003E600026FEF78EFB043F3E600688FEF706
:1034200034FF42E7022902D1012BC2D1EFE7032981
:103430001CD1012BBDD1FF213140B1420AD15449E9
:103440000E43FEF722FF0432043F3E601600FEF7F3
:1034500016FD2AE7043F3E600026FEF76BFB0232B2
:10346000043F3E601600FEF70AFD1EE7042918D14E
:10347000012B9ED1330040CF002B00D115E71F2236
:103480001A409A4205D0043F3E604688FEF7FDFE92
:103490000BE7043F3E6006889B011E43FEF7F5FEE6
:1034A00003E7052923D1012B0FD1043F3E600026FD
:1034B000FEF740FB043F3E600600FEF7E0FC043FE1
:1034C0003E60344EFEF7E1FEEFE6043F3E6000262C
:1034D000FEF730FB043F3E600126FEF72BFBFEF7B4
:1034E000E2FC043F3E600600FEF7C9FCDDE6013069
:1034F0008047DAE600B5002B0BD0013B043F3E606D
:103500009E00BE59FEF7D8FB002BF6D1043D2F00DC
:1035100040CF0025256000BD3435000081000968DA
:103520006F6F6B2D71756974043F3E601A4E704762
:1035300068350000AC350000000004717569740046
:10354000164885460E4F16480A2101600F48002193
:1035500001600D480160094801601248016012498C
:1035600041600D4800688746FEF7B6F8FFF79CFEFD
:10357000FEF760F905206F6B2E0AF5E7E41F0020C7
:103580002C0200202C01002008000020D81F002061
:10359000003E000040CF0000D41F00202C0300207C
:1035A000FC1F0020DC1F002064000020BC35000050
:1035B00020000465696E740062B67047CC35000067
:1035C00020000464696E740072B67047D83500003C
:1035D0000000036E6F707047FC35000081000B69BE
:1035E00072712D7379737469636B043F3E60A24EF0
:1035F0007047D6350000A048006887462036000096
:103600008100096972712D6661756C74043F3E60BA
:103610009A4E704784000000984800688746C0466C
:103620004436000081000B6972712D657874693031
:103630005F31043F3E60924E7047D635000090489F
:10364000006887466836000081000B6972712D653D
:10365000787469325F33043F3E608A4E7047D635D6
:1036600000008848006887469036000081000C6999
:1036700072712D65787469345F313500043F3E60A6
:10368000814E7047D63500007F4800688746C046A7
:10369000B03600008100076972712D616463043FD8
:1036A0003E607A4E7047D6350000784800688746FD
:1036B000D436000081000B6972712D74696D315F21
:1036C0007570043F3E60724E7047D63500007048FA
:1036D00000688746F836000081000B6972712D740E
:1036E000696D315F6363043F3E606A4E7047D63553
:1036F00000006848006887461C37000081000869A0
:1037000072712D74696D3200043F3E60624E7047E5
:10371000D6350000604800688746C0464037000044
:103720008100086972712D74696D3300043F3E6039
:103730005A4E7047D6350000584800688746C04644
:1037400000400000FFFF182D2D2D20466C6173688E
:103750002044696374696F6E617279202D2D2D008C
:10376000FDF70AFE4E4885464E4F2A264E484C49E4
:1037700001604E484E4901604D484E4D04000268BC
:103780000430018802304C4B994222D04B4B0B4005
:1037900009D0FFF703F8FEF786FB03884088000492
:1037A0000343ED1A15E080230B4012D00F2319407C
:1037B00089006D1AFEF7F2FFFEF775FB043F3E60CD
:1037C0000600043F3E602E00043F3E600E00FDF701
:1037D00063FA501C05D0100006321278FF2A00D080
:1037E000CCE7374804603748056037483749324AE4
:1037F000884204D0023803889342F9D00230344919
:103800000860FEF717F8444D6563726973702D53B5
:1038100074656C6C6172697320322E302E312077A2
:10382000697468204D3020636F726520666F722066
:1038300053544D333246303531206279204D617416
:103840007468696173204B6F63680A002148002126
:103850000160043F3E60204E043F3E600426FEF7B8
:10386000ADFF40CF002E02D0FEF7B3FB79E640CF8C
:1038700066E6696E69740000D01F0020CC1F00202E
:10388000C81F0020C41F0020C01F0020BC1F002034
:10389000B81F0020B41F0020B01F0020AC1F002064
:1038A0002C0300202C020020000000200400002037
:1038B000A400000000200020FFFF00000001000025
:1038C000180000202000002000000100004000003F
:0C38D000140000200800002072380000E6
:0400000508000000EF
:00000001FF
