:100000002C83FF1F073E0000D13B0000D13B0000C6
:10001000D13B0000D13B0000D13B000000000000BC
:10002000000000000000000000000000D13B0000C4
:10003000D13B000000000000D13B0000A93B0000C4
:10004000D13B0000D13B0000D13B0000D13B000080
:10005000D13B0000D13B0000D13B0000D13B000070
:10006000D13B0000D13B0000D13B0000D13B000060
:10007000D13B0000D13B0000D13B0000D13B000050
:10008000D13B000000000000D13B0000D13B00004C
:10009000D13B0000D13B0000D13B0000000000003C
:1000A000D13B0000D13B0000D13B0000D13B000020
:1000B00000000000D13B0000D13B0000D13B00001C
:1000C000D13B0000D13B0000D13B0000D13B000000
:1000D000D13B000000000000000000000000000014
:1000E0000000000000000000000000000000000010
:1000F000D13B0000B13D0000DB3D0000D13B0000E2
:10010000D13B0000D13B0000D13B000000000000CB
:1001100000000000000000000000000000000000DF
:1001200000000000F93B0000213C0000493C0000B9
:10013000713C0000993C0000D13B0000D13B000025
:10014000D13B0000D13B0000D13B0000D13B00007F
:10015000D13B0000D13B0000D13B0000D13B00006F
:10016000D13B0000D13B0000D13B0000000000006B
:10017000000000000000000000000000000000007F
:1001800000000000BF3C000000000000D13B000068
:10019000D13B0000D13B0000D13B0000E73C000018
:1001A0000F3D0000373D00005F3D0000873D00002F
:1001B0000000000000000000D13B0000FFFFFFFF37
:1001C000FFFFFFFFFFFFFFFFFFFFFFFFFFFFFFFF3F
:1001D000FFFFFFFFFFFFFFFFFFFFFFFFFFFFFFFF2F
:1001E000FFFFFFFFFFFFFFFFFFFFFFFFFFFFFFFF1F
:1001F000FFFFFFFFFFFFFFFFFFFFFFFFFFFFFFFF0F
:10040000FFFFFFFFFFFFFFFFFFFFFFFF00000000F8
:1004100000B501F077FC16556E68616E646C65641A
:1004200020496E7465727275707420210A0000BDD7
:1004300056040000FFFF1E2D2D2D204D65637269AF
:1004400073702D5374656C6C6172697320436F72A5
:1004500065202D2D2D006E040000420004326475CD
:100460007000386847F8046D043F386070478004B6
:1004700000006200053264726F70043740CF70472D
:100480009E040000440005327377617007CF043F7B
:10049000386047F8046D043F3A600E007047B204BC
:1004A0000000620004326E69700007CF043F3860BC
:1004B0007047CC040000440005326F766572B8685E
:1004C00047F8046D043F3860FE687047F004000090
:1004D000440005327475636B07CF043F386047F8FA
:1004E000046D043F3A60043F3960043F3860704750
:1004F0001205000046000432726F74003868B96853
:100500003A69B86039613A6079687E60FE68F9607E
:10051000704734050000460005322D726F7438684C
:10052000B9683A6938613960BA60F968FE607E6816
:100530007960704748050000200003323E7201CF09
:1005400001B440B440CF7047600500002000033282
:10055000723E47F8046D40BC01BC043F38607047F0
:100560007805000020000332724047F8046D019EB8
:1005700047F8046D009E70478A050000200006328F
:100580007264726F700002B07047A20500004200F2
:100590000364322F3868F10776104008084338604A
:1005A0007047B605000062000364322A38680018FC
:1005B000764138607047D0050000420004647368DB
:1005C00072003868F10776084008084338607047C1
:1005D000E60500006200046473686C003868001867
:1005E000764138607047F80500004200046461629B
:1005F0007300002E14D47047120600004300083F19
:10060000646E656761746500300040CF002807D4D0
:10061000704730060000420007646E6567617465CC
:1006200038680021C043F64301304E4138607047BE
:1006300048060000640002642D0007CF121AB14181
:100640000E00043F3A6070475E06000064000264DA
:100650002B0007CF12184E41043F3A6070477006D6
:100660000000610003733E6447F8046DF61770479D
:1006700084060000620003756D2A3868A0FB060638
:1006800038607047980600006200026D2A003868E2
:1006900080FB060638607047D606000044000375EC
:1006A000642A07CF564341437618010C130C594373
:1006B0007618010C80B292B251434343504300225A
:1006C000C91852411204B6180A04090C80184E4188
:1006D000043F386070476807000044000475646D8B
:1006E0002A0010B5002447F8046D7E6847F8046DB1
:1006F0003E69FFF7C2FF310040CF300040CF47F8DE
:10070000046D3E6847F8046DFE6803B4FFF7B5FF5B
:1007100003BC330040CF320040CF47F8046D3E6841
:1007200047F8046D3E690FB4FFF7A7FF0FBC92199D
:10073000634140CF89196241634140CF47F8046D5E
:100740007E6847F8046DFE680FB4FFF796FF0FBC94
:100750009219634140CF89196241634140CF1E0025
:100760003A607960B86010BD8A0700004300022A31
:100770002F0000B540B440CFFFF789FF47F8046D64
:1007800040BC00F062F8043700BDAC070000430035
:10079000052A2F6D6F6400B540B440CFFFF777FF97
:1007A00047F8046D40BC00F050F800BDCE070000D3
:1007B000430003752A2F00B540B440CFFFF75DFF1B
:1007C00047F8046D40BC00F01BF8043700BDF20789
:1007D0000000430006752A2F6D6F640000B540B419
:1007E00040CFFFF74AFF47F8046D40BC00F008F81F
:1007F00000BD3E080000430006756D2F6D6F64005C
:1008000010B478683968002200242023640000189E
:1008100049415241964201D8921B0134013BF5D126
:100820002023640049185241964201D8921B01349A
:10083000013BF6D104373A60260010BC7047B2087D
:1008400000004300056D2F6D6F6400B5F01718D0E0
:10085000764200F019FAF0170DD0FFF7E1FE00F034
:1008600007FAFFF7CDFF39683E600E4676423968D9
:100870003E600E4600BD00F0FBF9FFF7C1FF764277
:1008800000BD00F001FAF0170ED0FFF7C9FE00F02E
:10089000EFF9FFF7B5FF764239683E600E467642C3
:1008A00039683E600E4600BD00F0E2F9FFF7A8FF90
:1008B00000BD0E09000044000675642F6D6F6400D2
:1008C00030B43C68B86879680022002520236D00A8
:1008D000001849415241944201D8121B0135013B95
:1008E000F5D120B4002520206D00491852415B410C
:1008F0009E4204D8944202D8121BB34101350138FC
:10090000F2D13D60BA607B6040BC30BC7047840966
:100910000000440005642F6D6F6400B5F01719D016
:10092000FFF77EFEFFF7B2FDF0170CD0FFF778FE61
:10093000FFF7ACFDFFF7C4FFFFF7A8FDFFF770FE60
:10094000FFF7A4FD00BDFFF7A1FDFFF7B9FFFFF71B
:1009500067FE00BDFFF79AFDF0170ED0FFF760FEAF
:10096000FFF794FDFFF7ACFFFFF75AFEFFF78EFD90
:10097000FFF756FEFFF78AFD00BDFFF787FDFFF783
:100980009FFF00BD9A090000440002642F0000B5DB
:10099000FFF7C3FFFFF789FD00BD320A00004400E6
:1009A00002662A0000B5F0170DD0FFF739FEFFF7F9
:1009B0006DFDF0170DD0FFF733FEFFF792FE40CF2D
:1009C00001CF386000BDFFF761FDF017F5D0FFF7EC
:1009D00027FEFFF786FE40CF01CF3860FFF720FEED
:1009E00000BD30B43C68B9687A6800230025202037
:1009F0006D00491852415B419E4204D8944202D88E
:100A0000121BB34101350138F2D1290020206D00BD
:100A100092185B419E4204D8944202D8121BB34103
:100A200001350138F3D13D60BA607B600E0030BC07
:100A300070477E0A0000440002662F0000B5F017E0
:100A40000ED0FFF7EDFDFFF721FDF0170ED0FFF7F9
:100A5000E7FDFFF71BFDFFF7C4FFFFF726FD00BD15
:100A6000FFF714FDF017F4D0FFF7DAFDFFF70EFDE6
:100A7000FFF7B7FFFFF7D4FDFFF717FD00BD920AA0
:100A8000000020000232210006CF3160726040CFAA
:100A90007047A60A0000200002324000043F706840
:100AA000386036687047C60A000044000364753C2D
:100AB00007CF8E4204D801D1904201D8002670475A
:100AC0000026F6437047E60A000044000364753EC2
:100AD00007CFB14204D801D1824201D80026704725
:100AE0000026F6437047060B0000440002643C00F9
:100AF00007CF8E4204DC01D1904201DC0026704712
:100B00000026F6437047260B0000440002643E00B6
:100B100007CFB14204DC01D1824201DC00267047DC
:100B20000026F6437047360B000062000364303C39
:100B30000437F6177047500B000042000364303D45
:100B400001CF002801D000267047013EB641704712
:100B50006A0B0000440003643C3E07CF904201D181
:100B6000761A01D00026F6437047860B0000440039
:100B700002643D0007CF904201D000267047761AEC
:100B8000013EB6417047980B00002000037370408F
:100B900047F8046D3E007047A80B00002000037367
:100BA0007021370040CF7047BA0B0000200003725D
:100BB000704047F8046D6E467047CA0B0000200075
:100BC00003727021B54640CF7047E40B000000006F
:100BD000056465707468E549C91B890847F8046DA8
:100BE0000E007047F40B000061000364757047F855
:100BF000046D7047040C000061000464726F7000A3
:100C000040CF70471A0C00006100043F647570000B
:100C1000002E01D047F8046D70472E0C00006200D2
:100C200004737761700039683E600E0070473C0CB9
:100C300000006200036E697004377047500C0000BA
:100C40006200046F7665720047F8046D7E68704735
:100C5000660C00006200047475636B0001CF083FEE
:100C60007E60386070477C0C0000630003726F7414
:100C700003CF083F78603E600E007047940C000080
:100C80006300042D726F740003CF083F7E603960EB
:100C900006007047A60C00002000047069636B001A
:100CA00057F826607047B60C00002000023E720024
:100CB00040B440CF7047C80C0000200002723E00D4
:100CC00047F8046D40BC7047DA0C00002000027247
:100CD000400047F8046D009E7047EA0C00002000B9
:100CE000057264726F7001B07047000D0000600003
:100CF00004747275650047F8046D0026F64370476A
:100D0000140D000060000566616C736547F8046DA2
:100D1000002670472A0D00006E0003616E6401CF4B
:100D2000064070470640000616F0420D00006E00B7
:100D30000362696301CFB043060070478643000633
:100D400036F0580D00006E00026F720001CF0643AE
:100D500070470643000656F06E0D00006E000378E3
:100D60006F7201CF464070474640000696F07C0DFA
:100D700000006100036E6F74F64370478C0D000035
:100D8000610003636C7AB6FA86F670479A0D00002C
:100D900061000373687276087047A80D0000610057
:100DA0000373686C76007047B80D00006100037231
:100DB0006F725FEA76067047CA0D00006100037229
:100DC0006F6CB61956F100067047E40D00006C0018
:100DD000067273686966740001CFF04006007047C0
:100DE00036080026FE0D00006C000761727368690A
:100DF000667401CF3041060070473610F617180EA2
:100E000000006C00066C73686966740001CFB04026
:100E10000600704736000026280E000061000230F0
:100E20003D00013EB64170473A0E000061000330BC
:100E30003C3E013EB641F6437047480E000061005B
:100E400002303C00F6177047600E00004200023E80
:100E50003D0001CFB042B4BF00264FF0FF367047CF
:100E6000780E00004200023C3D0001CFB042CCBFF2
:100E700000264FF0FF3670478E0E00004200013C06
:100E800001CFB042B4BF4FF0FF3600267047A40E2A
:100E900000004200013E01CFB042CCBF4FF0FF3610
:100EA00000267047B80E0000620003753E3D01CF7A
:100EB000861BB641F6437047CC0E000062000375F6
:100EC0003C3D01CF361AB641F6437047DE0E0000B6
:100ED000620002753C0001CF861BB6417047F00EE0
:100EE0000000620002753E0001CF361AB64170471D
:100EF000060F00006B00023C3E0001CF361A18BFFF
:100F00004FF0FF367047180F00006B00013D01CF16
:100F1000361A013EB64170472C0F00006200036D87
:100F2000696E01CFB042B8BF06467047400F00005F
:100F30006200036D617801CFB042C8BF06467047BA
:100F4000560F0000620004756D61780001CFB04259
:100F500088BF06467047700F0000620004756D6917
:100F60006E0001CFB04238BF064670472C82FF1F8B
:100F7000AE0F00000000046D6F76650007B531000C
:100F800040CF320040CF00290FD0B2420DD006D35F
:100F9000013E013A705C50540139FBD105E03078D4
:100FA0001070013601320139F9D140CF07BDD00FA1
:100FB000000000000466696C6C00300040CF310016
:100FC00040CF002902D001397054FCD140CF704786
:100FD000DC0F00002000014036687047F40F00006D
:100FE0006D00012103CF30600E007047066070472E
:100FF000016070471A1000006D00022B210003CF22
:101000003268121832600E0070470268921902604E
:1010100070470268521802607047281000002000D4
:101020000268400036887047421000006D00026878
:10103000210003CF30800E0070470680704701808A
:101040007047681000006D0003682B2103CF3288C1
:10105000121832800E007047028892190280704781
:101060000288521802807047761000002000026348
:10107000400036787047901000006D000263210038
:1010800003CF30700E0070470670704701707047D4
:10109000B61000006D0003632B2103CF32781218C5
:1010A00032700E0070470278921902707047027811
:1010B000521802707047DE1000006D000462697300
:1010C000210003CF3268024332600E00704702688D
:1010D00032430260704702680A430260704706119B
:1010E00000006D0004626963210003CF326882430F
:1010F00032600E0070470268B243026070470268B7
:101100008A43026070472E1100006D0004786F72F0
:10111000210003CF3268424032600E0070470268FF
:1011200072400260704702684A400260704748118E
:101130000000200004626974400001CF3668064058
:1011400018BF4FF0FF367047701100006D00056842
:101150006269732103CF3288024332800E007047E8
:10116000028832430280704702880A430280704737
:10117000981100006D0005686269632103CF328811
:10118000824332800E0070470288B243028070476B
:1011900002888A4302807047C01100006D00056814
:1011A000786F722103CF3288424032800E00704740
:1011B000028872400280704702884A40028070476D
:1011C000DA110000200005686269744001CF36889A
:1011D000064018BF4FF0FF367047021200006D0046
:1011E00005636269732103CF3278024332700E00C7
:1011F0007047027832430270704702780A430270E7
:1012000070472A1200006D0005636269632103CFF5
:101210003278824332700E0070470278B243027017
:10122000704702788A4302707047521200006D00C6
:101230000563786F722103CF3278424032700E001E
:101240007047027872400270704702784A4002701C
:1012500070476C120000200005636269744001CF82
:101260003678064018BF4FF0FF3670477C120000FA
:1012700061000563656C6C2B043670478C120000AE
:1012800061000563656C6C73B60070479C130000C9
:10129000000006666C6173682100300040CF3100A9
:1012A00040CF854B984268D3844B99422ED003227D
:1012B00002402CD102689A4246D1814A137880229A
:1012C0001A40FAD030221A4002D07D4A30231370DF
:1012D0007C4A062313707C4A1070000A7B4A107007
:1012E000000A7B4A10707B4A1170090A7A4A117011
:1012F000090A7A4A1170090A794A1170704A8023E2
:1013000013706F4A137880221A40FAD0704700F0A9
:10131000F9FC3041646472657373206861732074F2
:101320006F20626520342D616C69676E656420668C
:101330006F722077726974696E6720666C6173687A
:1013400020210A0002F0C7BB00F0DCFC29466C61DA
:101350007368206C6F636174696F6E2063616E6E79
:101360006F74206265207772697474656E2074777B
:1013700069636520210A02F0AEBB00F0C3FC19438B
:10138000616E6E6F7420777269746520696E746F18
:1013900020636F726520210A02F09DBB1E140000BD
:1013A00000000E666C6173687061676565726173D9
:1013B00065000FB5300040CF3F4B984220D3032348
:1013C00098433F4A137880221A40FAD030221A40BC
:1013D00002D03B4A302313703A4A092313703A4A29
:1013E0001070000A394A1070000A394A1070344AE5
:1013F00080231370324A137880221A40FAD00FBD2E
:1014000000F080FC1443616E6E6F7420657261732E
:101410006520636F726520210A0002F05CBB9A149C
:10142000000000000A6572617365666C6173680094
:10143000214872B62B492C4A036893421CD047F8C6
:10144000046D060047F8046D00F05CFC1045726105
:10145000736520626C6F636B20617420200000F064
:10146000C4FC00F04FFC0C2066726F6D20466C616E
:1014700073680A00FFF79DFF04308842DCD100F05A
:1014800041FC1246696E69736865642E205265736B
:10149000657420210A0002F0C4FCA01500000000C1
:1014A0000E6572617365666C61736866726F6D005C
:1014B000300040CFBDE7000000400000FFFFFFFF0D
:1014C0000000024007000240040002400500024004
:1014D0000600024008000240090002400A000240E3
:1014E0000B00024000000400FFFFFFFF6248602184
:1014F0000022028002300139FBD170475E48602132
:101500000288002A18D000F0FDFB28556E70616932
:101510007265642031362D62697420466C6173688F
:10152000207772697465206C65667420616C6F6EDB
:10153000652E0A0002F0CFBA02300139E0D17047BF
:101540004D482021028843881B041A43B24225D00B
:1015500006300139F6D100F0D5FB3C446573697261
:101560006564206C6F636174696F6E206E6F7420A8
:10157000666F756E6420696E20466C6173682077B3
:101580007269746520636F6C6C656374696F6E203B
:101590007461626C652E0A0002F09DBA86887047FD
:1015A0007C16000000000768666C6173682130B526
:1015B000320040CF0120104013D000F0A3FB1E6882
:1015C000666C61736821206E65656473206576655D
:1015D0006E206164647265737365732E0A0002F095
:1015E0007ABA0223534024482021048845882D04D8
:1015F0002C439C422BD006300139F6D11E482021C5
:10160000048845882D042C43002C1AD0063001395B
:10161000F6D100F077FB27546F6F206D616E792053
:10162000756E7061697265642031362D626974204F
:10163000466C617368207772697465732E0A02F0D4
:101640004ABA0280120C4280868040CF30BD02210F
:10165000114003D0023A8188360401E081880904F0
:101660000E4347F8046D16000021018041808180FF
:10167000FFF713FE30BD00002C83FF1F9216000001
:101680006900012B01CF3618704736180036000666
:1016900016F1A81600006900012D01CF861B7047C6
:1016A000361A003E0006B6F1B6160000610002319F
:1016B0002D00013E7047C4160000610002312B006E
:1016C00001367047D2160000610002322D00023E42
:1016D0007047E0160000610002322B0002367047AE
:1016E000F21600006100066E65676174650076425F
:1016F000704706170000610003616273002E48BF47
:10170000D6F10006704724170000420005752F6DC2
:101710006F6401CF3100B0FBF6F67143401A043F0D
:1017200038607047421700004200042F6D6F64005C
:1017300001CF310090FBF6F67143401A043F386048
:101740007047561700004200036D6F6400B5FFF745
:10175000EFFF40CF00BD661700006200012F01CFF0
:1017600090FBF6F67047761700006A00012A01CF59
:1017700046437047464384170000610002322A0046
:101780007600704792170000610002322F00761039
:101790007047A61700006100046576656E000120A1
:1017A000304036187047BE17000081000462617334
:1017B000650047F8046D114E70470A000000D41709
:1017C000000000000662696E617279000B48022118
:1017D00001607047EA170000000007646563696DE7
:1017E000616C06480A21016070476A180000000019
:1017F000036865780148102101607047FC7F002074
:10180000854986480160864986480160864987483F
:10181000016087498748016441648160C16000219B
:1018200085480170854801708548017085480170C0
:101830000C21854801700021844801700B218448E7
:101840000170C021834801708821834801430170E1
:10185000C021804801708148012101708048082121
:1018600001700C21744801707047861800008100D7
:1018700009686F6F6B2D656D697447F8046D794E5B
:1018800070477C190000A2180000810008686F6F83
:101890006B2D6B65790047F8046D734E7047A21984
:1018A0000000C018000081000A686F6F6B2D656D25
:1018B00069743F0047F8046D6C4E7047D219000000
:1018C000DC180000810009686F6F6B2D6B65793F34
:1018D00047F8046D664E7047FE190000FA180000C4
:1018E00081000A686F6F6B2D70617573650047F832
:1018F000046D604E7047883B000010190000000026
:1019000004656D6974000FB5564800F02CF80FBDE2
:10191000241900000000036B65790FB5524800F0F0
:1019200022F80FBD3A190000000005656D69743F8B
:1019300000B54E4800F017F800BD50190000000037
:10194000046B65793F0000B5494800F00CF800BD14
:101950006A190000000005706175736500B545489F
:1019600000F001F800BD00688746901900000000F3
:101970000B73657269616C2D656D697400B500F05B
:1019800028F8002E40CFFAD03B48067040CF00BD6B
:10199000BE19000000000A73657269616C2D6B65E9
:1019A000790000B500F02BF8002E40CFFAD0334874
:1019B0000078314847F8046D0678F6B200BDEC199E
:1019C000000000000C73657269616C2D656D6974AF
:1019D0003F0000B5FFF7C2FF47F8046D0026274817
:1019E00080220178114000D0F64300BD841A000027
:1019F00000000B73657269616C2D6B65793F00B5F2
:101A0000FFF7ACFF47F8046D00261D48402201781F
:101A1000114000D1F64300BD003E00003880044074
:101A200000040000348004400000000010800440E6
:101A30000003000000A0044003A0064002A00640EE
:101A400006A0064005A006400AA0064000A00640E9
:101A500001A0064011A0064010A0064015A00640B7
:101A60000DA00640F87F0020F47F0020F07F0020CA
:101A7000EC7F0020E87F002007A0064004A006407D
:101A800012A00640A81A0000000007636578706580
:101A9000637400B5386801B40130386000F00BF8A9
:101AA00001BC067040CF00BD1A1B0000000006619B
:101AB00063636570740000B502CF01390022FFF73F
:101AC0002CFF300040CF202819D2092816D00A2830
:101AD0001FD00D281DD00828F1D1002AEFD000F02A
:101AE00011F903082008002AE9D0885C013A802314
:101AF0000340E4D040230340F5D0E0E72020B24289
:101B0000DDD247F8046D0600FFF7FDFE0132885470
:101B1000D5E7160000F0A2F800BD2C1B0000400025
:101B20000374696247F8046D294E7047421B000038
:101B30008100033E696E47F8046D264E7047000031
:101B40000000681B000082000E63757272656E747F
:101B50002D736F757263650047F8046D1E4E7047F4
:101B6000000000006480FF1F841B00000000097358
:101B70006574736F75726365174802CF06604160C4
:101B800040CF7047A21B0000000006736F757263A0
:101B9000650047F8046D104E043F70683860366881
:101BA0007047DC1B000000000571756572790FB588
:101BB000084800210160FFF7B5FF47F8046D47F8BA
:101BC000046DC826FFF777FFFFF7D6FF0FBD0000B3
:101BD0006480FF1FE47F0020DC7F00202A1C0000BF
:101BE000000007636F6D706172650FB5310040CF03
:101BF00001CF884202D040CF00260FBD02CF00287F
:101C000010D001380A5C335C412A02D35B2A38BF0A
:101C10002032412B02D35B2B38BF20339A42EED0C7
:101C200000260FBD0026F6430FBD3E1C000000003D
:101C30000263720000B500F065F8010A00BD501C97
:101C40000000000002626C0047F8046D2026704717
:101C5000641C0000000005737061636547F8046D43
:101C6000202650E68A1C0000000006737061636540
:101C7000730000B5002E06DD47F8046D2026FFF73F
:101C800042FE013EF8D140CF00BD9A1C000050003A
:101C9000065B636861725D0005E0B21C0000000035
:101CA00004636861720000B501F09CFB40CF367898
:101CB00000BDC21C00005000012847F8046D292611
:101CC00006E0DC1C00005000015C47F8046D0026B3
:101CD00000B501F091FB043740CF00BD201D00008E
:101CE0001000022E2200B44800B547F8046D06002B
:101CF00000F08FFA47F8046D222601F07DFB00F01A
:101D0000B2FD00BD0AB447F8046D7646013E337853
:101D10000121013319405B181EEB030E0ABC39E0A8
:101D2000461D0000100002632200A448DCE747F8CB
:101D3000046D7646013E33780121013319405B186A
:101D40001EEB030E7047701D00001000027322008E
:101D50009B48C9E747F8046D764647F8046D013E95
:101D600036780121731C19405B181EEB030E704777
:101D7000881D0000000005636F756E74013647F81A
:101D8000046D013E36787047B01D00000000056309
:101D90007479706501B53078002807D0013647F8AE
:101DA000046D3678FFF7AFFD0138F7D140CF01BDA4
:101DB000DE1D00000000047479706500310040CF22
:101DC000300040CF00B5002908D0002247F8046D4C
:101DD000865CFFF798FD01329142F7D100BD161ED7
:101DE00000000000046865782E0003B5310040CF84
:101DF0002020043847F8046D31FA00F616F00F067B
:101E0000092E8CBF37363036FFF77DFD0028F0D124
:101E1000FFF724FF03BD261E0000000003682E7399
:101E20001FB5684C0EE0361E0000000003752E73CF
:101E30001FB5654C06E0B41E00000000022E7300C2
:101E40001FB5624C6249C91B8908624A106803B415
:101E50000A201060FFF756FF08537461636B3A2045
:101E60005B0047F8046D0E0001F08EFCFFF74AFF9F
:101E7000025D200003BC574A106000290AD0564A70
:101E8000106806B447F8046D0600A04706BC043A83
:101E90000139F5D1FFF736FF0620544F533A2000A1
:101EA00047F8046D3600A047FFF72CFF04202A3EB8
:101EB0000A001FBD021F000000000464756D700061
:101EC00000B5300040CF2021FFF71CFF07206475CC
:101ED0006D703E0A47F8046D0600FFF786FFFFF7B6
:101EE00011FF023A2000028847F8046D1600FFF740
:101EF0007CFFFFF707FF03203E0A02300139E9D1DA
:101F000000BDDC1F0000000005776F72647300B530
:101F1000FFF7F8FE06776F7264730A0000F0D9FECF
:101F2000300040CF8179FF2944D0FFF7EBFE094113
:101F30006464726573733A2047F8046D0600FFF716
:101F400054FFFFF7DFFE064C696E6B3A2000026813
:101F5000043047F8046D1600FFF747FF0188023090
:101F6000FFF7D0FE07466C6167733A2047F8046DAF
:101F70000E00FFF73AFF47F8046D060000F0C6FEBA
:101F8000FFF7C0FE06436F64653A200047F8046D12
:101F90000600FFF72AFFFFF7B5FE064E616D653AB2
:101FA0002000FFF7F7FEFFF7ADFE010A501C01D03D
:101FB0001000B7E700BD0000041D00002E1D00004A
:101FC000541D0000EB1D0000793700008937000028
:101FD0002C82FF1FFC7F00202882FF1F4021000071
:101FE00000000D3132626974656E636F64696E67FB
:101FF0000FB5FF2E04D847F8046D5FF0FF360FBD14
:1020000016F0FF10B0420ED14FF6FF710840310CB0
:10201000814208D116F0FF0656F4805647F8046D49
:102020005FF0FF360FBD16F0FF20B0420FD14FF624
:10203000FF710840310C814209D1360A16F0FF06C3
:1020400056F4005647F8046D5FF0FF360FBDFF22CF
:1020500031001140300A1040884210D1300C10403D
:1020600088420CD1300E1040884208D116F0FF068D
:1020700056F4405647F8046D5FF0FF360FBD300050
:1020800000210131001850F100007FF07F02024072
:10209000802A05D01F29F4D347F8046D00260FBD10
:1020A0000829F9D3060036F0800611F00100C001BE
:1020B000064311F00E00C002064311F01000800527
:1020C000064347F8046D5FF0FF360FBD47F8046D17
:1020D000DFF8DC655FF4704110EA0102120116437B
:1020E0005FF4006110EA0102D20316435FF4E0617D
:1020F00010EA010212011643FF2110EA0102164301
:102100001E43A0E347F8046DDFF8A8655FF0704157
:1021100010EA0102120B16435FF0006110EA01029F
:10212000520816435FF0E06110EA0102120B1643F9
:102130005FF47F0110EA0102120C16431E4382E392
:10214000A621000000001072656769737465726CE7
:1021500069746572616C2C000FB5330040CF1B02AF
:10216000FF2E05D856F400561E4300F044FB0FBD69
:10217000FFF73EFF002E40CF06D0DFF83C050643B8
:102180001E4300F060FB0FBDF643FFF731FF002E4A
:1021900040CF06D0DFF8240506431E4300F053FB72
:1021A0000FBDF6430BE0062200000000096D6F76BC
:1021B000776D6F76742C0FB5330040CF1B02300063
:1021C00040CFFFF783FF4FF6FF7110EA014001D0C7
:1021D000FFF798FF0FBD0FB50136300040CF002349
:1021E000FFF774FFFFF78EFF06E00FB5013647F8E3
:1021F000046D0026FFF7B0FF47F8046D44F28076C7
:1022000000F0F9FA0FBD6C22000000000563616C5C
:102210006C2C0FB5330000F01CFE300040CF1B1AB1
:10222000043BDFF89C141940002906D0DFF8942401
:10223000914202D0BDE80F40D7E740CF5B08DFF8FE
:10224000880440F2FF7119400843DB0A40F2FF3175
:102250001940090408439B0A13F001018906084349
:1022600047F8046D060000F0EEFA0FBDA222000050
:102270000000086C69746572616C2C0008B547F841
:10228000046D4FF6470600F0B6FA47F8046D46F6BF
:10229000045600F0B0FA47F8046D0626FFF75CFF1D
:1022A00008BDC62200000000066372656174650007
:1022B00000B500F033F842F2E320804747F8046DA0
:1022C000BEF1010600BD0E230000200005646F650D
:1022D000733E42F2E320804747F8046DBEF10106E9
:1022E000704747F8046DBEF1010600F0B1F8F74AF7
:1022F0001368310040CF0220084000D00231023183
:102300001160FFF768FF136000F0F3F900BD502380
:1023100000000000073C6275696C647300B500F052
:102320006DFB00F096FD0220064040CF04D047F838
:10233000046D362600F05FFA47F8046D4BF2005644
:1023400000F059FA47F8046D0A2600F0BFFA00BD04
:102350005C2300005000035B275D03E07223000054
:102360000000012700B501F03DF800F010FD40CF5E
:1023700000BDBC230000100008706F7374706F6E96
:10238000650000B501F02EF800F001FD300040CFEF
:102390001021014010290ED020210140202905D113
:1023A000FFF76CFF47F8046DC94E04E0FFF766FFC6
:1023B00047F8046DC74EFFF72CFF00BD1224000044
:1023C000000007696E6C696E652C00B54BF2005118
:1023D0004BF6005244F270733088884208D0904225
:1023E00008D0984206D047F8046D060000F003FAC2
:1023F0000236F1E740CF00BD0EB44BF6005244F276
:10240000707301880230914201D09942F9D10EBC1B
:102410007047282400000000047265742C0047F8FF
:10242000046D4BF60056E6E13624000030000465EA
:1024300078697400F3E78424000030000772656354
:102440007572736500B500F003F8FFF7E2FE00BD9A
:102450000FB5A148006806300178FF2909D147F877
:10246000046D060001B4FFF76BF801BCFF21314099
:1024700040CF013101220A408918401847F8046D05
:1024800006000FBD9C240000810005737461746513
:1024900047F8046D914E704700000000AE24000024
:1024A0000000015D8D480021C94301607047BE24D2
:1024B00000001000015B8948002101607047E6249C
:1024C00000000000013A00B58548076000F096FA68
:1024D00047F8046D4BF2005600F08DF97F4800215B
:1024E000C943016000BD2E2500003000013B00B54E
:1024F0007B480168B9420ED0FFF704FC15205374E5
:1025000061636B206E6F742062616C616E636564E1
:102510002E0A01F0E0BA47F8046D4BF6005600F0C1
:102520006AF900F0E6F86D480021016000BD44251D
:10253000000000000765786563757465300040CF62
:10254000013087465C250000100009696D6D6564E7
:102550006961746547F8046D1026FCE0722500007F
:10256000100006696E6C696E650047F8046D2026E0
:10257000F1E08C25000010000B636F6D70696C65D5
:102580006F6E6C7947F8046D3026E4E0A6250000F4
:1025900010000A302D666F6C6461626C650047F84C
:1025A000046D4026D7E0C025000010000A312D66DA
:1025B0006F6C6461626C650047F8046D4126CAE087
:1025C000DA25000010000A322D666F6C6461626CBF
:1025D000650047F8046D4226BDE0F42500001000B8
:1025E0000A332D666F6C6461626C650047F8046D98
:1025F0004326B0E00E26000010000A342D666F6CF2
:102600006461626C650047F8046D4426A3E02826E7
:10261000000010000A352D666F6C6461626C650005
:1026200047F8046D452696E04226000010000A3661
:102630002D666F6C6461626C650047F8046D462618
:1026400089E05C26000010000A372D666F6C64611B
:10265000626C650047F8046D47267CE08C2600001C
:10266000000008636F6E7374616E740000B500F053
:10267000C5F9FFF703FE47F8046D44F2707600F0E9
:10268000BAF8FFF78CFF00F034F800BDE426000034
:1026900000000932636F6E7374616E7400B500F0F0
:1026A000ADF939683E600E46FFF7E8FDE1E700004E
:1026B000000040F20000C0F200005FF000007FF078
:1026C0000100C0FF0000C0FF00F800F00080FF1F05
:1026D000CA230000122200000480FF1FD87F0020C0
:1026E0001080FF1F46270000000006736D756467A9
:1026F000650000B525480168244A914280F01D809C
:1027000002390A88224B9A4204D147F8046D002608
:1027100000F071F800F05EF81E48006847F8046D9C
:1027200006001D4909680431184A1368116000F059
:1027300062F81360FEF7E2FE00BD00F04BF847F8C8
:10274000046D002608E09C270000000008736574F3
:10275000666C6167730000B50C4801680B4A9142D2
:1027600080F006800B4801683143016040CF00BD16
:10277000320040CF0848006804300188044B994279
:102780000CBF11461143018000BD00000080FF1FF7
:10279000FFFF00001C80FF1F0480FF1FAA2700000E
:1027A000000005616C69676E14E0C62700004100F7
:1027B00007616C69676E656401203040361802203D
:1027C000304036187047EC270000000007616C6944
:1027D000676E342C00B57F4801680220014004D0A8
:1027E00047F8046D002600F006F800BD222800001E
:1027F000000002682C000FB576480168754A9142C6
:1028000080F0068047F8046D0E00FEF7D0FE02E06F
:10281000320040CF0A8047F8046D022600F056F8D7
:102820000FBD3C2800000000012C00B547F8046DE6
:10283000FFF7E1FF360CFFF7DEFF00BD5828000070
:102840000000033E3C2C00B547F8046D360CFFF742
:10285000D2FFFFF7D0FF00BDC028000000000773C3
:102860007472696E672C07B5FF21314040CF30008C
:1028700040CF002905D147F8046D0026FFF7BBFFC4
:1028800007BD47F8046D067836020E43FFF7B3FF25
:102890000130013902290AD347F8046D467836021F
:1028A00002781643FFF7A7FF02300239F2E700294A
:1028B00000D107BD47F8046D0678FFF79CFF07BD00
:1028C0001A290000000005616C6C6F7441480168B2
:1028D000404A91420FD2320040CF89183E4A91427D
:1028E00019D3FFF70FFA0B466C6173682066756C9D
:1028F0006C0A01F0F0B8320040CF8918374A1268EC
:10290000914208D3FFF7FEF90952616D2066756C9C
:102910006C0A01F0E0B80160704742290000000035
:102920000D636F6D70696C65746F72616D3F47F810
:10293000046D0026274800682649884248D3F6439C
:1029400070476229000000000C636F6D70696C6550
:10295000746F72616D001F4800681E49884211D370
:102960007047EC29000000000E636F6D70696C65A4
:10297000746F666C61736800164800681549884278
:1029800000D270471648174902680B680A60036056
:102990001048154902680B680A6003600F48006818
:1029A000834215D300B5FFF7ADF923205661726954
:1029B00061626C657320636F6C6C69646520776914
:1029C00074682064696374696F6E6172790A00BD0E
:1029D000704700000080FF1F000004002080FF1FE0
:1029E0000480FF1F1880FF1F1480FF1FD02A0000E3
:1029F00000000828637265617465290000B500F065
:102A0000F1FC002E0ED1FFF77DF9152043726561B0
:102A10007465206E65656473206E616D6520210AA2
:102A200001F059B8386847F8046D043F386000F089
:102A30007CF940CF002E40CF11D0386847F8046DA4
:102A4000043F3860FFF75EF9095265646566696E98
:102A50006520FFF7B3F9FFF755F9022E0A00FFF7DB
:102A6000B9FE00F0F6F98E4800688D49884280F082
:102A70001C808C480021016047F8046D0626FFF792
:102A800025FFFEF701F9FFF7EEFE874801680A68A7
:102A9000531C07D1824A1368116047F8046DFFF791
:102AA000C4FE1360066040CF00BD7F4847F8046D48
:102AB0000668FFF7BAFE47F8046D0026F643FFF7F5
:102AC0009AFE7948310040CF0160FFF7CCFE00BD8F
:102AD000E82A00000000087661726961626C650096
:102AE00047F8046D012613E0002B000000000932B6
:102AF0007661726961626C6547F8046D022607E0D1
:102B0000DC2B00000000096E7661726961626C6501
:102B100000B5FFF773FF62480168614A914280F097
:102B200035800F200640B20060480168891A604A6B
:102B300091420BD2FFF7E6F80F4E6F7420656E6F6F
:102B40007567682052414D0A00F0C5BF016047F823
:102B5000046D0E00FFF792FB47F8046D44F27076A7
:102B6000FFF749FE300040CF0200002805D00E607C
:102B70000431FFF75AFE0138F9D147F8046D802679
:102B80001643FFF7E8FDFFF7B4FD00BD00F061F963
:102B90000220064040CF04D147F8046D3626FFF7E7
:102BA0002AFE47F8046D434EFFF74DFE47F8046DCB
:102BB000414EFFF748FE47F8046D44F27076FFF788
:102BC0001AFE300040CF002803D0FFF72EFE013858
:102BD000FBD1FFF7E4FCFFF78CFD00BDBC2C00002F
:102BE0000000076275666665723A00B5FFF706FF7A
:102BF000012030403618022030403618284801683D
:102C0000274A914280F0298028480168891B284A78
:102C100091420BD2FFF776F80F4E6F7420656E6FFE
:102C20007567682052414D0A00F055BF016047F8B2
:102C3000046D0E00FFF722FB47F8046D44F2707636
:102C4000FFF7D9FDFFF7F1FD47F8046D40F240169C
:102C5000FFF781FDFFF74DFD00BD00F0FAF80220FF
:102C6000064040CF04D147F8046D3626FFF7C3FD78
:102C700047F8046D0F4EFFF7E6FD47F8046D0E4E62
:102C8000FFF7E1FD47F8046D44F27076FFF7B3FDFE
:102C9000FFF71CFEFFF783FCFFF72BFD00BD0000D4
:102CA0000080FF1F1C80FF1F0480FF1F2080FF1F6C
:102CB000EC83FF1F3E60043F02367E46EC2C000092
:102CC00000000F44696374696F6E61727973746197
:102CD000727434480068344B1B68324947F8046DFD
:102CE000884201D2314E70471E0070471E2D0000F1
:102CF00000000A736B6970737472696E67003178D3
:102D0000013101220A4089187618704706B401780B
:102D1000013101220A408918401806BC7047B42DC1
:102D2000000000000466696E64003FB5350040CFC6
:102D30003400FFF7CEFF300040CF0026002381791A
:102D4000FF2920D081881A4A9142026817D00630A4
:102D500047F8046D0600FFF711F847F8046D2600E8
:102D600047F8046D2E00FEF740FF002E40CF06D03E
:102D7000FFF7CCFF06000B000A48864203D2501C26
:102D800001D01000DBE747F8046D1E003FBD00B521
:102D900031003868FFF7C9FF3A68002A01D100F016
:102DA00067FD00BD0080FF1F0480FF1F300400008E
:102DB000FFFF00000E2E0000000006636A756D70B4
:102DC0002C00320040CF310040CF8B1B043BA34985
:102DD000194000290DD0A24881420AD0FEF792FF87
:102DE0000D4A756D7020746F6F206661720A00F075
:102DF00072BE5B10FF210B40134330001E0000B574
:102E0000984A13681060FFF7F6FC136000BD462E69
:102E100000000000056A756D702C310040CF300055
:102E200040CF0B1A043B90491940002902D08F4A29
:102E30009142D3D15B108E4A134053F4604347F85C
:102E4000046D1E00DBE75C2E000000000468657264
:102E5000650047F8046D834E36687047582F0000B0
:102E600000000D666C6173687661722D686572652D
:102E700047F8046D7F4E3668704700B547F8046D1B
:102E800042F60066FFF7B7FC47F8046D4CF6407653
:102E9000FFF7B1FC00BDDCE700B500F03AF8396897
:102EA0003E600E4647F8046D4DF20016FFF789FFAD
:102EB00000BD00B500F02DF839683E600E4647F8B9
:102EC000046D4DF20076FFF77CFF00BD00B5FFF703
:102ED000D4FF00F01EF839683E600E4647F8046DD6
:102EE0004DF20006FFF76DFF00BD00B500F011F8D0
:102EF00039683E600E46FFF790FF00BD00B5FFF752
:102F0000BCFFFFF7A6FF47F8046D0226FFF7DEFCC3
:102F100000BD00B5FFF79DFF47F8046D0226FFF7DF
:102F2000D5FC00BD00B5FFF794FFFFF776FF00BDAD
:102F300000B5FFF78EFF47F8046D4DF20006FFF76E
:102F400040FF00BD00B5FFF784FF47F8046D4DF268
:102F50000016FFF736FF00BD942F00003000047408
:102F600068656E00052E01D140CFDBE7022E01D14E
:102F700040CFDDE7FEF7C6FE1753747275637475B4
:102F800072657320646F6E2774206D617463680AC4
:102F900000F0A1BDC02F0000300004656C73650017
:102FA00000B5022E7FF4E6AF40CFFFF7B2FF3968DD
:102FB0003E600E46FFF7BCFF47F8046D052600BDD6
:102FC000D82F000030000269660000B5FFF796FFB9
:102FD00047F8046D022600BDFE2F00003000067287
:102FE000657065617400042EC4D140CF39683E60BD
:102FF0000E4600B5FFF779FFFFF79AFF00BD1A30C4
:1030000000003000057768696C65012EB2D140CFB1
:1030100000B5FFF7DAFF023600BD2E3000003000A9
:1030200005756E74696C012EA4D140CF4EE7423015
:103030000000300005616761696E012E9AD140CFB2
:1030400053E778300000300005626567696E00B5AF
:10305000FFF721FF47F8046D012600BD01FFFFFFC8
:1030600000FFFFFF0080FF1F01F8FFFF00F8FFFFD8
:10307000FF0700002080FF1F883000002000016B48
:1030800047F8046D029E7047983000002000016AE6
:1030900047F8046D009E7047A830000020000169C9
:1030A00047F8046D26007047E83000003000056CDA
:1030B0006561766500B5684801683B00043F1A68A1
:1030C000043B1A60043304338B42F8D103B4FFF796
:1030D00020FF03BC330040CF04390B60016004398A
:1030E0000A6801320A6000BDFA300000200006754F
:1030F0006E6C6F6F700030BC704732310000300072
:10310000052B6C6F6F70032E00D033E740CF00B5F6
:1031100047F8046D514EFFF758F9FFF7CAFE1AE061
:1031200014F10044641BA41940CF2C44A4F10044C2
:103130007047743100003000046C6F6F7000032E14
:1031400000D017E740CF00B547F8046D444EFFF7B5
:103150003CF9FFF7A1FE00F023F93F48310040CFD2
:10316000016047F8046D3F4EFFF72FF900BD0134B1
:10317000AC427047BC310000780002646F0000B5BB
:1031800047F8046D384EFFF720F93348016847F8D7
:10319000046D0E0047F8046D00260760FFF77BFE04
:1031A00047F8046D032600BD00B500F02FF8ECE7EA
:1031B00030B4340040CF350040CF70476C3200004F
:1031C0007800033F646F00B547F8046D264EFFF7A3
:1031D000FCF847F8046D44F2AC26FFF70CFB1E48E0
:1031E000016847F8046D0E00FFF793FE013647F8BB
:1031F000046D012618480760FFF74DFE47F8046D7F
:10320000032600BD00B500F001F8E2E700B547F87D
:10321000046D4BF23046FFF7EEFA47F8046D0426D2
:10322000FEF79AFF013B08D047F8046D0526FEF72C
:1032300093FF013B00F028FC00BD47F8046D3526E4
:10324000FFF7D9FA47F8046D4CF64076FFF7D3FA4A
:1032500000F01AFC00BD00000C80FF1F20310000B0
:103260006E310000F6300000B03100008632000000
:10327000300004636173650047F8046D002647F869
:10328000046D082670479C3200003000033F6F66D3
:103290004D4809E0013EB64140CF70474033000041
:1032A0007800026F66004948082E00D062E640CFE1
:1032B00000B547F8046D0600FFF787F8FFF729FE11
:1032C00039683E600E46013647F8046D092647F816
:1032D000046D4CF64076FFF78EFA00BD00B5300065
:1032E00040CF013B01B400F0CFFB01BC082E00D061
:1032F00040E640CF47F8046D0600FF213140B1425F
:1033000004D133490E43FFF776FAD7E7FEF770FE94
:10331000002E40CF04D02F480643FFF794FACDE7A4
:1033200047F8046D0026FEF717FF47F8046D44F2D6
:10333000B026FFF760FAC1E7300040CFB0427047D7
:1033400076330000300005656E646F66092E00D08C
:1033500010E640CF00B540B440CFFFF7DAFD396842
:103360003E600E46FFF7EEFD47F8046D40BC47F89F
:10337000046D082600BDD8330000300007656E6478
:1033800063617365082E00D0F4E540CF00B547F8BF
:10339000046D4CF64076FFF72EFA00F001F800BD00
:1033A00000B5300040CF00280DD003B401213140DA
:1033B000002903D0013EFFF7BBFD01E0FFF7B2FD9E
:1033C00003BC0138EFE700BD943200003833000041
:1033D000002E0000000FB6F1EC3300000000057471
:1033E0006F6B656E47F8046D202605E048340000D9
:1033F000000005706172736510B5FEF7CAFB3100FD
:1034000040CF300040CF0F4A12688418202E07D1D9
:1034100091420FD0835CB34202D101328418F7E7A6
:10342000914207D0835C0132B342F9D18618361B32
:10343000013E01E08618361B043F3C6001480260F3
:1034400010BD0000E47F0020863400000000056409
:1034500069676974CE4B1B68303E0BD30A2E0BD3C1
:10346000073E0A2E06D3242E06D3203E0A2E01D371
:10347000242E01D3002670479E42FBD247F8046DEC
:103480000026F6437047903500000000066E756D0B
:10349000626572003FB5310040CF701E01260122E7
:1034A00004B4BB4B1B680024002500293CD001302C
:1034B000013902782D2A04D101B00022D24304B48C
:1034C000F3E7232A01D10A23EFE7242A01D11023AD
:1034D000EBE7252A01D10223E7E72E2A01D10226B4
:1034E000E3E72C2A36D047F8046D1600FFF7B4FF47
:1034F000002E40CF2BD047F8046D260047F8046D0E
:103500002E0047F8046D1E0047F8046D00260FB426
:10351000FDF7C7F80FBC350040CF340040CF002284
:10352000A419554140CFC0E704BC002A04D50022AD
:10353000E443ED430134554133002600012B02D012
:1035400047F8046D2E0047F8046D1E003FBD01B022
:1035500000263FBD2500002402260029E4D0425C5D
:1035600001392E2AF9D047F8046D1600FFF774FFD1
:10357000002E40CFEBD0043F3C6047F8046D1E00A6
:103580000FB4FDF73DF90FBC340040CF40CFE4E766
:10359000B03500000000062E6469676974000A2EC9
:1035A0003CBF303603E0242E34BF37362326704725
:1035B000E6350000000004686F6C6400330040CF03
:1035C000744801783F290DD201310170401801295A
:1035D00007D0013802780130027001380139012921
:1035E000F7D10370704706360000000005686F6C65
:1035F000643C330040CF674801783F2902D2013153
:103600000170435470471E36000000000473696760
:103610006E00002E01D440CF70472D26CEE7323603
:103620000000000002233E005A480678013038604E
:1036300070474A36000000000366235310B520246B
:1036400000F008F8013CFBD110BD6C360000000012
:103650000266230000B547F8046D4D4E3668FDF74D
:103660000CF8FFF79CFFFFF7C4FF00BD8836000091
:1036700000000223530000B500F00AF8002EFBD131
:1036800038680028F8D100BDB436000000000123DE
:1036900000B547F8046D3E4E366847F8046D0026C5
:1036A000FDF70EF9FCF7F2FE40CFFFF778FFFFF7CA
:1036B00085FF00BDC63600000000023C23003548EF
:1036C000002101707047D8360000000002662E000D
:1036D00047F8046D202604E026370000000003664A
:1036E0002E6E00B510B4340040CFFDF7B7FAFCF7EA
:1036F00080FF47F8046D0026FFF7E1FFFFF7BBFFEF
:1037000040CF2C26FFF775FF002C03D0FFF7A2FF58
:10371000013CFBD110BC40CFFFF77BFF47F8046DA5
:1037200047F8046D1CE03C37000000000375642E70
:1037300000B5FFF7C4FFFFF79EFF11E06E370000F2
:10374000000002642E0000B5FDF788FAFCF751FF77
:10375000FFF7B5FFFFF78FFFFDF78AFAFFF759FF75
:10376000FFF762FFFEF72AFBFEF778FA00BD80370D
:103770000000000002752E0047F8046D0026D7E710
:10378000983700000000012E47F8046DF617DAE7BD
:10379000FC7F00202480FF1FE03700000000086548
:1037A00076616C756174650000B5FEF7F2F901CFC2
:1037B00001B440B440CFD848016802B40021016090
:1037C000FEF7DAF900F014F8D34802BC016047F8BC
:1037D000046D40BC01BC043F3860FEF7CDF900BD6C
:1037E000AE3A0000000009696E746572707265740B
:1037F00030B5CA4887420BD9FEF784FA105374617A
:10380000636B20756E646572666C6F770A0062E1A7
:10381000C34887420AD2FEF775FA0F537461636B8F
:10382000206F766572666C6F770A54E1BD4C25682F
:10383000002D01D13D002560FFF7D4FD002E02D1FF
:10384000043740CF30BD386847F8046D043F386016
:10385000FFF76BFA310040CF320040CF002A13D17E
:1038600038683100FFF716FE320040CF002AC0D181
:10387000FEF7A8FAFEF746FA0C206E6F7420666F0A
:10388000756E642E0A0026E1A74B1B68002B1DD124
:103890000025256030230B40302B0ED1FEF78EFA29
:1038A000FEF730FA1220697320636F6D70696C65E2
:1038B0002D6F6E6C792E0A000DE1043740CF47F86A
:1038C000046D1600FEF73AFEFFF793FF043740CF72
:1038D00080200840802810D0EB1B9B084020084027
:1038E000402810D108200840082802D1002B00D021
:1038F0001FE00F200840834205D347F8046D1600EF
:10390000FEF71CFE75E700F0BFF847F8046D1600DF
:1039100010220A40102A02D1FEF710FE69E7202289
:103920000A40202A02D1FEF750FD62E7FEF771FC43
:103930005FE7072001401000FEF75EFD01291FD15F
:10394000012BDAD1FF213140B14204D14088064336
:10395000FEF751FF4DE7FEF74BFB002E40CF04D0A2
:1039600040680643FEF76FFF43E747F8046D002603
:10397000FEF7F2FB47F8046D0688FEF73CFF38E7D8
:10398000022902D1012BB8D1EFE7032926D1012B5F
:10399000B3D1FF213140B1420AD164490E43FEF751
:1039A0002AFF043247F8046D1600FEF70EFD20E7EB
:1039B000FEF71EFB002E40CF04D05D490E43FEF7FC
:1039C00042FFEEE747F8046D0026FEF7C5FB023222
:1039D00047F8046D1600FEF7F8FC0AE7042918D131
:1039E000012B8AD1330040CF002B00D101E71F22E9
:1039F0001A409A4205D047F8046D4688FEF7FBFE50
:103A0000F7E647F8046D06889B011E43FEF7F3FEB8
:103A1000EFE6052924D1012B10D147F8046D0026CB
:103A2000FEF79AFB47F8046D0600FEF7CEFC47F858
:103A3000046D4CF64076FEF7DEFEDAE647F8046DDC
:103A40000026FEF789FB47F8046D0126FEF784FB8C
:103A5000FEF7D2FC47F8046D0600FEF7B6FCC8E698
:103A600006290ED1012B7FF448AFFEF7C1FA002ED4
:103A700040CF3FF47AAFD0F802000643FEF7E3FEF2
:103A8000B7E601308047B4E600B5002B0CD0013B0F
:103A900047F8046D1E0057F82660FEF7EFFB002B79
:103AA000F5D1043D2F0040CF0025256000BDCA3A66
:103AB0000000810009686F6F6B2D7175697447F89C
:103AC000046D1C4E7047023B0000483B00000000A4
:103AD000047175697400DFF860D0104FFDF706FDC2
:103AE00016480A2101601048002101600D4801605C
:103AF0000948016012480160124941600D480068A0
:103B00008746FEF754F8FFF773FEFEF7FBF8052033
:103B10006F6B2E0AF5E70000E47F00202C82FF1F68
:103B20002C81FF1F0880FF1FD87F0020003E00006F
:103B30000006B6F1D47F00202C83FF1FFC7F0020FD
:103B4000DC7F00206480FF1F583B000020000465DC
:103B5000696E740062B67047683B00002000046420
:103B6000696E740072B670477E3B000020000469E5
:103B70007073720047F8046DEFF3058670478A3B57
:103B800000000000036E6F707047B43B00008100BE
:103B90000B6972712D7379737469636B47F8046DE7
:103BA000EE4E7047883B000047F6D070C2F200002E
:103BB00000688746DC3B00008100096972712D6650
:103BC00061756C7447F8046DE54E70471004000091
:103BD00047F6CC70C2F2000000688746043C000043
:103BE0008100086972712D616463300047F8046DCB
:103BF000DC4E7047883B000047F6C870C2F20000F8
:103C0000006887462C3C00008100086972712D61B4
:103C10006463310047F8046DD34E7047883B000061
:103C200047F6C470C2F2000000688746543C0000AA
:103C30008100086972712D636D70300047F8046D62
:103C4000CA4E7047883B000047F6C070C2F20000C1
:103C5000006887467C3C00008100086972712D6312
:103C60006D70310047F8046DC14E7047883B00000D
:103C700047F6BC70C2F2000000688746A43C000012
:103C80008100086972712D636D70320047F8046D10
:103C9000B84E7047883B000047F6B870C2F200008B
:103CA00000688746CA3C00008100076972712D6474
:103CB000616347F8046DB04E7047883B000047F6DB
:103CC000B470C2F2000000688746F23C0000810038
:103CD000096972712D706F72746147F8046DA74E97
:103CE0007047883B000047F6B070C2F200000068E1
:103CF00087461A3D00008100096972712D706F724C
:103D0000746247F8046D9E4E7047883B000047F68A
:103D1000AC70C2F2000000688746423D000081009E
:103D2000096972712D706F72746347F8046D954E56
:103D30007047883B000047F6A870C2F20000006898
:103D400087466A3D00008100096972712D706F72AB
:103D5000746447F8046D8C4E7047883B000047F64A
:103D6000A470C2F2000000688746923D0000810006
:103D7000096972712D706F72746547F8046D834E16
:103D80007047883B000047F6A070C2F20000006850
:103D90008746BC3D000081000A6972712D55415271
:103DA0005430530047F8046D794E7047883B00004B
:103DB00047F69C70C2F2000000688746E63D0000AE
:103DC00081000A6972712D5541525430450047F8FF
:103DD000046D704E7047883B000047F69870C2F241
:103DE00000000068874600400000FFFF182D2D2DC1
:103DF00020466C6173682044696374696F6E6172F8
:103E000079202D2D2D00002163484CF22052C281D3
:103E10004DF62812C281028822F001020280FDF7CD
:103E2000EFFC5E4885465E4F2A265E485E4901608B
:103E30005E485F4901605E485E4D040002680430E0
:103E4000018802304FF6FF73994222D05A4B0B4043
:103E500009D0FEF75BFFFEF7CFFA03884088000425
:103E60000343ED1A15E080230B4012D00F231940B5
:103E700089006D1AFEF74AFFFEF7BEFA47F8046D97
:103E8000060047F8046D2E0047F8046D0E00FDF79C
:103E900075F8501C05D0100006321278FF2A00D0A9
:103EA000CBE7464804604648056046484649474ACD
:103EB000884204D0023803889342F9D00230444942
:103EC0000860FDF713FBFDF71DFF294D656372695F
:103ED00073702D5374656C6C6172697320322E306F
:103EE0002E31206279204D61747468696173204BB2
:103EF0006F63680AFDF706FF38436F6E6669677582
:103F0000726174696F6E20666F72205465656E739E
:103F10007920332E3120706C6174666F726D20626F
:103F200079204D61726B205363687765697A657299
:103F30000A0028480021016047F8046D264E47F822
:103F4000046D0426FEF7F1FE40CF002E02D0FEF7EE
:103F5000F5FAD3E540CFBEE5696E6974D07F0020E5
:103F6000CC7F0020C87F0020C47F0020C07F0020BD
:103F7000BC7F0020B87F0020B47F0020B07F0020ED
:103F8000AC7F0020A87F0020A47F0020A07F00201D
:103F90009C7F0020987F0020002005402C83FF1F7D
:103FA0002C82FF1F0080FF1FEC83FF1F0480FF1F78
:103FB0003004000000800020000100001880FF1F76
:103FC0002080FF1F0000040000400000FFFF0000F1
:0C3FD0001480FF1F0880FF1F583F0000F6
:00000001FF
